Component: ARM Compiler 5.06 update 7 (build 960) Tool: armlink [4d3601]

==============================================================================

Section Cross References

    bsp.o(i.BEEP_OFF) refers to stm32f4xx_tim.o(i.TIM_CtrlPWMOutputs) for TIM_CtrlPWMOutputs
    bsp.o(i.BEEP_OFF) refers to stm32f4xx_tim.o(i.TIM_Cmd) for TIM_Cmd
    bsp.o(i.BEEP_ON) refers to stm32f4xx_tim.o(i.TIM_Cmd) for TIM_Cmd
    bsp.o(i.BEEP_ON) refers to stm32f4xx_tim.o(i.TIM_CtrlPWMOutputs) for TIM_CtrlPWMOutputs
    bsp.o(i.BSP_Init) refers to stm32f4xx_rcc.o(i.RCC_AHB1PeriphClockCmd) for RCC_AHB1PeriphClockCmd
    bsp.o(i.BSP_Init) refers to stm32f4xx_rcc.o(i.RCC_APB1PeriphClockCmd) for RCC_APB1PeriphClockCmd
    bsp.o(i.BSP_Init) refers to stm32f4xx_gpio.o(i.GPIO_Init) for GPIO_Init
    bsp.o(i.BSP_Init) refers to stm32f4xx_gpio.o(i.GPIO_SetBits) for GPIO_SetBits
    bsp.o(i.BSP_Init) refers to stm32f4xx_gpio.o(i.GPIO_PinAFConfig) for GPIO_PinAFConfig
    bsp.o(i.BSP_Init) refers to stm32f4xx_tim.o(i.TIM_TimeBaseInit) for TIM_TimeBaseInit
    bsp.o(i.BSP_Init) refers to stm32f4xx_tim.o(i.TIM_OC1Init) for TIM_OC1Init
    bsp.o(i.BSP_Init) refers to stm32f4xx_tim.o(i.TIM_Cmd) for TIM_Cmd
    bsp.o(i.BSP_Init) refers to stm32f4xx_tim.o(i.TIM_CtrlPWMOutputs) for TIM_CtrlPWMOutputs
    bsp.o(i.FSMCHighSpeed_LCD_Init) refers to stm32f4xx_fsmc.o(i.FSMC_NORSRAMDeInit) for FSMC_NORSRAMDeInit
    bsp.o(i.FSMCHighSpeed_LCD_Init) refers to stm32f4xx_rcc.o(i.RCC_AHB3PeriphClockCmd) for RCC_AHB3PeriphClockCmd
    bsp.o(i.FSMCHighSpeed_LCD_Init) refers to stm32f4xx_fsmc.o(i.FSMC_NORSRAMInit) for FSMC_NORSRAMInit
    bsp.o(i.FSMCHighSpeed_LCD_Init) refers to stm32f4xx_fsmc.o(i.FSMC_NORSRAMCmd) for FSMC_NORSRAMCmd
    bsp.o(i.FSMCLowSpeed_LCD_Init) refers to stm32f4xx_rcc.o(i.RCC_AHB1PeriphClockCmd) for RCC_AHB1PeriphClockCmd
==============================================================================

Removing Unused input sections from the image.

    Removing bsp.o(.emb_text), (8 bytes).
    Removing bsp.o(i.GetRTC_Mode), (12 bytes).
    Removing bsp.o(i.POWER5V_OFF), (2 bytes).
    Removing bsp.o(i.POWER5V_ON), (2 bytes).
    Removing bsp.o(i.SetRTC_Mode), (12 bytes).
    Removing electrode.o(.emb_text), (8 bytes).
    Removing watchdog.o(.emb_text), (8 bytes).
    Removing ssd1963.o(.emb_text), (8 bytes).
    Removing ssd1963.o(i.Adjust_LCD_SpliceVideo), (32 bytes).
    Removing ssd1963.o(i.LCD_GetPoint111), (40 bytes).
    Removing ssd1963.o(i.LCD_Writepicture), (60 bytes).
    Removing ssd1963.o(i.ReadSpliceImageFromFlash), (114 bytes).
    Removing ssd1963.o(i.WriteSpliceImageToFlash), (112 bytes).
    Removing lcd_display.o(.emb_text), (8 bytes).
    Removing ov7725.o(.emb_text), (8 bytes).
    Removing ov7725.o(i.GetDCMI_Flag), (4 bytes).
    Removing ov7725.o(i.GetDebugInstMode), (12 bytes).
    Removing ov7725.o(i.SetDCMI_Flag), (6 bytes).
==============================================================================

Image Symbol Table

    Local Symbols

    Symbol Name                              Value     Ov Type        Size  Object(Section)

    ../clib/angel/boardlib.s                 0x00000000   Number         0  boardinit3.o ABSOLUTE
    ../clib/angel/boardlib.s                 0x00000000   Number         0  boardinit2.o ABSOLUTE
    ../clib/angel/boardlib.s                 0x00000000   Number         0  boardinit1.o ABSOLUTE
    ../clib/angel/boardlib.s                 0x00000000   Number         0  boardshut.o ABSOLUTE
    ../clib/angel/dclz77c.s                  0x00000000   Number         0  __dclz77c.o ABSOLUTE
    ../clib/angel/handlers.s                 0x00000000   Number         0  __scatter_zi.o ABSOLUTE
    ../clib/angel/kernel.s                   0x00000000   Number         0  rtexit2.o ABSOLUTE
    ../clib/angel/kernel.s                   0x00000000   Number         0  rtexit.o ABSOLUTE
    ../clib/angel/kernel.s                   0x00000000   Number         0  __rtentry4.o ABSOLUTE
    ../clib/angel/kernel.s                   0x00000000   Number         0  __rtentry2.o ABSOLUTE
    ../clib/angel/kernel.s                   0x00000000   Number         0  __rtentry.o ABSOLUTE
    ../clib/angel/rt.s                       0x00000000   Number         0  rt_div0.o ABSOLUTE
    ../clib/angel/rt.s                       0x00000000   Number         0  rt_locale.o ABSOLUTE
    ../clib/angel/rt.s                       0x00000000   Number         0  rt_raise.o ABSOLUTE
    ../clib/angel/rt.s                       0x00000000   Number         0  rt_errno_addr_intlibspace.o ABSOLUTE
    ../clib/angel/rt.s                       0x00000000   Number         0  rt_errno_addr.o ABSOLUTE
    ../clib/angel/rt.s                       0x00000000   Number         0  rt_heap_descriptor_intlibspace.o ABSOLUTE
    ../clib/angel/rt.s                       0x00000000   Number         0  rt_heap_descriptor.o ABSOLUTE
    ../clib/angel/rt.s                       0x00000000   Number         0  rt_locale_intlibspace.o ABSOLUTE
    ../clib/angel/rt.s                       0x00000000   Number         0  aeabi_ldiv0_sigfpe.o ABSOLUTE
    ../clib/angel/rt.s                       0x00000000   Number         0  aeabi_ldiv0.o ABSOLUTE
    ../clib/angel/scatter.s                  0x00000000   Number         0  __scatter.o ABSOLUTE
    ../clib/angel/startup.s                  0x00000000   Number         0  __main.o ABSOLUTE
    ../clib/angel/sys.s                      0x00000000   Number         0  sys_stackheap_outer.o ABSOLUTE
    ../clib/angel/sys.s                      0x00000000   Number         0  mutex_dummy.o ABSOLUTE
    ../clib/angel/sys.s                      0x00000000   Number         0  indicate_semi.o ABSOLUTE
    ../clib/angel/sys.s                      0x00000000   Number         0  use_no_semi.o ABSOLUTE
    ../clib/angel/sys.s                      0x00000000   Number         0  libspace.o ABSOLUTE
    ../clib/angel/sysapp.c                   0x00000000   Number         0  sys_wrch.o ABSOLUTE
    ../clib/angel/sysapp.c                   0x00000000   Number         0  sys_command.o ABSOLUTE
    ../clib/armsys.c                         0x00000000   Number         0  no_argv.o ABSOLUTE
    ../clib/armsys.c                         0x00000000   Number         0  _get_argv.o ABSOLUTE
    ../clib/armsys.c                         0x00000000   Number         0  argv_veneer.o ABSOLUTE
    ../clib/armsys.c                         0x00000000   Number         0  argv_veneer.o ABSOLUTE
    ../clib/armsys.c                         0x00000000   Number         0  _get_argv_nomalloc.o ABSOLUTE
    ../clib/bigflt.c                         0x00000000   Number         0  bigflt0.o ABSOLUTE
    ../clib/btod.s                           0x00000000   Number         0  btod.o ABSOLUTE
    ../clib/fenv.c                           0x00000000   Number         0  _rserrno.o ABSOLUTE
    ../clib/heap1.c                          0x00000000   Number         0  h1_init_mt.o ABSOLUTE
    ../clib/heap1.c                          0x00000000   Number         0  h1_alloc.o ABSOLUTE
    ../clib/heap1.c                          0x00000000   Number         0  h1_free.o ABSOLUTE
    ../clib/heap1.c                          0x00000000   Number         0  h1_final_mt.o ABSOLUTE
    ../clib/heap1.c                          0x00000000   Number         0  h1_final.o ABSOLUTE
    ../clib/heap1.c                          0x00000000   Number         0  h1_alloc_mt.o ABSOLUTE
    ../clib/heap1.c                          0x00000000   Number         0  h1_free_mt.o ABSOLUTE
    ../clib/heap1.c                          0x00000000   Number         0  h1_extend_mt.o ABSOLUTE
    ../clib/heap1.c                          0x00000000   Number         0  h1_extend.o ABSOLUTE
    ../clib/heap1.c                          0x00000000   Number         0  h1_init.o ABSOLUTE
    ../clib/heap2.c                          0x00000000   Number         0  fdtree.o ABSOLUTE
    ../clib/heap2.c                          0x00000000   Number         0  heap2.o ABSOLUTE
    ../clib/heap2.c                          0x00000000   Number         0  heap2mt.o ABSOLUTE
    ../clib/heapalloc.c                      0x00000000   Number         0  init_alloc.o ABSOLUTE
    ../clib/heapalloc.c                      0x00000000   Number         0  malloc.o ABSOLUTE
    ../clib/heapalloc.c                      0x00000000   Number         0  hrguard.o ABSOLUTE
    ../clib/heapalloc.c                      0x00000000   Number         0  maybetermalloc1.o ABSOLUTE
    ../clib/heapalloc.c                      0x00000000   Number         0  heapstubs.o ABSOLUTE
    ../clib/heapalloc.c                      0x00000000   Number         0  maybetermalloc1.o ABSOLUTE
    ../clib/heapalloc.c                      0x00000000   Number         0  maybetermalloc2.o ABSOLUTE
    ../clib/heapalloc.c                      0x00000000   Number         0  hguard.o ABSOLUTE
    ../clib/heapalloc.c                      0x00000000   Number         0  maybetermalloc2.o ABSOLUTE
    ../clib/heapalloc.c                      0x00000000   Number         0  term_alloc.o ABSOLUTE
    ../clib/heapalloc.c                      0x00000000   Number         0  free.o ABSOLUTE
    ../clib/heapaux.c                        0x00000000   Number         0  heapauxa.o ABSOLUTE
    ../clib/heapaux.c                        0x00000000   Number         0  heapauxi.o ABSOLUTE
    ../clib/libinit.s                        0x00000000   Number         0  libshutdown2.o ABSOLUTE
    ../clib/libinit.s                        0x00000000   Number         0  libinit2.o ABSOLUTE
    ../clib/libinit.s                        0x00000000   Number         0  libinit.o ABSOLUTE
    ../clib/libinit.s                        0x00000000   Number         0  libshutdown.o ABSOLUTE
    ../clib/locale.s                         0x00000000   Number         0  lc_numeric_c.o ABSOLUTE
    ../clib/longlong.s                       0x00000000   Number         0  lludiv10.o ABSOLUTE
    ../clib/longlong.s                       0x00000000   Number         0  lludivv7m.o ABSOLUTE
    ../clib/memcpset.s                       0x00000000   Number         0  rt_memmove_v6.o ABSOLUTE
    ../clib/memcpset.s                       0x00000000   Number         0  rt_memcpy_v6.o ABSOLUTE
    ../clib/memcpset.s                       0x00000000   Number         0  rt_memmove_w.o ABSOLUTE
    ../clib/memcpset.s                       0x00000000   Number         0  rt_memcpy_w.o ABSOLUTE
    ../clib/memcpset.s                       0x00000000   Number         0  strncpy.o ABSOLUTE
    ../clib/memcpset.s                       0x00000000   Number         0  aeabi_memset.o ABSOLUTE
    ../clib/memcpset.s                       0x00000000   Number         0  rt_memclr.o ABSOLUTE
    ../clib/memcpset.s                       0x00000000   Number         0  rt_memclr_w.o ABSOLUTE
    ../clib/memcpset.s                       0x00000000   Number         0  strcmpv7m.o ABSOLUTE
    ../clib/misc.s                           0x00000000   Number         0  printf_stubs.o ABSOLUTE
    ../clib/printf.c                         0x00000000   Number         0  _printf_hex_int_ll.o ABSOLUTE
    ../clib/printf.c                         0x00000000   Number         0  _printf_hex_ptr.o ABSOLUTE
    ../clib/printf.c                         0x00000000   Number         0  __printf_flags.o ABSOLUTE
    ../clib/printf.c                         0x00000000   Number         0  _printf_hex_int_ll_ptr.o ABSOLUTE
    ../clib/printf.c                         0x00000000   Number         0  _printf_hex_int_ptr.o ABSOLUTE
    ../clib/printf.c                         0x00000000   Number         0  _printf_hex_ll_ptr.o ABSOLUTE
    ../clib/printf.c                         0x00000000   Number         0  __printf_ss_wp.o ABSOLUTE
    ../clib/printf.c                         0x00000000   Number         0  _printf_hex_ll.o ABSOLUTE
    ../clib/printf.c                         0x00000000   Number         0  _printf_intcommon.o ABSOLUTE
    ../clib/printf.c                         0x00000000   Number         0  __printf_flags_wp.o ABSOLUTE
    ../clib/printf.c                         0x00000000   Number         0  __printf_wp.o ABSOLUTE
    ../clib/printf.c                         0x00000000   Number         0  _printf_hex_int.o ABSOLUTE
    ../clib/printf.c                         0x00000000   Number         0  __printf_flags_ss.o ABSOLUTE
    ../clib/printf.c                         0x00000000   Number         0  __printf_ss.o ABSOLUTE
    ../clib/printf.c                         0x00000000   Number         0  _printf_char_file.o ABSOLUTE
    ../clib/printf.c                         0x00000000   Number         0  _printf_char.o ABSOLUTE
    ../clib/printf.c                         0x00000000   Number         0  _sputc.o ABSOLUTE
    ../clib/printf.c                         0x00000000   Number         0  _printf_char_common.o ABSOLUTE
    ../clib/printf.c                         0x00000000   Number         0  _printf_fp_dec.o ABSOLUTE
    ../clib/printf.c                         0x00000000   Number         0  _printf_str.o ABSOLUTE
    ../clib/printf.c                         0x00000000   Number         0  __printf_nopercent.o ABSOLUTE
    ../clib/printf.c                         0x00000000   Number         0  _printf_fp_infnan.o ABSOLUTE
    ../clib/printf.c                         0x00000000   Number         0  __2printf.o ABSOLUTE
    ../clib/printf.c                         0x00000000   Number         0  __2sprintf.o ABSOLUTE
    ../clib/printf.c                         0x00000000   Number         0  noretval__2printf.o ABSOLUTE
    ../clib/printf.c                         0x00000000   Number         0  noretval__2sprintf.o ABSOLUTE
    ../clib/printf.c                         0x00000000   Number         0  __printf.o ABSOLUTE
    ../clib/printf.c                         0x00000000   Number         0  _printf_pad.o ABSOLUTE
    ../clib/printf.c                         0x00000000   Number         0  _printf_dec.o ABSOLUTE
    ../clib/printf.c                         0x00000000   Number         0  __printf_flags_ss_wp.o ABSOLUTE
    ../clib/printf_percent.s                 0x00000000   Number         0  _printf_percent.o ABSOLUTE
    ../clib/printf_percent.s                 0x00000000   Number         0  _printf_f.o ABSOLUTE
    ../clib/printf_percent.s                 0x00000000   Number         0  _printf_i.o ABSOLUTE
    ../clib/printf_percent.s                 0x00000000   Number         0  _printf_x.o ABSOLUTE
    ../clib/printf_percent.s                 0x00000000   Number         0  _printf_percent_end.o ABSOLUTE
    ../clib/printf_percent.s                 0x00000000   Number         0  _printf_d.o ABSOLUTE
    ../clib/printf_percent.s                 0x00000000   Number         0  _printf_s.o ABSOLUTE
    ../clib/signal.c                         0x00000000   Number         0  defsig_fpe_outer.o ABSOLUTE
    ../clib/signal.c                         0x00000000   Number         0  defsig_rtmem_inner.o ABSOLUTE
    ../clib/signal.c                         0x00000000   Number         0  defsig_fpe_formal.o ABSOLUTE
    ../clib/signal.c                         0x00000000   Number         0  defsig_abrt_inner.o ABSOLUTE
    ../clib/signal.c                         0x00000000   Number         0  defsig_rtred_inner.o ABSOLUTE
    ../clib/signal.c                         0x00000000   Number         0  defsig_stak_inner.o ABSOLUTE
    ../clib/signal.c                         0x00000000   Number         0  defsig_exit.o ABSOLUTE
    ../clib/signal.c                         0x00000000   Number         0  defsig_pvfn_inner.o ABSOLUTE
    ../clib/signal.c                         0x00000000   Number         0  defsig_cppl_inner.o ABSOLUTE
    ../clib/signal.c                         0x00000000   Number         0  defsig_general.o ABSOLUTE
    ../clib/signal.c                         0x00000000   Number         0  __raise.o ABSOLUTE
    ../clib/signal.c                         0x00000000   Number         0  defsig_rtmem_formal.o ABSOLUTE
    ../clib/signal.c                         0x00000000   Number         0  defsig_other.o ABSOLUTE
    ../clib/signal.c                         0x00000000   Number         0  defsig_rtmem_outer.o ABSOLUTE
    ../clib/signal.c                         0x00000000   Number         0  defsig_fpe_inner.o ABSOLUTE
    ../clib/signal.c                         0x00000000   Number         0  defsig_segv_inner.o ABSOLUTE
    ../clib/signal.s                         0x00000000   Number         0  defsig.o ABSOLUTE
    ../clib/stdio.c                          0x00000000   Number         0  ferror.o ABSOLUTE
    ../clib/stdio.c                          0x00000000   Number         0  ferror_locked.o ABSOLUTE
    ../clib/stdlib.c                         0x00000000   Number         0  rand.o ABSOLUTE
    ../clib/stdlib.c                         0x00000000   Number         0  rand.o ABSOLUTE
    ../clib/stdlib.c                         0x00000000   Number         0  exit.o ABSOLUTE
    ../clib/string.c                         0x00000000   Number         0  memcmp.o ABSOLUTE
    ../clib/string.c                         0x00000000   Number         0  strcpy.o ABSOLUTE
    ../clib/string.c                         0x00000000   Number         0  strlen.o ABSOLUTE
    ../clib/string.c                         0x00000000   Number         0  strcat.o ABSOLUTE
    ../fplib/d2f.s                           0x00000000   Number         0  d2f.o ABSOLUTE
    ../fplib/daddsub.s                       0x00000000   Number         0  daddsub_clz.o ABSOLUTE
    ../fplib/dcmpi.s                         0x00000000   Number         0  dcmpi.o ABSOLUTE
    ../fplib/ddiv.s                          0x00000000   Number         0  ddiv.o ABSOLUTE
    ../fplib/deqf.s                          0x00000000   Number         0  deqf.o ABSOLUTE
    ../fplib/dfix.s                          0x00000000   Number         0  dfix.o ABSOLUTE
    ../fplib/dfixu.s                         0x00000000   Number         0  dfixu.o ABSOLUTE
    ../fplib/dflt.s                          0x00000000   Number         0  dflt_clz.o ABSOLUTE
    ../fplib/dleqf.s                         0x00000000   Number         0  dleqf.o ABSOLUTE
    ../fplib/dmul.s                          0x00000000   Number         0  dmul.o ABSOLUTE
    ../fplib/dnaninf.s                       0x00000000   Number         0  dnaninf.o ABSOLUTE
    ../fplib/dretinf.s                       0x00000000   Number         0  dretinf.o ABSOLUTE
    ../fplib/drleqf.s                        0x00000000   Number         0  drleqf.o ABSOLUTE
    ../fplib/dsqrt.s                         0x00000000   Number         0  dsqrt_umaal.o ABSOLUTE
    ../fplib/f2d.s                           0x00000000   Number         0  f2d.o ABSOLUTE
    ../fplib/fnaninf.s                       0x00000000   Number         0  fnaninf.o ABSOLUTE
    ../fplib/fpinit.s                        0x00000000   Number         0  fpinit.o ABSOLUTE
    ../fplib/fretinf.s                       0x00000000   Number         0  fretinf.o ABSOLUTE
    ../fplib/istatus.s                       0x00000000   Number         0  istatus.o ABSOLUTE
    ../fplib/printf1.s                       0x00000000   Number         0  printf1.o ABSOLUTE
    ../fplib/usenofp.s                       0x00000000   Number         0  usenofp.o ABSOLUTE
    ../mathlib/ceil.c                        0x00000000   Number         0  ceil.o ABSOLUTE
    ../mathlib/floor.c                       0x00000000   Number         0  floor.o ABSOLUTE
    ../mathlib/fpclassify.c                  0x00000000   Number         0  fpclassify.o ABSOLUTE
    ../mathlib/sqrt.c                        0x00000000   Number         0  sqrt.o ABSOLUTE
    ../mathlib/sqrt.c                        0x00000000   Number         0  sqrt_x.o ABSOLUTE
    ..\..\..\Utilities\Third_Party\STemWin522\GUI\Antialias\GUIAA_Char2.c 0x00000000   Number         0  guiaa_char2.o ABSOLUTE
    ..\..\..\Utilities\Third_Party\STemWin522\GUI\Antialias\GUIAA_Char2Ext.c 0x00000000   Number         0  guiaa_char2ext.o ABSOLUTE
    ..\..\..\Utilities\Third_Party\STemWin522\GUI\Antialias\GUIAA_Char4.c 0x00000000   Number         0  guiaa_char4.o ABSOLUTE
    ..\..\..\Utilities\Third_Party\STemWin522\GUI\Antialias\GUIAA_Char4Ext.c 0x00000000   Number         0  guiaa_char4ext.o ABSOLUTE
    ..\..\..\Utilities\Third_Party\STemWin522\GUI\Antialias\GUIAA_Circle.c 0x00000000   Number         0  guiaa_circle.o ABSOLUTE
    ..\..\..\Utilities\Third_Party\STemWin522\GUI\Antialias\GUIAA_Lib.c 0x00000000   Number         0  guiaa_lib.o ABSOLUTE
    ..\..\..\Utilities\Third_Party\STemWin522\GUI\Antialias\GUIAA_Poly.c 0x00000000   Number         0  guiaa_poly.o ABSOLUTE
    ..\..\..\Utilities\Third_Party\STemWin522\GUI\ConvertColor\GUICC_M565.c 0x00000000   Number         0  guicc_m565.o ABSOLUTE
    ..\..\..\Utilities\Third_Party\STemWin522\GUI\Core\GUICC_0.c 0x00000000   Number         0  guicc_0.o ABSOLUTE
    ..\..\..\Utilities\Third_Party\STemWin522\GUI\Core\GUICC_888.c 0x00000000   Number         0  guicc_888.o ABSOLUTE
    ..\..\..\Utilities\Third_Party\STemWin522\GUI\Core\GUICC_8888.c 0x00000000   Number         0  guicc_8888.o ABSOLUTE
    ..\..\..\Utilities\Third_Party\STemWin522\GUI\Core\GUICC_8888_Index2Color.c 0x00000000   Number         0  guicc_8888_index2color.o ABSOLUTE
    ..\..\..\Utilities\Third_Party\STemWin522\GUI\Core\GUICC_888_Index2Color.c 0x00000000   Number         0  guicc_888_index2color.o ABSOLUTE
    ..\..\..\Utilities\Third_Party\STemWin522\GUI\Core\GUICC_M565_Index2Color.c 0x00000000   Number         0  guicc_m565_index2color.o ABSOLUTE
    ..\..\..\Utilities\Third_Party\STemWin522\GUI\Core\GUI_2DLib.c 0x00000000   Number         0  gui_2dlib.o ABSOLUTE
    ..\..\..\Utilities\Third_Party\STemWin522\GUI\Core\GUI_ALLOC_AllocInit.c 0x00000000   Number         0  gui_alloc_allocinit.o ABSOLUTE
    ..\..\..\Utilities\Third_Party\STemWin522\GUI\Core\GUI_ALLOC_AllocZero.c 0x00000000   Number         0  gui_alloc_alloczero.o ABSOLUTE
    ..\..\..\Utilities\Third_Party\STemWin522\GUI\Core\GUI_AddDecMin.c 0x00000000   Number         0  gui_adddecmin.o ABSOLUTE
    ..\..\..\Utilities\Third_Party\STemWin522\GUI\Core\GUI_AddDecShift.c 0x00000000   Number         0  gui_adddecshift.o ABSOLUTE
    ..\..\..\Utilities\Third_Party\STemWin522\GUI\Core\GUI_Alloc.c 0x00000000   Number         0  gui_alloc.o ABSOLUTE
    ..\..\..\Utilities\Third_Party\STemWin522\GUI\Core\GUI_BMP_Serialize.c 0x00000000   Number         0  gui_bmp_serialize.o ABSOLUTE
    ..\..\..\Utilities\Third_Party\STemWin522\GUI\Core\GUI_CalcColorDist.c 0x00000000   Number         0  gui_calccolordist.o ABSOLUTE
    ..\..\..\Utilities\Third_Party\STemWin522\GUI\Core\GUI_Char.c 0x00000000   Number         0  gui_char.o ABSOLUTE
    ..\..\..\Utilities\Third_Party\STemWin522\GUI\Core\GUI_CharLine.c 0x00000000   Number         0  gui_charline.o ABSOLUTE
    ..\..\..\Utilities\Third_Party\STemWin522\GUI\Core\GUI_CharM.c 0x00000000   Number         0  gui_charm.o ABSOLUTE
    ..\..\..\Utilities\Third_Party\STemWin522\GUI\Core\GUI_CharP.c 0x00000000   Number         0  gui_charp.o ABSOLUTE
    ..\..\..\Utilities\Third_Party\STemWin522\GUI\Core\GUI_CharPExt.c 0x00000000   Number         0  gui_charpext.o ABSOLUTE
    ..\..\..\Utilities\Third_Party\STemWin522\GUI\Core\GUI_Circ.c 0x00000000   Number         0  gui_circ.o ABSOLUTE
    ..\..\..\Utilities\Third_Party\STemWin522\GUI\Core\GUI_ClearRectEx.c 0x00000000   Number         0  gui_clearrectex.o ABSOLUTE
    ..\..\..\Utilities\Third_Party\STemWin522\GUI\Core\GUI_Color2Index.c 0x00000000   Number         0  gui_color2index.o ABSOLUTE
    ..\..\..\Utilities\Third_Party\STemWin522\GUI\Core\GUI_Core.c 0x00000000   Number         0  gui_core.o ABSOLUTE
    ..\..\..\Utilities\Third_Party\STemWin522\GUI\Core\GUI_Curs1.c 0x00000000   Number         0  gui_curs1.o ABSOLUTE
    ..\..\..\Utilities\Third_Party\STemWin522\GUI\Core\GUI_CursorArrowM.c 0x00000000   Number         0  gui_cursorarrowm.o ABSOLUTE
    ..\..\..\Utilities\Third_Party\STemWin522\GUI\Core\GUI_CursorArrowMPx.c 0x00000000   Number         0  gui_cursorarrowmpx.o ABSOLUTE
    ..\..\..\Utilities\Third_Party\STemWin522\GUI\Core\GUI_CursorCrossL.c 0x00000000   Number         0  gui_cursorcrossl.o ABSOLUTE
    ..\..\..\Utilities\Third_Party\STemWin522\GUI\Core\GUI_CursorCrossLPx.c 0x00000000   Number         0  gui_cursorcrosslpx.o ABSOLUTE
    ..\..\..\Utilities\Third_Party\STemWin522\GUI\Core\GUI_CursorHeaderM.c 0x00000000   Number         0  gui_cursorheaderm.o ABSOLUTE
    ..\..\..\Utilities\Third_Party\STemWin522\GUI\Core\GUI_CursorHeaderMPx.c 0x00000000   Number         0  gui_cursorheadermpx.o ABSOLUTE
    ..\..\..\Utilities\Third_Party\STemWin522\GUI\Core\GUI_CursorPal.c 0x00000000   Number         0  gui_cursorpal.o ABSOLUTE
    ..\..\..\Utilities\Third_Party\STemWin522\GUI\Core\GUI_Device.c 0x00000000   Number         0  gui_device.o ABSOLUTE
    ..\..\..\Utilities\Third_Party\STemWin522\GUI\Core\GUI_DispString.c 0x00000000   Number         0  gui_dispstring.o ABSOLUTE
    ..\..\..\Utilities\Third_Party\STemWin522\GUI\Core\GUI_DispStringAt.c 0x00000000   Number         0  gui_dispstringat.o ABSOLUTE
    ..\..\..\Utilities\Third_Party\STemWin522\GUI\Core\GUI_DispStringHCenter.c 0x00000000   Number         0  gui_dispstringhcenter.o ABSOLUTE
    ..\..\..\Utilities\Third_Party\STemWin522\GUI\Core\GUI_DispStringInRect.c 0x00000000   Number         0  gui_dispstringinrect.o ABSOLUTE
    ..\..\..\Utilities\Third_Party\STemWin522\GUI\Core\GUI_DispStringInRectWrap.c 0x00000000   Number         0  gui_dispstringinrectwrap.o ABSOLUTE
    ..\..\..\Utilities\Third_Party\STemWin522\GUI\Core\GUI_DrawBitmap.c 0x00000000   Number         0  gui_drawbitmap.o ABSOLUTE
    ..\..\..\Utilities\Third_Party\STemWin522\GUI\Core\GUI_DrawBitmapMag.c 0x00000000   Number         0  gui_drawbitmapmag.o ABSOLUTE
    ..\..\..\Utilities\Third_Party\STemWin522\GUI\Core\GUI_DrawBitmap_8888.c 0x00000000   Number         0  gui_drawbitmap_8888.o ABSOLUTE
    ..\..\..\Utilities\Third_Party\STemWin522\GUI\Core\GUI_DrawFocusRect.c 0x00000000   Number         0  gui_drawfocusrect.o ABSOLUTE
    ..\..\..\Utilities\Third_Party\STemWin522\GUI\Core\GUI_DrawGradient.c 0x00000000   Number         0  gui_drawgradient.o ABSOLUTE
    ..\..\..\Utilities\Third_Party\STemWin522\GUI\Core\GUI_DrawGraphEx.c 0x00000000   Number         0  gui_drawgraphex.o ABSOLUTE
    ..\..\..\Utilities\Third_Party\STemWin522\GUI\Core\GUI_DrawHLine.c 0x00000000   Number         0  gui_drawhline.o ABSOLUTE
    ..\..\..\Utilities\Third_Party\STemWin522\GUI\Core\GUI_DrawLine.c 0x00000000   Number         0  gui_drawline.o ABSOLUTE
    ..\..\..\Utilities\Third_Party\STemWin522\GUI\Core\GUI_DrawPixel.c 0x00000000   Number         0  gui_drawpixel.o ABSOLUTE
    ..\..\..\Utilities\Third_Party\STemWin522\GUI\Core\GUI_DrawPoint.c 0x00000000   Number         0  gui_drawpoint.o ABSOLUTE
    ..\..\..\Utilities\Third_Party\STemWin522\GUI\Core\GUI_DrawVLine.c 0x00000000   Number         0  gui_drawvline.o ABSOLUTE
    ..\..\..\Utilities\Third_Party\STemWin522\GUI\Core\GUI_EnableAlpha.c 0x00000000   Number         0  gui_enablealpha.o ABSOLUTE
    ..\..\..\Utilities\Third_Party\STemWin522\GUI\Core\GUI_EncExt.c 0x00000000   Number         0  gui_encext.o ABSOLUTE
    ..\..\..\Utilities\Third_Party\STemWin522\GUI\Core\GUI_EncJS.c 0x00000000   Number         0  gui_encjs.o ABSOLUTE
    ..\..\..\Utilities\Third_Party\STemWin522\GUI\Core\GUI_Exec.c 0x00000000   Number         0  gui_exec.o ABSOLUTE
    ..\..\..\Utilities\Third_Party\STemWin522\GUI\Core\GUI_FillPolygon.c 0x00000000   Number         0  gui_fillpolygon.o ABSOLUTE
    ..\..\..\Utilities\Third_Party\STemWin522\GUI\Core\GUI_FillRect.c 0x00000000   Number         0  gui_fillrect.o ABSOLUTE
    ..\..\..\Utilities\Third_Party\STemWin522\GUI\Core\GUI_FillRectEx.c 0x00000000   Number         0  gui_fillrectex.o ABSOLUTE
    ..\..\..\Utilities\Third_Party\STemWin522\GUI\Core\GUI_GetBitmapPixelIndex.c 0x00000000   Number         0  gui_getbitmappixelindex.o ABSOLUTE
    ..\..\..\Utilities\Third_Party\STemWin522\GUI\Core\GUI_GetClientRect.c 0x00000000   Number         0  gui_getclientrect.o ABSOLUTE
    ..\..\..\Utilities\Third_Party\STemWin522\GUI\Core\GUI_GetColor.c 0x00000000   Number         0  gui_getcolor.o ABSOLUTE
    ..\..\..\Utilities\Third_Party\STemWin522\GUI\Core\GUI_GetDispPos.c 0x00000000   Number         0  gui_getdisppos.o ABSOLUTE
    ..\..\..\Utilities\Third_Party\STemWin522\GUI\Core\GUI_GetFontSizeY.c 0x00000000   Number         0  gui_getfontsizey.o ABSOLUTE
    ..\..\..\Utilities\Third_Party\STemWin522\GUI\Core\GUI_GetLineStyle.c 0x00000000   Number         0  gui_getlinestyle.o ABSOLUTE
    ..\..\..\Utilities\Third_Party\STemWin522\GUI\Core\GUI_GetOrg.c 0x00000000   Number         0  gui_getorg.o ABSOLUTE
    ..\..\..\Utilities\Third_Party\STemWin522\GUI\Core\GUI_GetStringDistX.c 0x00000000   Number         0  gui_getstringdistx.o ABSOLUTE
    ..\..\..\Utilities\Third_Party\STemWin522\GUI\Core\GUI_GetVersionString.c 0x00000000   Number         0  gui_getversionstring.o ABSOLUTE
    ..\..\..\Utilities\Third_Party\STemWin522\GUI\Core\GUI_GetYSizeOfFont.c 0x00000000   Number         0  gui_getysizeoffont.o ABSOLUTE
    ..\..\..\Utilities\Third_Party\STemWin522\GUI\Core\GUI_Goto.c 0x00000000   Number         0  gui_goto.o ABSOLUTE
    ..\..\..\Utilities\Third_Party\STemWin522\GUI\Core\GUI_Index2Color.c 0x00000000   Number         0  gui_index2color.o ABSOLUTE
    ..\..\..\Utilities\Third_Party\STemWin522\GUI\Core\GUI_MergeRect.c 0x00000000   Number         0  gui_mergerect.o ABSOLUTE
    ..\..\..\Utilities\Third_Party\STemWin522\GUI\Core\GUI_MoveRect.c 0x00000000   Number         0  gui_moverect.o ABSOLUTE
    ..\..\..\Utilities\Third_Party\STemWin522\GUI\Core\GUI_OnKey.c 0x00000000   Number         0  gui_onkey.o ABSOLUTE
    ..\..\..\Utilities\Third_Party\STemWin522\GUI\Core\GUI_PID.c 0x00000000   Number         0  gui_pid.o ABSOLUTE
    ..\..\..\Utilities\Third_Party\STemWin522\GUI\Core\GUI_Pen.c 0x00000000   Number         0  gui_pen.o ABSOLUTE
    ..\..\..\Utilities\Third_Party\STemWin522\GUI\Core\GUI_PolyRotate.c 0x00000000   Number         0  gui_polyrotate.o ABSOLUTE
    ..\..\..\Utilities\Third_Party\STemWin522\GUI\Core\GUI_Realloc.c 0x00000000   Number         0  gui_realloc.o ABSOLUTE
    ..\..\..\Utilities\Third_Party\STemWin522\GUI\Core\GUI_RectsIntersect.c 0x00000000   Number         0  gui_rectsintersect.o ABSOLUTE
    ..\..\..\Utilities\Third_Party\STemWin522\GUI\Core\GUI_SPRITE.c 0x00000000   Number         0  gui_sprite.o ABSOLUTE
    ..\..\..\Utilities\Third_Party\STemWin522\GUI\Core\GUI_SaveContext.c 0x00000000   Number         0  gui_savecontext.o ABSOLUTE
    ..\..\..\Utilities\Third_Party\STemWin522\GUI\Core\GUI_SelectLCD.c 0x00000000   Number         0  gui_selectlcd.o ABSOLUTE
    ..\..\..\Utilities\Third_Party\STemWin522\GUI\Core\GUI_SelectLayer.c 0x00000000   Number         0  gui_selectlayer.o ABSOLUTE
    ..\..\..\Utilities\Third_Party\STemWin522\GUI\Core\GUI_SetAlpha.c 0x00000000   Number         0  gui_setalpha.o ABSOLUTE
    ..\..\..\Utilities\Third_Party\STemWin522\GUI\Core\GUI_SetClipRect.c 0x00000000   Number         0  gui_setcliprect.o ABSOLUTE
    ..\..\..\Utilities\Third_Party\STemWin522\GUI\Core\GUI_SetColor.c 0x00000000   Number         0  gui_setcolor.o ABSOLUTE
    ..\..\..\Utilities\Third_Party\STemWin522\GUI\Core\GUI_SetColorIndex.c 0x00000000   Number         0  gui_setcolorindex.o ABSOLUTE
    ..\..\..\Utilities\Third_Party\STemWin522\GUI\Core\GUI_SetDefault.c 0x00000000   Number         0  gui_setdefault.o ABSOLUTE
    ..\..\..\Utilities\Third_Party\STemWin522\GUI\Core\GUI_SetDrawMode.c 0x00000000   Number         0  gui_setdrawmode.o ABSOLUTE
    ..\..\..\Utilities\Third_Party\STemWin522\GUI\Core\GUI_SetFont.c 0x00000000   Number         0  gui_setfont.o ABSOLUTE
    ..\..\..\Utilities\Third_Party\STemWin522\GUI\Core\GUI_SetLineStyle.c 0x00000000   Number         0  gui_setlinestyle.o ABSOLUTE
    ..\..\..\Utilities\Third_Party\STemWin522\GUI\Core\GUI_SetOrg.c 0x00000000   Number         0  gui_setorg.o ABSOLUTE
    ..\..\..\Utilities\Third_Party\STemWin522\GUI\Core\GUI_SetPixelIndex.c 0x00000000   Number         0  gui_setpixelindex.o ABSOLUTE
    ..\..\..\Utilities\Third_Party\STemWin522\GUI\Core\GUI_SetTextAlign.c 0x00000000   Number         0  gui_settextalign.o ABSOLUTE
    ..\..\..\Utilities\Third_Party\STemWin522\GUI\Core\GUI_SetTextMode.c 0x00000000   Number         0  gui_settextmode.o ABSOLUTE
    ..\..\..\Utilities\Third_Party\STemWin522\GUI\Core\GUI_TOUCH.c 0x00000000   Number         0  gui_touch.o ABSOLUTE
    ..\..\..\Utilities\Third_Party\STemWin522\GUI\Core\GUI_TOUCH_DriverAnalog.c 0x00000000   Number         0  gui_touch_driveranalog.o ABSOLUTE
    ..\..\..\Utilities\Third_Party\STemWin522\GUI\Core\GUI_TOUCH_StoreState.c 0x00000000   Number         0  gui_touch_storestate.o ABSOLUTE
    ..\..\..\Utilities\Third_Party\STemWin522\GUI\Core\GUI_TOUCH_StoreUnstable.c 0x00000000   Number         0  gui_touch_storeunstable.o ABSOLUTE
    ..\..\..\Utilities\Third_Party\STemWin522\GUI\Core\GUI_Task.c 0x00000000   Number         0  gui_task.o ABSOLUTE
    ..\..\..\Utilities\Third_Party\STemWin522\GUI\Core\GUI_Time.c 0x00000000   Number         0  gui_time.o ABSOLUTE
    ..\..\..\Utilities\Third_Party\STemWin522\GUI\Core\GUI_Timer.c 0x00000000   Number         0  gui_timer.o ABSOLUTE
    ..\..\..\Utilities\Third_Party\STemWin522\GUI\Core\GUI_UC.c 0x00000000   Number         0  gui_uc.o ABSOLUTE
    ..\..\..\Utilities\Third_Party\STemWin522\GUI\Core\GUI_UC_ConvertUC2UTF8.c 0x00000000   Number         0  gui_uc_convertuc2utf8.o ABSOLUTE
    ..\..\..\Utilities\Third_Party\STemWin522\GUI\Core\GUI_UC_EnableBIDI.c 0x00000000   Number         0  gui_uc_enablebidi.o ABSOLUTE
    ..\..\..\Utilities\Third_Party\STemWin522\GUI\Core\GUI_UC_EncodeNone.c 0x00000000   Number         0  gui_uc_encodenone.o ABSOLUTE
    ..\..\..\Utilities\Third_Party\STemWin522\GUI\Core\GUI_UC_EncodeUTF8.c 0x00000000   Number         0  gui_uc_encodeutf8.o ABSOLUTE
    ..\..\..\Utilities\Third_Party\STemWin522\GUI\Core\GUI_Val.c 0x00000000   Number         0  gui_val.o ABSOLUTE
    ..\..\..\Utilities\Third_Party\STemWin522\GUI\Core\GUI_Valf.c 0x00000000   Number         0  gui_valf.o ABSOLUTE
    ..\..\..\Utilities\Third_Party\STemWin522\GUI\Core\GUI_WaitEvent.c 0x00000000   Number         0  gui_waitevent.o ABSOLUTE
    ..\..\..\Utilities\Third_Party\STemWin522\GUI\Core\GUI__Alpha.c 0x00000000   Number         0  gui__alpha.o ABSOLUTE
    ..\..\..\Utilities\Third_Party\STemWin522\GUI\Core\GUI__Arabic.c 0x00000000   Number         0  gui__arabic.o ABSOLUTE
    ..\..\..\Utilities\Third_Party\STemWin522\GUI\Core\GUI__BiDi.c 0x00000000   Number         0  gui__bidi.o ABSOLUTE
    ..\..\..\Utilities\Third_Party\STemWin522\GUI\Core\GUI__BiDiRouting.c 0x00000000   Number         0  gui__bidirouting.o ABSOLUTE
    ..\..\..\Utilities\Third_Party\STemWin522\GUI\Core\GUI__CalcTextRect.c 0x00000000   Number         0  gui__calctextrect.o ABSOLUTE
    ..\..\..\Utilities\Third_Party\STemWin522\GUI\Core\GUI__CompactPixelIndices.c 0x00000000   Number         0  gui__compactpixelindices.o ABSOLUTE
    ..\..\..\Utilities\Third_Party\STemWin522\GUI\Core\GUI__DivTbl_255_31.c 0x00000000   Number         0  gui__divtbl_255_31.o ABSOLUTE
    ..\..\..\Utilities\Third_Party\STemWin522\GUI\Core\GUI__DivTbl_255_63.c 0x00000000   Number         0  gui__divtbl_255_63.o ABSOLUTE
    ..\..\..\Utilities\Third_Party\STemWin522\GUI\Core\GUI__DivTbl_31_255.c 0x00000000   Number         0  gui__divtbl_31_255.o ABSOLUTE
    ..\..\..\Utilities\Third_Party\STemWin522\GUI\Core\GUI__DivTbl_63_255.c 0x00000000   Number         0  gui__divtbl_63_255.o ABSOLUTE
    ..\..\..\Utilities\Third_Party\STemWin522\GUI\Core\GUI__DivideRound32.c 0x00000000   Number         0  gui__divideround32.o ABSOLUTE
    ..\..\..\Utilities\Third_Party\STemWin522\GUI\Core\GUI__DrawTwinArc.c 0x00000000   Number         0  gui__drawtwinarc.o ABSOLUTE
    ..\..\..\Utilities\Third_Party\STemWin522\GUI\Core\GUI__ExpandPixelIndices.c 0x00000000   Number         0  gui__expandpixelindices.o ABSOLUTE
    ..\..\..\Utilities\Third_Party\STemWin522\GUI\Core\GUI__GetCursorPos.c 0x00000000   Number         0  gui__getcursorpos.o ABSOLUTE
    ..\..\..\Utilities\Third_Party\STemWin522\GUI\Core\GUI__GetFontSizeY.c 0x00000000   Number         0  gui__getfontsizey.o ABSOLUTE
    ..\..\..\Utilities\Third_Party\STemWin522\GUI\Core\GUI__GetNumChars.c 0x00000000   Number         0  gui__getnumchars.o ABSOLUTE
    ..\..\..\Utilities\Third_Party\STemWin522\GUI\Core\GUI__HandleEOLine.c 0x00000000   Number         0  gui__handleeoline.o ABSOLUTE
    ..\..\..\Utilities\Third_Party\STemWin522\GUI\Core\GUI__IntersectRect.c 0x00000000   Number         0  gui__intersectrect.o ABSOLUTE
    ..\..\..\Utilities\Third_Party\STemWin522\GUI\Core\GUI__IntersectRects.c 0x00000000   Number         0  gui__intersectrects.o ABSOLUTE
    ..\..\..\Utilities\Third_Party\STemWin522\GUI\Core\GUI__ManageCache.c 0x00000000   Number         0  gui__managecache.o ABSOLUTE
    ..\..\..\Utilities\Third_Party\STemWin522\GUI\Core\GUI__ReduceRect.c 0x00000000   Number         0  gui__reducerect.o ABSOLUTE
    ..\..\..\Utilities\Third_Party\STemWin522\GUI\Core\GUI__SetPixelAlpha.c 0x00000000   Number         0  gui__setpixelalpha.o ABSOLUTE
    ..\..\..\Utilities\Third_Party\STemWin522\GUI\Core\GUI__SetText.c 0x00000000   Number         0  gui__settext.o ABSOLUTE
    ..\..\..\Utilities\Third_Party\STemWin522\GUI\Core\GUI__SinHQ.c 0x00000000   Number         0  gui__sinhq.o ABSOLUTE
    ..\..\..\Utilities\Third_Party\STemWin522\GUI\Core\GUI__Wrap.c 0x00000000   Number         0  gui__wrap.o ABSOLUTE
    ..\..\..\Utilities\Third_Party\STemWin522\GUI\Core\GUI__memset.c 0x00000000   Number         0  gui__memset.o ABSOLUTE
    ..\..\..\Utilities\Third_Party\STemWin522\GUI\Core\GUI__memset16.c 0x00000000   Number         0  gui__memset16.o ABSOLUTE
    ..\..\..\Utilities\Third_Party\STemWin522\GUI\Core\GUI__sqrt32.c 0x00000000   Number         0  gui__sqrt32.o ABSOLUTE
    ..\..\..\Utilities\Third_Party\STemWin522\GUI\Core\GUI__strcmp.c 0x00000000   Number         0  gui__strcmp.o ABSOLUTE
    ..\..\..\Utilities\Third_Party\STemWin522\GUI\Core\GUI__strlen.c 0x00000000   Number         0  gui__strlen.o ABSOLUTE
    ..\..\..\Utilities\Third_Party\STemWin522\GUI\Core\LCD.c 0x00000000   Number         0  lcd.o ABSOLUTE
    ..\..\..\Utilities\Third_Party\STemWin522\GUI\Core\LCD_AA.c 0x00000000   Number         0  lcd_aa.o ABSOLUTE
    ..\..\..\Utilities\Third_Party\STemWin522\GUI\Core\LCD_Color.c 0x00000000   Number         0  lcd_color.o ABSOLUTE
    ..\..\..\Utilities\Third_Party\STemWin522\GUI\Core\LCD_GetColorIndex.c 0x00000000   Number         0  lcd_getcolorindex.o ABSOLUTE
    ..\..\..\Utilities\Third_Party\STemWin522\GUI\Core\LCD_GetEx.c 0x00000000   Number         0  lcd_getex.o ABSOLUTE
    ..\..\..\Utilities\Third_Party\STemWin522\GUI\Core\LCD_GetNumDisplays.c 0x00000000   Number         0  lcd_getnumdisplays.o ABSOLUTE
    ..\..\..\Utilities\Third_Party\STemWin522\GUI\Core\LCD_GetP.c 0x00000000   Number         0  lcd_getp.o ABSOLUTE
    ..\..\..\Utilities\Third_Party\STemWin522\GUI\Core\LCD_GetPixelColor.c 0x00000000   Number         0  lcd_getpixelcolor.o ABSOLUTE
    ..\..\..\Utilities\Third_Party\STemWin522\GUI\Core\LCD_Info.c 0x00000000   Number         0  lcd_info.o ABSOLUTE
    ..\..\..\Utilities\Third_Party\STemWin522\GUI\Core\LCD_Mirror.c 0x00000000   Number         0  lcd_mirror.o ABSOLUTE
    ..\..\..\Utilities\Third_Party\STemWin522\GUI\Core\LCD_RLE4.c 0x00000000   Number         0  lcd_rle4.o ABSOLUTE
    ..\..\..\Utilities\Third_Party\STemWin522\GUI\Core\LCD_RLE8.c 0x00000000   Number         0  lcd_rle8.o ABSOLUTE
    ..\..\..\Utilities\Third_Party\STemWin522\GUI\Core\LCD_ReadRect.c 0x00000000   Number         0  lcd_readrect.o ABSOLUTE
    ..\..\..\Utilities\Third_Party\STemWin522\GUI\Core\LCD_SelectLCD.c 0x00000000   Number         0  lcd_selectlcd.o ABSOLUTE
    ..\..\..\Utilities\Third_Party\STemWin522\GUI\Core\LCD_Set.c 0x00000000   Number         0  lcd_set.o ABSOLUTE
    ..\..\..\Utilities\Third_Party\STemWin522\GUI\Core\LCD_SetClipRectEx.c 0x00000000   Number         0  lcd_setcliprectex.o ABSOLUTE
    ..\..\..\Utilities\Third_Party\STemWin522\GUI\Core\LCD_UpdateColorIndices.c 0x00000000   Number         0  lcd_updatecolorindices.o ABSOLUTE
    ..\..\..\Utilities\Third_Party\STemWin522\GUI\Font\F08_1.c 0x00000000   Number         0  f08_1.o ABSOLUTE
    ..\..\..\Utilities\Third_Party\STemWin522\GUI\Font\F08_ASCII.c 0x00000000   Number         0  f08_ascii.o ABSOLUTE
    ..\..\..\Utilities\Third_Party\STemWin522\GUI\Font\F10S_ASCII.c 0x00000000   Number         0  f10s_ascii.o ABSOLUTE
    ..\..\..\Utilities\Third_Party\STemWin522\GUI\Font\F13_1.c 0x00000000   Number         0  f13_1.o ABSOLUTE
    ..\..\..\Utilities\Third_Party\STemWin522\GUI\Font\F13_ASCII.c 0x00000000   Number         0  f13_ascii.o ABSOLUTE
    ..\..\..\Utilities\Third_Party\STemWin522\GUI\Font\F16_1.c 0x00000000   Number         0  f16_1.o ABSOLUTE
    ..\..\..\Utilities\Third_Party\STemWin522\GUI\Font\F16_ASCII.c 0x00000000   Number         0  f16_ascii.o ABSOLUTE
    ..\..\..\Utilities\Third_Party\STemWin522\GUI\Font\F32B_ASCII.c 0x00000000   Number         0  f32b_ascii.o ABSOLUTE
    ..\..\..\Utilities\Third_Party\STemWin522\GUI\Font\F6x8.c 0x00000000   Number         0  f6x8.o ABSOLUTE
    ..\..\..\Utilities\Third_Party\STemWin522\GUI\Font\FComic18B_ASCII.c 0x00000000   Number         0  fcomic18b_ascii.o ABSOLUTE
    ..\..\..\Utilities\Third_Party\STemWin522\GUI\Font\FComic24B_ASCII.c 0x00000000   Number         0  fcomic24b_ascii.o ABSOLUTE
    ..\..\..\Utilities\Third_Party\STemWin522\GUI\MemDev\GUIDEV.c 0x00000000   Number         0  guidev.o ABSOLUTE
    ..\..\..\Utilities\Third_Party\STemWin522\GUI\MemDev\GUIDEV_16.c 0x00000000   Number         0  guidev_16.o ABSOLUTE
    ..\..\..\Utilities\Third_Party\STemWin522\GUI\MemDev\GUIDEV_32.c 0x00000000   Number         0  guidev_32.o ABSOLUTE
    ..\..\..\Utilities\Third_Party\STemWin522\GUI\MemDev\GUIDEV_Auto.c 0x00000000   Number         0  guidev_auto.o ABSOLUTE
    ..\..\..\Utilities\Third_Party\STemWin522\GUI\MemDev\GUIDEV_Banding.c 0x00000000   Number         0  guidev_banding.o ABSOLUTE
    ..\..\..\Utilities\Third_Party\STemWin522\GUI\MemDev\GUIDEV_Clear.c 0x00000000   Number         0  guidev_clear.o ABSOLUTE
    ..\..\..\Utilities\Third_Party\STemWin522\GUI\MemDev\GUIDEV_CreateFixed.c 0x00000000   Number         0  guidev_createfixed.o ABSOLUTE
    ..\..\..\Utilities\Third_Party\STemWin522\GUI\MemDev\GUIDEV_GetDataPtr.c 0x00000000   Number         0  guidev_getdataptr.o ABSOLUTE
    ..\..\..\Utilities\Third_Party\STemWin522\GUI\MemDev\GUIDEV_GetPos.c 0x00000000   Number         0  guidev_getpos.o ABSOLUTE
    ..\..\..\Utilities\Third_Party\STemWin522\GUI\MemDev\GUIDEV_GetXSize.c 0x00000000   Number         0  guidev_getxsize.o ABSOLUTE
    ..\..\..\Utilities\Third_Party\STemWin522\GUI\MemDev\GUIDEV_GetYSize.c 0x00000000   Number         0  guidev_getysize.o ABSOLUTE
    ..\..\..\Utilities\Third_Party\STemWin522\GUI\MemDev\GUIDEV_Measure.c 0x00000000   Number         0  guidev_measure.o ABSOLUTE
    ..\..\..\Utilities\Third_Party\STemWin522\GUI\MemDev\GUIDEV_MoveAndFade.c 0x00000000   Number         0  guidev_moveandfade.o ABSOLUTE
    ..\..\..\Utilities\Third_Party\STemWin522\GUI\MemDev\GUIDEV_Perspective.c 0x00000000   Number         0  guidev_perspective.o ABSOLUTE
    ..\..\..\Utilities\Third_Party\STemWin522\GUI\MemDev\GUIDEV_ReduceYSize.c 0x00000000   Number         0  guidev_reduceysize.o ABSOLUTE
    ..\..\..\Utilities\Third_Party\STemWin522\GUI\MemDev\GUIDEV_SetOrg.c 0x00000000   Number         0  guidev_setorg.o ABSOLUTE
    ..\..\..\Utilities\Third_Party\STemWin522\GUI\MemDev\GUIDEV_StaticDevices.c 0x00000000   Number         0  guidev_staticdevices.o ABSOLUTE
    ..\..\..\Utilities\Third_Party\STemWin522\GUI\MemDev\GUIDEV_Usage.c 0x00000000   Number         0  guidev_usage.o ABSOLUTE
    ..\..\..\Utilities\Third_Party\STemWin522\GUI\MemDev\GUIDEV_UsageBM.c 0x00000000   Number         0  guidev_usagebm.o ABSOLUTE
    ..\..\..\Utilities\Third_Party\STemWin522\GUI\MemDev\GUIDEV_Write.c 0x00000000   Number         0  guidev_write.o ABSOLUTE
    ..\..\..\Utilities\Third_Party\STemWin522\GUI\MemDev\GUIDEV_WriteToActiveAlpha.c 0x00000000   Number         0  guidev_writetoactivealpha.o ABSOLUTE
    ..\..\..\Utilities\Third_Party\STemWin522\GUI\MemDev\GUIDEV_WriteToActiveOpaque.c 0x00000000   Number         0  guidev_writetoactiveopaque.o ABSOLUTE
    ..\..\..\Utilities\Third_Party\STemWin522\GUI\WM\WM.c 0x00000000   Number         0  wm.o ABSOLUTE
    ..\..\..\Utilities\Third_Party\STemWin522\GUI\WM\WM_BringToBottom.c 0x00000000   Number         0  wm_bringtobottom.o ABSOLUTE
    ..\..\..\Utilities\Third_Party\STemWin522\GUI\WM\WM_BringToTop.c 0x00000000   Number         0  wm_bringtotop.o ABSOLUTE
    ..\..\..\Utilities\Third_Party\STemWin522\GUI\WM\WM_CheckScrollPos.c 0x00000000   Number         0  wm_checkscrollpos.o ABSOLUTE
    ..\..\..\Utilities\Third_Party\STemWin522\GUI\WM\WM_CriticalHandle.c 0x00000000   Number         0  wm_criticalhandle.o ABSOLUTE
    ..\..\..\Utilities\Third_Party\STemWin522\GUI\WM\WM_ForEachDesc.c 0x00000000   Number         0  wm_foreachdesc.o ABSOLUTE
    ..\..\..\Utilities\Third_Party\STemWin522\GUI\WM\WM_GetBkColor.c 0x00000000   Number         0  wm_getbkcolor.o ABSOLUTE
    ..\..\..\Utilities\Third_Party\STemWin522\GUI\WM\WM_GetClientRect.c 0x00000000   Number         0  wm_getclientrect.o ABSOLUTE
    ..\..\..\Utilities\Third_Party\STemWin522\GUI\WM\WM_GetClientWindow.c 0x00000000   Number         0  wm_getclientwindow.o ABSOLUTE
    ..\..\..\Utilities\Third_Party\STemWin522\GUI\WM\WM_GetDesktopWindow.c 0x00000000   Number         0  wm_getdesktopwindow.o ABSOLUTE
    ..\..\..\Utilities\Third_Party\STemWin522\GUI\WM\WM_GetDesktopWindowEx.c 0x00000000   Number         0  wm_getdesktopwindowex.o ABSOLUTE
    ..\..\..\Utilities\Third_Party\STemWin522\GUI\WM\WM_GetDialogItem.c 0x00000000   Number         0  wm_getdialogitem.o ABSOLUTE
    ..\..\..\Utilities\Third_Party\STemWin522\GUI\WM\WM_GetFirstChild.c 0x00000000   Number         0  wm_getfirstchild.o ABSOLUTE
    ..\..\..\Utilities\Third_Party\STemWin522\GUI\WM\WM_GetFlags.c 0x00000000   Number         0  wm_getflags.o ABSOLUTE
    ..\..\..\Utilities\Third_Party\STemWin522\GUI\WM\WM_GetFocussedWindow.c 0x00000000   Number         0  wm_getfocussedwindow.o ABSOLUTE
    ..\..\..\Utilities\Third_Party\STemWin522\GUI\WM\WM_GetId.c 0x00000000   Number         0  wm_getid.o ABSOLUTE
    ..\..\..\Utilities\Third_Party\STemWin522\GUI\WM\WM_GetInsideRect.c 0x00000000   Number         0  wm_getinsiderect.o ABSOLUTE
    ..\..\..\Utilities\Third_Party\STemWin522\GUI\WM\WM_GetInsideRectExScrollbar.c 0x00000000   Number         0  wm_getinsiderectexscrollbar.o ABSOLUTE
    ..\..\..\Utilities\Third_Party\STemWin522\GUI\WM\WM_GetNextSibling.c 0x00000000   Number         0  wm_getnextsibling.o ABSOLUTE
    ..\..\..\Utilities\Third_Party\STemWin522\GUI\WM\WM_GetOrg.c 0x00000000   Number         0  wm_getorg.o ABSOLUTE
    ..\..\..\Utilities\Third_Party\STemWin522\GUI\WM\WM_GetParent.c 0x00000000   Number         0  wm_getparent.o ABSOLUTE
    ..\..\..\Utilities\Third_Party\STemWin522\GUI\WM\WM_GetScrollPartner.c 0x00000000   Number         0  wm_getscrollpartner.o ABSOLUTE
    ..\..\..\Utilities\Third_Party\STemWin522\GUI\WM\WM_GetScrollState.c 0x00000000   Number         0  wm_getscrollstate.o ABSOLUTE
    ..\..\..\Utilities\Third_Party\STemWin522\GUI\WM\WM_GetScrollbar.c 0x00000000   Number         0  wm_getscrollbar.o ABSOLUTE
    ..\..\..\Utilities\Third_Party\STemWin522\GUI\WM\WM_GetWindowRect.c 0x00000000   Number         0  wm_getwindowrect.o ABSOLUTE
    ..\..\..\Utilities\Third_Party\STemWin522\GUI\WM\WM_GetWindowSize.c 0x00000000   Number         0  wm_getwindowsize.o ABSOLUTE
    ..\..\..\Utilities\Third_Party\STemWin522\GUI\WM\WM_HasCaptured.c 0x00000000   Number         0  wm_hascaptured.o ABSOLUTE
    ..\..\..\Utilities\Third_Party\STemWin522\GUI\WM\WM_HasFocus.c 0x00000000   Number         0  wm_hasfocus.o ABSOLUTE
    ..\..\..\Utilities\Third_Party\STemWin522\GUI\WM\WM_Hide.c 0x00000000   Number         0  wm_hide.o ABSOLUTE
    ..\..\..\Utilities\Third_Party\STemWin522\GUI\WM\WM_InvalidateArea.c 0x00000000   Number         0  wm_invalidatearea.o ABSOLUTE
    ..\..\..\Utilities\Third_Party\STemWin522\GUI\WM\WM_IsFocussable.c 0x00000000   Number         0  wm_isfocussable.o ABSOLUTE
    ..\..\..\Utilities\Third_Party\STemWin522\GUI\WM\WM_IsVisible.c 0x00000000   Number         0  wm_isvisible.o ABSOLUTE
    ..\..\..\Utilities\Third_Party\STemWin522\GUI\WM\WM_IsWindow.c 0x00000000   Number         0  wm_iswindow.o ABSOLUTE
    ..\..\..\Utilities\Third_Party\STemWin522\GUI\WM\WM_MakeModal.c 0x00000000   Number         0  wm_makemodal.o ABSOLUTE
    ..\..\..\Utilities\Third_Party\STemWin522\GUI\WM\WM_MemDev.c 0x00000000   Number         0  wm_memdev.o ABSOLUTE
    ..\..\..\Utilities\Third_Party\STemWin522\GUI\WM\WM_Move.c 0x00000000   Number         0  wm_move.o ABSOLUTE
    ..\..\..\Utilities\Third_Party\STemWin522\GUI\WM\WM_MoveChildTo.c 0x00000000   Number         0  wm_movechildto.o ABSOLUTE
    ..\..\..\Utilities\Third_Party\STemWin522\GUI\WM\WM_NotifyParent.c 0x00000000   Number         0  wm_notifyparent.o ABSOLUTE
    ..\..\..\Utilities\Third_Party\STemWin522\GUI\WM\WM_OnKey.c 0x00000000   Number         0  wm_onkey.o ABSOLUTE
    ..\..\..\Utilities\Third_Party\STemWin522\GUI\WM\WM_PID__GetPrevState.c 0x00000000   Number         0  wm_pid__getprevstate.o ABSOLUTE
    ..\..\..\Utilities\Third_Party\STemWin522\GUI\WM\WM_ResizeWindow.c 0x00000000   Number         0  wm_resizewindow.o ABSOLUTE
    ..\..\..\Utilities\Third_Party\STemWin522\GUI\WM\WM_Screen2Win.c 0x00000000   Number         0  wm_screen2win.o ABSOLUTE
    ..\..\..\Utilities\Third_Party\STemWin522\GUI\WM\WM_SendMessageNoPara.c 0x00000000   Number         0  wm_sendmessagenopara.o ABSOLUTE
    ..\..\..\Utilities\Third_Party\STemWin522\GUI\WM\WM_SendToParent.c 0x00000000   Number         0  wm_sendtoparent.o ABSOLUTE
    ..\..\..\Utilities\Third_Party\STemWin522\GUI\WM\WM_SetCallback.c 0x00000000   Number         0  wm_setcallback.o ABSOLUTE
    ..\..\..\Utilities\Third_Party\STemWin522\GUI\WM\WM_SetCapture.c 0x00000000   Number         0  wm_setcapture.o ABSOLUTE
    ..\..\..\Utilities\Third_Party\STemWin522\GUI\WM\WM_SetCaptureMove.c 0x00000000   Number         0  wm_setcapturemove.o ABSOLUTE
    ..\..\..\Utilities\Third_Party\STemWin522\GUI\WM\WM_SetCreateFlags.c 0x00000000   Number         0  wm_setcreateflags.o ABSOLUTE
    ..\..\..\Utilities\Third_Party\STemWin522\GUI\WM\WM_SetFocus.c 0x00000000   Number         0  wm_setfocus.o ABSOLUTE
    ..\..\..\Utilities\Third_Party\STemWin522\GUI\WM\WM_SetFocusOnNextChild.c 0x00000000   Number         0  wm_setfocusonnextchild.o ABSOLUTE
    ..\..\..\Utilities\Third_Party\STemWin522\GUI\WM\WM_SetFocusOnPrevChild.c 0x00000000   Number         0  wm_setfocusonprevchild.o ABSOLUTE
    ..\..\..\Utilities\Third_Party\STemWin522\GUI\WM\WM_SetScrollState.c 0x00000000   Number         0  wm_setscrollstate.o ABSOLUTE
    ..\..\..\Utilities\Third_Party\STemWin522\GUI\WM\WM_SetScrollbar.c 0x00000000   Number         0  wm_setscrollbar.o ABSOLUTE
    ..\..\..\Utilities\Third_Party\STemWin522\GUI\WM\WM_SetSize.c 0x00000000   Number         0  wm_setsize.o ABSOLUTE
    ..\..\..\Utilities\Third_Party\STemWin522\GUI\WM\WM_SetTrans.c 0x00000000   Number         0  wm_settrans.o ABSOLUTE
    ..\..\..\Utilities\Third_Party\STemWin522\GUI\WM\WM_SetUserClipRect.c 0x00000000   Number         0  wm_setusercliprect.o ABSOLUTE
    ..\..\..\Utilities\Third_Party\STemWin522\GUI\WM\WM_SetWindowPos.c 0x00000000   Number         0  wm_setwindowpos.o ABSOLUTE
    ..\..\..\Utilities\Third_Party\STemWin522\GUI\WM\WM_Show.c 0x00000000   Number         0  wm_show.o ABSOLUTE
    ..\..\..\Utilities\Third_Party\STemWin522\GUI\WM\WM_Timer.c 0x00000000   Number         0  wm_timer.o ABSOLUTE
    ..\..\..\Utilities\Third_Party\STemWin522\GUI\WM\WM_Touch.c 0x00000000   Number         0  wm_touch.o ABSOLUTE
    ..\..\..\Utilities\Third_Party\STemWin522\GUI\WM\WM_UserData.c 0x00000000   Number         0  wm_userdata.o ABSOLUTE
    ..\..\..\Utilities\Third_Party\STemWin522\GUI\WM\WM_ValidateWindow.c 0x00000000   Number         0  wm_validatewindow.o ABSOLUTE
    ..\..\..\Utilities\Third_Party\STemWin522\GUI\WM\WM__ForEachDesc.c 0x00000000   Number         0  wm__foreachdesc.o ABSOLUTE
    ..\..\..\Utilities\Third_Party\STemWin522\GUI\WM\WM__GetFirstSibling.c 0x00000000   Number         0  wm__getfirstsibling.o ABSOLUTE
    ..\..\..\Utilities\Third_Party\STemWin522\GUI\WM\WM__GetFocussedChild.c 0x00000000   Number         0  wm__getfocussedchild.o ABSOLUTE
    ..\..\..\Utilities\Third_Party\STemWin522\GUI\WM\WM__GetLastSibling.c 0x00000000   Number         0  wm__getlastsibling.o ABSOLUTE
    ..\..\..\Utilities\Third_Party\STemWin522\GUI\WM\WM__GetOrg_AA.c 0x00000000   Number         0  wm__getorg_aa.o ABSOLUTE
    ..\..\..\Utilities\Third_Party\STemWin522\GUI\WM\WM__GetPrevSibling.c 0x00000000   Number         0  wm__getprevsibling.o ABSOLUTE
    ..\..\..\Utilities\Third_Party\STemWin522\GUI\WM\WM__IsAncestor.c 0x00000000   Number         0  wm__isancestor.o ABSOLUTE
    ..\..\..\Utilities\Third_Party\STemWin522\GUI\WM\WM__IsChild.c 0x00000000   Number         0  wm__ischild.o ABSOLUTE
    ..\..\..\Utilities\Third_Party\STemWin522\GUI\WM\WM__IsEnabled.c 0x00000000   Number         0  wm__isenabled.o ABSOLUTE
    ..\..\..\Utilities\Third_Party\STemWin522\GUI\WM\WM__Screen2Client.c 0x00000000   Number         0  wm__screen2client.o ABSOLUTE
    ..\..\..\Utilities\Third_Party\STemWin522\GUI\WM\WM__SendMessage.c 0x00000000   Number         0  wm__sendmessage.o ABSOLUTE
    ..\..\..\Utilities\Third_Party\STemWin522\GUI\WM\WM__SendMessageIfEnabled.c 0x00000000   Number         0  wm__sendmessageifenabled.o ABSOLUTE
    ..\..\..\Utilities\Third_Party\STemWin522\GUI\WM\WM__SendMessageNoPara.c 0x00000000   Number         0  wm__sendmessagenopara.o ABSOLUTE
    ..\..\..\Utilities\Third_Party\STemWin522\GUI\WM\WM__UpdateChildPositions.c 0x00000000   Number         0  wm__updatechildpositions.o ABSOLUTE
    ..\..\..\Utilities\Third_Party\STemWin522\GUI\Widget\BUTTON.c 0x00000000   Number         0  button.o ABSOLUTE
    ..\..\..\Utilities\Third_Party\STemWin522\GUI\Widget\BUTTON_Bitmap.c 0x00000000   Number         0  button_bitmap.o ABSOLUTE
    ..\..\..\Utilities\Third_Party\STemWin522\GUI\Widget\BUTTON_Color.c 0x00000000   Number         0  button_color.o ABSOLUTE
    ..\..\..\Utilities\Third_Party\STemWin522\GUI\Widget\BUTTON_CreateIndirect.c 0x00000000   Number         0  button_createindirect.o ABSOLUTE
    ..\..\..\Utilities\Third_Party\STemWin522\GUI\Widget\BUTTON_SetTextAlign.c 0x00000000   Number         0  button_settextalign.o ABSOLUTE
    ..\..\..\Utilities\Third_Party\STemWin522\GUI\Widget\BUTTON_Skin.c 0x00000000   Number         0  button_skin.o ABSOLUTE
    ..\..\..\Utilities\Third_Party\STemWin522\GUI\Widget\BUTTON_SkinClassic.c 0x00000000   Number         0  button_skinclassic.o ABSOLUTE
    ..\..\..\Utilities\Third_Party\STemWin522\GUI\Widget\BUTTON_SkinFlex.c 0x00000000   Number         0  button_skinflex.o ABSOLUTE
    ..\..\..\Utilities\Third_Party\STemWin522\GUI\Widget\BUTTON__SetBitmapObj.c 0x00000000   Number         0  button__setbitmapobj.o ABSOLUTE
    ..\..\..\Utilities\Third_Party\STemWin522\GUI\Widget\DIALOG.c 0x00000000   Number         0  dialog.o ABSOLUTE
    ..\..\..\Utilities\Third_Party\STemWin522\GUI\Widget\FRAMEWIN.c 0x00000000   Number         0  framewin.o ABSOLUTE
    ..\..\..\Utilities\Third_Party\STemWin522\GUI\Widget\FRAMEWIN_CreateIndirect.c 0x00000000   Number         0  framewin_createindirect.o ABSOLUTE
    ..\..\..\Utilities\Third_Party\STemWin522\GUI\Widget\FRAMEWIN_Default.c 0x00000000   Number         0  framewin_default.o ABSOLUTE
    ..\..\..\Utilities\Third_Party\STemWin522\GUI\Widget\FRAMEWIN_Get.c 0x00000000   Number         0  framewin_get.o ABSOLUTE
    ..\..\..\Utilities\Third_Party\STemWin522\GUI\Widget\FRAMEWIN_SetBorderSize.c 0x00000000   Number         0  framewin_setbordersize.o ABSOLUTE
    ..\..\..\Utilities\Third_Party\STemWin522\GUI\Widget\FRAMEWIN_SetColors.c 0x00000000   Number         0  framewin_setcolors.o ABSOLUTE
    ..\..\..\Utilities\Third_Party\STemWin522\GUI\Widget\FRAMEWIN_SetFont.c 0x00000000   Number         0  framewin_setfont.o ABSOLUTE
    ..\..\..\Utilities\Third_Party\STemWin522\GUI\Widget\FRAMEWIN_SetOwnerDraw.c 0x00000000   Number         0  framewin_setownerdraw.o ABSOLUTE
    ..\..\..\Utilities\Third_Party\STemWin522\GUI\Widget\FRAMEWIN_SetTitleHeight.c 0x00000000   Number         0  framewin_settitleheight.o ABSOLUTE
    ..\..\..\Utilities\Third_Party\STemWin522\GUI\Widget\FRAMEWIN_SetTitleVis.c 0x00000000   Number         0  framewin_settitlevis.o ABSOLUTE
    ..\..\..\Utilities\Third_Party\STemWin522\GUI\Widget\FRAMEWIN_Skin.c 0x00000000   Number         0  framewin_skin.o ABSOLUTE
    ..\..\..\Utilities\Third_Party\STemWin522\GUI\Widget\FRAMEWIN_SkinClassic.c 0x00000000   Number         0  framewin_skinclassic.o ABSOLUTE
    ..\..\..\Utilities\Third_Party\STemWin522\GUI\Widget\FRAMEWIN_SkinFlex.c 0x00000000   Number         0  framewin_skinflex.o ABSOLUTE
    ..\..\..\Utilities\Third_Party\STemWin522\GUI\Widget\FRAMEWIN__UpdateButtons.c 0x00000000   Number         0  framewin__updatebuttons.o ABSOLUTE
    ..\..\..\Utilities\Third_Party\STemWin522\GUI\Widget\GRAPH.c 0x00000000   Number         0  graph.o ABSOLUTE
    ..\..\..\Utilities\Third_Party\STemWin522\GUI\Widget\GRAPH_DATA_YT.c 0x00000000   Number         0  graph_data_yt.o ABSOLUTE
    ..\..\..\Utilities\Third_Party\STemWin522\GUI\Widget\GRAPH_SCALE.c 0x00000000   Number         0  graph_scale.o ABSOLUTE
    ..\..\..\Utilities\Third_Party\STemWin522\GUI\Widget\GUI_ARRAY.c 0x00000000   Number         0  gui_array.o ABSOLUTE
    ..\..\..\Utilities\Third_Party\STemWin522\GUI\Widget\GUI_ARRAY_DeleteItem.c 0x00000000   Number         0  gui_array_deleteitem.o ABSOLUTE
    ..\..\..\Utilities\Third_Party\STemWin522\GUI\Widget\GUI_ARRAY_InsertItem.c 0x00000000   Number         0  gui_array_insertitem.o ABSOLUTE
    ..\..\..\Utilities\Third_Party\STemWin522\GUI\Widget\GUI_ARRAY_ResizeItem.c 0x00000000   Number         0  gui_array_resizeitem.o ABSOLUTE
    ..\..\..\Utilities\Third_Party\STemWin522\GUI\Widget\GUI_DRAW.c 0x00000000   Number         0  gui_draw.o ABSOLUTE
    ..\..\..\Utilities\Third_Party\STemWin522\GUI\Widget\GUI_DRAW_BITMAP.c 0x00000000   Number         0  gui_draw_bitmap.o ABSOLUTE
    ..\..\..\Utilities\Third_Party\STemWin522\GUI\Widget\HEADER.c 0x00000000   Number         0  header.o ABSOLUTE
    ..\..\..\Utilities\Third_Party\STemWin522\GUI\Widget\HEADER_GetSel.c 0x00000000   Number         0  header_getsel.o ABSOLUTE
    ..\..\..\Utilities\Third_Party\STemWin522\GUI\Widget\HEADER_SetDragLimit.c 0x00000000   Number         0  header_setdraglimit.o ABSOLUTE
    ..\..\..\Utilities\Third_Party\STemWin522\GUI\Widget\HEADER_Skin.c 0x00000000   Number         0  header_skin.o ABSOLUTE
    ..\..\..\Utilities\Third_Party\STemWin522\GUI\Widget\HEADER_SkinClassic.c 0x00000000   Number         0  header_skinclassic.o ABSOLUTE
    ..\..\..\Utilities\Third_Party\STemWin522\GUI\Widget\HEADER_SkinFlex.c 0x00000000   Number         0  header_skinflex.o ABSOLUTE
    ..\..\..\Utilities\Third_Party\STemWin522\GUI\Widget\LISTVIEW.c 0x00000000   Number         0  listview.o ABSOLUTE
    ..\..\..\Utilities\Third_Party\STemWin522\GUI\Widget\LISTVIEW_DeleteRow.c 0x00000000   Number         0  listview_deleterow.o ABSOLUTE
    ..\..\..\Utilities\Third_Party\STemWin522\GUI\Widget\LISTVIEW_DisableRow.c 0x00000000   Number         0  listview_disablerow.o ABSOLUTE
    ..\..\..\Utilities\Third_Party\STemWin522\GUI\Widget\LISTVIEW_GetHeader.c 0x00000000   Number         0  listview_getheader.o ABSOLUTE
    ..\..\..\Utilities\Third_Party\STemWin522\GUI\Widget\LISTVIEW_GetItemText.c 0x00000000   Number         0  listview_getitemtext.o ABSOLUTE
    ..\..\..\Utilities\Third_Party\STemWin522\GUI\Widget\LISTVIEW_GetNumColumns.c 0x00000000   Number         0  listview_getnumcolumns.o ABSOLUTE
    ..\..\..\Utilities\Third_Party\STemWin522\GUI\Widget\LISTVIEW_GetNumRows.c 0x00000000   Number         0  listview_getnumrows.o ABSOLUTE
    ..\..\..\Utilities\Third_Party\STemWin522\GUI\Widget\LISTVIEW_GetSel.c 0x00000000   Number         0  listview_getsel.o ABSOLUTE
    ..\..\..\Utilities\Third_Party\STemWin522\GUI\Widget\LISTVIEW_GetWrapMode.c 0x00000000   Number         0  listview_getwrapmode.o ABSOLUTE
    ..\..\..\Utilities\Third_Party\STemWin522\GUI\Widget\LISTVIEW_InsertRow.c 0x00000000   Number         0  listview_insertrow.o ABSOLUTE
    ..\..\..\Utilities\Third_Party\STemWin522\GUI\Widget\LISTVIEW_SetAutoScroll.c 0x00000000   Number         0  listview_setautoscroll.o ABSOLUTE
    ..\..\..\Utilities\Third_Party\STemWin522\GUI\Widget\LISTVIEW_SetGridVis.c 0x00000000   Number         0  listview_setgridvis.o ABSOLUTE
    ..\..\..\Utilities\Third_Party\STemWin522\GUI\Widget\LISTVIEW_SetItemColor.c 0x00000000   Number         0  listview_setitemcolor.o ABSOLUTE
    ..\..\..\Utilities\Third_Party\STemWin522\GUI\Widget\LISTVIEW_SetLBorder.c 0x00000000   Number         0  listview_setlborder.o ABSOLUTE
    ..\..\..\Utilities\Third_Party\STemWin522\GUI\Widget\LISTVIEW_SetRBorder.c 0x00000000   Number         0  listview_setrborder.o ABSOLUTE
    ..\..\..\Utilities\Third_Party\STemWin522\GUI\Widget\LISTVIEW_SetSel.c 0x00000000   Number         0  listview_setsel.o ABSOLUTE
    ..\..\..\Utilities\Third_Party\STemWin522\GUI\Widget\LISTVIEW_SetSort.c 0x00000000   Number         0  listview_setsort.o ABSOLUTE
    ..\..\..\Utilities\Third_Party\STemWin522\GUI\Widget\PROGBAR.c 0x00000000   Number         0  progbar.o ABSOLUTE
    ..\..\..\Utilities\Third_Party\STemWin522\GUI\Widget\PROGBAR_CreateIndirect.c 0x00000000   Number         0  progbar_createindirect.o ABSOLUTE
    ..\..\..\Utilities\Third_Party\STemWin522\GUI\Widget\PROGBAR_SetFont.c 0x00000000   Number         0  progbar_setfont.o ABSOLUTE
    ..\..\..\Utilities\Third_Party\STemWin522\GUI\Widget\PROGBAR_SetMinMax.c 0x00000000   Number         0  progbar_setminmax.o ABSOLUTE
    ..\..\..\Utilities\Third_Party\STemWin522\GUI\Widget\PROGBAR_SetTextAlign.c 0x00000000   Number         0  progbar_settextalign.o ABSOLUTE
    ..\..\..\Utilities\Third_Party\STemWin522\GUI\Widget\PROGBAR_Skin.c 0x00000000   Number         0  progbar_skin.o ABSOLUTE
    ..\..\..\Utilities\Third_Party\STemWin522\GUI\Widget\PROGBAR_SkinClassic.c 0x00000000   Number         0  progbar_skinclassic.o ABSOLUTE
    ..\..\..\Utilities\Third_Party\STemWin522\GUI\Widget\PROGBAR_SkinFlex.c 0x00000000   Number         0  progbar_skinflex.o ABSOLUTE
    ..\..\..\Utilities\Third_Party\STemWin522\GUI\Widget\SCROLLBAR.c 0x00000000   Number         0  scrollbar.o ABSOLUTE
    ..\..\..\Utilities\Third_Party\STemWin522\GUI\Widget\SCROLLBAR_Create.c 0x00000000   Number         0  scrollbar_create.o ABSOLUTE
    ..\..\..\Utilities\Third_Party\STemWin522\GUI\Widget\SCROLLBAR_GetValue.c 0x00000000   Number         0  scrollbar_getvalue.o ABSOLUTE
    ..\..\..\Utilities\Third_Party\STemWin522\GUI\Widget\SCROLLBAR_Skin.c 0x00000000   Number         0  scrollbar_skin.o ABSOLUTE
    ..\..\..\Utilities\Third_Party\STemWin522\GUI\Widget\SCROLLBAR_SkinClassic.c 0x00000000   Number         0  scrollbar_skinclassic.o ABSOLUTE
    ..\..\..\Utilities\Third_Party\STemWin522\GUI\Widget\SCROLLBAR_SkinFlex.c 0x00000000   Number         0  scrollbar_skinflex.o ABSOLUTE
    ..\..\..\Utilities\Third_Party\STemWin522\GUI\Widget\SLIDER.c 0x00000000   Number         0  slider.o ABSOLUTE
    ..\..\..\Utilities\Third_Party\STemWin522\GUI\Widget\SLIDER_CreateIndirect.c 0x00000000   Number         0  slider_createindirect.o ABSOLUTE
    ..\..\..\Utilities\Third_Party\STemWin522\GUI\Widget\SLIDER_Skin.c 0x00000000   Number         0  slider_skin.o ABSOLUTE
    ..\..\..\Utilities\Third_Party\STemWin522\GUI\Widget\SLIDER_SkinClassic.c 0x00000000   Number         0  slider_skinclassic.o ABSOLUTE
    ..\..\..\Utilities\Third_Party\STemWin522\GUI\Widget\SLIDER_SkinFlex.c 0x00000000   Number         0  slider_skinflex.o ABSOLUTE
    ..\..\..\Utilities\Third_Party\STemWin522\GUI\Widget\TEXT.c 0x00000000   Number         0  text.o ABSOLUTE
    ..\..\..\Utilities\Third_Party\STemWin522\GUI\Widget\TEXT_CreateIndirect.c 0x00000000   Number         0  text_createindirect.o ABSOLUTE
    ..\..\..\Utilities\Third_Party\STemWin522\GUI\Widget\TEXT_Default.c 0x00000000   Number         0  text_default.o ABSOLUTE
    ..\..\..\Utilities\Third_Party\STemWin522\GUI\Widget\TEXT_SetBkColor.c 0x00000000   Number         0  text_setbkcolor.o ABSOLUTE
    ..\..\..\Utilities\Third_Party\STemWin522\GUI\Widget\TEXT_SetFont.c 0x00000000   Number         0  text_setfont.o ABSOLUTE
    ..\..\..\Utilities\Third_Party\STemWin522\GUI\Widget\TEXT_SetText.c 0x00000000   Number         0  text_settext.o ABSOLUTE
    ..\..\..\Utilities\Third_Party\STemWin522\GUI\Widget\TEXT_SetTextAlign.c 0x00000000   Number         0  text_settextalign.o ABSOLUTE
    ..\..\..\Utilities\Third_Party\STemWin522\GUI\Widget\TEXT_SetTextColor.c 0x00000000   Number         0  text_settextcolor.o ABSOLUTE
    ..\..\..\Utilities\Third_Party\STemWin522\GUI\Widget\TREEVIEW.c 0x00000000   Number         0  treeview.o ABSOLUTE
    ..\..\..\Utilities\Third_Party\STemWin522\GUI\Widget\TREEVIEW_CreateIndirect.c 0x00000000   Number         0  treeview_createindirect.o ABSOLUTE
    ..\..\..\Utilities\Third_Party\STemWin522\GUI\Widget\TREEVIEW_Image.c 0x00000000   Number         0  treeview_image.o ABSOLUTE
    ..\..\..\Utilities\Third_Party\STemWin522\GUI\Widget\WIDGET.c 0x00000000   Number         0  widget.o ABSOLUTE
    ..\..\..\Utilities\Third_Party\STemWin522\GUI\Widget\WIDGET_Effect_3D.c 0x00000000   Number         0  widget_effect_3d.o ABSOLUTE
    ..\..\..\Utilities\Third_Party\STemWin522\GUI\Widget\WIDGET_Effect_None.c 0x00000000   Number         0  widget_effect_none.o ABSOLUTE
    ..\..\..\Utilities\Third_Party\STemWin522\GUI\Widget\WIDGET_Effect_Simple.c 0x00000000   Number         0  widget_effect_simple.o ABSOLUTE
    ..\..\..\Utilities\Third_Party\STemWin522\GUI\Widget\WIDGET_FillStringInRect.c 0x00000000   Number         0  widget_fillstringinrect.o ABSOLUTE
    ..\..\..\Utilities\Third_Party\STemWin522\GUI\Widget\WIDGET_SetEffect.c 0x00000000   Number         0  widget_seteffect.o ABSOLUTE
    ..\..\EMWIN\Demo\GUIDEMO.c               0x00000000   Number         0  guidemo.o ABSOLUTE
    ..\..\EMWIN\Demo\GUIDEMO_AntialiasedText.c 0x00000000   Number         0  guidemo_antialiasedtext.o ABSOLUTE
    ..\..\EMWIN\Demo\GUIDEMO_Automotive.c    0x00000000   Number         0  guidemo_automotive.o ABSOLUTE
    ..\..\EMWIN\Demo\GUIDEMO_BarGraph.c      0x00000000   Number         0  guidemo_bargraph.o ABSOLUTE
    ..\..\EMWIN\Demo\GUIDEMO_Bitmap.c        0x00000000   Number         0  guidemo_bitmap.o ABSOLUTE
    ..\..\EMWIN\Demo\GUIDEMO_ColorBar.c      0x00000000   Number         0  guidemo_colorbar.o ABSOLUTE
    ..\..\EMWIN\Demo\GUIDEMO_Conf.c          0x00000000   Number         0  guidemo_conf.o ABSOLUTE
    ..\..\EMWIN\Demo\GUIDEMO_Cursor.c        0x00000000   Number         0  guidemo_cursor.o ABSOLUTE
    ..\..\EMWIN\Demo\GUIDEMO_Fading.c        0x00000000   Number         0  guidemo_fading.o ABSOLUTE
    ..\..\EMWIN\Demo\GUIDEMO_Graph.c         0x00000000   Number         0  guidemo_graph.o ABSOLUTE
    ..\..\EMWIN\Demo\GUIDEMO_IconView.c      0x00000000   Number         0  guidemo_iconview.o ABSOLUTE
    ..\..\EMWIN\Demo\GUIDEMO_ImageFlow.c     0x00000000   Number         0  guidemo_imageflow.o ABSOLUTE
    ..\..\EMWIN\Demo\GUIDEMO_Intro.c         0x00000000   Number         0  guidemo_intro.o ABSOLUTE
    ..\..\EMWIN\Demo\GUIDEMO_Listview.c      0x00000000   Number         0  guidemo_listview.o ABSOLUTE
    ..\..\EMWIN\Demo\GUIDEMO_RadialMenu.c    0x00000000   Number         0  guidemo_radialmenu.o ABSOLUTE
    ..\..\EMWIN\Demo\GUIDEMO_Resource.c      0x00000000   Number         0  guidemo_resource.o ABSOLUTE
    ..\..\EMWIN\Demo\GUIDEMO_Skinning.c      0x00000000   Number         0  guidemo_skinning.o ABSOLUTE
    ..\..\EMWIN\Demo\GUIDEMO_Speed.c         0x00000000   Number         0  guidemo_speed.o ABSOLUTE
    ..\..\EMWIN\Demo\GUIDEMO_Speedometer.c   0x00000000   Number         0  guidemo_speedometer.o ABSOLUTE
    ..\..\EMWIN\Demo\GUIDEMO_Start.c         0x00000000   Number         0  guidemo_start.o ABSOLUTE
    ..\..\EMWIN\Demo\GUIDEMO_Touch.c         0x00000000   Number         0  guidemo_touch.o ABSOLUTE
    ..\..\EMWIN\Demo\GUIDEMO_TransparentDialog.c 0x00000000   Number         0  guidemo_transparentdialog.o ABSOLUTE
    ..\..\EMWIN\Demo\GUIDEMO_Treeview.c      0x00000000   Number         0  guidemo_treeview.o ABSOLUTE
    ..\..\EMWIN\Demo\GUIDEMO_VScreen.c       0x00000000   Number         0  guidemo_vscreen.o ABSOLUTE
    ..\..\EMWIN\Demo\GUIDEMO_WashingMachine.c 0x00000000   Number         0  guidemo_washingmachine.o ABSOLUTE
    ..\..\EMWIN\Demo\GUIDEMO_ZoomAndRotate.c 0x00000000   Number         0  guidemo_zoomandrotate.o ABSOLUTE
    ..\..\EMWIN\STemWinLibrary522\Config\GUIConf.c 0x00000000   Number         0  guiconf.o ABSOLUTE
    ..\..\EMWIN\STemWinLibrary522\Config\GUIDRV_Template.c 0x00000000   Number         0  guidrv_template.o ABSOLUTE
    ..\..\EMWIN\STemWinLibrary522\Config\GUI_X_Touch_Analog.c 0x00000000   Number         0  gui_x_touch_analog.o ABSOLUTE
    ..\..\EMWIN\STemWinLibrary522\Config\LCDConf_FlexColor_Template.c 0x00000000   Number         0  lcdconf_flexcolor_template.o ABSOLUTE
    ..\..\EMWIN\STemWinLibrary522\OS\GUI_X_UCOSII.c 0x00000000   Number         0  gui_x_ucosii.o ABSOLUTE
    ..\..\STM32F4xx_DSP_StdPeriph_Lib_V1.0.0\Libraries\STM32F4xx_StdPeriph_Driver\src\misc.c 0x00000000   Number         0  misc.o ABSOLUTE
    ..\..\STM32F4xx_DSP_StdPeriph_Lib_V1.0.0\Libraries\STM32F4xx_StdPeriph_Driver\src\stm32f4xx_adc.c 0x00000000   Number         0  stm32f4xx_adc.o ABSOLUTE
    ..\..\STM32F4xx_DSP_StdPeriph_Lib_V1.0.0\Libraries\STM32F4xx_StdPeriph_Driver\src\stm32f4xx_crc.c 0x00000000   Number         0  stm32f4xx_crc.o ABSOLUTE
    ..\..\STM32F4xx_DSP_StdPeriph_Lib_V1.0.0\Libraries\STM32F4xx_StdPeriph_Driver\src\stm32f4xx_dac.c 0x00000000   Number         0  stm32f4xx_dac.o ABSOLUTE
    ..\..\STM32F4xx_DSP_StdPeriph_Lib_V1.0.0\Libraries\STM32F4xx_StdPeriph_Driver\src\stm32f4xx_dbgmcu.c 0x00000000   Number         0  stm32f4xx_dbgmcu.o ABSOLUTE
    ..\..\STM32F4xx_DSP_StdPeriph_Lib_V1.0.0\Libraries\STM32F4xx_StdPeriph_Driver\src\stm32f4xx_dcmi.c 0x00000000   Number         0  stm32f4xx_dcmi.o ABSOLUTE
    ..\..\STM32F4xx_DSP_StdPeriph_Lib_V1.0.0\Libraries\STM32F4xx_StdPeriph_Driver\src\stm32f4xx_dma.c 0x00000000   Number         0  stm32f4xx_dma.o ABSOLUTE
    ..\..\STM32F4xx_DSP_StdPeriph_Lib_V1.0.0\Libraries\STM32F4xx_StdPeriph_Driver\src\stm32f4xx_exti.c 0x00000000   Number         0  stm32f4xx_exti.o ABSOLUTE
    ..\..\STM32F4xx_DSP_StdPeriph_Lib_V1.0.0\Libraries\STM32F4xx_StdPeriph_Driver\src\stm32f4xx_flash.c 0x00000000   Number         0  stm32f4xx_flash.o ABSOLUTE
    ..\..\STM32F4xx_DSP_StdPeriph_Lib_V1.0.0\Libraries\STM32F4xx_StdPeriph_Driver\src\stm32f4xx_fsmc.c 0x00000000   Number         0  stm32f4xx_fsmc.o ABSOLUTE
    ..\..\STM32F4xx_DSP_StdPeriph_Lib_V1.0.0\Libraries\STM32F4xx_StdPeriph_Driver\src\stm32f4xx_gpio.c 0x00000000   Number         0  stm32f4xx_gpio.o ABSOLUTE
    ..\..\STM32F4xx_DSP_StdPeriph_Lib_V1.0.0\Libraries\STM32F4xx_StdPeriph_Driver\src\stm32f4xx_i2c.c 0x00000000   Number         0  stm32f4xx_i2c.o ABSOLUTE
    ..\..\STM32F4xx_DSP_StdPeriph_Lib_V1.0.0\Libraries\STM32F4xx_StdPeriph_Driver\src\stm32f4xx_iwdg.c 0x00000000   Number         0  stm32f4xx_iwdg.o ABSOLUTE
    ..\..\STM32F4xx_DSP_StdPeriph_Lib_V1.0.0\Libraries\STM32F4xx_StdPeriph_Driver\src\stm32f4xx_pwr.c 0x00000000   Number         0  stm32f4xx_pwr.o ABSOLUTE
    ..\..\STM32F4xx_DSP_StdPeriph_Lib_V1.0.0\Libraries\STM32F4xx_StdPeriph_Driver\src\stm32f4xx_rcc.c 0x00000000   Number         0  stm32f4xx_rcc.o ABSOLUTE
    ..\..\STM32F4xx_DSP_StdPeriph_Lib_V1.0.0\Libraries\STM32F4xx_StdPeriph_Driver\src\stm32f4xx_rtc.c 0x00000000   Number         0  stm32f4xx_rtc.o ABSOLUTE
    ..\..\STM32F4xx_DSP_StdPeriph_Lib_V1.0.0\Libraries\STM32F4xx_StdPeriph_Driver\src\stm32f4xx_spi.c 0x00000000   Number         0  stm32f4xx_spi.o ABSOLUTE
    ..\..\STM32F4xx_DSP_StdPeriph_Lib_V1.0.0\Libraries\STM32F4xx_StdPeriph_Driver\src\stm32f4xx_syscfg.c 0x00000000   Number         0  stm32f4xx_syscfg.o ABSOLUTE
    ..\..\STM32F4xx_DSP_StdPeriph_Lib_V1.0.0\Libraries\STM32F4xx_StdPeriph_Driver\src\stm32f4xx_tim.c 0x00000000   Number         0  stm32f4xx_tim.o ABSOLUTE
    ..\..\STM32F4xx_DSP_StdPeriph_Lib_V1.0.0\Libraries\STM32F4xx_StdPeriph_Driver\src\stm32f4xx_usart.c 0x00000000   Number         0  stm32f4xx_usart.o ABSOLUTE
    ..\..\STM32F4xx_DSP_StdPeriph_Lib_V1.0.0\Utilities\CMSIS\system_stm32f4xx.c 0x00000000   Number         0  system_stm32f4xx.o ABSOLUTE
    ..\..\STM32F4xx_DSP_StdPeriph_Lib_V1.0.0\Utilities\STM32_USB_Device_Library\Class\msc\src\usbd_msc_bot.c 0x00000000   Number         0  usbd_msc_bot.o ABSOLUTE
    ..\..\STM32F4xx_DSP_StdPeriph_Lib_V1.0.0\Utilities\STM32_USB_Device_Library\Class\msc\src\usbd_msc_core.c 0x00000000   Number         0  usbd_msc_core.o ABSOLUTE
    ..\..\STM32F4xx_DSP_StdPeriph_Lib_V1.0.0\Utilities\STM32_USB_Device_Library\Class\msc\src\usbd_msc_data.c 0x00000000   Number         0  usbd_msc_data.o ABSOLUTE
    ..\..\STM32F4xx_DSP_StdPeriph_Lib_V1.0.0\Utilities\STM32_USB_Device_Library\Class\msc\src\usbd_msc_scsi.c 0x00000000   Number         0  usbd_msc_scsi.o ABSOLUTE
    ..\..\STM32F4xx_DSP_StdPeriph_Lib_V1.0.0\Utilities\STM32_USB_Device_Library\Core\src\usbd_core.c 0x00000000   Number         0  usbd_core.o ABSOLUTE
    ..\..\STM32F4xx_DSP_StdPeriph_Lib_V1.0.0\Utilities\STM32_USB_Device_Library\Core\src\usbd_ioreq.c 0x00000000   Number         0  usbd_ioreq.o ABSOLUTE
    ..\..\STM32F4xx_DSP_StdPeriph_Lib_V1.0.0\Utilities\STM32_USB_Device_Library\Core\src\usbd_req.c 0x00000000   Number         0  usbd_req.o ABSOLUTE
    ..\..\STM32F4xx_DSP_StdPeriph_Lib_V1.0.0\Utilities\STM32_USB_OTG_Driver\src\usb_core.c 0x00000000   Number         0  usb_core.o ABSOLUTE
    ..\..\STM32F4xx_DSP_StdPeriph_Lib_V1.0.0\Utilities\STM32_USB_OTG_Driver\src\usb_dcd.c 0x00000000   Number         0  usb_dcd.o ABSOLUTE
    ..\..\STM32F4xx_DSP_StdPeriph_Lib_V1.0.0\Utilities\STM32_USB_OTG_Driver\src\usb_dcd_int.c 0x00000000   Number         0  usb_dcd_int.o ABSOLUTE
    ..\..\uCOS-II\Ports\ARM-Cortex-M3\Generic\RealView\os_cpu_a.asm 0x00000000   Number         0  os_cpu_a.o ABSOLUTE
    ..\..\uCOS-II\Ports\ARM-Cortex-M3\Generic\RealView\os_cpu_c.c 0x00000000   Number         0  os_cpu_c.o ABSOLUTE
    ..\..\uCOS-II\Ports\ARM-Cortex-M3\Generic\RealView\os_dbg.c 0x00000000   Number         0  os_dbg.o ABSOLUTE
    ..\..\uCOS-II\Source\os_core.c           0x00000000   Number         0  os_core.o ABSOLUTE
    ..\..\uCOS-II\Source\os_flag.c           0x00000000   Number         0  os_flag.o ABSOLUTE
    ..\..\uCOS-II\Source\os_mbox.c           0x00000000   Number         0  os_mbox.o ABSOLUTE
    ..\..\uCOS-II\Source\os_mem.c            0x00000000   Number         0  os_mem.o ABSOLUTE
    ..\..\uCOS-II\Source\os_mutex.c          0x00000000   Number         0  os_mutex.o ABSOLUTE
    ..\..\uCOS-II\Source\os_q.c              0x00000000   Number         0  os_q.o ABSOLUTE
    ..\..\uCOS-II\Source\os_sem.c            0x00000000   Number         0  os_sem.o ABSOLUTE
    ..\..\uCOS-II\Source\os_task.c           0x00000000   Number         0  os_task.o ABSOLUTE
    ..\..\uCOS-II\Source\os_time.c           0x00000000   Number         0  os_time.o ABSOLUTE
    ..\..\uCOS-II\Source\os_tmr.c            0x00000000   Number         0  os_tmr.o ABSOLUTE
    ..\UserCode\BSP\Cammer\LCD_Display.c     0x00000000   Number         0  lcd_display.o ABSOLUTE
    ..\UserCode\BSP\Cammer\OV7725.c          0x00000000   Number         0  ov7725.o ABSOLUTE
    ..\UserCode\BSP\ElectrodeDischarge\Electrode.c 0x00000000   Number         0  electrode.o ABSOLUTE
    ..\UserCode\BSP\LCD\SSD1963.c            0x00000000   Number         0  ssd1963.o ABSOLUTE
    ..\UserCode\BSP\RTC\DS1302.c             0x00000000   Number         0  ds1302.o ABSOLUTE
    ..\UserCode\BSP\StepMotor\Motor.c        0x00000000   Number         0  motor.o ABSOLUTE
    ..\UserCode\BSP\StepMotor\Motor_LeftJ.c  0x00000000   Number         0  motor_leftj.o ABSOLUTE
    ..\UserCode\BSP\StepMotor\Motor_LeftX.c  0x00000000   Number         0  motor_leftx.o ABSOLUTE
    ..\UserCode\BSP\StepMotor\Motor_LeftY.c  0x00000000   Number         0  motor_lefty.o ABSOLUTE
    ..\UserCode\BSP\StepMotor\Motor_RightJ.c 0x00000000   Number         0  motor_rightj.o ABSOLUTE
    ..\UserCode\BSP\StepMotor\Motor_RightX.c 0x00000000   Number         0  motor_rightx.o ABSOLUTE
    ..\UserCode\BSP\StepMotor\Motor_RightY.c 0x00000000   Number         0  motor_righty.o ABSOLUTE
    ..\UserCode\BSP\StepMotor\cn.c           0x00000000   Number         0  cn.o ABSOLUTE
    ..\UserCode\BSP\WatchDog\WatchDog.c      0x00000000   Number         0  watchdog.o ABSOLUTE
    ..\UserCode\BSP\bsp\bsp.c                0x00000000   Number         0  bsp.o ABSOLUTE
    ..\UserCode\FATFS\Flash_Manage.c         0x00000000   Number         0  flash_manage.o ABSOLUTE
    ..\UserCode\FATFS\diskio.c               0x00000000   Number         0  diskio.o ABSOLUTE
    ..\UserCode\FATFS\ff.c                   0x00000000   Number         0  ff.o ABSOLUTE
    ..\UserCode\FATFS\spi_flash.c            0x00000000   Number         0  spi_flash.o ABSOLUTE
    ..\UserCode\FATFS\syscall.c              0x00000000   Number         0  syscall.o ABSOLUTE
    ..\UserCode\Main\main.c                  0x00000000   Number         0  main.o ABSOLUTE
    ..\UserCode\Main\stm32f4xx_it.c          0x00000000   Number         0  stm32f4xx_it.o ABSOLUTE
    ..\UserCode\StateMachine\StateMachine.c  0x00000000   Number         0  statemachine.o ABSOLUTE
    ..\UserCode\Task\Task_Communication\Comm_TASK.C 0x00000000   Number         0  comm_task.o ABSOLUTE
    ..\UserCode\Task\Task_Communication\Data_Usart.c 0x00000000   Number         0  data_usart.o ABSOLUTE
    ..\UserCode\Task\Task_Communication\ObjectTransport.c 0x00000000   Number         0  objecttransport.o ABSOLUTE
    ..\UserCode\Task\Task_Communication\ReadData_Usart.c 0x00000000   Number         0  readdata_usart.o ABSOLUTE
    ..\UserCode\Task\Task_Communication\Usart_Communication.c 0x00000000   Number         0  usart_communication.o ABSOLUTE
    ..\UserCode\Task\Task_Communication\usart2.c 0x00000000   Number         0  usart2.o ABSOLUTE
    ..\UserCode\Task\Task_Control\Control.c  0x00000000   Number         0  control.o ABSOLUTE
    ..\UserCode\Task\Task_Control\InitControl.c 0x00000000   Number         0  initcontrol.o ABSOLUTE
    ..\UserCode\Task\Task_Control\MachineState.c 0x00000000   Number         0  machinestate.o ABSOLUTE
    ..\UserCode\Task\Task_Control\StateControl.c 0x00000000   Number         0  statecontrol.o ABSOLUTE
    ..\UserCode\Task\Task_Debug\Task_Debuger.c 0x00000000   Number         0  task_debuger.o ABSOLUTE
    ..\UserCode\Task\Task_Debug\debug.c      0x00000000   Number         0  debug.o ABSOLUTE
    ..\UserCode\Task\Task_Debug\usart3.c     0x00000000   Number         0  usart3.o ABSOLUTE
    ..\UserCode\Task\Task_Display\Task_Display.c 0x00000000   Number         0  task_display.o ABSOLUTE
    ..\UserCode\Task\Task_Flash\ELOKSystemControl.c 0x00000000   Number         0  eloksystemcontrol.o ABSOLUTE
    ..\UserCode\Task\Task_Flash\Flash.c      0x00000000   Number         0  flash.o ABSOLUTE
    ..\UserCode\Task\Task_Flash\FlashDebug.c 0x00000000   Number         0  flashdebug.o ABSOLUTE
    ..\UserCode\Task\Task_Flash\TaskFlash.c  0x00000000   Number         0  taskflash.o ABSOLUTE
    ..\UserCode\Task\Task_Flash\flash_data_fix.c 0x00000000   Number         0  flash_data_fix.o ABSOLUTE
    ..\UserCode\Task\Task_Flash\flash_iner.c 0x00000000   Number         0  flash_iner.o ABSOLUTE
    ..\UserCode\Task\Task_GPS\TASK_GPS.c     0x00000000   Number         0  task_gps.o ABSOLUTE
    ..\UserCode\Task\Task_GPS\gps.c          0x00000000   Number         0  gps.o ABSOLUTE
    ..\UserCode\Task\Task_GPS\usart6.c       0x00000000   Number         0  usart6.o ABSOLUTE
    ..\UserCode\Task\Task_GSM\DeviceProtocol.c 0x00000000   Number         0  deviceprotocol.o ABSOLUTE
    ..\UserCode\Task\Task_GSM\FormatData.c   0x00000000   Number         0  formatdata.o ABSOLUTE
    ..\UserCode\Task\Task_GSM\GSM.c          0x00000000   Number         0  gsm.o ABSOLUTE
    ..\UserCode\Task\Task_GSM\RIAP.c         0x00000000   Number         0  riap.o ABSOLUTE
    ..\UserCode\Task\Task_GSM\Send_Image.c   0x00000000   Number         0  send_image.o ABSOLUTE
    ..\UserCode\Task\Task_GSM\TASK_GSM.c     0x00000000   Number         0  task_gsm.o ABSOLUTE
    ..\UserCode\Task\Task_GSM\TASK_GSM_Monitor.c 0x00000000   Number         0  task_gsm_monitor.o ABSOLUTE
    ..\UserCode\Task\Task_GSM\TASK_GSM_Recv.c 0x00000000   Number         0  task_gsm_recv.o ABSOLUTE
    ..\UserCode\Task\Task_GSM\TASK_GSM_Send.c 0x00000000   Number         0  task_gsm_send.o ABSOLUTE
    ..\UserCode\Task\Task_GSM\usart4.c       0x00000000   Number         0  usart4.o ABSOLUTE
    ..\UserCode\Task\Task_GUI\Font\FComic18B_ASCII_Ex.c 0x00000000   Number         0  fcomic18b_ascii_ex.o ABSOLUTE
    ..\UserCode\Task\Task_GUI\Font\FSpanish_ASCII.c 0x00000000   Number         0  fspanish_ascii.o ABSOLUTE
    ..\UserCode\Task\Task_GUI\Font\FontArabic24.c 0x00000000   Number         0  fontarabic24.o ABSOLUTE
    ..\UserCode\Task\Task_GUI\Font\Font_Chinese.c 0x00000000   Number         0  font_chinese.o ABSOLUTE
    ..\UserCode\Task\Task_GUI\Font\Font_Thai.c 0x00000000   Number         0  font_thai.o ABSOLUTE
    ..\UserCode\Task\Task_GUI\Font\Font_TraditionalChinese.c 0x00000000   Number         0  font_traditionalchinese.o ABSOLUTE
    ..\UserCode\Task\Task_GUI\Font\RussianFont.c 0x00000000   Number         0  russianfont.o ABSOLUTE
    ..\UserCode\Task\Task_GUI\Font\Times New Roman_Ex.c 0x00000000   Number         0  times new roman_ex.o ABSOLUTE
    ..\UserCode\Task\Task_GUI\GUI_MenuTree.c 0x00000000   Number         0  gui_menutree.o ABSOLUTE
    ..\UserCode\Task\Task_GUI\GUI_Page_AdminOption.c 0x00000000   Number         0  gui_page_adminoption.o ABSOLUTE
    ..\UserCode\Task\Task_GUI\GUI_Page_Common.c 0x00000000   Number         0  gui_page_common.o ABSOLUTE
    ..\UserCode\Task\Task_GUI\GUI_Page_FaultRecord.c 0x00000000   Number         0  gui_page_faultrecord.o ABSOLUTE
    ..\UserCode\Task\Task_GUI\GUI_Page_GPSTest.c 0x00000000   Number         0  gui_page_gpstest.o ABSOLUTE
    ..\UserCode\Task\Task_GUI\GUI_Page_HelpInfo.c 0x00000000   Number         0  gui_page_helpinfo.o ABSOLUTE
    ..\UserCode\Task\Task_GUI\GUI_Page_MainMenu.c 0x00000000   Number         0  gui_page_mainmenu.o ABSOLUTE
    ..\UserCode\Task\Task_GUI\GUI_Page_MaintenanceRecord.c 0x00000000   Number         0  gui_page_maintenancerecord.o ABSOLUTE
    ..\UserCode\Task\Task_GUI\GUI_Page_NetSet.c 0x00000000   Number         0  gui_page_netset.o ABSOLUTE
    ..\UserCode\Task\Task_GUI\GUI_Page_PowerOnPassword.c 0x00000000   Number         0  gui_page_poweronpassword.o ABSOLUTE
    ..\UserCode\Task\Task_GUI\GUI_Page_Reminder.c 0x00000000   Number         0  gui_page_reminder.o ABSOLUTE
    ..\UserCode\Task\Task_GUI\GUI_Page_SpliceRecord.c 0x00000000   Number         0  gui_page_splicerecord.o ABSOLUTE
    ..\UserCode\Task\Task_GUI\GUI_Page_SpliceVideo.c 0x00000000   Number         0  gui_page_splicevideo.o ABSOLUTE
    ..\UserCode\Task\Task_GUI\GUI_Page_TimeSet.c 0x00000000   Number         0  gui_page_timeset.o ABSOLUTE
    ..\UserCode\Task\Task_GUI\GUI_Page_Usb.c 0x00000000   Number         0  gui_page_usb.o ABSOLUTE
    ..\UserCode\Task\Task_GUI\GUI_Page_VersionUpdate.c 0x00000000   Number         0  gui_page_versionupdate.o ABSOLUTE
    ..\UserCode\Task\Task_GUI\GUI_TASK_Text.c 0x00000000   Number         0  gui_task_text.o ABSOLUTE
    ..\UserCode\Task\Task_GUI\GUI_Task_Controller.c 0x00000000   Number         0  gui_task_controller.o ABSOLUTE
    ..\UserCode\Task\Task_GUI\GUI_Touch.c    0x00000000   Number         0  gui_touch.o ABSOLUTE
    ..\UserCode\Task\Task_GUI\Gui_TASK.c     0x00000000   Number         0  gui_task.o ABSOLUTE
    ..\UserCode\Task\Task_GUI\Language\Arabic.c 0x00000000   Number         0  arabic.o ABSOLUTE
    ..\UserCode\Task\Task_GUI\Language\Chinese.c 0x00000000   Number         0  chinese.o ABSOLUTE
    ..\UserCode\Task\Task_GUI\Language\Deutsch.c 0x00000000   Number         0  deutsch.o ABSOLUTE
    ..\UserCode\Task\Task_GUI\Language\English.c 0x00000000   Number         0  english.o ABSOLUTE
    ..\UserCode\Task\Task_GUI\Language\Finland.c 0x00000000   Number         0  finland.o ABSOLUTE
    ..\UserCode\Task\Task_GUI\Language\French.c 0x00000000   Number         0  french.o ABSOLUTE
    ..\UserCode\Task\Task_GUI\Language\Indonesian.c 0x00000000   Number         0  indonesian.o ABSOLUTE
    ..\UserCode\Task\Task_GUI\Language\Italy.c 0x00000000   Number         0  italy.o ABSOLUTE
    ..\UserCode\Task\Task_GUI\Language\Polish.c 0x00000000   Number         0  polish.o ABSOLUTE
    ..\UserCode\Task\Task_GUI\Language\Portugal.c 0x00000000   Number         0  portugal.o ABSOLUTE
    ..\UserCode\Task\Task_GUI\Language\Russian.c 0x00000000   Number         0  russian.o ABSOLUTE
    ..\UserCode\Task\Task_GUI\Language\Spain.c 0x00000000   Number         0  spain.o ABSOLUTE
    ..\UserCode\Task\Task_GUI\Language\Thai.c 0x00000000   Number         0  thai.o ABSOLUTE
    ..\UserCode\Task\Task_GUI\Language\Traditional_Chinese.c 0x00000000   Number         0  traditional_chinese.o ABSOLUTE
    ..\UserCode\Task\Task_GUI\Language\Vietnamese.c 0x00000000   Number         0  vietnamese.o ABSOLUTE
    ..\UserCode\Task\Task_GUI\PowerManagement.c 0x00000000   Number         0  powermanagement.o ABSOLUTE
    ..\UserCode\Task\Task_GUI\SystemBegin.c  0x00000000   Number         0  systembegin.o ABSOLUTE
    ..\UserCode\Task\Task_GUI\logo\Eloik\English\Icon_Eloik_English_ICONTYPE0.c 0x00000000   Number         0  icon_eloik_english_icontype0.o ABSOLUTE
    ..\UserCode\Task\Task_GUI\logo\Eloik\English\Icon_Eloik_English_ICONTYPE1.c 0x00000000   Number         0  icon_eloik_english_icontype1.o ABSOLUTE
    ..\UserCode\Task\Task_GUI\logo\Eloik\English\Icon_Eloik_English_ICONTYPE2.c 0x00000000   Number         0  icon_eloik_english_icontype2.o ABSOLUTE
    ..\UserCode\Task\Task_GUI\logo\Eloik\English\Icon_Eloik_English_ICONTYPE3.c 0x00000000   Number         0  icon_eloik_english_icontype3.o ABSOLUTE
    ..\UserCode\Task\Task_GUI\logo\Eloik\English\Icon_Eloik_English_ICONTYPE4.c 0x00000000   Number         0  icon_eloik_english_icontype4.o ABSOLUTE
    ..\UserCode\Task\Task_GUI\logo\Eloik\English\Icon_Eloik_English_ICONTYPE5.c 0x00000000   Number         0  icon_eloik_english_icontype5.o ABSOLUTE
    ..\UserCode\Task\Task_GUI\logo\Eloik\English\Icon_Eloik_English_ICONTYPE6.c 0x00000000   Number         0  icon_eloik_english_icontype6.o ABSOLUTE
    ..\UserCode\Task\Task_GUI\logo\Eloik\English\Icon_Eloik_English_ICON_net.c 0x00000000   Number         0  icon_eloik_english_icon_net.o ABSOLUTE
    ..\UserCode\Task\Task_GUI\logo\Eloik\English\Icon_Eloik_English_new.c 0x00000000   Number         0  icon_eloik_english_new.o ABSOLUTE
    ..\UserCode\Task\Task_Key\Key.c          0x00000000   Number         0  key.o ABSOLUTE
    ..\UserCode\Task\Task_Key\Sound.c        0x00000000   Number         0  sound.o ABSOLUTE
    ..\UserCode\Task\Task_Power\Battery_Task.c 0x00000000   Number         0  battery_task.o ABSOLUTE
    ..\UserCode\Task\Task_Power\Charger.c    0x00000000   Number         0  charger.o ABSOLUTE
    ..\UserCode\Task\Task_Sleeve\Sleeve_TASK.C 0x00000000   Number         0  sleeve_task.o ABSOLUTE
    ..\UserCode\Task\Task_Splice\NodeAimCommon.c 0x00000000   Number         0  nodeaimcommon.o ABSOLUTE
    ..\UserCode\Task\Task_Splice\NodeUpdateElectrodePosition.c 0x00000000   Number         0  nodeupdateelectrodeposition.o ABSOLUTE
    ..\UserCode\Task\Task_Splice\Node_Aim1.c 0x00000000   Number         0  node_aim1.o ABSOLUTE
    ..\UserCode\Task\Task_Splice\Node_Aim1_Ex.c 0x00000000   Number         0  node_aim1_ex.o ABSOLUTE
    ..\UserCode\Task\Task_Splice\Node_Aim2.c 0x00000000   Number         0  node_aim2.o ABSOLUTE
    ..\UserCode\Task\Task_Splice\Node_Aim2_Ex.c 0x00000000   Number         0  node_aim2_ex.o ABSOLUTE
    ..\UserCode\Task\Task_Splice\Node_Aim3.c 0x00000000   Number         0  node_aim3.o ABSOLUTE
    ..\UserCode\Task\Task_Splice\Node_Aim3_Ex.c 0x00000000   Number         0  node_aim3_ex.o ABSOLUTE
    ..\UserCode\Task\Task_Splice\Node_Communication.c 0x00000000   Number         0  node_communication.o ABSOLUTE
    ..\UserCode\Task\Task_Splice\Node_Delay.c 0x00000000   Number         0  node_delay.o ABSOLUTE
    ..\UserCode\Task\Task_Splice\Node_Discharge_Common.c 0x00000000   Number         0  node_discharge_common.o ABSOLUTE
    ..\UserCode\Task\Task_Splice\Node_Discharge_Splice.c 0x00000000   Number         0  node_discharge_splice.o ABSOLUTE
    ..\UserCode\Task\Task_Splice\Node_Focus.c 0x00000000   Number         0  node_focus.o ABSOLUTE
    ..\UserCode\Task\Task_Splice\Node_FocusEx.c 0x00000000   Number         0  node_focusex.o ABSOLUTE
    ..\UserCode\Task\Task_Splice\Node_Idle.c 0x00000000   Number         0  node_idle.o ABSOLUTE
    ..\UserCode\Task\Task_Splice\Node_JudgeAngle.c 0x00000000   Number         0  node_judgeangle.o ABSOLUTE
    ..\UserCode\Task\Task_Splice\Node_JudgeAngle_Ex.c 0x00000000   Number         0  node_judgeangle_ex.o ABSOLUTE
    ..\UserCode\Task\Task_Splice\Node_JudgeLoss.c 0x00000000   Number         0  node_judgeloss.o ABSOLUTE
    ..\UserCode\Task\Task_Splice\Node_Loop.c 0x00000000   Number         0  node_loop.o ABSOLUTE
    ..\UserCode\Task\Task_Splice\Node_Manual.c 0x00000000   Number         0  node_manual.o ABSOLUTE
    ..\UserCode\Task\Task_Splice\Node_Reset.c 0x00000000   Number         0  node_reset.o ABSOLUTE
    ..\UserCode\Task\Task_Splice\Node_Sample.c 0x00000000   Number         0  node_sample.o ABSOLUTE
    ..\UserCode\Task\Task_Splice\Node_Show.c 0x00000000   Number         0  node_show.o ABSOLUTE
    ..\UserCode\Task\Task_Splice\Node_Switch.c 0x00000000   Number         0  node_switch.o ABSOLUTE
    ..\UserCode\Task\Task_Splice\Node_WaitForReset.c 0x00000000   Number         0  node_waitforreset.o ABSOLUTE
    ..\UserCode\Task\Task_Splice\Node_WaitKey.c 0x00000000   Number         0  node_waitkey.o ABSOLUTE
    ..\UserCode\Task\Task_Splice\Task_FocusAim.c 0x00000000   Number         0  task_focusaim.o ABSOLUTE
    ..\UserCode\Task\Task_Splice\Task_GuangDuan_Splice.c 0x00000000   Number         0  task_guangduan_splice.o ABSOLUTE
    ..\UserCode\Task\Task_Splice\Task_ManualSpliceAim.c 0x00000000   Number         0  task_manualspliceaim.o ABSOLUTE
    ..\UserCode\Task\Task_Splice\Task_Process_AutoArcTest.c 0x00000000   Number         0  task_process_autoarctest.o ABSOLUTE
    ..\UserCode\Task\Task_Splice\Task_Process_Idle.c 0x00000000   Number         0  task_process_idle.o ABSOLUTE
    ..\UserCode\Task\Task_Splice\Task_Process_clean_electrode.c 0x00000000   Number         0  task_process_clean_electrode.o ABSOLUTE
    ..\UserCode\Task\Task_Splice\Task_Process_discharge.c 0x00000000   Number         0  task_process_discharge.o ABSOLUTE
    ..\UserCode\Task\Task_Splice\Task_Process_self_check.c 0x00000000   Number         0  task_process_self_check.o ABSOLUTE
    ..\UserCode\Task\Task_Splice\Task_Process_stabe_electrode.c 0x00000000   Number         0  task_process_stabe_electrode.o ABSOLUTE
    ..\UserCode\Task\Task_Splice\Task_Semi_AutoSpliceAim.c 0x00000000   Number         0  task_semi_autospliceaim.o ABSOLUTE
    ..\UserCode\Task\Task_Splice\Task_Splice.c 0x00000000   Number         0  task_splice.o ABSOLUTE
    ..\UserCode\Task\Task_Splice\Task_Splice_Communication.c 0x00000000   Number         0  task_splice_communication.o ABSOLUTE
    ..\UserCode\Task\Task_Splice\Task_Splice_Control.c 0x00000000   Number         0  task_splice_control.o ABSOLUTE
    ..\UserCode\Task\Task_Splice\Task_Splice_DetectLight.c 0x00000000   Number         0  task_splice_detectlight.o ABSOLUTE
    ..\UserCode\USB_APP\usb_bsp.c            0x00000000   Number         0  usb_bsp.o ABSOLUTE
    ..\UserCode\USB_APP\usbd_desc.c          0x00000000   Number         0  usbd_desc.o ABSOLUTE
    ..\UserCode\USB_APP\usbd_storage_msd.c   0x00000000   Number         0  usbd_storage_msd.o ABSOLUTE
    ..\UserCode\USB_APP\usbd_usr.c           0x00000000   Number         0  usbd_usr.o ABSOLUTE
    ..\UserCode\test\testH-D.c               0x00000000   Number         0  testh-d.o ABSOLUTE
    ..\UserCode\tools\BMP.c                  0x00000000   Number         0  bmp.o ABSOLUTE
    ..\UserCode\tools\Iwdg.c                 0x00000000   Number         0  iwdg.o ABSOLUTE
    ..\UserCode\tools\Memory\Memory.c        0x00000000   Number         0  memory.o ABSOLUTE
    ..\UserCode\tools\Memory\MemoryDebug.c   0x00000000   Number         0  memorydebug.o ABSOLUTE
    ..\UserCode\tools\Memory\MemoryInner.c   0x00000000   Number         0  memoryinner.o ABSOLUTE
    ..\UserCode\tools\TaskDog.c              0x00000000   Number         0  taskdog.o ABSOLUTE
    ..\UserCode\tools\TimeDog.c              0x00000000   Number         0  timedog.o ABSOLUTE
    ..\\..\\EMWIN\\Demo\\GUIDEMO_Speedometer.c 0x00000000   Number         0  guidemo_speedometer.o ABSOLUTE
    ..\\..\\EMWIN\\STemWinLibrary522\\Config\\GUIConf.c 0x00000000   Number         0  guiconf.o ABSOLUTE
    ..\\..\\EMWIN\\STemWinLibrary522\\Config\\GUIDRV_Template.c 0x00000000   Number         0  guidrv_template.o ABSOLUTE
    ..\\..\\STM32F4xx_DSP_StdPeriph_Lib_V1.0.0\\Libraries\\STM32F4xx_StdPeriph_Driver\\src\\misc.c 0x00000000   Number         0  misc.o ABSOLUTE
    ..\\..\\STM32F4xx_DSP_StdPeriph_Lib_V1.0.0\\Libraries\\STM32F4xx_StdPeriph_Driver\\src\\stm32f4xx_adc.c 0x00000000   Number         0  stm32f4xx_adc.o ABSOLUTE
    ..\\..\\STM32F4xx_DSP_StdPeriph_Lib_V1.0.0\\Libraries\\STM32F4xx_StdPeriph_Driver\\src\\stm32f4xx_crc.c 0x00000000   Number         0  stm32f4xx_crc.o ABSOLUTE
    ..\\..\\STM32F4xx_DSP_StdPeriph_Lib_V1.0.0\\Libraries\\STM32F4xx_StdPeriph_Driver\\src\\stm32f4xx_dac.c 0x00000000   Number         0  stm32f4xx_dac.o ABSOLUTE
    ..\\..\\STM32F4xx_DSP_StdPeriph_Lib_V1.0.0\\Libraries\\STM32F4xx_StdPeriph_Driver\\src\\stm32f4xx_dbgmcu.c 0x00000000   Number         0  stm32f4xx_dbgmcu.o ABSOLUTE
    ..\\..\\STM32F4xx_DSP_StdPeriph_Lib_V1.0.0\\Libraries\\STM32F4xx_StdPeriph_Driver\\src\\stm32f4xx_dcmi.c 0x00000000   Number         0  stm32f4xx_dcmi.o ABSOLUTE
    ..\\..\\STM32F4xx_DSP_StdPeriph_Lib_V1.0.0\\Libraries\\STM32F4xx_StdPeriph_Driver\\src\\stm32f4xx_dma.c 0x00000000   Number         0  stm32f4xx_dma.o ABSOLUTE
    ..\\..\\STM32F4xx_DSP_StdPeriph_Lib_V1.0.0\\Libraries\\STM32F4xx_StdPeriph_Driver\\src\\stm32f4xx_exti.c 0x00000000   Number         0  stm32f4xx_exti.o ABSOLUTE
    ..\\..\\STM32F4xx_DSP_StdPeriph_Lib_V1.0.0\\Libraries\\STM32F4xx_StdPeriph_Driver\\src\\stm32f4xx_flash.c 0x00000000   Number         0  stm32f4xx_flash.o ABSOLUTE
    ..\\..\\STM32F4xx_DSP_StdPeriph_Lib_V1.0.0\\Libraries\\STM32F4xx_StdPeriph_Driver\\src\\stm32f4xx_fsmc.c 0x00000000   Number         0  stm32f4xx_fsmc.o ABSOLUTE
    ..\\..\\STM32F4xx_DSP_StdPeriph_Lib_V1.0.0\\Libraries\\STM32F4xx_StdPeriph_Driver\\src\\stm32f4xx_gpio.c 0x00000000   Number         0  stm32f4xx_gpio.o ABSOLUTE
    ..\\..\\STM32F4xx_DSP_StdPeriph_Lib_V1.0.0\\Libraries\\STM32F4xx_StdPeriph_Driver\\src\\stm32f4xx_i2c.c 0x00000000   Number         0  stm32f4xx_i2c.o ABSOLUTE
    ..\\..\\STM32F4xx_DSP_StdPeriph_Lib_V1.0.0\\Libraries\\STM32F4xx_StdPeriph_Driver\\src\\stm32f4xx_iwdg.c 0x00000000   Number         0  stm32f4xx_iwdg.o ABSOLUTE
    ..\\..\\STM32F4xx_DSP_StdPeriph_Lib_V1.0.0\\Libraries\\STM32F4xx_StdPeriph_Driver\\src\\stm32f4xx_pwr.c 0x00000000   Number         0  stm32f4xx_pwr.o ABSOLUTE
    ..\\..\\STM32F4xx_DSP_StdPeriph_Lib_V1.0.0\\Libraries\\STM32F4xx_StdPeriph_Driver\\src\\stm32f4xx_rcc.c 0x00000000   Number         0  stm32f4xx_rcc.o ABSOLUTE
    ..\\..\\STM32F4xx_DSP_StdPeriph_Lib_V1.0.0\\Libraries\\STM32F4xx_StdPeriph_Driver\\src\\stm32f4xx_rtc.c 0x00000000   Number         0  stm32f4xx_rtc.o ABSOLUTE
    ..\\..\\STM32F4xx_DSP_StdPeriph_Lib_V1.0.0\\Libraries\\STM32F4xx_StdPeriph_Driver\\src\\stm32f4xx_spi.c 0x00000000   Number         0  stm32f4xx_spi.o ABSOLUTE
    ..\\..\\STM32F4xx_DSP_StdPeriph_Lib_V1.0.0\\Libraries\\STM32F4xx_StdPeriph_Driver\\src\\stm32f4xx_syscfg.c 0x00000000   Number         0  stm32f4xx_syscfg.o ABSOLUTE
    ..\\..\\STM32F4xx_DSP_StdPeriph_Lib_V1.0.0\\Libraries\\STM32F4xx_StdPeriph_Driver\\src\\stm32f4xx_tim.c 0x00000000   Number         0  stm32f4xx_tim.o ABSOLUTE
    ..\\..\\STM32F4xx_DSP_StdPeriph_Lib_V1.0.0\\Libraries\\STM32F4xx_StdPeriph_Driver\\src\\stm32f4xx_usart.c 0x00000000   Number         0  stm32f4xx_usart.o ABSOLUTE
    ..\\..\\STM32F4xx_DSP_StdPeriph_Lib_V1.0.0\\Utilities\\CMSIS\\system_stm32f4xx.c 0x00000000   Number         0  system_stm32f4xx.o ABSOLUTE
    ..\\..\\STM32F4xx_DSP_StdPeriph_Lib_V1.0.0\\Utilities\\STM32_USB_Device_Library\\Class\\msc\\src\\usbd_msc_bot.c 0x00000000   Number         0  usbd_msc_bot.o ABSOLUTE
    ..\\..\\STM32F4xx_DSP_StdPeriph_Lib_V1.0.0\\Utilities\\STM32_USB_Device_Library\\Class\\msc\\src\\usbd_msc_core.c 0x00000000   Number         0  usbd_msc_core.o ABSOLUTE
    ..\\..\\STM32F4xx_DSP_StdPeriph_Lib_V1.0.0\\Utilities\\STM32_USB_Device_Library\\Class\\msc\\src\\usbd_msc_data.c 0x00000000   Number         0  usbd_msc_data.o ABSOLUTE
    ..\\..\\STM32F4xx_DSP_StdPeriph_Lib_V1.0.0\\Utilities\\STM32_USB_Device_Library\\Class\\msc\\src\\usbd_msc_scsi.c 0x00000000   Number         0  usbd_msc_scsi.o ABSOLUTE
    ..\\..\\STM32F4xx_DSP_StdPeriph_Lib_V1.0.0\\Utilities\\STM32_USB_Device_Library\\Core\\src\\usbd_core.c 0x00000000   Number         0  usbd_core.o ABSOLUTE
    ..\\..\\STM32F4xx_DSP_StdPeriph_Lib_V1.0.0\\Utilities\\STM32_USB_Device_Library\\Core\\src\\usbd_ioreq.c 0x00000000   Number         0  usbd_ioreq.o ABSOLUTE
    ..\\..\\STM32F4xx_DSP_StdPeriph_Lib_V1.0.0\\Utilities\\STM32_USB_Device_Library\\Core\\src\\usbd_req.c 0x00000000   Number         0  usbd_req.o ABSOLUTE
    ..\\..\\STM32F4xx_DSP_StdPeriph_Lib_V1.0.0\\Utilities\\STM32_USB_OTG_Driver\\src\\usb_core.c 0x00000000   Number         0  usb_core.o ABSOLUTE
    ..\\..\\STM32F4xx_DSP_StdPeriph_Lib_V1.0.0\\Utilities\\STM32_USB_OTG_Driver\\src\\usb_dcd.c 0x00000000   Number         0  usb_dcd.o ABSOLUTE
    ..\\..\\STM32F4xx_DSP_StdPeriph_Lib_V1.0.0\\Utilities\\STM32_USB_OTG_Driver\\src\\usb_dcd_int.c 0x00000000   Number         0  usb_dcd_int.o ABSOLUTE
    ..\\..\\uCOS-II\\Ports\\ARM-Cortex-M3\\Generic\\RealView\\os_cpu_c.c 0x00000000   Number         0  os_cpu_c.o ABSOLUTE
    ..\\..\\uCOS-II\\Source\\os_core.c       0x00000000   Number         0  os_core.o ABSOLUTE
    ..\\UserCode\\BSP\\Cammer\\LCD_Display.c 0x00000000   Number         0  lcd_display.o ABSOLUTE
    ..\\UserCode\\BSP\\Cammer\\OV7725.c      0x00000000   Number         0  ov7725.o ABSOLUTE
    ..\\UserCode\\BSP\\ElectrodeDischarge\\Electrode.c 0x00000000   Number         0  electrode.o ABSOLUTE
    ..\\UserCode\\BSP\\LCD\\SSD1963.c        0x00000000   Number         0  ssd1963.o ABSOLUTE
    ..\\UserCode\\BSP\\RTC\\DS1302.c         0x00000000   Number         0  ds1302.o ABSOLUTE
    ..\\UserCode\\BSP\\StepMotor\\Motor.c    0x00000000   Number         0  motor.o ABSOLUTE
    ..\\UserCode\\BSP\\StepMotor\\Motor_LeftX.c 0x00000000   Number         0  motor_leftx.o ABSOLUTE
    ..\\UserCode\\BSP\\StepMotor\\Motor_LeftY.c 0x00000000   Number         0  motor_lefty.o ABSOLUTE
    ..\\UserCode\\BSP\\StepMotor\\Motor_RightX.c 0x00000000   Number         0  motor_rightx.o ABSOLUTE
    ..\\UserCode\\BSP\\StepMotor\\Motor_RightY.c 0x00000000   Number         0  motor_righty.o ABSOLUTE
    ..\\UserCode\\BSP\\StepMotor\\cn.c       0x00000000   Number         0  cn.o ABSOLUTE
    ..\\UserCode\\BSP\\WatchDog\\WatchDog.c  0x00000000   Number         0  watchdog.o ABSOLUTE
    ..\\UserCode\\BSP\\bsp\\bsp.c            0x00000000   Number         0  bsp.o ABSOLUTE
    ..\\UserCode\\FATFS\\Flash_Manage.c      0x00000000   Number         0  flash_manage.o ABSOLUTE
    ..\\UserCode\\FATFS\\diskio.c            0x00000000   Number         0  diskio.o ABSOLUTE
    ..\\UserCode\\FATFS\\spi_flash.c         0x00000000   Number         0  spi_flash.o ABSOLUTE
    ..\\UserCode\\Main\\main.c               0x00000000   Number         0  main.o ABSOLUTE
    ..\\UserCode\\Main\\stm32f4xx_it.c       0x00000000   Number         0  stm32f4xx_it.o ABSOLUTE
    ..\\UserCode\\StateMachine\\StateMachine.c 0x00000000   Number         0  statemachine.o ABSOLUTE
    ..\\UserCode\\Task\\Task_Communication\\Comm_TASK.C 0x00000000   Number         0  comm_task.o ABSOLUTE
    ..\\UserCode\\Task\\Task_Communication\\Data_Usart.c 0x00000000   Number         0  data_usart.o ABSOLUTE
    ..\\UserCode\\Task\\Task_Communication\\ObjectTransport.c 0x00000000   Number         0  objecttransport.o ABSOLUTE
    ..\\UserCode\\Task\\Task_Communication\\ReadData_Usart.c 0x00000000   Number         0  readdata_usart.o ABSOLUTE
    ..\\UserCode\\Task\\Task_Communication\\Usart_Communication.c 0x00000000   Number         0  usart_communication.o ABSOLUTE
    ..\\UserCode\\Task\\Task_Communication\\usart2.c 0x00000000   Number         0  usart2.o ABSOLUTE
    ..\\UserCode\\Task\\Task_Control\\Control.c 0x00000000   Number         0  control.o ABSOLUTE
    ..\\UserCode\\Task\\Task_Control\\InitControl.c 0x00000000   Number         0  initcontrol.o ABSOLUTE
    ..\\UserCode\\Task\\Task_Control\\MachineState.c 0x00000000   Number         0  machinestate.o ABSOLUTE
    ..\\UserCode\\Task\\Task_Control\\StateControl.c 0x00000000   Number         0  statecontrol.o ABSOLUTE
    ..\\UserCode\\Task\\Task_Debug\\Task_Debuger.c 0x00000000   Number         0  task_debuger.o ABSOLUTE
    ..\\UserCode\\Task\\Task_Debug\\debug.c  0x00000000   Number         0  debug.o ABSOLUTE
    ..\\UserCode\\Task\\Task_Debug\\usart3.c 0x00000000   Number         0  usart3.o ABSOLUTE
    ..\\UserCode\\Task\\Task_Display\\Task_Display.c 0x00000000   Number         0  task_display.o ABSOLUTE
    ..\\UserCode\\Task\\Task_Flash\\ELOKSystemControl.c 0x00000000   Number         0  eloksystemcontrol.o ABSOLUTE
    ..\\UserCode\\Task\\Task_Flash\\Flash.c  0x00000000   Number         0  flash.o ABSOLUTE
    ..\\UserCode\\Task\\Task_Flash\\FlashDebug.c 0x00000000   Number         0  flashdebug.o ABSOLUTE
    ..\\UserCode\\Task\\Task_Flash\\TaskFlash.c 0x00000000   Number         0  taskflash.o ABSOLUTE
    ..\\UserCode\\Task\\Task_Flash\\flash_data_fix.c 0x00000000   Number         0  flash_data_fix.o ABSOLUTE
    ..\\UserCode\\Task\\Task_Flash\\flash_iner.c 0x00000000   Number         0  flash_iner.o ABSOLUTE
    ..\\UserCode\\Task\\Task_GPS\\TASK_GPS.c 0x00000000   Number         0  task_gps.o ABSOLUTE
    ..\\UserCode\\Task\\Task_GPS\\gps.c      0x00000000   Number         0  gps.o ABSOLUTE
    ..\\UserCode\\Task\\Task_GSM\\DeviceProtocol.c 0x00000000   Number         0  deviceprotocol.o ABSOLUTE
    ..\\UserCode\\Task\\Task_GSM\\FormatData.c 0x00000000   Number         0  formatdata.o ABSOLUTE
    ..\\UserCode\\Task\\Task_GSM\\GSM.c      0x00000000   Number         0  gsm.o ABSOLUTE
    ..\\UserCode\\Task\\Task_GSM\\RIAP.c     0x00000000   Number         0  riap.o ABSOLUTE
    ..\\UserCode\\Task\\Task_GSM\\Send_Image.c 0x00000000   Number         0  send_image.o ABSOLUTE
    ..\\UserCode\\Task\\Task_GSM\\TASK_GSM.c 0x00000000   Number         0  task_gsm.o ABSOLUTE
    ..\\UserCode\\Task\\Task_GSM\\TASK_GSM_Monitor.c 0x00000000   Number         0  task_gsm_monitor.o ABSOLUTE
    ..\\UserCode\\Task\\Task_GSM\\TASK_GSM_Recv.c 0x00000000   Number         0  task_gsm_recv.o ABSOLUTE
    ..\\UserCode\\Task\\Task_GSM\\TASK_GSM_Send.c 0x00000000   Number         0  task_gsm_send.o ABSOLUTE
    ..\\UserCode\\Task\\Task_GUI\\GUI_MenuTree.c 0x00000000   Number         0  gui_menutree.o ABSOLUTE
    ..\\UserCode\\Task\\Task_GUI\\GUI_Page_AdminOption.c 0x00000000   Number         0  gui_page_adminoption.o ABSOLUTE
    ..\\UserCode\\Task\\Task_GUI\\GUI_Page_Common.c 0x00000000   Number         0  gui_page_common.o ABSOLUTE
    ..\\UserCode\\Task\\Task_GUI\\GUI_Page_FaultRecord.c 0x00000000   Number         0  gui_page_faultrecord.o ABSOLUTE
    ..\\UserCode\\Task\\Task_GUI\\GUI_Page_GPSTest.c 0x00000000   Number         0  gui_page_gpstest.o ABSOLUTE
    ..\\UserCode\\Task\\Task_GUI\\GUI_Page_HelpInfo.c 0x00000000   Number         0  gui_page_helpinfo.o ABSOLUTE
    ..\\UserCode\\Task\\Task_GUI\\GUI_Page_MainMenu.c 0x00000000   Number         0  gui_page_mainmenu.o ABSOLUTE
    ..\\UserCode\\Task\\Task_GUI\\GUI_Page_MaintenanceRecord.c 0x00000000   Number         0  gui_page_maintenancerecord.o ABSOLUTE
    ..\\UserCode\\Task\\Task_GUI\\GUI_Page_NetSet.c 0x00000000   Number         0  gui_page_netset.o ABSOLUTE
    ..\\UserCode\\Task\\Task_GUI\\GUI_Page_PowerOnPassword.c 0x00000000   Number         0  gui_page_poweronpassword.o ABSOLUTE
    ..\\UserCode\\Task\\Task_GUI\\GUI_Page_Reminder.c 0x00000000   Number         0  gui_page_reminder.o ABSOLUTE
    ..\\UserCode\\Task\\Task_GUI\\GUI_Page_SpliceRecord.c 0x00000000   Number         0  gui_page_splicerecord.o ABSOLUTE
    ..\\UserCode\\Task\\Task_GUI\\GUI_Page_SpliceVideo.c 0x00000000   Number         0  gui_page_splicevideo.o ABSOLUTE
    ..\\UserCode\\Task\\Task_GUI\\GUI_Page_TimeSet.c 0x00000000   Number         0  gui_page_timeset.o ABSOLUTE
    ..\\UserCode\\Task\\Task_GUI\\GUI_Page_Usb.c 0x00000000   Number         0  gui_page_usb.o ABSOLUTE
    ..\\UserCode\\Task\\Task_GUI\\GUI_Page_VersionUpdate.c 0x00000000   Number         0  gui_page_versionupdate.o ABSOLUTE
    ..\\UserCode\\Task\\Task_GUI\\GUI_TASK_Text.c 0x00000000   Number         0  gui_task_text.o ABSOLUTE
    ..\\UserCode\\Task\\Task_GUI\\GUI_Task_Controller.c 0x00000000   Number         0  gui_task_controller.o ABSOLUTE
    ..\\UserCode\\Task\\Task_GUI\\Gui_TASK.c 0x00000000   Number         0  gui_task.o ABSOLUTE
    ..\\UserCode\\Task\\Task_GUI\\Language\\Arabic.c 0x00000000   Number         0  arabic.o ABSOLUTE
    ..\\UserCode\\Task\\Task_GUI\\Language\\Chinese.c 0x00000000   Number         0  chinese.o ABSOLUTE
    ..\\UserCode\\Task\\Task_GUI\\Language\\English.c 0x00000000   Number         0  english.o ABSOLUTE
    ..\\UserCode\\Task\\Task_GUI\\Language\\French.c 0x00000000   Number         0  french.o ABSOLUTE
    ..\\UserCode\\Task\\Task_GUI\\Language\\Indonesian.c 0x00000000   Number         0  indonesian.o ABSOLUTE
    ..\\UserCode\\Task\\Task_GUI\\Language\\Italy.c 0x00000000   Number         0  italy.o ABSOLUTE
    ..\\UserCode\\Task\\Task_GUI\\Language\\Portugal.c 0x00000000   Number         0  portugal.o ABSOLUTE
    ..\\UserCode\\Task\\Task_GUI\\Language\\Russian.c 0x00000000   Number         0  russian.o ABSOLUTE
    ..\\UserCode\\Task\\Task_GUI\\Language\\Spain.c 0x00000000   Number         0  spain.o ABSOLUTE
    ..\\UserCode\\Task\\Task_GUI\\Language\\Thai.c 0x00000000   Number         0  thai.o ABSOLUTE
    ..\\UserCode\\Task\\Task_GUI\\Language\\Traditional_Chinese.c 0x00000000   Number         0  traditional_chinese.o ABSOLUTE
    ..\\UserCode\\Task\\Task_GUI\\Language\\Vietnamese.c 0x00000000   Number         0  vietnamese.o ABSOLUTE
    ..\\UserCode\\Task\\Task_GUI\\PowerManagement.c 0x00000000   Number         0  powermanagement.o ABSOLUTE
    ..\\UserCode\\Task\\Task_GUI\\SystemBegin.c 0x00000000   Number         0  systembegin.o ABSOLUTE
    ..\\UserCode\\Task\\Task_Key\\Key.c      0x00000000   Number         0  key.o ABSOLUTE
    ..\\UserCode\\Task\\Task_Key\\Sound.c    0x00000000   Number         0  sound.o ABSOLUTE
    ..\\UserCode\\Task\\Task_Power\\Battery_Task.c 0x00000000   Number         0  battery_task.o ABSOLUTE
    ..\\UserCode\\Task\\Task_Power\\Charger.c 0x00000000   Number         0  charger.o ABSOLUTE
    ..\\UserCode\\Task\\Task_Sleeve\\Sleeve_TASK.C 0x00000000   Number         0  sleeve_task.o ABSOLUTE
    ..\\UserCode\\Task\\Task_Splice\\NodeAimCommon.c 0x00000000   Number         0  nodeaimcommon.o ABSOLUTE
    ..\\UserCode\\Task\\Task_Splice\\NodeUpdateElectrodePosition.c 0x00000000   Number         0  nodeupdateelectrodeposition.o ABSOLUTE
    ..\\UserCode\\Task\\Task_Splice\\Node_Aim1.c 0x00000000   Number         0  node_aim1.o ABSOLUTE
    ..\\UserCode\\Task\\Task_Splice\\Node_Aim2.c 0x00000000   Number         0  node_aim2.o ABSOLUTE
    ..\\UserCode\\Task\\Task_Splice\\Node_Aim3.c 0x00000000   Number         0  node_aim3.o ABSOLUTE
    ..\\UserCode\\Task\\Task_Splice\\Node_Aim3_Ex.c 0x00000000   Number         0  node_aim3_ex.o ABSOLUTE
    ..\\UserCode\\Task\\Task_Splice\\Node_Communication.c 0x00000000   Number         0  node_communication.o ABSOLUTE
    ..\\UserCode\\Task\\Task_Splice\\Node_Delay.c 0x00000000   Number         0  node_delay.o ABSOLUTE
    ..\\UserCode\\Task\\Task_Splice\\Node_Discharge_Common.c 0x00000000   Number         0  node_discharge_common.o ABSOLUTE
    ..\\UserCode\\Task\\Task_Splice\\Node_Discharge_Splice.c 0x00000000   Number         0  node_discharge_splice.o ABSOLUTE
    ..\\UserCode\\Task\\Task_Splice\\Node_Focus.c 0x00000000   Number         0  node_focus.o ABSOLUTE
    ..\\UserCode\\Task\\Task_Splice\\Node_FocusEx.c 0x00000000   Number         0  node_focusex.o ABSOLUTE
    ..\\UserCode\\Task\\Task_Splice\\Node_Idle.c 0x00000000   Number         0  node_idle.o ABSOLUTE
    ..\\UserCode\\Task\\Task_Splice\\Node_JudgeAngle.c 0x00000000   Number         0  node_judgeangle.o ABSOLUTE
    ..\\UserCode\\Task\\Task_Splice\\Node_JudgeLoss.c 0x00000000   Number         0  node_judgeloss.o ABSOLUTE
    ..\\UserCode\\Task\\Task_Splice\\Node_Loop.c 0x00000000   Number         0  node_loop.o ABSOLUTE
    ..\\UserCode\\Task\\Task_Splice\\Node_Manual.c 0x00000000   Number         0  node_manual.o ABSOLUTE
    ..\\UserCode\\Task\\Task_Splice\\Node_Reset.c 0x00000000   Number         0  node_reset.o ABSOLUTE
    ..\\UserCode\\Task\\Task_Splice\\Node_Sample.c 0x00000000   Number         0  node_sample.o ABSOLUTE
    ..\\UserCode\\Task\\Task_Splice\\Node_Show.c 0x00000000   Number         0  node_show.o ABSOLUTE
    ..\\UserCode\\Task\\Task_Splice\\Node_Switch.c 0x00000000   Number         0  node_switch.o ABSOLUTE
    ..\\UserCode\\Task\\Task_Splice\\Node_WaitForReset.c 0x00000000   Number         0  node_waitforreset.o ABSOLUTE
    ..\\UserCode\\Task\\Task_Splice\\Node_WaitKey.c 0x00000000   Number         0  node_waitkey.o ABSOLUTE
    ..\\UserCode\\Task\\Task_Splice\\Task_FocusAim.c 0x00000000   Number         0  task_focusaim.o ABSOLUTE
    ..\\UserCode\\Task\\Task_Splice\\Task_ManualSpliceAim.c 0x00000000   Number         0  task_manualspliceaim.o ABSOLUTE
    ..\\UserCode\\Task\\Task_Splice\\Task_Process_AutoArcTest.c 0x00000000   Number         0  task_process_autoarctest.o ABSOLUTE
    ..\\UserCode\\Task\\Task_Splice\\Task_Process_Idle.c 0x00000000   Number         0  task_process_idle.o ABSOLUTE
    ..\\UserCode\\Task\\Task_Splice\\Task_Process_clean_electrode.c 0x00000000   Number         0  task_process_clean_electrode.o ABSOLUTE
    ..\\UserCode\\Task\\Task_Splice\\Task_Process_discharge.c 0x00000000   Number         0  task_process_discharge.o ABSOLUTE
    ..\\UserCode\\Task\\Task_Splice\\Task_Process_self_check.c 0x00000000   Number         0  task_process_self_check.o ABSOLUTE
    ..\\UserCode\\Task\\Task_Splice\\Task_Process_stabe_electrode.c 0x00000000   Number         0  task_process_stabe_electrode.o ABSOLUTE
    ..\\UserCode\\Task\\Task_Splice\\Task_Semi_AutoSpliceAim.c 0x00000000   Number         0  task_semi_autospliceaim.o ABSOLUTE
    ..\\UserCode\\Task\\Task_Splice\\Task_Splice.c 0x00000000   Number         0  task_splice.o ABSOLUTE
    ..\\UserCode\\Task\\Task_Splice\\Task_Splice_Communication.c 0x00000000   Number         0  task_splice_communication.o ABSOLUTE
    ..\\UserCode\\Task\\Task_Splice\\Task_Splice_Control.c 0x00000000   Number         0  task_splice_control.o ABSOLUTE
    ..\\UserCode\\Task\\Task_Splice\\Task_Splice_DetectLight.c 0x00000000   Number         0  task_splice_detectlight.o ABSOLUTE
    ..\\UserCode\\USB_APP\\usb_bsp.c         0x00000000   Number         0  usb_bsp.o ABSOLUTE
    ..\\UserCode\\USB_APP\\usbd_desc.c       0x00000000   Number         0  usbd_desc.o ABSOLUTE
    ..\\UserCode\\USB_APP\\usbd_storage_msd.c 0x00000000   Number         0  usbd_storage_msd.o ABSOLUTE
    ..\\UserCode\\USB_APP\\usbd_usr.c        0x00000000   Number         0  usbd_usr.o ABSOLUTE
    ..\\UserCode\\test\\testH-D.c            0x00000000   Number         0  testh-d.o ABSOLUTE
    ..\\UserCode\\tools\\BMP.c               0x00000000   Number         0  bmp.o ABSOLUTE
    ..\\UserCode\\tools\\Iwdg.c              0x00000000   Number         0  iwdg.o ABSOLUTE
    ..\\UserCode\\tools\\Memory\\Memory.c    0x00000000   Number         0  memory.o ABSOLUTE
    ..\\UserCode\\tools\\Memory\\MemoryInner.c 0x00000000   Number         0  memoryinner.o ABSOLUTE
    ..\\UserCode\\tools\\TaskDog.c           0x00000000   Number         0  taskdog.o ABSOLUTE
    ..\\UserCode\\tools\\TimeDog.c           0x00000000   Number         0  timedog.o ABSOLUTE
    dc.s                                     0x00000000   Number         0  dc.o ABSOLUTE
    startup_stm32f4xx.s                      0x00000000   Number         0  startup_stm32f4xx.o ABSOLUTE
    RESET                                    0x08020000   Section      392  startup_stm32f4xx.o(RESET)
    !!!main                                  0x08020188   Section        8  __main.o(!!!main)
    !!!scatter                               0x08020190   Section       52  __scatter.o(!!!scatter)
    !!dclz77c                                0x080201c4   Section      100  __dclz77c.o(!!dclz77c)
    !!handler_zi                             0x08020228   Section       28  __scatter_zi.o(!!handler_zi)
    .ARM.Collect$$_printf_percent$$00000000  0x08020244   Section        0  _printf_percent.o(.ARM.Collect$$_printf_percent$$00000000)
    .ARM.Collect$$_printf_percent$$00000003  0x08020244   Section        6  _printf_f.o(.ARM.Collect$$_printf_percent$$00000003)
    .ARM.Collect$$_printf_percent$$00000009  0x0802024a   Section        6  _printf_d.o(.ARM.Collect$$_printf_percent$$00000009)
    .ARM.Collect$$_printf_percent$$0000000C  0x08020250   Section        6  _printf_x.o(.ARM.Collect$$_printf_percent$$0000000C)
    .ARM.Collect$$_printf_percent$$00000014  0x08020256   Section        6  _printf_s.o(.ARM.Collect$$_printf_percent$$00000014)
    .ARM.Collect$$_printf_percent$$00000017  0x0802025c   Section        4  _printf_percent_end.o(.ARM.Collect$$_printf_percent$$00000017)
    .ARM.Collect$$libinit$$00000000          0x08020260   Section        2  libinit.o(.ARM.Collect$$libinit$$00000000)
    .ARM.Collect$$libinit$$00000001          0x08020262   Section        4  libinit2.o(.ARM.Collect$$libinit$$00000001)
    .ARM.Collect$$libinit$$00000004          0x08020266   Section        0  libinit2.o(.ARM.Collect$$libinit$$00000004)
    .ARM.Collect$$libinit$$0000000A          0x08020266   Section        0  libinit2.o(.ARM.Collect$$libinit$$0000000A)
    .ARM.Collect$$libinit$$0000000C          0x08020266   Section        0  libinit2.o(.ARM.Collect$$libinit$$0000000C)
    .ARM.Collect$$libinit$$0000000D          0x08020266   Section        4  libinit2.o(.ARM.Collect$$libinit$$0000000D)
    .ARM.Collect$$libinit$$0000000E          0x0802026a   Section        0  libinit2.o(.ARM.Collect$$libinit$$0000000E)
    .ARM.Collect$$libinit$$0000000F          0x0802026a   Section        6  libinit2.o(.ARM.Collect$$libinit$$0000000F)
    .ARM.Collect$$libinit$$00000011          0x08020270   Section        0  libinit2.o(.ARM.Collect$$libinit$$00000011)
    .ARM.Collect$$libinit$$00000013          0x08020270   Section        0  libinit2.o(.ARM.Collect$$libinit$$00000013)
    .ARM.Collect$$libinit$$00000015          0x08020270   Section        0  libinit2.o(.ARM.Collect$$libinit$$00000015)
    .ARM.Collect$$libinit$$00000016          0x08020270   Section       10  libinit2.o(.ARM.Collect$$libinit$$00000016)
    .ARM.Collect$$libinit$$00000017          0x0802027a   Section        0  libinit2.o(.ARM.Collect$$libinit$$00000017)
    .ARM.Collect$$libinit$$00000019          0x0802027a   Section        0  libinit2.o(.ARM.Collect$$libinit$$00000019)
    .ARM.Collect$$libinit$$0000001B          0x0802027a   Section        0  libinit2.o(.ARM.Collect$$libinit$$0000001B)
    .ARM.Collect$$libinit$$0000001D          0x0802027a   Section        0  libinit2.o(.ARM.Collect$$libinit$$0000001D)
    .ARM.Collect$$libinit$$0000001F          0x0802027a   Section        0  libinit2.o(.ARM.Collect$$libinit$$0000001F)
    .ARM.Collect$$libinit$$00000021          0x0802027a   Section        0  libinit2.o(.ARM.Collect$$libinit$$00000021)
    .ARM.Collect$$libinit$$00000023          0x0802027a   Section        0  libinit2.o(.ARM.Collect$$libinit$$00000023)
    .ARM.Collect$$libinit$$00000025          0x0802027a   Section        0  libinit2.o(.ARM.Collect$$libinit$$00000025)
    .ARM.Collect$$libinit$$0000002C          0x0802027a   Section        0  libinit2.o(.ARM.Collect$$libinit$$0000002C)
    .ARM.Collect$$libinit$$0000002E          0x0802027a   Section        0  libinit2.o(.ARM.Collect$$libinit$$0000002E)
    .ARM.Collect$$libinit$$00000030          0x0802027a   Section        0  libinit2.o(.ARM.Collect$$libinit$$00000030)
    .ARM.Collect$$libinit$$00000032          0x0802027a   Section        0  libinit2.o(.ARM.Collect$$libinit$$00000032)
    .ARM.Collect$$libinit$$00000033          0x0802027a   Section        2  libinit2.o(.ARM.Collect$$libinit$$00000033)
    .ARM.Collect$$libshutdown$$00000000      0x0802027c   Section        2  libshutdown.o(.ARM.Collect$$libshutdown$$00000000)
    .ARM.Collect$$libshutdown$$00000002      0x0802027e   Section        0  libshutdown2.o(.ARM.Collect$$libshutdown$$00000002)
    .ARM.Collect$$libshutdown$$00000004      0x0802027e   Section        0  libshutdown2.o(.ARM.Collect$$libshutdown$$00000004)
    .ARM.Collect$$libshutdown$$00000006      0x0802027e   Section        0  libshutdown2.o(.ARM.Collect$$libshutdown$$00000006)
    .ARM.Collect$$libshutdown$$00000009      0x0802027e   Section        0  libshutdown2.o(.ARM.Collect$$libshutdown$$00000009)
    .ARM.Collect$$libshutdown$$0000000C      0x0802027e   Section        0  libshutdown2.o(.ARM.Collect$$libshutdown$$0000000C)
    .ARM.Collect$$libshutdown$$0000000E      0x0802027e   Section        0  libshutdown2.o(.ARM.Collect$$libshutdown$$0000000E)
    .ARM.Collect$$libshutdown$$00000011      0x0802027e   Section        0  libshutdown2.o(.ARM.Collect$$libshutdown$$00000011)
    .ARM.Collect$$libshutdown$$00000012      0x0802027e   Section        2  libshutdown2.o(.ARM.Collect$$libshutdown$$00000012)
    .ARM.Collect$$rtentry$$00000000          0x08020280   Section        0  __rtentry.o(.ARM.Collect$$rtentry$$00000000)
    .ARM.Collect$$rtentry$$00000002          0x08020280   Section        0  __rtentry2.o(.ARM.Collect$$rtentry$$00000002)
    .ARM.Collect$$rtentry$$00000004          0x08020280   Section        6  __rtentry4.o(.ARM.Collect$$rtentry$$00000004)
    .ARM.Collect$$rtentry$$00000009          0x08020286   Section        0  __rtentry2.o(.ARM.Collect$$rtentry$$00000009)
    .ARM.Collect$$rtentry$$0000000A          0x08020286   Section        4  __rtentry2.o(.ARM.Collect$$rtentry$$0000000A)
    .ARM.Collect$$rtentry$$0000000C          0x0802028a   Section        0  __rtentry2.o(.ARM.Collect$$rtentry$$0000000C)
    .ARM.Collect$$rtentry$$0000000D          0x0802028a   Section        8  __rtentry2.o(.ARM.Collect$$rtentry$$0000000D)
    .ARM.Collect$$rtexit$$00000000           0x08020292   Section        2  rtexit.o(.ARM.Collect$$rtexit$$00000000)
    .ARM.Collect$$rtexit$$00000002           0x08020294   Section        0  rtexit2.o(.ARM.Collect$$rtexit$$00000002)
    .ARM.Collect$$rtexit$$00000003           0x08020294   Section        4  rtexit2.o(.ARM.Collect$$rtexit$$00000003)
    .ARM.Collect$$rtexit$$00000004           0x08020298   Section        6  rtexit2.o(.ARM.Collect$$rtexit$$00000004)
    .emb_text                                0x080202a0   Section       52  rand.o(.emb_text)
    .text                                    0x080202d4   Section      180  os_cpu_a.o(.text)
    $v0                                      0x080202d4   Number         0  os_cpu_a.o(.text)
    .text                                    0x08020388   Section       80  startup_stm32f4xx.o(.text)
    $v0                                      0x08020388   Number         0  startup_stm32f4xx.o(.text)
    .text                                    0x080203d8   Section      238  lludivv7m.o(.text)
    .text                                    0x080204c8   Section        0  __2printf.o(.text)
    .text                                    0x080204e0   Section        0  __2sprintf.o(.text)
    .text                                    0x0802050c   Section        0  _printf_pad.o(.text)
    .text                                    0x0802055a   Section        0  _printf_str.o(.text)
    .text                                    0x080205ac   Section        0  _printf_dec.o(.text)
    .text                                    0x08020624   Section        0  _printf_hex_int.o(.text)
    .text                                    0x0802067c   Section        0  __printf_flags_ss_wp.o(.text)
    .text                                    0x08020804   Section        0  rand.o(.text)
    .text                                    0x08020840   Section        0  memcmp.o(.text)
    .text                                    0x08020898   Section        0  strcpy.o(.text)
    .text                                    0x080208e0   Section        0  strlen.o(.text)
    .text                                    0x0802091e   Section      138  rt_memcpy_v6.o(.text)
    .text                                    0x080209a8   Section      132  rt_memmove_v6.o(.text)
    .text                                    0x08020a2c   Section      100  rt_memcpy_w.o(.text)
    .text                                    0x08020a90   Section       16  aeabi_memset.o(.text)
    .text                                    0x08020aa0   Section       68  rt_memclr.o(.text)
    .text                                    0x08020ae4   Section       78  rt_memclr_w.o(.text)
    .text                                    0x08020b34   Section      128  strcmpv7m.o(.text)
    .text                                    0x08020bb4   Section        0  heapauxi.o(.text)
    .text                                    0x08020bba   Section        0  _printf_intcommon.o(.text)
    .text                                    0x08020c6c   Section        0  _printf_fp_dec.o(.text)
    _fp_digits                               0x08020c6f   Thumb Code   432  _printf_fp_dec.o(.text)
    .text                                    0x0802108c   Section        0  _printf_char_common.o(.text)
    _printf_input_char                       0x0802108d   Thumb Code    10  _printf_char_common.o(.text)
    .text                                    0x080210bc   Section        0  _sputc.o(.text)
    .text                                    0x080210c6   Section        0  _printf_char.o(.text)
    .text                                    0x080210f4   Section        0  _printf_char_file.o(.text)
    .text                                    0x08021118   Section      122  rt_memmove_w.o(.text)
    .text                                    0x08021194   Section        8  libspace.o(.text)
    .text                                    0x0802119c   Section        8  rt_locale_intlibspace.o(.text)
    .text                                    0x080211a4   Section      138  lludiv10.o(.text)
    .text                                    0x08021230   Section        0  _printf_fp_infnan.o(.text)
    .text                                    0x080212b0   Section        0  bigflt0.o(.text)
    .text                                    0x08021394   Section        0  ferror.o(.text)
    .text                                    0x0802139c   Section       74  sys_stackheap_outer.o(.text)
    .text                                    0x080213e6   Section        0  exit.o(.text)
    CL$$btod_d2e                             0x080213f8   Section       62  btod.o(CL$$btod_d2e)
    CL$$btod_d2e_denorm_low                  0x08021436   Section       70  btod.o(CL$$btod_d2e_denorm_low)
    CL$$btod_d2e_norm_op1                    0x0802147c   Section       96  btod.o(CL$$btod_d2e_norm_op1)
    CL$$btod_div_common                      0x080214dc   Section      824  btod.o(CL$$btod_div_common)
    CL$$btod_e2e                             0x08021814   Section      220  btod.o(CL$$btod_e2e)
    CL$$btod_ediv                            0x080218f0   Section       42  btod.o(CL$$btod_ediv)
    CL$$btod_emul                            0x0802191a   Section       42  btod.o(CL$$btod_emul)
    CL$$btod_mult_common                     0x08021944   Section      580  btod.o(CL$$btod_mult_common)
    i.ADC_ClearFlag                          0x08021b88   Section        0  stm32f4xx_adc.o(i.ADC_ClearFlag)
    i.ADC_Cmd                                0x08021b8e   Section        0  stm32f4xx_adc.o(i.ADC_Cmd)
    i.ADC_CommonInit                         0x08021ba4   Section        0  stm32f4xx_adc.o(i.ADC_CommonInit)
    i.ADC_GetConversionValue                 0x08021bd4   Section        0  stm32f4xx_adc.o(i.ADC_GetConversionValue)
    i.ADC_GetFlagStatus                      0x08021bdc   Section        0  stm32f4xx_adc.o(i.ADC_GetFlagStatus)
    i.ADC_Init                               0x08021bf0   Section        0  stm32f4xx_adc.o(i.ADC_Init)
    i.ADC_RegularChannelConfig               0x08021c44   Section        0  stm32f4xx_adc.o(i.ADC_RegularChannelConfig)
    i.ADC_SoftwareStartConv                  0x08021cfc   Section        0  stm32f4xx_adc.o(i.ADC_SoftwareStartConv)
    i.ADC_ValueSmooth                        0x08021d08   Section        0  sleeve_task.o(i.ADC_ValueSmooth)
    i.ANS_CheckState                         0x08021d58   Section        0  task_splice_communication.o(i.ANS_CheckState)
    ANS_CheckState                           0x08021d59   Thumb Code   222  task_splice_communication.o(i.ANS_CheckState)
    i.ANS_Environment                        0x08021e5c   Section        0  task_splice_communication.o(i.ANS_Environment)
    ANS_Environment                          0x08021e5d   Thumb Code   172  task_splice_communication.o(i.ANS_Environment)
    i.ASCII_TO_NUM                           0x08021f10   Section        0  debug.o(i.ASCII_TO_NUM)
    i.AVerageFilter_InstData                 0x08021f40   Section        0  task_display.o(i.AVerageFilter_InstData)
    i.AccelerateExternalParamRepair          0x080220d0   Section        0  flash.o(i.AccelerateExternalParamRepair)
    i.Ack_SMbus                              0x08022468   Section        0  charger.o(i.Ack_SMbus)
    i.AdjustDeInit                           0x08022488   Section        0  task_process_self_check.o(i.AdjustDeInit)
    i.AdjustFiberAlign                       0x0802249c   Section        0  task_semi_autospliceaim.o(i.AdjustFiberAlign)
    i.AdjustPosition                         0x0802256c   Section        0  task_process_self_check.o(i.AdjustPosition)
    i.AdvancePara_Process                    0x080225cc   Section        0  gui_page_common.o(i.AdvancePara_Process)
    AdvancePara_Process                      0x080225cd   Thumb Code   132  gui_page_common.o(i.AdvancePara_Process)
    i.AdvanceSetPage_Process                 0x08022664   Section        0  gui_page_common.o(i.AdvanceSetPage_Process)
    i.AgainAim                               0x080226d8   Section        0  nodeaimcommon.o(i.AgainAim)
    i.Aim1                                   0x08022754   Section        0  node_aim1.o(i.Aim1)
    Aim1                                     0x08022755   Thumb Code   716  node_aim1.o(i.Aim1)
    i.Aim2                                   0x08022a68   Section        0  node_aim2.o(i.Aim2)
    Aim2                                     0x08022a69   Thumb Code   266  node_aim2.o(i.Aim2)
    i.Aim3                                   0x08022ba4   Section        0  node_aim3.o(i.Aim3)
    Aim3                                     0x08022ba5   Thumb Code   300  node_aim3.o(i.Aim3)
    i.AlignPosition                          0x08022d14   Section        0  task_process_self_check.o(i.AlignPosition)
    i.AllowSetLedPwm                         0x08022d78   Section        0  task_display.o(i.AllowSetLedPwm)
    AllowSetLedPwm                           0x08022d79   Thumb Code    66  task_display.o(i.AllowSetLedPwm)
    i.AnalyseCommData                        0x08022dc0   Section        0  usart_communication.o(i.AnalyseCommData)
    i.AnalyseDbgData                         0x08022ea0   Section        0  task_debuger.o(i.AnalyseDbgData)
    i.AotoDownState                          0x0802304c   Section        0  battery_task.o(i.AotoDownState)
    i.Arabic_language                        0x080230f0   Section        0  gui_task_text.o(i.Arabic_language)
    i.ArraysEqual                            0x08023560   Section        0  eloksystemcontrol.o(i.ArraysEqual)
    i.AutoSwitchControlSleeve                0x08023594   Section        0  sleeve_task.o(i.AutoSwitchControlSleeve)
    AutoSwitchControlSleeve                  0x08023595   Thumb Code   328  sleeve_task.o(i.AutoSwitchControlSleeve)
    i.BEEP                                   0x080236fc   Section        0  sound.o(i.BEEP)
    i.BEEP_OFF                               0x08023714   Section        0  bsp.o(i.BEEP_OFF)
    i.BEEP_ON                                0x08023738   Section        0  bsp.o(i.BEEP_ON)
    i.BSP_Init                               0x0802375c   Section        0  bsp.o(i.BSP_Init)
    i.BUTTON_Callback                        0x080238a8   Section        0  button.o(i.BUTTON_Callback)
    i.BUTTON_CreateIndirect                  0x08023984   Section        0  button_createindirect.o(i.BUTTON_CreateIndirect)
    i.BUTTON_CreateUser                      0x080239c8   Section        0  button.o(i.BUTTON_CreateUser)
    i.BUTTON_SetBitmapEx                     0x08023a44   Section        0  button_bitmap.o(i.BUTTON_SetBitmapEx)
    i.BUTTON_SetBkColor                      0x08023a64   Section        0  button_color.o(i.BUTTON_SetBkColor)
    i.BUTTON_SetFocussable                   0x08023a96   Section        0  button.o(i.BUTTON_SetFocussable)
    i.BUTTON_SetFont                         0x08023aa6   Section        0  button.o(i.BUTTON_SetFont)
    i.BUTTON_SetPressed                      0x08023ace   Section        0  button.o(i.BUTTON_SetPressed)
    i.BUTTON_SetText                         0x08023ae0   Section        0  button.o(i.BUTTON_SetText)
    i.BUTTON_SetTextAlign                    0x08023b3a   Section        0  button_settextalign.o(i.BUTTON_SetTextAlign)
    i.BUTTON_SetTextColor                    0x08023b64   Section        0  button_color.o(i.BUTTON_SetTextColor)
    i.BUTTON__SetDrawObj                     0x08023b96   Section        0  button__setbitmapobj.o(i.BUTTON__SetDrawObj)
    i.BatteryStateShow                       0x08023bd4   Section        0  systembegin.o(i.BatteryStateShow)
    BatteryStateShow                         0x08023bd5   Thumb Code   234  systembegin.o(i.BatteryStateShow)
    i.Beep_Implement                         0x08023cec   Section        0  sound.o(i.Beep_Implement)
    i.BusFault_Handler                       0x08023f44   Section        0  stm32f4xx_it.o(i.BusFault_Handler)
    i.CMD_KeyTask                            0x08023f48   Section        0  key.o(i.CMD_KeyTask)
    i.CRC16                                  0x08023fc0   Section        0  flash_manage.o(i.CRC16)
    i.CRC_Init                               0x08023ff8   Section        0  flash.o(i.CRC_Init)
    i.CSS_Init                               0x08024004   Section        0  system_stm32f4xx.o(i.CSS_Init)
    i.Cal_exflah_offset                      0x0802402a   Section        0  flash.o(i.Cal_exflah_offset)
    i.Cal_offset                             0x08024060   Section        0  flash.o(i.Cal_offset)
    i.CalculationCuurrent                    0x080240a0   Section        0  task_process_discharge.o(i.CalculationCuurrent)
    CalculationCuurrent                      0x080240a1   Thumb Code  2082  task_process_discharge.o(i.CalculationCuurrent)
    i.CalculationCuurrentInit                0x080248e0   Section        0  task_process_discharge.o(i.CalculationCuurrentInit)
    CalculationCuurrentInit                  0x080248e1   Thumb Code  1208  task_process_discharge.o(i.CalculationCuurrentInit)
    i.CameraFOV_Change                       0x08024db8   Section        0  lcd_display.o(i.CameraFOV_Change)
    i.Camera_Display_P10                     0x08024e2c   Section        0  lcd_display.o(i.Camera_Display_P10)
    i.Camera_Display_P101                    0x08024f1c   Section        0  lcd_display.o(i.Camera_Display_P101)
    i.Camera_Display_P101_Ex                 0x08024f60   Section        0  lcd_display.o(i.Camera_Display_P101_Ex)
    i.Camera_Display_P102                    0x08024fe0   Section        0  lcd_display.o(i.Camera_Display_P102)
    i.Camera_Display_P102_Ex                 0x08025054   Section        0  lcd_display.o(i.Camera_Display_P102_Ex)
    i.Camera_Display_P11                     0x080250d4   Section        0  lcd_display.o(i.Camera_Display_P11)
    i.Camera_Display_P111                    0x080251bc   Section        0  lcd_display.o(i.Camera_Display_P111)
    i.Camera_Display_P111_Ex                 0x08025204   Section        0  lcd_display.o(i.Camera_Display_P111_Ex)
    i.Camera_Display_P112                    0x08025288   Section        0  lcd_display.o(i.Camera_Display_P112)
    i.Camera_Display_P112_Ex                 0x08025300   Section        0  lcd_display.o(i.Camera_Display_P112_Ex)
    i.Camera_Display_XY                      0x08025384   Section        0  lcd_display.o(i.Camera_Display_XY)
    i.Camera_Init                            0x08025450   Section        0  ov7725.o(i.Camera_Init)
    i.Camera_WriteData                       0x08025498   Section        0  lcd_display.o(i.Camera_WriteData)
    Camera_WriteData                         0x08025499   Thumb Code    10  lcd_display.o(i.Camera_WriteData)
    i.ChangeModeState                        0x080254a8   Section        0  task_splice_control.o(i.ChangeModeState)
    i.ChangeSpeed0                           0x08025664   Section        0  motor_lefty.o(i.ChangeSpeed0)
    i.ChangeSpeed1                           0x08025674   Section        0  motor_righty.o(i.ChangeSpeed1)
    i.ChangeSpeed2                           0x08025684   Section        0  motor_leftx.o(i.ChangeSpeed2)
    i.ChangeSpeed3                           0x08025694   Section        0  motor_rightx.o(i.ChangeSpeed3)
    i.ChangeToDec                            0x080256a4   Section        0  ds1302.o(i.ChangeToDec)
    i.ChangeTohex                            0x080256ce   Section        0  ds1302.o(i.ChangeTohex)
    i.Change_Record_Offset                   0x080256e8   Section        0  flash.o(i.Change_Record_Offset)
    i.ChargerIO_Init                         0x0802579c   Section        0  charger.o(i.ChargerIO_Init)
    i.CheckAppTimer                          0x080257ac   Section        0  timedog.o(i.CheckAppTimer)
    i.CheckGUI_PageChanged                   0x08025808   Section        0  task_splice_control.o(i.CheckGUI_PageChanged)
    i.CheckHallState                         0x08025824   Section        0  key.o(i.CheckHallState)
    i.CheckKeyChange                         0x0802583c   Section        0  key.o(i.CheckKeyChange)
    i.CheckKeyState                          0x0802585c   Section        0  key.o(i.CheckKeyState)
    i.CheckParmChangeFlag                    0x080258a0   Section        0  taskflash.o(i.CheckParmChangeFlag)
    CheckParmChangeFlag                      0x080258a1   Thumb Code   272  taskflash.o(i.CheckParmChangeFlag)
    i.CheckRunState                          0x080259b0   Section        0  nodeaimcommon.o(i.CheckRunState)
    i.CheckSystemControlFile                 0x08025a94   Section        0  eloksystemcontrol.o(i.CheckSystemControlFile)
    CheckSystemControlFile                   0x08025a95   Thumb Code   594  eloksystemcontrol.o(i.CheckSystemControlFile)
    i.CheckUpdataFlgFlash                    0x08025d38   Section        0  flash_iner.o(i.CheckUpdataFlgFlash)
    i.Check_ACPower_State                    0x08025d54   Section        0  battery_task.o(i.Check_ACPower_State)
    Check_ACPower_State                      0x08025d55   Thumb Code    60  battery_task.o(i.Check_ACPower_State)
    i.Check_Flash_PowerON                    0x08025d98   Section        0  gui_task.o(i.Check_Flash_PowerON)
    i.Check_SleeveState                      0x08025dd4   Section        0  sleeve_task.o(i.Check_SleeveState)
    Check_SleeveState                        0x08025dd5   Thumb Code   170  sleeve_task.o(i.Check_SleeveState)
    i.Check_Temp                             0x08025e8c   Section        0  sleeve_task.o(i.Check_Temp)
    i.Clean_Electrod                         0x0802602c   Section        0  task_process_discharge.o(i.Clean_Electrod)
    Clean_Electrod                           0x0802602d   Thumb Code   188  task_process_discharge.o(i.Clean_Electrod)
    i.Clean_Electrods                        0x08026100   Section        0  task_process_clean_electrode.o(i.Clean_Electrods)
    Clean_Electrods                          0x08026101   Thumb Code   194  task_process_clean_electrode.o(i.Clean_Electrods)
    i.ClearChargerNum                        0x080261dc   Section        0  flash.o(i.ClearChargerNum)
    i.ClearCommBuf                           0x080261e8   Section        0  usart_communication.o(i.ClearCommBuf)
    i.ClearDischargeTimes                    0x080261f4   Section        0  task_process_discharge.o(i.ClearDischargeTimes)
    ClearDischargeTimes                      0x080261f5   Thumb Code    18  task_process_discharge.o(i.ClearDischargeTimes)
    i.ClearFaultsNum                         0x08026214   Section        0  flash.o(i.ClearFaultsNum)
    i.ClearFiberExist                        0x08026220   Section        0  node_aim1.o(i.ClearFiberExist)
    i.ClearHint                              0x0802622c   Section        0  node_judgeloss.o(i.ClearHint)
    i.ClearKeyBuf                            0x08026368   Section        0  key.o(i.ClearKeyBuf)
    i.ClearKeyChange                         0x08026394   Section        0  key.o(i.ClearKeyChange)
    i.ClearKeyState                          0x080263a4   Section        0  key.o(i.ClearKeyState)
    i.ClearRespandData                       0x080263b8   Section        0  readdata_usart.o(i.ClearRespandData)
    i.ClearSpliceNum                         0x080263d8   Section        0  flash.o(i.ClearSpliceNum)
    i.ClearSpliceRunStatus                   0x08026400   Section        0  task_splice.o(i.ClearSpliceRunStatus)
    i.Clear_Flag                             0x0802640c   Section        0  gui_page_common.o(i.Clear_Flag)
    Clear_Flag                               0x0802640d   Thumb Code   384  gui_page_common.o(i.Clear_Flag)
    i.ClockAndDate                           0x080265cc   Section        0  gui_page_common.o(i.ClockAndDate)
    i.Close_Sleeve                           0x08026738   Section        0  sleeve_task.o(i.Close_Sleeve)
    i.Cmd_GetAngle                           0x08026758   Section        0  node_communication.o(i.Cmd_GetAngle)
    Cmd_GetAngle                             0x08026759   Thumb Code   264  node_communication.o(i.Cmd_GetAngle)
    i.Cmd_GetCurrent                         0x08026878   Section        0  node_communication.o(i.Cmd_GetCurrent)
    Cmd_GetCurrent                           0x08026879   Thumb Code    62  node_communication.o(i.Cmd_GetCurrent)
    i.Cmd_GetElectrodePos                    0x08026918   Section        0  node_communication.o(i.Cmd_GetElectrodePos)
    Cmd_GetElectrodePos                      0x08026919   Thumb Code   150  node_communication.o(i.Cmd_GetElectrodePos)
    i.Cmd_GetFiberExist                      0x080269ec   Section        0  node_communication.o(i.Cmd_GetFiberExist)
    Cmd_GetFiberExist                        0x080269ed   Thumb Code    84  node_communication.o(i.Cmd_GetFiberExist)
    i.Cmd_GetLedData                         0x08026a94   Section        0  node_communication.o(i.Cmd_GetLedData)
    Cmd_GetLedData                           0x08026a95   Thumb Code   104  node_communication.o(i.Cmd_GetLedData)
    i.Cmd_GetLoss                            0x08026b30   Section        0  node_communication.o(i.Cmd_GetLoss)
    Cmd_GetLoss                              0x08026b31   Thumb Code   228  node_communication.o(i.Cmd_GetLoss)
    i.Color_SelectorNot                      0x08026c9c   Section        0  gui_page_common.o(i.Color_SelectorNot)
    Color_SelectorNot                        0x08026c9d   Thumb Code   338  gui_page_common.o(i.Color_SelectorNot)
    i.Communication_Send                     0x08026e04   Section        0  data_usart.o(i.Communication_Send)
    i.ConditionsCheck                        0x08026edc   Section        0  task_process_self_check.o(i.ConditionsCheck)
    ConditionsCheck                          0x08026edd   Thumb Code    24  task_process_self_check.o(i.ConditionsCheck)
    i.ConditionsCheckInit                    0x08026ef8   Section        0  task_process_self_check.o(i.ConditionsCheckInit)
    ConditionsCheckInit                      0x08026ef9   Thumb Code    16  task_process_self_check.o(i.ConditionsCheckInit)
    i.ConfigSelectLanguage                   0x08026f0c   Section        0  gui_task_controller.o(i.ConfigSelectLanguage)
    i.Confirm_Fiber_Exist                    0x08026f4c   Section        0  nodeaimcommon.o(i.Confirm_Fiber_Exist)
    i.Confirm_Image_ElectPos                 0x08026f54   Section        0  task_process_self_check.o(i.Confirm_Image_ElectPos)
    Confirm_Image_ElectPos                   0x08026f55   Thumb Code    48  task_process_self_check.o(i.Confirm_Image_ElectPos)
    i.Current_Data                           0x08026f88   Section        0  gui_task_controller.o(i.Current_Data)
    Current_Data                             0x08026f89   Thumb Code    68  gui_task_controller.o(i.Current_Data)
    i.Current_SystemSet                      0x08026fdc   Section        0  gui_page_common.o(i.Current_SystemSet)
    Current_SystemSet                        0x08026fdd   Thumb Code    78  gui_page_common.o(i.Current_SystemSet)
    i.Current_Time_Draw                      0x0802703c   Section        0  gui_page_timeset.o(i.Current_Time_Draw)
    Current_Time_Draw                        0x0802703d   Thumb Code   176  gui_page_timeset.o(i.Current_Time_Draw)
    i.DAC_Cmd                                0x08027100   Section        0  stm32f4xx_dac.o(i.DAC_Cmd)
    i.DAC_DeInit                             0x08027128   Section        0  stm32f4xx_dac.o(i.DAC_DeInit)
    i.DAC_Init                               0x08027140   Section        0  stm32f4xx_dac.o(i.DAC_Init)
    i.DAC_SetChannel2Data                    0x08027174   Section        0  stm32f4xx_dac.o(i.DAC_SetChannel2Data)
    i.DCD_EP_Close                           0x08027194   Section        0  usb_dcd.o(i.DCD_EP_Close)
    i.DCD_EP_ClrStall                        0x080271de   Section        0  usb_dcd.o(i.DCD_EP_ClrStall)
    i.DCD_EP_Flush                           0x08027226   Section        0  usb_dcd.o(i.DCD_EP_Flush)
    i.DCD_EP_Open                            0x0802724a   Section        0  usb_dcd.o(i.DCD_EP_Open)
    i.DCD_EP_PrepareRx                       0x080272b2   Section        0  usb_dcd.o(i.DCD_EP_PrepareRx)
    i.DCD_EP_SetAddress                      0x08027304   Section        0  usb_dcd.o(i.DCD_EP_SetAddress)
    i.DCD_EP_Stall                           0x08027320   Section        0  usb_dcd.o(i.DCD_EP_Stall)
    i.DCD_EP_Tx                              0x08027368   Section        0  usb_dcd.o(i.DCD_EP_Tx)
    i.DCD_HandleEnumDone_ISR                 0x080273b6   Section        0  usb_dcd_int.o(i.DCD_HandleEnumDone_ISR)
    DCD_HandleEnumDone_ISR                   0x080273b7   Thumb Code   102  usb_dcd_int.o(i.DCD_HandleEnumDone_ISR)
    i.DCD_HandleInEP_ISR                     0x0802741c   Section        0  usb_dcd_int.o(i.DCD_HandleInEP_ISR)
    DCD_HandleInEP_ISR                       0x0802741d   Thumb Code   388  usb_dcd_int.o(i.DCD_HandleInEP_ISR)
    i.DCD_HandleOutEP_ISR                    0x080275a4   Section        0  usb_dcd_int.o(i.DCD_HandleOutEP_ISR)
    DCD_HandleOutEP_ISR                      0x080275a5   Thumb Code   288  usb_dcd_int.o(i.DCD_HandleOutEP_ISR)
    i.DCD_HandleResume_ISR                   0x080276c8   Section        0  usb_dcd_int.o(i.DCD_HandleResume_ISR)
    DCD_HandleResume_ISR                     0x080276c9   Thumb Code   100  usb_dcd_int.o(i.DCD_HandleResume_ISR)
    i.DCD_HandleRxStatusQueueLevel_ISR       0x08027730   Section        0  usb_dcd_int.o(i.DCD_HandleRxStatusQueueLevel_ISR)
    DCD_HandleRxStatusQueueLevel_ISR         0x08027731   Thumb Code   176  usb_dcd_int.o(i.DCD_HandleRxStatusQueueLevel_ISR)
    i.DCD_HandleSof_ISR                      0x080277e0   Section        0  usb_dcd_int.o(i.DCD_HandleSof_ISR)
    DCD_HandleSof_ISR                        0x080277e1   Thumb Code    38  usb_dcd_int.o(i.DCD_HandleSof_ISR)
    i.DCD_HandleUSBSuspend_ISR               0x0802780c   Section        0  usb_dcd_int.o(i.DCD_HandleUSBSuspend_ISR)
    DCD_HandleUSBSuspend_ISR                 0x0802780d   Thumb Code   126  usb_dcd_int.o(i.DCD_HandleUSBSuspend_ISR)
    i.DCD_HandleUsbReset_ISR                 0x08027894   Section        0  usb_dcd_int.o(i.DCD_HandleUsbReset_ISR)
    DCD_HandleUsbReset_ISR                   0x08027895   Thumb Code   298  usb_dcd_int.o(i.DCD_HandleUsbReset_ISR)
    i.DCD_Init                               0x080279c4   Section        0  usb_dcd.o(i.DCD_Init)
    i.DCD_IsoINIncomplete_ISR                0x08027a60   Section        0  usb_dcd_int.o(i.DCD_IsoINIncomplete_ISR)
    DCD_IsoINIncomplete_ISR                  0x08027a61   Thumb Code    40  usb_dcd_int.o(i.DCD_IsoINIncomplete_ISR)
    i.DCD_IsoOUTIncomplete_ISR               0x08027a8c   Section        0  usb_dcd_int.o(i.DCD_IsoOUTIncomplete_ISR)
    DCD_IsoOUTIncomplete_ISR                 0x08027a8d   Thumb Code    40  usb_dcd_int.o(i.DCD_IsoOUTIncomplete_ISR)
    i.DCD_ReadDevInEP                        0x08027ab8   Section        0  usb_dcd_int.o(i.DCD_ReadDevInEP)
    DCD_ReadDevInEP                          0x08027ab9   Thumb Code    40  usb_dcd_int.o(i.DCD_ReadDevInEP)
    i.DCD_WriteEmptyTxFifo                   0x08027ae0   Section        0  usb_dcd_int.o(i.DCD_WriteEmptyTxFifo)
    DCD_WriteEmptyTxFifo                     0x08027ae1   Thumb Code   144  usb_dcd_int.o(i.DCD_WriteEmptyTxFifo)
    i.DCMI_CaptureCmd                        0x08027b70   Section        0  stm32f4xx_dcmi.o(i.DCMI_CaptureCmd)
    i.DCMI_Close                             0x08027b94   Section        0  ov7725.o(i.DCMI_Close)
    i.DCMI_Cmd                               0x08027bac   Section        0  stm32f4xx_dcmi.o(i.DCMI_Cmd)
    i.DCMI_Config                            0x08027bd0   Section        0  ov7725.o(i.DCMI_Config)
    i.DCMI_IRQHandler                        0x08027d7c   Section        0  ov7725.o(i.DCMI_IRQHandler)
    i.DCMI_ITConfig                          0x08027ec0   Section        0  stm32f4xx_dcmi.o(i.DCMI_ITConfig)
    i.DCMI_Init                              0x08027ee4   Section        0  stm32f4xx_dcmi.o(i.DCMI_Init)
    i.DCMI_NVIC_Config                       0x08027f24   Section        0  ov7725.o(i.DCMI_NVIC_Config)
    i.DCMI_Open                              0x08027f60   Section        0  ov7725.o(i.DCMI_Open)
    i.DMA1_Stream3_IRQHandler                0x08027f8c   Section        0  stm32f4xx_it.o(i.DMA1_Stream3_IRQHandler)
    i.DMA2_Stream3_IRQHandler                0x08027f8e   Section        0  stm32f4xx_it.o(i.DMA2_Stream3_IRQHandler)
    i.DMA_DeInit                             0x08027f9c   Section        0  stm32f4xx_dma.o(i.DMA_DeInit)
    i.DMA_Init                               0x080280f4   Section        0  stm32f4xx_dma.o(i.DMA_Init)
    i.DS1302IO_Init                          0x0802814c   Section        0  ds1302.o(i.DS1302IO_Init)
    i.DS1302_DIN                             0x080281a0   Section        0  ds1302.o(i.DS1302_DIN)
    i.DS1302_DOUT                            0x080281cc   Section        0  ds1302.o(i.DS1302_DOUT)
    i.DS1302_TrickleCharger                  0x080281f8   Section        0  ds1302.o(i.DS1302_TrickleCharger)
    i.DataLinkAdd                            0x0802820c   Section        0  taskflash.o(i.DataLinkAdd)
    DataLinkAdd                              0x0802820d   Thumb Code   472  taskflash.o(i.DataLinkAdd)
    i.DataLinkRelease                        0x080283f0   Section        0  taskflash.o(i.DataLinkRelease)
    DataLinkRelease                          0x080283f1   Thumb Code   236  taskflash.o(i.DataLinkRelease)
    i.DayInYear                              0x080284e8   Section        0  battery_task.o(i.DayInYear)
    i.DaysBetween2Date                       0x0802852c   Section        0  battery_task.o(i.DaysBetween2Date)
    i.DeInitAim1                             0x080285e8   Section        0  node_aim1.o(i.DeInitAim1)
    DeInitAim1                               0x080285e9   Thumb Code    12  node_aim1.o(i.DeInitAim1)
    i.DeInitAim2                             0x080285f8   Section        0  node_aim2.o(i.DeInitAim2)
    DeInitAim2                               0x080285f9   Thumb Code    12  node_aim2.o(i.DeInitAim2)
    i.DeInitAim3                             0x08028608   Section        0  node_aim3.o(i.DeInitAim3)
    DeInitAim3                               0x08028609   Thumb Code    18  node_aim3.o(i.DeInitAim3)
    i.DeInitAppTimer                         0x08028620   Section        0  timedog.o(i.DeInitAppTimer)
    i.DeInitDelay                            0x0802863c   Section        0  node_delay.o(i.DeInitDelay)
    DeInitDelay                              0x0802863d   Thumb Code     8  node_delay.o(i.DeInitDelay)
    i.DeInitLoop                             0x08028648   Section        0  node_loop.o(i.DeInitLoop)
    DeInitLoop                               0x08028649   Thumb Code     2  node_loop.o(i.DeInitLoop)
    i.DeInitLoop_Init                        0x0802864a   Section        0  node_loop.o(i.DeInitLoop_Init)
    DeInitLoop_Init                          0x0802864b   Thumb Code     2  node_loop.o(i.DeInitLoop_Init)
    i.DeInitMotor_Reset                      0x0802864c   Section        0  node_reset.o(i.DeInitMotor_Reset)
    DeInitMotor_Reset                        0x0802864d   Thumb Code    16  node_reset.o(i.DeInitMotor_Reset)
    i.DeInitWaitKey                          0x08028668   Section        0  node_waitkey.o(i.DeInitWaitKey)
    DeInitWaitKey                            0x08028669   Thumb Code    16  node_waitkey.o(i.DeInitWaitKey)
    i.DeInitcommunication                    0x08028680   Section        0  node_communication.o(i.DeInitcommunication)
    DeInitcommunication                      0x08028681   Thumb Code    10  node_communication.o(i.DeInitcommunication)
    i.DeInitcommunication_SplicePara         0x08028690   Section        0  node_communication.o(i.DeInitcommunication_SplicePara)
    DeInitcommunication_SplicePara           0x08028691   Thumb Code    10  node_communication.o(i.DeInitcommunication_SplicePara)
    i.Debug                                  0x080286a0   Section        0  task_debuger.o(i.Debug)
    Debug                                    0x080286a1   Thumb Code     2  task_debuger.o(i.Debug)
    i.DebugMon_Handler                       0x080286a2   Section        0  stm32f4xx_it.o(i.DebugMon_Handler)
    i.DecodeFaultData                        0x080286a4   Section        0  gui_page_faultrecord.o(i.DecodeFaultData)
    DecodeFaultData                          0x080286a5   Thumb Code   156  gui_page_faultrecord.o(i.DecodeFaultData)
    i.DecodeSpliceData                       0x08028748   Section        0  gui_page_splicerecord.o(i.DecodeSpliceData)
    DecodeSpliceData                         0x08028749   Thumb Code   184  gui_page_splicerecord.o(i.DecodeSpliceData)
    i.Delay                                  0x08028808   Section        0  bsp.o(i.Delay)
    i.DelayInit                              0x0802881c   Section        0  node_delay.o(i.DelayInit)
    DelayInit                                0x0802881d   Thumb Code    10  node_delay.o(i.DelayInit)
    i.DeleteRecord                           0x0802882c   Section        0  taskflash.o(i.DeleteRecord)
    i.DetectDataChange                       0x080288a0   Section        0  gui_page_common.o(i.DetectDataChange)
    DetectDataChange                         0x080288a1   Thumb Code   248  gui_page_common.o(i.DetectDataChange)
    i.Detect_USB_Status                      0x080289cc   Section        0  gui_task.o(i.Detect_USB_Status)
    Detect_USB_Status                        0x080289cd   Thumb Code   122  gui_task.o(i.Detect_USB_Status)
    i.Device_OFF                             0x08028a60   Section        0  bsp.o(i.Device_OFF)
    i.DirectionMotor0                        0x08028a64   Section        0  motor_lefty.o(i.DirectionMotor0)
    i.DirectionMotor1                        0x08028a70   Section        0  motor_righty.o(i.DirectionMotor1)
    i.DirectionMotor2                        0x08028a7c   Section        0  motor_leftx.o(i.DirectionMotor2)
    i.DirectionMotor3                        0x08028a88   Section        0  motor_rightx.o(i.DirectionMotor3)
    i.DisSaveOKInfo                          0x08028a94   Section        0  gui_page_common.o(i.DisSaveOKInfo)
    DisSaveOKInfo                            0x08028a95   Thumb Code   558  gui_page_common.o(i.DisSaveOKInfo)
    i.DisableSpliceRun                       0x08028d00   Section        0  task_splice.o(i.DisableSpliceRun)
    i.Disable_DCMI                           0x08028d0c   Section        0  ov7725.o(i.Disable_DCMI)
    i.Discharge                              0x08028d28   Section        0  node_discharge_common.o(i.Discharge)
    Discharge                                0x08028d29   Thumb Code    82  node_discharge_common.o(i.Discharge)
    i.DischargeInit                          0x08028db4   Section        0  task_process_discharge.o(i.DischargeInit)
    DischargeInit                            0x08028db5   Thumb Code    42  task_process_discharge.o(i.DischargeInit)
    i.Discharge_Forwward                     0x08028de8   Section        0  node_discharge_splice.o(i.Discharge_Forwward)
    i.Discharge_Splice                       0x08028ec4   Section        0  node_discharge_splice.o(i.Discharge_Splice)
    Discharge_Splice                         0x08028ec5   Thumb Code   196  node_discharge_splice.o(i.Discharge_Splice)
    i.Disp_AboutInfo                         0x08028f94   Section        0  gui_page_helpinfo.o(i.Disp_AboutInfo)
    i.Disp_Inform                            0x08029140   Section        0  task_process_discharge.o(i.Disp_Inform)
    Disp_Inform                              0x08029141   Thumb Code    80  task_process_discharge.o(i.Disp_Inform)
    i.Disp_Return                            0x08029194   Section        0  task_process_discharge.o(i.Disp_Return)
    Disp_Return                              0x08029195   Thumb Code     4  task_process_discharge.o(i.Disp_Return)
    i.DisplayDischargeHint                   0x08029198   Section        0  gui_page_splicevideo.o(i.DisplayDischargeHint)
    i.DisplayManualInfo                      0x08029274   Section        0  task_manualspliceaim.o(i.DisplayManualInfo)
    DisplayManualInfo                        0x08029275   Thumb Code    34  task_manualspliceaim.o(i.DisplayManualInfo)
    i.DisplayModeSelected                    0x08029298   Section        0  gui_page_splicevideo.o(i.DisplayModeSelected)
    DisplayModeSelected                      0x08029299   Thumb Code   448  gui_page_splicevideo.o(i.DisplayModeSelected)
    i.DisplaySplieImageInfo                  0x080294a0   Section        0  gui_page_splicevideo.o(i.DisplaySplieImageInfo)
    i.DisplayWarnning                        0x080296ac   Section        0  gui_page_splicevideo.o(i.DisplayWarnning)
    DisplayWarnning                          0x080296ad   Thumb Code  5416  gui_page_splicevideo.o(i.DisplayWarnning)
    i.Display_ErrRecord                      0x0802abdc   Section        0  flash.o(i.Display_ErrRecord)
    i.Display_RecordSplice                   0x0802ac88   Section        0  flash.o(i.Display_RecordSplice)
    i.Draw_menu_item                         0x0802ad1c   Section        0  gui_page_common.o(i.Draw_menu_item)
    Draw_menu_item                           0x0802ad1d   Thumb Code  3322  gui_page_common.o(i.Draw_menu_item)
    i.EXTI0_IRQHandler                       0x0802ba24   Section        0  stm32f4xx_it.o(i.EXTI0_IRQHandler)
    i.EXTI1_IRQHandler                       0x0802ba36   Section        0  stm32f4xx_it.o(i.EXTI1_IRQHandler)
    i.EXTI2_IRQHandler                       0x0802ba48   Section        0  stm32f4xx_it.o(i.EXTI2_IRQHandler)
    i.EXTI3_IRQHandler                       0x0802ba5a   Section        0  stm32f4xx_it.o(i.EXTI3_IRQHandler)
    i.EXTI_GetITStatus                       0x0802ba6c   Section        0  stm32f4xx_exti.o(i.EXTI_GetITStatus)
    i.EchoEvent                              0x0802ba94   Section        0  statecontrol.o(i.EchoEvent)
    i.Electrode_Discharge                    0x0802baec   Section        0  electrode.o(i.Electrode_Discharge)
    i.Electrode_GPIO_Configuration           0x0802bb24   Section        0  electrode.o(i.Electrode_GPIO_Configuration)
    i.Electrode_Init                         0x0802bbd0   Section        0  electrode.o(i.Electrode_Init)
    i.Electrode_Power_Enable                 0x0802bc90   Section        0  electrode.o(i.Electrode_Power_Enable)
    i.Electrode_Set_Current                  0x0802bd04   Section        0  electrode.o(i.Electrode_Set_Current)
    i.Enable                                 0x0802bd68   Section        0  task_debuger.o(i.Enable)
    Enable                                   0x0802bd69   Thumb Code    36  task_debuger.o(i.Enable)
    i.EnableMotor0_Limited                   0x0802bda0   Section        0  motor_lefty.o(i.EnableMotor0_Limited)
    i.EnableMotor1_Limited                   0x0802bdd8   Section        0  motor_righty.o(i.EnableMotor1_Limited)
    i.EnableMotor2_Limited                   0x0802be10   Section        0  motor_leftx.o(i.EnableMotor2_Limited)
    i.EnableMotor3_Limited                   0x0802be48   Section        0  motor_rightx.o(i.EnableMotor3_Limited)
    i.EnableSpliceRun                        0x0802be80   Section        0  task_splice.o(i.EnableSpliceRun)
    i.EnableState                            0x0802be8c   Section        0  machinestate.o(i.EnableState)
    i.Enable_DCMI                            0x0802befc   Section        0  ov7725.o(i.Enable_DCMI)
    i.Erase_AllImage                         0x0802bf0c   Section        0  flash.o(i.Erase_AllImage)
    i.ErrRecord_code                         0x0802bf68   Section        0  flash.o(i.ErrRecord_code)
    i.EventBroadcast                         0x0802c024   Section        0  statecontrol.o(i.EventBroadcast)
    i.ExitIntCheckParmChangeFlag             0x0802c154   Section        0  taskflash.o(i.ExitIntCheckParmChangeFlag)
    ExitIntCheckParmChangeFlag               0x0802c155   Thumb Code   254  taskflash.o(i.ExitIntCheckParmChangeFlag)
    i.FLASH_ClearFlag                        0x0802c254   Section        0  stm32f4xx_flash.o(i.FLASH_ClearFlag)
    i.FLASH_EraseSector                      0x0802c260   Section        0  stm32f4xx_flash.o(i.FLASH_EraseSector)
    i.FLASH_GetStatus                        0x0802c2e8   Section        0  stm32f4xx_flash.o(i.FLASH_GetStatus)
    i.FLASH_Lock                             0x0802c330   Section        0  stm32f4xx_flash.o(i.FLASH_Lock)
    i.FLASH_ProgramWord                      0x0802c344   Section        0  stm32f4xx_flash.o(i.FLASH_ProgramWord)
    i.FLASH_Unlock                           0x0802c394   Section        0  stm32f4xx_flash.o(i.FLASH_Unlock)
    i.FLASH_WaitForLastOperation             0x0802c3b8   Section        0  stm32f4xx_flash.o(i.FLASH_WaitForLastOperation)
    i.FRAMEWIN_Callback                      0x0802c3da   Section        0  framewin.o(i.FRAMEWIN_Callback)
    i.FRAMEWIN_CreateIndirect                0x0802c5be   Section        0  framewin_createindirect.o(i.FRAMEWIN_CreateIndirect)
    i.FRAMEWIN_CreateUser                    0x0802c600   Section        0  framewin.o(i.FRAMEWIN_CreateUser)
    i.FRAMEWIN_OwnerDraw                     0x0802c6f0   Section        0  framewin_skinclassic.o(i.FRAMEWIN_OwnerDraw)
    i.FRAMEWIN_SetActive                     0x0802c7a6   Section        0  framewin.o(i.FRAMEWIN_SetActive)
    i.FRAMEWIN_SetBorderSize                 0x0802c7c4   Section        0  framewin_setbordersize.o(i.FRAMEWIN_SetBorderSize)
    i.FRAMEWIN_SetClientColor                0x0802c872   Section        0  framewin_setcolors.o(i.FRAMEWIN_SetClientColor)
    i.FRAMEWIN_SetFont                       0x0802c8a0   Section        0  framewin_setfont.o(i.FRAMEWIN_SetFont)
    i.FRAMEWIN_SetOwnerDraw                  0x0802c90c   Section        0  framewin_setownerdraw.o(i.FRAMEWIN_SetOwnerDraw)
    i.FRAMEWIN_SetText                       0x0802c936   Section        0  framewin.o(i.FRAMEWIN_SetText)
    i.FRAMEWIN_SetTitleHeight                0x0802c97c   Section        0  framewin_settitleheight.o(i.FRAMEWIN_SetTitleHeight)
    i.FRAMEWIN_SetTitleVis                   0x0802c9f8   Section        0  framewin_settitlevis.o(i.FRAMEWIN_SetTitleVis)
    i.FRAMEWIN__CalcPositions                0x0802caa2   Section        0  framewin.o(i.FRAMEWIN__CalcPositions)
    i.FRAMEWIN__CalcTitleHeight              0x0802cb70   Section        0  framewin.o(i.FRAMEWIN__CalcTitleHeight)
    i.FRAMEWIN__GetBorderSize                0x0802cb90   Section        0  framewin.o(i.FRAMEWIN__GetBorderSize)
    i.FRAMEWIN__GetTitleLimits               0x0802cbd4   Section        0  framewin.o(i.FRAMEWIN__GetTitleLimits)
    i.FRAMEWIN__UpdateButtons                0x0802cc60   Section        0  framewin__updatebuttons.o(i.FRAMEWIN__UpdateButtons)
    i.FRAMEWIN__UpdatePositions              0x0802cd42   Section        0  framewin.o(i.FRAMEWIN__UpdatePositions)
    i.FRAMEWIN__cbClient                     0x0802cdb0   Section        0  framewin.o(i.FRAMEWIN__cbClient)
    FRAMEWIN__cbClient                       0x0802cdb1   Thumb Code   232  framewin.o(i.FRAMEWIN__cbClient)
    i.FSMCHighSpeed_LCD_Init                 0x0802ce98   Section        0  bsp.o(i.FSMCHighSpeed_LCD_Init)
    i.FSMCLowSpeed_LCD_Init                  0x0802cf00   Section        0  bsp.o(i.FSMCLowSpeed_LCD_Init)
    i.FSMC_24BitData                         0x0802d030   Section        0  lcd_display.o(i.FSMC_24BitData)
    FSMC_24BitData                           0x0802d031   Thumb Code    14  lcd_display.o(i.FSMC_24BitData)
    i.FSMC_DATA                              0x0802d044   Section        0  ssd1963.o(i.FSMC_DATA)
    FSMC_DATA                                0x0802d045   Thumb Code    26  ssd1963.o(i.FSMC_DATA)
    i.FSMC_NORSRAMCmd                        0x0802d064   Section        0  stm32f4xx_fsmc.o(i.FSMC_NORSRAMCmd)
    i.FSMC_NORSRAMDeInit                     0x0802d098   Section        0  stm32f4xx_fsmc.o(i.FSMC_NORSRAMDeInit)
    i.FSMC_NORSRAMInit                       0x0802d0ce   Section        0  stm32f4xx_fsmc.o(i.FSMC_NORSRAMInit)
    i.Factory_data_write                     0x0802d1b4   Section        0  taskflash.o(i.Factory_data_write)
    i.FastSpliceForward                      0x0802d328   Section        0  motor.o(i.FastSpliceForward)
    i.FaultsList_Data                        0x0802d3c0   Section        0  gui_page_faultrecord.o(i.FaultsList_Data)
    FaultsList_Data                          0x0802d3c1   Thumb Code   332  gui_page_faultrecord.o(i.FaultsList_Data)
    i.FeedAppTimer                           0x0802d524   Section        0  timedog.o(i.FeedAppTimer)
    i.FiberAngleCal                          0x0802d550   Section        0  task_process_discharge.o(i.FiberAngleCal)
    FiberAngleCal                            0x0802d551   Thumb Code    94  task_process_discharge.o(i.FiberAngleCal)
    i.FiberEndAngle_DeInit                   0x0802d5ae   Section        0  node_judgeangle.o(i.FiberEndAngle_DeInit)
    FiberEndAngle_DeInit                     0x0802d5af   Thumb Code     2  node_judgeangle.o(i.FiberEndAngle_DeInit)
    i.FiberEndAngle_Init                     0x0802d5b0   Section        0  node_judgeangle.o(i.FiberEndAngle_Init)
    FiberEndAngle_Init                       0x0802d5b1   Thumb Code    12  node_judgeangle.o(i.FiberEndAngle_Init)
    i.FiberEndAngle_Judge                    0x0802d5c0   Section        0  node_judgeangle.o(i.FiberEndAngle_Judge)
    FiberEndAngle_Judge                      0x0802d5c1   Thumb Code   742  node_judgeangle.o(i.FiberEndAngle_Judge)
    i.File_Mkdir                             0x0802d930   Section        0  flash.o(i.File_Mkdir)
    i.File_Open                              0x0802d954   Section        0  flash.o(i.File_Open)
    i.FlashTaskInit                          0x0802d994   Section        0  taskflash.o(i.FlashTaskInit)
    FlashTaskInit                            0x0802d995   Thumb Code   208  taskflash.o(i.FlashTaskInit)
    i.Flash_CheckFormat                      0x0802db30   Section        0  flash.o(i.Flash_CheckFormat)
    i.Flash_FileInit                         0x0802dbb4   Section        0  flash.o(i.Flash_FileInit)
    i.Flash_Task_Init                        0x0802dbc0   Section        0  flash.o(i.Flash_Task_Init)
    i.GL_DrawBitmap                          0x0802dbe8   Section        0  gui_drawbitmap.o(i.GL_DrawBitmap)
    i.GL_SetDefault                          0x0802dc84   Section        0  gui_setdefault.o(i.GL_SetDefault)
    i.GPIO_Init                              0x0802dcc4   Section        0  stm32f4xx_gpio.o(i.GPIO_Init)
    i.GPIO_PinAFConfig                       0x0802dd54   Section        0  stm32f4xx_gpio.o(i.GPIO_PinAFConfig)
    i.GPIO_ReadInputDataBit                  0x0802dd9a   Section        0  stm32f4xx_gpio.o(i.GPIO_ReadInputDataBit)
    i.GPIO_ResetBits                         0x0802ddac   Section        0  stm32f4xx_gpio.o(i.GPIO_ResetBits)
    i.GPIO_SetBits                           0x0802ddb0   Section        0  stm32f4xx_gpio.o(i.GPIO_SetBits)
    i.GUIMONO_DispChar                       0x0802ddb4   Section        0  gui_charm.o(i.GUIMONO_DispChar)
    i.GUIMONO_GetCharDistX                   0x0802dee8   Section        0  gui_charm.o(i.GUIMONO_GetCharDistX)
    i.GUIMONO_GetFontInfo                    0x0802df00   Section        0  gui_charm.o(i.GUIMONO_GetFontInfo)
    i.GUIMONO_IsInFont                       0x0802df06   Section        0  gui_charm.o(i.GUIMONO_IsInFont)
    i.GUIPROP_DispChar                       0x0802df40   Section        0  gui_charp.o(i.GUIPROP_DispChar)
    i.GUIPROP_EXT_DispChar                   0x0802e008   Section        0  gui_charpext.o(i.GUIPROP_EXT_DispChar)
    i.GUIPROP_EXT_GetCharDistX               0x0802e0a4   Section        0  gui_charpext.o(i.GUIPROP_EXT_GetCharDistX)
    i.GUIPROP_EXT_GetCharInfo                0x0802e0ec   Section        0  gui_charpext.o(i.GUIPROP_EXT_GetCharInfo)
    i.GUIPROP_EXT_GetFontInfo                0x0802e128   Section        0  gui_charpext.o(i.GUIPROP_EXT_GetFontInfo)
    i.GUIPROP_EXT_IsInFont                   0x0802e12e   Section        0  gui_charpext.o(i.GUIPROP_EXT_IsInFont)
    i.GUIPROP_EXT__ClearLine                 0x0802e140   Section        0  gui_encext.o(i.GUIPROP_EXT__ClearLine)
    i.GUIPROP_EXT__DispLine                  0x0802e200   Section        0  gui_encext.o(i.GUIPROP_EXT__DispLine)
    i.GUIPROP_EXT__FindChar                  0x0802e244   Section        0  gui_charpext.o(i.GUIPROP_EXT__FindChar)
    i.GUIPROP_GetCharDistX                   0x0802e25c   Section        0  gui_charp.o(i.GUIPROP_GetCharDistX)
    i.GUIPROP_GetFontInfo                    0x0802e2a0   Section        0  gui_charp.o(i.GUIPROP_GetFontInfo)
    i.GUIPROP_IsInFont                       0x0802e2a6   Section        0  gui_charp.o(i.GUIPROP_IsInFont)
    i.GUIPROP__FindChar                      0x0802e2b6   Section        0  gui_charp.o(i.GUIPROP__FindChar)
    i.GUIPowerOff                            0x0802e2cc   Section        0  gui_task.o(i.GUIPowerOff)
    i.GUIStandBy                             0x0802e318   Section        0  gui_task.o(i.GUIStandBy)
    i.GUITASK_CopyContext                    0x0802e360   Section        0  gui_task.o(i.GUITASK_CopyContext)
    i.GUITASK_Init                           0x0802e3a8   Section        0  gui_task.o(i.GUITASK_Init)
    i.GUI_ALLOC_AllocNoInit                  0x0802e3e4   Section        0  gui_alloc.o(i.GUI_ALLOC_AllocNoInit)
    i.GUI_ALLOC_AllocZero                    0x0802e402   Section        0  gui_alloc_alloczero.o(i.GUI_ALLOC_AllocZero)
    i.GUI_ALLOC_AssignMemory                 0x0802e430   Section        0  gui_alloc.o(i.GUI_ALLOC_AssignMemory)
    i.GUI_ALLOC_Free                         0x0802e440   Section        0  gui_alloc.o(i.GUI_ALLOC_Free)
    i.GUI_ALLOC_FreeFixedBlock               0x0802e47c   Section        0  gui_alloc.o(i.GUI_ALLOC_FreeFixedBlock)
    i.GUI_ALLOC_FreePtr                      0x0802e494   Section        0  gui_alloc.o(i.GUI_ALLOC_FreePtr)
    i.GUI_ALLOC_FreePtrArray                 0x0802e4b0   Section        0  gui_alloc.o(i.GUI_ALLOC_FreePtrArray)
    i.GUI_ALLOC_GetFixedBlock                0x0802e4cc   Section        0  gui_alloc.o(i.GUI_ALLOC_GetFixedBlock)
    i.GUI_ALLOC_GetMaxSize                   0x0802e574   Section        0  gui_alloc.o(i.GUI_ALLOC_GetMaxSize)
    i.GUI_ALLOC_GetSize                      0x0802e5b4   Section        0  gui_alloc.o(i.GUI_ALLOC_GetSize)
    i.GUI_ALLOC_LockH                        0x0802e5d0   Section        0  gui_alloc.o(i.GUI_ALLOC_LockH)
    i.GUI_ALLOC_RequestSize                  0x0802e5ec   Section        0  gui_alloc.o(i.GUI_ALLOC_RequestSize)
    i.GUI_ALLOC_SetAvBlockSize               0x0802e620   Section        0  gui_alloc.o(i.GUI_ALLOC_SetAvBlockSize)
    i.GUI_ALLOC_UnlockH                      0x0802e63c   Section        0  gui_alloc.o(i.GUI_ALLOC_UnlockH)
    i.GUI_ALLOC_h2p                          0x0802e66c   Section        0  gui_alloc.o(i.GUI_ALLOC_h2p)
    i.GUI_AddDecMin                          0x0802e684   Section        0  gui_adddecmin.o(i.GUI_AddDecMin)
    i.GUI_AddDecShift                        0x0802e6a0   Section        0  gui_adddecshift.o(i.GUI_AddDecShift)
    i.GUI_AddSign                            0x0802e738   Section        0  gui_adddecshift.o(i.GUI_AddSign)
    i.GUI_BMP_Draw_From_Flash                0x0802e750   Section        0  bmp.o(i.GUI_BMP_Draw_From_Flash)
    i.GUI_BMP_Serialize                      0x0802eb84   Section        0  gui_bmp_serialize.o(i.GUI_BMP_Serialize)
    i.GUI_BMP_SerializeEx                    0x0802eba6   Section        0  gui_bmp_serialize.o(i.GUI_BMP_SerializeEx)
    i.GUI_CalcColorDist                      0x0802ebd6   Section        0  gui_calccolordist.o(i.GUI_CalcColorDist)
    i.GUI_Clear                              0x0802ec1a   Section        0  gui_core.o(i.GUI_Clear)
    i.GUI_ClearRect                          0x0802ec38   Section        0  gui_core.o(i.GUI_ClearRect)
    i.GUI_ClearRectEx                        0x0802eca0   Section        0  gui_clearrectex.o(i.GUI_ClearRectEx)
    i.GUI_CreateDialogBox                    0x0802ecb4   Section        0  dialog.o(i.GUI_CreateDialogBox)
    i.GUI_DEVICE_Create                      0x0802ed60   Section        0  gui_device.o(i.GUI_DEVICE_Create)
    i.GUI_DEVICE_CreateAndLink               0x0802edb0   Section        0  gui_device.o(i.GUI_DEVICE_CreateAndLink)
    i.GUI_DEVICE_Delete                      0x0802edd8   Section        0  gui_device.o(i.GUI_DEVICE_Delete)
    i.GUI_DEVICE_Link                        0x0802eddc   Section        0  gui_device.o(i.GUI_DEVICE_Link)
    i.GUI_DEVICE_LinkDevices                 0x0802ee5c   Section        0  gui_device.o(i.GUI_DEVICE_LinkDevices)
    i.GUI_DEVICE_Unlink                      0x0802ee6e   Section        0  gui_device.o(i.GUI_DEVICE_Unlink)
    i.GUI_DEVICE_UnlinkTaskDevices           0x0802ee74   Section        0  gui_device.o(i.GUI_DEVICE_UnlinkTaskDevices)
    i.GUI_DEVICE__GetpDriver                 0x0802eeb8   Section        0  gui_device.o(i.GUI_DEVICE__GetpDriver)
    i.GUI_DRAW_BITMAP_Create                 0x0802eedc   Section        0  gui_draw_bitmap.o(i.GUI_DRAW_BITMAP_Create)
    i.GUI_DRAW__Draw                         0x0802ef1c   Section        0  gui_draw.o(i.GUI_DRAW__Draw)
    i.GUI_DispDec                            0x0802ef48   Section        0  gui_val.o(i.GUI_DispDec)
    i.GUI_DispDecAt                          0x0802ef4e   Section        0  gui_val.o(i.GUI_DispDecAt)
    i.GUI_DispDecMin                         0x0802ef70   Section        0  gui_val.o(i.GUI_DispDecMin)
    i.GUI_DispDecShift                       0x0802ef84   Section        0  gui_val.o(i.GUI_DispDecShift)
    i.GUI_DispFloatFix                       0x0802ef98   Section        0  gui_valf.o(i.GUI_DispFloatFix)
    i.GUI_DispFloatMin                       0x0802ef9e   Section        0  gui_valf.o(i.GUI_DispFloatMin)
    i.GUI_DispSDecShift                      0x0802efa4   Section        0  gui_val.o(i.GUI_DispSDecShift)
    i.GUI_DispString                         0x0802efd0   Section        0  gui_dispstring.o(i.GUI_DispString)
    i.GUI_DispStringAt                       0x0802f0d8   Section        0  gui_dispstringat.o(i.GUI_DispStringAt)
    i.GUI_DispStringHCenterAt                0x0802f100   Section        0  gui_dispstringhcenter.o(i.GUI_DispStringHCenterAt)
    i.GUI_DispStringInRect                   0x0802f134   Section        0  gui_dispstringinrect.o(i.GUI_DispStringInRect)
    i.GUI_DispStringInRectMax                0x0802f13c   Section        0  gui_dispstringinrect.o(i.GUI_DispStringInRectMax)
    i.GUI_DispStringInRectWrap               0x0802f188   Section        0  gui_dispstringinrectwrap.o(i.GUI_DispStringInRectWrap)
    i.GUI_DrawBitmap                         0x0802f298   Section        0  gui_drawbitmap.o(i.GUI_DrawBitmap)
    i.GUI_DrawFocusRect                      0x0802f2f0   Section        0  gui_drawfocusrect.o(i.GUI_DrawFocusRect)
    i.GUI_DrawHLine                          0x0802f39c   Section        0  gui_drawhline.o(i.GUI_DrawHLine)
    i.GUI_DrawRect                           0x0802f3f4   Section        0  gui_2dlib.o(i.GUI_DrawRect)
    i.GUI_DrawVLine                          0x0802f474   Section        0  gui_drawvline.o(i.GUI_DrawVLine)
    i.GUI_Exec                               0x0802f4c4   Section        0  gui_exec.o(i.GUI_Exec)
    i.GUI_Exec1                              0x0802f4d8   Section        0  gui_exec.o(i.GUI_Exec1)
    i.GUI_FillRect                           0x0802f4f8   Section        0  gui_fillrect.o(i.GUI_FillRect)
    i.GUI_GetBitsPerPixelEx                  0x0802f550   Section        0  lcd_getex.o(i.GUI_GetBitsPerPixelEx)
    i.GUI_GetBkColor                         0x0802f564   Section        0  gui_getcolor.o(i.GUI_GetBkColor)
    i.GUI_GetCharDistX                       0x0802f57c   Section        0  gui_char.o(i.GUI_GetCharDistX)
    i.GUI_GetCharDistXEx                     0x0802f5a0   Section        0  gui_char.o(i.GUI_GetCharDistXEx)
    i.GUI_GetClientRect                      0x0802f5c8   Section        0  gui_getclientrect.o(i.GUI_GetClientRect)
    i.GUI_GetColor                           0x0802f5d2   Section        0  gui_getcolor.o(i.GUI_GetColor)
    i.GUI_GetFontDistY                       0x0802f5ec   Section        0  gui_char.o(i.GUI_GetFontDistY)
    i.GUI_GetFontSizeY                       0x0802f608   Section        0  gui_getfontsizey.o(i.GUI_GetFontSizeY)
    i.GUI_GetOrg                             0x0802f61c   Section        0  gui_getorg.o(i.GUI_GetOrg)
    i.GUI_GetStringDistX                     0x0802f636   Section        0  gui_getstringdistx.o(i.GUI_GetStringDistX)
    i.GUI_GetYAdjust                         0x0802f64c   Section        0  gui_char.o(i.GUI_GetYAdjust)
    i.GUI_GetYSizeOfFont                     0x0802f688   Section        0  gui_getysizeoffont.o(i.GUI_GetYSizeOfFont)
    i.GUI_GetpfColor2IndexEx                 0x0802f694   Section        0  lcd_getex.o(i.GUI_GetpfColor2IndexEx)
    i.GUI_GetpfIndex2ColorEx                 0x0802f6a4   Section        0  lcd_getex.o(i.GUI_GetpfIndex2ColorEx)
    i.GUI_GotoXY                             0x0802f6b4   Section        0  gui_goto.o(i.GUI_GotoXY)
    i.GUI_Index2Color                        0x0802f6d6   Section        0  gui_index2color.o(i.GUI_Index2Color)
    i.GUI_Init                               0x0802f6f0   Section        0  gui_core.o(i.GUI_Init)
    i.GUI_Lock                               0x0802f75c   Section        0  gui_task.o(i.GUI_Lock)
    i.GUI_Long2Len                           0x0802f7e4   Section        0  gui_adddecshift.o(i.GUI_Long2Len)
    i.GUI_MEMDEV_Clear                       0x0802f810   Section        0  guidev_clear.o(i.GUI_MEMDEV_Clear)
    i.GUI_MEMDEV_CopyToLCD                   0x0802f854   Section        0  guidev.o(i.GUI_MEMDEV_CopyToLCD)
    i.GUI_MEMDEV_CopyToLCDAt                 0x0802f860   Section        0  guidev.o(i.GUI_MEMDEV_CopyToLCDAt)
    i.GUI_MEMDEV_CreateEx                    0x0802f908   Section        0  guidev.o(i.GUI_MEMDEV_CreateEx)
    i.GUI_MEMDEV_Delete                      0x0802f988   Section        0  guidev.o(i.GUI_MEMDEV_Delete)
    i.GUI_MEMDEV_Draw                        0x0802f9d0   Section        0  guidev_banding.o(i.GUI_MEMDEV_Draw)
    i.GUI_MEMDEV_GetBitsPerPixel             0x0802faf4   Section        0  guidev.o(i.GUI_MEMDEV_GetBitsPerPixel)
    i.GUI_MEMDEV_GetDataPtr                  0x0802fb26   Section        0  guidev_getdataptr.o(i.GUI_MEMDEV_GetDataPtr)
    i.GUI_MEMDEV_GetYSize                    0x0802fb48   Section        0  guidev_getysize.o(i.GUI_MEMDEV_GetYSize)
    i.GUI_MEMDEV_Paint1Static                0x0802fb7c   Section        0  guidev_staticdevices.o(i.GUI_MEMDEV_Paint1Static)
    i.GUI_MEMDEV_ReduceYSize                 0x0802fb90   Section        0  guidev_reduceysize.o(i.GUI_MEMDEV_ReduceYSize)
    i.GUI_MEMDEV_Select                      0x0802fbc8   Section        0  guidev.o(i.GUI_MEMDEV_Select)
    i.GUI_MEMDEV_SetOrg                      0x0802fc24   Section        0  guidev_setorg.o(i.GUI_MEMDEV_SetOrg)
    i.GUI_MEMDEV_Write                       0x0802fc88   Section        0  guidev_write.o(i.GUI_MEMDEV_Write)
    i.GUI_MEMDEV_WriteAt                     0x0802fc94   Section        0  guidev_write.o(i.GUI_MEMDEV_WriteAt)
    i.GUI_MEMDEV__CreateFixed                0x0802fcfc   Section        0  guidev.o(i.GUI_MEMDEV__CreateFixed)
    i.GUI_MEMDEV__WriteToActiveAlpha         0x0802fde8   Section        0  guidev_writetoactivealpha.o(i.GUI_MEMDEV__WriteToActiveAlpha)
    i.GUI_MEMDEV__WriteToActiveAt            0x0802ff00   Section        0  guidev.o(i.GUI_MEMDEV__WriteToActiveAt)
    i.GUI_MEMDEV__WriteToActiveOpaque        0x0802ff30   Section        0  guidev_writetoactiveopaque.o(i.GUI_MEMDEV__WriteToActiveOpaque)
    i.GUI_MergeRect                          0x0802ff6c   Section        0  gui_mergerect.o(i.GUI_MergeRect)
    i.GUI_MoveRect                           0x0802ffc4   Section        0  gui_moverect.o(i.GUI_MoveRect)
    i.GUI_RestoreContext                     0x0802ffe4   Section        0  gui_savecontext.o(i.GUI_RestoreContext)
    i.GUI_SetDefaultFont                     0x0802fff4   Section        0  gui_core.o(i.GUI_SetDefaultFont)
    .ARM.__AT_0x08030000                     0x08030000   Section        4  main.o(.ARM.__AT_0x08030000)
    i.GUI_ParaInit                           0x08030004   Section        0  gui_task.o(i.GUI_ParaInit)
    GUI_ParaInit                             0x08030005   Thumb Code   124  gui_task.o(i.GUI_ParaInit)
    i.GUI_PollKeyMsg                         0x08030094   Section        0  gui_onkey.o(i.GUI_PollKeyMsg)
    i.GUI_ReadRectEx                         0x080300c8   Section        0  lcd_readrect.o(i.GUI_ReadRectEx)
    i.GUI_RectsIntersect                     0x08030128   Section        0  gui_rectsintersect.o(i.GUI_RectsIntersect)
    i.GUI_SaveContext_W                      0x08030160   Section        0  gui_savecontext.o(i.GUI_SaveContext_W)
    i.GUI_SelectLCD                          0x08030170   Section        0  gui_selectlcd.o(i.GUI_SelectLCD)
    i.GUI_SelectLayer                        0x0803018c   Section        0  gui_selectlayer.o(i.GUI_SelectLayer)
    i.GUI_Send_Message                       0x080301bc   Section        0  gui_task_controller.o(i.GUI_Send_Message)
    GUI_Send_Message                         0x080301bd   Thumb Code  1878  gui_task_controller.o(i.GUI_Send_Message)
    i.GUI_SetBkColor                         0x0803094c   Section        0  gui_setcolor.o(i.GUI_SetBkColor)
    i.GUI_SetClipRect                        0x08030962   Section        0  gui_setcliprect.o(i.GUI_SetClipRect)
    i.GUI_SetColor                           0x0803097a   Section        0  gui_setcolor.o(i.GUI_SetColor)
    i.GUI_SetDrawMode                        0x08030990   Section        0  gui_setdrawmode.o(i.GUI_SetDrawMode)
    i.GUI_SetFont                            0x080309a8   Section        0  gui_setfont.o(i.GUI_SetFont)
    i.GUI_SetLineStyle                       0x080309c8   Section        0  gui_setlinestyle.o(i.GUI_SetLineStyle)
    i.GUI_SetOrg                             0x080309e4   Section        0  gui_setorg.o(i.GUI_SetOrg)
    i.GUI_SetPenSize                         0x08030a24   Section        0  gui_pen.o(i.GUI_SetPenSize)
    i.GUI_SetTextAlign                       0x08030a40   Section        0  gui_settextalign.o(i.GUI_SetTextAlign)
    i.GUI_SetTextMode                        0x08030a60   Section        0  gui_settextmode.o(i.GUI_SetTextMode)
    i.GUI_Show_Battery                       0x08030a80   Section        0  systembegin.o(i.GUI_Show_Battery)
    i.GUI_Show_PowerOnTestFlash              0x08030aa8   Section        0  systembegin.o(i.GUI_Show_PowerOnTestFlash)
    i.GUI_SignalEvent                        0x08030ad0   Section        0  gui_waitevent.o(i.GUI_SignalEvent)
    i.GUI_StoreKey                           0x08030ae0   Section        0  gui_onkey.o(i.GUI_StoreKey)
    i.GUI_SystemBegin                        0x08030af0   Section        0  gui_task.o(i.GUI_SystemBegin)
    GUI_SystemBegin                          0x08030af1   Thumb Code    60  gui_task.o(i.GUI_SystemBegin)
    i.GUI_TIMER_Delete                       0x08030b2c   Section        0  gui_timer.o(i.GUI_TIMER_Delete)
    i.GUI_TIMER_GetFlag                      0x08030b52   Section        0  gui_timer.o(i.GUI_TIMER_GetFlag)
    i.GUI_TIMER__GetFirstTimer               0x08030b84   Section        0  gui_timer.o(i.GUI_TIMER__GetFirstTimer)
    i.GUI_TIMER__GetNextTimerLin             0x08030bac   Section        0  gui_timer.o(i.GUI_TIMER__GetNextTimerLin)
    i.GUI_UC_ConvertUC2UTF8                  0x08030be2   Section        0  gui_uc_convertuc2utf8.o(i.GUI_UC_ConvertUC2UTF8)
    i.GUI_UC_EnableBIDI                      0x08030c18   Section        0  gui_uc_enablebidi.o(i.GUI_UC_EnableBIDI)
    i.GUI_UC_Encode                          0x08030d7c   Section        0  gui_uc.o(i.GUI_UC_Encode)
    i.GUI_UC_GetCharCode                     0x08030da0   Section        0  gui_uc.o(i.GUI_UC_GetCharCode)
    i.GUI_UC_GetCharSize                     0x08030dc0   Section        0  gui_uc.o(i.GUI_UC_GetCharSize)
    i.GUI_UC_SetEncodeUTF8                   0x08030de0   Section        0  gui_uc_encodeutf8.o(i.GUI_UC_SetEncodeUTF8)
    i.GUI_UC__GetCharCodeInc                 0x08030dfc   Section        0  gui_uc.o(i.GUI_UC__GetCharCodeInc)
    i.GUI_UC__NumBytes2NumChars              0x08030e28   Section        0  gui_uc.o(i.GUI_UC__NumBytes2NumChars)
    i.GUI_UC__NumChars2NumBytes              0x08030e54   Section        0  gui_uc.o(i.GUI_UC__NumChars2NumBytes)
    i.GUI_USAGE_AddRect                      0x08030e7c   Section        0  guidev_usage.o(i.GUI_USAGE_AddRect)
    i.GUI_USAGE_BM_AddHLine                  0x08030ea4   Section        0  guidev_usagebm.o(i.GUI_USAGE_BM_AddHLine)
    GUI_USAGE_BM_AddHLine                    0x08030ea5   Thumb Code   116  guidev_usagebm.o(i.GUI_USAGE_BM_AddHLine)
    i.GUI_USAGE_BM_AddPixel                  0x08030f18   Section        0  guidev_usagebm.o(i.GUI_USAGE_BM_AddPixel)
    GUI_USAGE_BM_AddPixel                    0x08030f19   Thumb Code    44  guidev_usagebm.o(i.GUI_USAGE_BM_AddPixel)
    i.GUI_USAGE_BM_Clear                     0x08030f44   Section        0  guidev_usagebm.o(i.GUI_USAGE_BM_Clear)
    GUI_USAGE_BM_Clear                       0x08030f45   Thumb Code    14  guidev_usagebm.o(i.GUI_USAGE_BM_Clear)
    i.GUI_USAGE_BM_Create                    0x08030f54   Section        0  guidev_usagebm.o(i.GUI_USAGE_BM_Create)
    i.GUI_USAGE_BM_GetNextDirty              0x08030fb0   Section        0  guidev_usagebm.o(i.GUI_USAGE_BM_GetNextDirty)
    GUI_USAGE_BM_GetNextDirty                0x08030fb1   Thumb Code   190  guidev_usagebm.o(i.GUI_USAGE_BM_GetNextDirty)
    i.GUI_USAGE_DecUseCnt                    0x0803106e   Section        0  guidev_usage.o(i.GUI_USAGE_DecUseCnt)
    i.GUI_Unlock                             0x0803109c   Section        0  gui_task.o(i.GUI_Unlock)
    i.GUI_Update                             0x080310b0   Section        0  gui_page_splicevideo.o(i.GUI_Update)
    i.GUI_WrapGetNumLines                    0x080310bc   Section        0  gui_dispstringinrectwrap.o(i.GUI_WrapGetNumLines)
    i.GUI_X_Config                           0x080310e8   Section        0  guiconf.o(i.GUI_X_Config)
    i.GUI_X_Delay                            0x08031138   Section        0  gui_x_ucosii.o(i.GUI_X_Delay)
    i.GUI_X_ExecIdle                         0x08031150   Section        0  gui_x_ucosii.o(i.GUI_X_ExecIdle)
    i.GUI_X_GetTaskId                        0x0803115c   Section        0  gui_x_ucosii.o(i.GUI_X_GetTaskId)
    i.GUI_X_Init                             0x0803116c   Section        0  gui_x_ucosii.o(i.GUI_X_Init)
    i.GUI_X_InitOS                           0x08031180   Section        0  gui_x_ucosii.o(i.GUI_X_InitOS)
    i.GUI_X_Lock                             0x080311a0   Section        0  gui_x_ucosii.o(i.GUI_X_Lock)
    i.GUI_X_Unlock                           0x080311b4   Section        0  gui_x_ucosii.o(i.GUI_X_Unlock)
    i.GUI__AllocAlphaBuffer                  0x080311c4   Section        0  gui__alpha.o(i.GUI__AllocAlphaBuffer)
    i.GUI__AlphaSuppressMixing               0x080311dc   Section        0  gui_setalpha.o(i.GUI__AlphaSuppressMixing)
    i.GUI__BIDI_GetCharDir                   0x08031200   Section        0  gui__bidi.o(i.GUI__BIDI_GetCharDir)
    i.GUI__BIDI_GetCharWrap                  0x0803126a   Section        0  gui__bidi.o(i.GUI__BIDI_GetCharWrap)
    i.GUI__BIDI_GetCursorCharacter           0x080312d8   Section        0  gui__bidi.o(i.GUI__BIDI_GetCursorCharacter)
    i.GUI__BIDI_GetCursorPosChar             0x08031304   Section        0  gui__bidi.o(i.GUI__BIDI_GetCursorPosChar)
    i.GUI__BIDI_GetCursorPosX                0x08031404   Section        0  gui__bidi.o(i.GUI__BIDI_GetCursorPosX)
    i.GUI__BIDI_GetLogChar                   0x080314f6   Section        0  gui__bidi.o(i.GUI__BIDI_GetLogChar)
    i.GUI__BIDI_GetWordWrap                  0x08031528   Section        0  gui__bidi.o(i.GUI__BIDI_GetWordWrap)
    i.GUI__BIDI_IsNSM                        0x080315da   Section        0  gui__bidi.o(i.GUI__BIDI_IsNSM)
    i.GUI__BIDI_Log2Vis                      0x080315ec   Section        0  gui__bidi.o(i.GUI__BIDI_Log2Vis)
    i.GUI__BIDI_Log2VisBuffered              0x08031668   Section        0  gui_uc_enablebidi.o(i.GUI__BIDI_Log2VisBuffered)
    i.GUI__CalcTextRect                      0x08031684   Section        0  gui__calctextrect.o(i.GUI__CalcTextRect)
    i.GUI__CompactPixelIndices               0x08031722   Section        0  gui__compactpixelindices.o(i.GUI__CompactPixelIndices)
    i.GUI__CompactPixelIndicesEx             0x0803184a   Section        0  gui__compactpixelindices.o(i.GUI__CompactPixelIndicesEx)
    i.GUI__Config                            0x080319c0   Section        0  gui_core.o(i.GUI__Config)
    i.GUI__DispLine                          0x080319f4   Section        0  gui_charline.o(i.GUI__DispLine)
    i.GUI__DispStringInRect                  0x08031aa4   Section        0  gui_dispstringinrect.o(i.GUI__DispStringInRect)
    i.GUI__DoAlphaBlending                   0x08031be8   Section        0  gui__alpha.o(i.GUI__DoAlphaBlending)
    i.GUI__ExpandPixelIndicesEx              0x08031da4   Section        0  gui__expandpixelindices.o(i.GUI__ExpandPixelIndicesEx)
    i.GUI__GetAlphaBuffer                    0x08031ee4   Section        0  gui__alpha.o(i.GUI__GetAlphaBuffer)
    i.GUI__GetFontSizeY                      0x08031f74   Section        0  gui__getfontsizey.o(i.GUI__GetFontSizeY)
    i.GUI__GetLineDistX                      0x08031f88   Section        0  gui_charline.o(i.GUI__GetLineDistX)
    i.GUI__GetLineNumChars                   0x08031fdc   Section        0  gui_charline.o(i.GUI__GetLineNumChars)
    i.GUI__GetNumChars                       0x08032014   Section        0  gui__getnumchars.o(i.GUI__GetNumChars)
    i.GUI__GetOrg                            0x08032030   Section        0  gui_getorg.o(i.GUI__GetOrg)
    i.GUI__GetOverlap                        0x0803204c   Section        0  gui_charline.o(i.GUI__GetOverlap)
    i.GUI__GetPresentationForm               0x08032064   Section        0  gui__arabic.o(i.GUI__GetPresentationForm)
    i.GUI__HandleEOLine                      0x0803213c   Section        0  gui__handleeoline.o(i.GUI__HandleEOLine)
    i.GUI__IntersectRect                     0x08032154   Section        0  gui__intersectrect.o(i.GUI__IntersectRect)
    i.GUI__IntersectRects                    0x0803218e   Section        0  gui__intersectrects.o(i.GUI__IntersectRects)
    i.GUI__IsArabicCharacter                 0x080321e0   Section        0  gui__arabic.o(i.GUI__IsArabicCharacter)
    i.GUI__ManageCache                       0x080321f0   Section        0  gui__managecache.o(i.GUI__ManageCache)
    i.GUI__ManageCacheEx                     0x08032200   Section        0  gui__managecache.o(i.GUI__ManageCacheEx)
    i.GUI__MixColors                         0x080322ac   Section        0  gui__alpha.o(i.GUI__MixColors)
    i.GUI__MixColorsBulk                     0x08032312   Section        0  gui__alpha.o(i.GUI__MixColorsBulk)
    i.GUI__ReduceRect                        0x08032360   Section        0  gui__reducerect.o(i.GUI__ReduceRect)
    i.GUI__RegisterExit                      0x0803237c   Section        0  gui_core.o(i.GUI__RegisterExit)
    i.GUI__SetText                           0x0803238c   Section        0  gui__settext.o(i.GUI__SetText)
    i.GUI__WrapGetNumBytesToNextLine         0x080323f8   Section        0  gui__wrap.o(i.GUI__WrapGetNumBytesToNextLine)
    i.GUI__WrapGetNumCharsDisp               0x0803240c   Section        0  gui__wrap.o(i.GUI__WrapGetNumCharsDisp)
    i.GUI__WrapGetNumCharsToNextLine         0x08032412   Section        0  gui__wrap.o(i.GUI__WrapGetNumCharsToNextLine)
    i.GUI__memset                            0x08032470   Section        0  gui__memset.o(i.GUI__memset)
    i.GUI__memset16                          0x080324bc   Section        0  gui__memset16.o(i.GUI__memset16)
    i.GUI__strcmp                            0x080324f8   Section        0  gui__strcmp.o(i.GUI__strcmp)
    i.GUI__strcmp_hp                         0x0803251c   Section        0  gui__strcmp.o(i.GUI__strcmp_hp)
    i.GUI__strlen                            0x0803253c   Section        0  gui__strlen.o(i.GUI__strlen)
    i.GetASCIICode                           0x08032550   Section        0  ssd1963.o(i.GetASCIICode)
    i.GetAligmentData                        0x08032570   Section        0  task_splice_communication.o(i.GetAligmentData)
    i.GetAlkSN                               0x08032598   Section        0  gui_page_helpinfo.o(i.GetAlkSN)
    i.GetBootData                            0x080325c0   Section        0  taskflash.o(i.GetBootData)
    GetBootData                              0x080325c1   Thumb Code   152  taskflash.o(i.GetBootData)
    i.GetBootInerData                        0x08032738   Section        0  taskflash.o(i.GetBootInerData)
    i.GetBothFiberCenterVerticalDis          0x080327f4   Section        0  nodeaimcommon.o(i.GetBothFiberCenterVerticalDis)
    i.GetBothFiberEndFaceHorizonDis          0x08032800   Section        0  nodeaimcommon.o(i.GetBothFiberEndFaceHorizonDis)
    i.GetBuffer                              0x0803280c   Section        0  memory.o(i.GetBuffer)
    i.GetChannelEcho                         0x0803298c   Section        0  debug.o(i.GetChannelEcho)
    i.GetChannelInitState                    0x080329ac   Section        0  initcontrol.o(i.GetChannelInitState)
    i.GetChannelOnOff                        0x080329d4   Section        0  debug.o(i.GetChannelOnOff)
    i.GetChannelVisible                      0x080329f4   Section        0  debug.o(i.GetChannelVisible)
    i.GetChar2                               0x08032a50   Section        0  usart2.o(i.GetChar2)
    i.GetChar3                               0x08032a88   Section        0  usart3.o(i.GetChar3)
    i.GetConfigLanguageCount                 0x08032acc   Section        0  gui_task_controller.o(i.GetConfigLanguageCount)
    i.GetControlCPUVersion                   0x08032ad8   Section        0  gui_page_helpinfo.o(i.GetControlCPUVersion)
    GetControlCPUVersion                     0x08032ad9   Thumb Code   102  gui_page_helpinfo.o(i.GetControlCPUVersion)
    i.GetCoreGray                            0x08032b64   Section        0  task_semi_autospliceaim.o(i.GetCoreGray)
    i.GetCurCamFiberEndFaceToCenterDis       0x08032ba8   Section        0  nodeaimcommon.o(i.GetCurCamFiberEndFaceToCenterDis)
    i.GetCurPageFirstItemIndex               0x08032bb4   Section        0  gui_menutree.o(i.GetCurPageFirstItemIndex)
    i.GetCurPageLastItemIndex                0x08032be0   Section        0  gui_menutree.o(i.GetCurPageLastItemIndex)
    i.GetCurrentCam                          0x08032c24   Section        0  nodeaimcommon.o(i.GetCurrentCam)
    i.GetCurrentCamFiberX                    0x08032c30   Section        0  nodeaimcommon.o(i.GetCurrentCamFiberX)
    i.GetCurrentCamMotorX                    0x08032c3c   Section        0  nodeaimcommon.o(i.GetCurrentCamMotorX)
    i.GetCurrentCamMotorY                    0x08032c48   Section        0  nodeaimcommon.o(i.GetCurrentCamMotorY)
    i.GetDCMIState                           0x08032c54   Section        0  ov7725.o(i.GetDCMIState)
    i.GetData_Ex                             0x08032c60   Section        0  nodeaimcommon.o(i.GetData_Ex)
    i.GetDischargeDayHint                    0x08032e04   Section        0  battery_task.o(i.GetDischargeDayHint)
    i.GetEndDev                              0x08032e84   Section        0  task_semi_autospliceaim.o(i.GetEndDev)
    i.GetExParmPath                          0x08032ec8   Section        0  taskflash.o(i.GetExParmPath)
    i.GetFiberAxisAngle                      0x08032f38   Section        0  node_judgeangle.o(i.GetFiberAxisAngle)
    i.GetFiberEndFaceMaxAngle                0x08032f64   Section        0  node_judgeangle.o(i.GetFiberEndFaceMaxAngle)
    i.GetFlag                                0x08032f8c   Section        0  nodeaimcommon.o(i.GetFlag)
    i.GetFlashId                             0x08032fb0   Section        0  diskio.o(i.GetFlashId)
    i.GetFlashState                          0x08032fbc   Section        0  taskflash.o(i.GetFlashState)
    i.GetImageCPUVersion                     0x08032fc8   Section        0  gui_page_helpinfo.o(i.GetImageCPUVersion)
    i.GetImageIndex                          0x080330c0   Section        0  gui_task_controller.o(i.GetImageIndex)
    i.GetJudgeAngleResult                    0x080330cc   Section        0  node_judgeangle.o(i.GetJudgeAngleResult)
    i.GetLedTestResult                       0x080330d8   Section        0  node_communication.o(i.GetLedTestResult)
    i.GetLeftFiberEndFaceAngle               0x080330ec   Section        0  node_judgeangle.o(i.GetLeftFiberEndFaceAngle)
    i.GetLeftFiberEndFaceToCenterDis         0x08033118   Section        0  nodeaimcommon.o(i.GetLeftFiberEndFaceToCenterDis)
    i.GetLeftLedPwm                          0x08033124   Section        0  node_communication.o(i.GetLeftLedPwm)
    i.GetLimitStatus                         0x08033130   Section        0  nodeaimcommon.o(i.GetLimitStatus)
    i.GetMachineType                         0x080331ac   Section        0  gui_page_helpinfo.o(i.GetMachineType)
    i.GetMotor0_Coefficient                  0x080331d0   Section        0  motor_lefty.o(i.GetMotor0_Coefficient)
    i.GetMotor0_LimitEnabled                 0x080331dc   Section        0  motor_lefty.o(i.GetMotor0_LimitEnabled)
    i.GetMotor0_LimitHis                     0x080331e8   Section        0  motor_lefty.o(i.GetMotor0_LimitHis)
    i.GetMotor0_Limited                      0x080331f4   Section        0  motor_lefty.o(i.GetMotor0_Limited)
    i.GetMotor0_MaxPosition                  0x08033238   Section        0  motor_lefty.o(i.GetMotor0_MaxPosition)
    i.GetMotor0_MinPosition                  0x08033244   Section        0  motor_lefty.o(i.GetMotor0_MinPosition)
    i.GetMotor0_ReturnDifference             0x08033250   Section        0  motor_lefty.o(i.GetMotor0_ReturnDifference)
    i.GetMotor1_Coefficient                  0x0803325c   Section        0  motor_righty.o(i.GetMotor1_Coefficient)
    i.GetMotor1_LimitEnabled                 0x08033268   Section        0  motor_righty.o(i.GetMotor1_LimitEnabled)
