:020000040802F0
:10000000689701208903020875C00308E1410308CD
:100010000DA40308453F020875F404080000000021
:100020000000000000000000000000003D46040841
:10003000A3860208000000001703020829D803085D
:10004000AD030208AD030208AD030208AD030208C8
:10005000AD0302087506040825BA020837BA02087B
:1000600049BA02085BBA0208AD030208AD030208F0
:10007000AD030208AD0302088D7F0208AD0302083C
:10008000AD030208AD030208AD030208AD03020888
:10009000AD030208AD030208AD030208AD03020878
:1000A000AD030208AD030208AD030208AD03020868
:1000B000AD030208AD030208AD030208AD03020858
:1000C000AD030208AD030208AD030208AD03020848
:1000D000AD030208AD03020861CA040851CC04084C
:1000E000AD030208AD030208AD0302088DB9040890
:1000F000DDB90408B5B90408AD030208AD03020870
:10010000AD0302084D3D04083DB90408AD030208E3
:10011000AD030208AD03020865B90408AD03020887
:10012000AD030208AD030208AD0302088F7F020889
:10013000AD030208AD030208AD030208AD030208D7
:10014000AD030208AD030208AD030208AD030208C7
:10015000AD030208AD030208AD030208AD030208B7
:10016000AD030208AD03020801E00308C1DF030884
:10017000AD03020841E003087D7D0208AD030208DB
:10018000AD030208AD03020800F002F800F078F8B1
:100190000AA090E8000C82448344AAF10107DA45E2
:1001A00001D100F06DF8AFF2090EBAE80F0013F0BC
:1001B000010F18BFFB1A43F00103184750700A00E3
:1001C00070700A0010F8013B0A4413F0030408BFE2
:1001D00010F8014B1D1108BF10F8015B641E05D01B
:1001E00010F8016B641E01F8016BF9D1002D15D0D8
:1001F00010F8014B03F00C030C2BA1EB04040ABF15
:1002000010F8013BA4EB8314A4EB032405F10103D4
:1002100014F8016B5B1E01F8016BF9D5914238BFF0
:1002200010F8013BD1D3704700230024002500269D
:10023000103A28BF78C1FBD8520728BF30C148BF49
:100240000B60704766293FF02883642900F0AE8177
:10025000782900F0E781732900F047870020704774
:100260001FB53FF010FB00F0E2FA00F097FF04002A
:10027000002000213EF018FDE0601FBD10B510BD4C
:1002800001F08CF81146FFF7EBFF3CF023FB01F087
:10029000AAF803B4FFF7F2FF03BC38F0A9FA000094
:1002A0000B49D1F800C04A685CF8043B1068184458
:1002B00042F8040B8C4528BFA1F1DC0C8A4228BF10
:1002C000A1F1DC02C1F800C04A6020F00040704794
:1002D000FC6C0120EFF3108072B6704780F3108839
:1002E000704721484FF0FF010170002080F309881A
:1002F0001E48012101701E484FF08051016062B616
:10030000FEE71B484FF080510160704718484FF0DE
:1003100080510160704772B6EFF3098050B1F1EE81
:10032000101A403880EC108B203880E8F00F11490B
:100330000968086000B5104880475DF804EB0F4875
:100340000F490A7802700B480E490A68026010686B
:1003500090E8F00F203090EC108B403080F309884B
:100360004EF0040E62B6704722ED00E09066002069
:1003700004ED00E09866002099D603088766002007
:1003800088660020A06600200C48016841F47001D6
:1003900001600B4880470B480047FEE7FEE7FEE799
:1003A000FEE7FEE7FEE7FEE7FEE7FEE7FEE700000A
:1003B00005480649064A074B7047000088ED00E0F3
:1003C00079A6040889010208686D01206897012058
:1003D000688201206882012053EA020C00F06980E3
:1003E0002DE9F04B4FF00006002B1FBFB3FA83F549
:1003F00003FA05F424FA05F65E4012BF1643B2FA7A
:1004000082F502FA05F4C5F120051EBF22FA05FCAB
:1004100044EA0C04203556EA044C4FEA144418BF51
:10042000641C4FF000084FF00009904271EB030C80
:1004300039D3002919BFB1FA81F701FA07F6B0FAEA
:1004400080F700FA07F6C7F120071EBF20FA07FC65
:1004500046EA0C062037B6FBF4FCA7EB0507103F75
:1004600007F01F0BCBF120060CFA0BFB2CFA06F65B
:1004700044BFB3460026202FA4BF5E464FF0000BBA
:100480005BEA060C08BF4FF0010B19EB0B09ABFB45
:10049000027C48EB0608C01B06FB02CC0BFB03CC1E
:1004A00071EB0C01C1E70B46024641464846BDE8E8
:1004B000F08B13B54FF000004FF00001AFF3008058
:1004C000BDE81C40704700000FB4044910B503AAF2
:1004D000029800F00FFE10BC5DF814FB6866002067
:1004E0000FB41CB5084B06AA7B44694600900598DA
:1004F00000F0D1FD04460020694600F0DFFD2046F3
:100500001CBC5DF814FB0000D10B000070B5044664
:1005100085690068C10601D5302600E02026C007A5
:1005200007D070BDD4E9012130469047206A401CB5
:1005300020626D1EF6D570BD70B5044685690078E1
:10054000C00707D170BDD4E9012120209047206A5F
:10055000401C20626D1EF6D570BD70B50C46054678
:10056000012A05D02878800600D5EA69002302E038
:10057000012305E05B1C934202D2E05C0028F9D124
:10058000A869E618C01AA861286A18442862284693
:10059000FFF7BCFF04E0D5E9012114F8010B9047F7
:1005A000B442F8D32846FFF7C7FF70BD2DE9F041EC
:1005B0000646002410687529314616A510D0AFF301
:1005C0000080002802DA404213A507E031688A075C
:1005D00001D512A502E0490704D511A5012401E0C7
:1005E000AFF3008000210A2206F1240709E0B0FBE6
:1005F000F2FCB0FBF2F302FB1C00303078541846DA
:10060000491C0028F3D123462A463046BDE8F04174
:1006100000F0D3BA000000002D0000002B00000005
:100620002000000070B504460D4621461068AFF367
:1006300000802188090502D50F4A7A4402E00E4A5B
:100640007A440E32002104F1240305E000F00F0685
:100650000009965D5E54491C0028F7D120780023DC
:10066000000704D5702D02D009B1022311322046B3
:10067000BDE8704000F0A1BABA9F08002DE9F05F14
:10068000894604464FF0000ADFF874B1FB44C0F815
:1006900020A02046E1688847002874D0252806D08D
:1006A000D4E901219047206A401C2062F1E700262E
:1006B0005F462046E16888472028054607DB312D44
:1006C00005D2781910F8200C08B10643F1E7B007FD
:1006D00001D526F00406C4F81CA00027C4F818A011
:1006E0002A2D09D0284637F088FE38B304EB870856
:1006F000303DC8F8185019E059F8041B204604EBA7
:1007000087029161E1688847012F054618D1E069A9
:10071000002820DA26F020061DE0D8F8180000EBAB
:10072000800005EB40003038C8F818002046E1682A
:100730008847054637F061FE0028EED1012F0AD028
:100740002E2D08D12046E16888477F1C0546022FE0
:1007500046F02006C4DBA069002803DA404246F0D8
:100760000106A061F00701D026F010066C2D0BD019
:10077000682D09D04C2D39D06A2D35D0742D35D047
:100780007A2D33D016E038E0E1682F4620468847BE
:10079000B842054609D16C2F26D04FF48060E1683D
:1007A000064320468847054604E06C2F1AD04FF4D4
:1007B000807006430DB3A5F14100192802D82035F9
:1007C00046F400664A462946204626604E46FFF714
:1007D00039FD80B101280BD0F61D26F0070000F18D
:1007E000080956E74020E4E78020D8E70020D6E754
:1007F00006F104094DE7284652E7206ABDE8F09F5C
:10080000909F08000B4910B5A1F17C020A4CC2E987
:100810003712372106E000EB104342F82130074B36
:1008200000FB03400B1EA1F10101F4DC10BD01200F
:10083000E8E700009C6C0120E119D666CD0D0100AF
:1008400040EA010310B59B070FD1042A0DD310C84D
:1008500008C9121F9C42F8D020BA19BA884201D99F
:10086000012010BD4FF0FF3010BD1AB1D30703D0E7
:10087000521C07E0002010BD10F8013B11F8014B9D
:100880001B1B07D110F8013B11F8014B1B1B01D1B9
:10089000921EF1D1184610BD40EA0103024630B560
:1008A0009B0710D14FF0013400E008C208C91D1B9E
:1008B0009D4315EAC41FF8D013F0FF0102F8011B95
:1008C0000DD01B0AF8E711F8013B002B02F8013BA1
:1008D00005D011F8013B002B02F8013BF3D130BDEC
:1008E00010B5431C02E010F8011B71B18107FAD169
:1008F0004FF0013202C88C1A8C4314EAC211F9D0AD
:10090000C01A0A0603D0C01E10BDC01A10BD0A04CA
:1009100001D0801E10BD0902FCD0401E10BD032A6C
:1009200040F2308010F0030C00F0158011F8013B0C
:10093000BCF1020F624498BF11F801CB00F8013BF3
:1009400038BF11F8013BA2F1040298BF00F801CBB7
:1009500038BF00F8013B11F0030300F06780083A4C
:10096000C0F0088051F8043B083A51F804CBA0E8E5
:100970000810F5E7121D5CBF51F8043B40F8043B3A
:10098000AFF30080D20724BF11F8013B11F801CB6F
:1009900048BF11F8012B24BF00F8013B00F801CB40
:1009A00048BF00F8012B7047431A28BF9A427FF6D0
:1009B000B6AF032A1044114440F2268010F0030F12
:1009C0001EBF11F8013D521E00F8013D10F0030F4B
:1009D0007FF4F6AF11F0030300F0B183083AC0F0E2
:1009E0000B8051F8043D083A51F804CD40F8043D1D
:1009F00040F804CDFFF7F3BF121D5CBF51F8043D72
:100A000040F8043DAFF30080D20724BF11F8013D48
:100A100011F801CD48BF11F8012C24BF00F8013DA9
:100A200000F801CD48BF00F8012C704710B5203AFE
:100A3000C0F00B80B1E81850203AA0E81850B1E897
:100A40001850A0E81850BFF4F5AF5FEA027C24BF4D
:100A5000B1E81850A0E8185044BF18C918C0BDE844
:100A600010405FEA827C24BF51F8043B40F8043B0D
:100A700008BF7047D20728BF31F8023B48BF11F8C2
:100A8000012B28BF20F8023B48BF00F8012B70471C
:100A900002F0FF0343EA032242EA024200F002B8F6
:100AA0004FF000020429C0F0128010F0030C00F097
:100AB0001B80CCF1040CBCF1020F18BF00F8012B15
:100AC000A8BF20F8022BA1EB0C0100F00DB85FEAE3
:100AD000C17C24BF00F8012B00F8012B48BF00F8AF
:100AE000012B70474FF0000200B51346944696461E
:100AF000203922BFA0E80C50A0E80C50B1F1200131
:100B0000BFF4F7AF090728BFA0E80C5048BF0CC0DE
:100B10005DF804EB890028BF40F8042B08BF70473C
:100B200048BF20F8022B11F0804F18BF00F8012BAE
:100B3000704700004FF0013C50F8042B51F8043B83
:100B40009A4221D1A2EB0C03934313EACC1317D1A1
:100B500050F8042B51F8043B9A4215D1A2EB0C0338
:100B6000934313EACC130BD150F8042B51F8043BF8
:100B70009A4209D1A2EB0C03934313EACC13DBD0C6
:100B80004FF00000704700BFD01A01BAB1FA81F1EE
:100B900001F0180122FA01F0CB40C1F12001DBB2D3
:100BA000C0B2C01A2CFA01F3D11A914311EAC31151
:100BB000E6D170477047704770472DE9F0470D4602
:100BC00099469246044600F124080168880604D537
:100BD000E06921F01001216000E00120A84201DD60
:100BE000471B00E00027A1697A1902EB0900081AE7
:100BF000A0612078C00602D42046FFF787FC0026BB
:100C000008E0D4E901211AF806009047206A401C48
:100C1000761C20624E45F4DB2078C0060AD52046BB
:100C2000FFF774FC06E0D4E9012130209047206AE8
:100C3000401C2062381EA7F10107F4DC07E0D4E96C
:100C4000012118F805009047206A401C2062281EE8
:100C5000A5F10105F3DC2046FFF76EFC20780006C5
:100C600002D50220BDE8F0870120FBE770472DE99F
:100C7000FF4F0C461E464FF0FF378BB0D2E9000104
:100C8000DDF860800A908A46C1F30A5505B93D46F1
:100C9000002108464FF00000BAF1000F00F44000B8
:100CA00005DA00EB80004FF4400101EA50004FEA02
:100CB0009059B9F1010F00DDB9460A9850EA4A008F
:100CC0000ED044F61050A5F2FF3545432F14B8F16D
:100CD000000F1ED07542291E1EDDC9F100021CE066
:100CE000B8F1010F4FF0000001D0302103E0F243D2
:100CF00005E02154401CB042FBDB304600220021BD
:100D000021540B99C1F80880C1E900200FB0BDE85B
:100D1000F08FBD1B6D1CDEE74A4600DA694206A86B
:100D200000F0C6FA06AB93E8070003AB83E80700C0
:100D300050460A9900F060FB8DE80700A0F50050CE
:100D40001F3800900398002D0ADD42F21F014A4629
:100D50000844002303A90390684600F0C9FD09E098
:100D6000A0F500504A461F38002303A903906846A7
:100D700000F0D3FD8DE807000004000C03D04FF015
:100D8000FF30410800E01046B8F1000F03D0002208
:100D9000009215461EE0751E05D400F003FA3032AD
:100DA00062556D1EF9D5B3460122084302D00022D8
:100DB0007F1C04E02078302801D100227F1E002A09
:100DC000099784D01DE0112D07DA00F0EBF93032DD
:100DD00062556D1C50EA0102F5D1084302D000981B
:100DE000C8B10EE00021681E05E0235C625C63541C
:100DF0002254401E491C8142F7DBAB46A81B401E13
:100E00000990002004F80B000B98099AC0F808809C
:100E1000C0E9002B7AE711264FF0000857E72DE9CB
:100E2000F04F88460446D21D22F0070191B0D1E967
:100E30000001CDE90A0136F01FFA02460B98C00FF7
:100E400001D02D2007E02068810701D52B2002E08A
:100E5000202101EAC000032A099001D0072A05DBFE
:100E600003464146204600F0E3F90BE12078800676
:100E700001D5E06900E00620B8F1650F814606D093
:100E8000B8F1660F18D0B8F1670F70D131E00020CB
:100E9000B9F1110F009001DB112301E009F1010309
:100EA0000AAA01A90CA8FFF7E2FEDDE90C700026F2
:100EB00009F10105834647E001204B4600904FF0C1
:100EC00000470AAA01A90CA8FFF7D1FEDDE90DB081
:100ED0000C995D46002610B909F101000D18B9EB17
:100EE000050003D4C0F1FF3609F10105A5EB0900A7
:100EF0002BE0B9F1010F01DA4FF001090020B9F13F
:100F0000110F0090484601DD112300E003460AAAB4
:100F100001A90CA8FFF7ABFEDDE90C704D460026D9
:100F20008346207800070AD4AB4500DA5D4601A865
:100F3000012D04DD411911F8011C302907D04F455E
:100F400002DA17F1040F04DA012082460FE06D1E69
:100F5000EEE7002F02DCED1B3E4403E0781CA842C4
:100F600000DD7D1CB81B00F1010A4FF0004720781E
:100F7000000703D4AA4501DB4FF0FF3A0021B7F187
:100F8000004F0DF143088DF8431024D002202B238D
:100F9000002F01DA7F422D230A21021EA0F1010059
:100FA00000DC5FB197FBF1FC97FBF1F201FB1C7CCD
:100FB00017460CF1300C08F801CDEEE7A8F101005E
:100FC00003702188090501D5452100E06521A0F1C4
:100FD000010800F8011C09980FA9A1EB0807FF1DE3
:100FE00000B10120411901EBEA70A1693844081AE7
:100FF000401EA0612078C00602D42046FFF786FA82
:10100000099828B1D4E901219047206A401C206248
:101010002078C00622D52046FFF778FA1EE0002E81
:1010200004DBB34502DD01A8805D00E03020D4E997
:1010300001219047206A401C2062761CAAF1010021
:101040005FEA000A0AD100F0A9F8C0680168405CB4
:10105000D4E901219047206A401C2062281EA5F196
:101060000105DCDC07E0D4E9012118F8010B904709
:10107000206A401C2062381EA7F10107F3DC2046DD
:10108000FFF75AFA032011B041E6000001694A1C3B
:1010900002610878704700B58FB0CDE901310021B9
:1010A000059105497944CDE9031011466846FFF7DB
:1010B000E5FA0FB000BD0000E5FFFFFF0A6802F887
:1010C000010B0A60704710B5436913B1AFF300809C
:1010D00001E0FFF742FA012010BD127800F124016F
:1010E0000A7000224A700122EDE711684FF0FF32CA
:1010F000E9E70000074B70B50D467B44FFF7CBFFD7
:101100000446284600F046F910B14FF0FF3070BD9C
:10111000204670BDB9AE0300431A28BF9A427FF63D
:1011200085AC104410F0030F11441EBF11F8013DAF
:10113000521E00F8013D10F0030F7FF4F6AF103A95
:10114000C0F00A8010B531E91850103A20E9185063
:10115000BFF4F9AFBDE81040530724BF31E90810D0
:1011600020E9081044BF51F8043D40F8043D12F056
:10117000030F08BF7047D20728BF31F8023D48BFB0
:1011800011F8012C28BF20F8023D48BF00F8012CBF
:101190007047000000487047046D01200048704708
:1011A000246D012030B5B0F10A024FEA900E71F1C2
:1011B00000034EEA817EB0EB0E0061EB91014FEA35
:1011C000101E4EEA017E10EB0E0041EB11114FEAAA
:1011D000102E4EEA016E10EB0E0041EB11214FEA8A
:1011E000104E4EEA014E10EB0E0041EB114140183B
:1011F00041F100014FEAD00040EA41704FEAD101CD
:1012000010EB80054FEA810444EA907444EB01043A
:101210006D1944EB0404521BA3414FF0000348BF77
:101220000A3200D530BD401C41F1000130BD000044
:101230002DE9F0411F46044603260168072A01F400
:10124000006004DB08B116A505E016A503E008B1AF
:1012500015A500E015A521F010002060A069C01EB2
:10126000A0610FB1401EA0612046FFF74FF94FB1BA
:10127000D4E9012138469047206A401C2062C01CF6
:10128000206206E0206AFAE7D4E9012115F8010B93
:101290009047761EF8D22046FFF74EF9BDE8F08160
:1012A0004E414E006E616E00494E4600696E66000A
:1012B0002DE9F047814616468AB0354878440DC876
:1012C0008DE80D0032487844801C03AC0DC884E8DA
:1012D0000D0041F69B300844372190FBF1F290FB62
:1012E000F1F5A5F1800501FB12041B3C02D5644217
:1012F000012000E00020DFF898A080460027FA4493
:10130000AAF1BE0A0EE0E0070AD03246684607EBB3
:10131000470101230AEB810100F0FFFA8DE8070085
:1013200064107F1C002CEED1194F7F44AE3F19E0B2
:10133000E80715D007EB04100DF1180A90E80E002D
:101340008AE80E00C068F04201D198190890324630
:10135000012306A903A800F0E0FA03AB83E8070025
:101360006D10641C002DE3D14FF001033246694635
:10137000B8F1000F03A802D000F0BAFA01E000F0C3
:10138000CCFAC9E90001C9F808200AB0BDE8F08725
:10139000F0930800007B00F0800070477546FFF76F
:1013A000F9FEAE4605006946534620F00700854623
:1013B00018B020B5FEF7FCFFBDE820404FF0000656
:1013C0004FF000074FF000084FF0000B21F007012D
:1013D000AC46ACE8C009ACE8C009ACE8C009ACE870
:1013E000C0098D46704710B50446AFF30080204613
:1013F000BDE81040FEF74DBF5FEA400C08BF91F01A
:10140000000F4FEA8C234FEAC12243EA51514FEAC1
:101410001C5018BF00F5F0404FEA300018BF41F0F3
:1014200000415FEA6C5C00F02980BCF1FF3F08BF1F
:1014300040F080407047130C06BF12044FF0100CB0
:101440004FF0000C130E04BF12020CF1080C130F26
:1014500004BF12010CF1040C930F04BF92000CF1B5
:10146000020CD30F04BF52000CF1010C11464FF0D7
:101470000002A0F11F00A0EB0C00704711F0004F1C
:1014800008BF704731F000413FF4D5AF0B0C06BFE9
:1014900009044FF0100C4FF0000C0B0E04BF0902B2
:1014A0000CF1080C0B0F04BF09010CF1040C8B0F9D
:1014B00004BF89000CF1020CCB0F04BF49000CF1F2
:1014C000010CCCF12003A0EB0C0022FA03F302FA8A
:1014D0000CF241EA030100F10100704720F07F4C5B
:1014E00080EA030023F07F47ACEB070303F57C534E
:1014F00000F0004003F1FF032DE980494FEA154B4E
:1015000009B44FEA144325EA0B4E24EA03480FF2CC
:10151000042606EB132749083E785FEA320203FBF4
:101520000667C7F5000707FB06F64FEA54374FEA90
:10153000D64606F1020607FB066CCCF1005C4FEACA
:101540001C472CEA074C07FB06F40CFB06F504EBE2
:1015500015464FEA961634BF00204FF000404FEA80
:10156000D13706FB07FC4FEA1C4C0CFB0BF7D21BD8
:1015700003FB0CF761EB07010CFB0EF7B0EB074028
:1015800072EB17420CFB08F734BFA2EB0742B2EB39
:10159000074261EB17414FEA0C444FEA910706FB03
:1015A00007FC4FEA1C4C0CFB0BF7B0EBC74072EB8F
:1015B000573203FB0CF734BFA2EBC742B2EBC74272
:1015C00061EB57310CFB0EF7B0EBC70072EB5772B3
:1015D0000CFB08F734BFA2EBC702B2EBC70261EB0A
:1015E0005771039F4FEA816141EA921104EBCC04E9
:1015F0004FEAD1374FEA826206FB07FC42EA9012BB
:101600004FEA80604FEA1C4C0CFB0BF7D21B03FB2C
:101610000CF761EB07010CFB0EF7B0EB074072EB28
:1016200017420CFB08F734BFA2EB0742B2EB0742AC
:1016300061EB17414FEA8C554FEA910704EB9C246C
:1016400006FB07FC4FEA1C4C0CFB0BF7B0EBC7404A
:1016500072EB573203FB0CF734BFA2EBC742B2EB7D
:10166000C74261EB57310CFB0EF7B0EBC70072EBD2
:1016700057720CFB08F734BFA2EBC702B2EBC702EC
:1016800061EB577115EB4C254FEA816141EA9211EC
:101690004FEA82624FEAD13742EA901206FB07FC1A
:1016A00044F100044FEA80604FEA1C4C0CFB0BF73E
:1016B000D21B03FB0CF761EB07010CFB0EF7B0EB41
:1016C000074072EB17420CFB08F734BFA2EB07424E
:1016D000B2EB074261EB174115EB1C154FEA813164
:1016E00041EA92414FEA823242EA90424FEA803028
:1016F0004FEA0C7644F1000448EA03434EEA0B48F3
:101700004FF0000EB2EB080C71EB030724BF6246EA
:1017100039464EEB0E0E4FF0000B00185241494176
:101720004BEB0B0BB2EB080C71EB03077BF1000BDF
:1017300024BF624639464EEB0E0E4FF0000B0018E8
:10174000524149414BEB0B0BB2EB080C71EB030719
:101750007BF1000B24BF624639464EEB0E0E51EA78
:10176000020718BF46F0010616EB0E7655F100028F
:1017700054F1000103D5BDE88901BDE80088BDE84A
:101780008901BDE80048B619524141EB0101A3F1BE
:101790000103704780807F7E7D7C7B7A79787776C5
:1017A00076757473727171706F6E6E6D6C6C6B6A3E
:1017B0006A696868676666656464636362616160DC
:1017C000605F5F5E5E5D5D5C5C5B5B5A5A59595859
:1017D00058575756565555555454535352525251C3
:1017E000515050504F4F4F4E4E4D4D4D4C4C4C4B19
:1017F0004B4B4A4A4A494949484848474747474660
:10180000464645454544444444434343434242429B
:1018100042414141002B9C4630D477002BD01CB56F
:101820004FEA370703B44FF010004FF01001BAF140
:10183000000F06D0BCF1000FDCBF40F0080040F004
:1018400008014FF000000FBCBDE810400BF1010B88
:10185000BBF1010F08BF5FEA170722BF12F10102B7
:1018600011F101014FF0004143F1000300F000408D
:1018700043EA00007047F9D35708D0E746EA064626
:1018800013F1400F4FEA16461FDD13F1200FDFBFA3
:1018900016430A46002120335B42BED0C3F1200725
:1018A00046EA064602FA07F74FEA164646EA0706F0
:1018B000C3F1200722FA03F201FA07F721FA03F134
:1018C0004FF0000342EA0702A7E746EA020646EAAB
:1018D00006464FEA164646EA0106BCBF46EA0646F9
:1018E000360C4FF000034FF000024FF0000194E778
:1018F0002DE9804C9A46934670B491E8380007C8A9
:1019000031EA400C48BF34EA430C03D5FFF7E6FD4B
:10191000FFF780FFF0BCBDE8008C2DE9804C9A46B3
:10192000934670B491E8380007C810F0804F08BFA4
:1019300013F0804F03D100F005F8FFF76BFFF0BC08
:10194000BDE8008C20F07F4780EA030023F07F4C45
:1019500007EB0C03A3F57C5300F00040A3F1FE035A
:1019600092F0000F00F0B38095F0000F00F0778048
:101970002DE901494FEA11404FEA144621EA004897
:1019800000FB06FC24EA064708FB06F607FB08F8FE
:1019900000FB07F718EB06484CEB164C4FEA124BCE
:1019A00018EB07484FEA15464CEB174022EA0B4E5E
:1019B0000BFB06FC25EA06470EFB06F607FB0EFEB0
:1019C0000BFB07F71EEB064E4CEB164C4FF00006D8
:1019D0001EEB074E4CEB174B18EB0B0840F10000C9
:1019E00018EB0E0B58EB000840F100008F1A4FF077
:1019F00000013CBFC943661B14BFB5EB040C0021BA
:101A00003CBFC943F61B4FEA17444EEA8E0E27EA45
:101A100004454FEA1C4704FB07622CEA074C05FB10
:101A200007F70CFB05F604FB0CFC16EB074642EB34
:101A3000174216EB0C4642EB1C421BEB060658EB1A
:101A40000202414146EA9E0601D5BDE80189B61968
:101A5000524141EB0101A3F10103BDE801894FEAC5
:101A600014454FEA114724EA054621EA074C05FBD5
:101A700007F406FB07F70CFB06F105FB0CFC11EB6A
:101A8000074144EB17444FEA124711EB0C4144EB7A
:101A90001C4422EA074C05FB07F206FB07F70CFB88
:101AA00006F605FB0CFC16EB074642EB174216EB5D
:101AB0000C4642EB1C456A1854F1000148BF7047C0
:101AC000B619524141EB0101A3F10103704795F0B2
:101AD000000F37D04FEA11424FEA144721EA02467D
:101AE00024EA074C02FB07F106FB07F70CFB06F4A0
:101AF00002FB0CFC14EB074441EB17414FEA15477E
:101B000014EB0C4441EB1C4125EA074C02FB07F5A2
:101B100006FB07F70CFB06F602FB0CFC16EB074670
:101B200045EB174516EB0C4645EB1C42121951F1DB
:101B3000000148BF7047B619524141EB0101A3F1C2
:101B4000010370474FEA14454FEA114724EA05465E
:101B500021EA074C05FB07F106FB07F70CFB06F231
:101B60004FF0000605FB0CFC12EB074241EB17415E
:101B700012EB0C4251EB1C4148BF7047921841EBED
:101B80000101A3F101037047CA430260704721B10C
:101B9000826842F00102826003E0826822F0010262
:101BA000826070470021084A1168084A1140D0E954
:101BB00000231A4383681A43C3681A431143044A33
:101BC000C2F804137047000004230140E030FCFF1A
:101BD000002001400146C86C80B2704702460020D8
:101BE00013680B400BB1012000E00020704700009B
:101BF00030B50246002000235068104C20400D797B
:101C00000C6844EA05242043506090680C4C204046
:101C1000D1E903542C438D682C434D7944EA4504A3
:101C200020439060D06A20F470000C7D641EE4B202
:101C3000234340EA0350D06230BD0000FFFEFFFCAA
:101C4000FDF7FFC0F0B504460D4600200021092D28
:101C500011DDE068A5F10A0606EB4607072606FA3D
:101C600007F18843A5F10A0606EB460603FA06F1DA
:101C70000843E0600CE0206905EB4507072606FAFB
:101C800007F1884305EB450603FA06F10843206196
:101C9000072A0FDA606B561E06EB86071F2606FA28
:101CA00007F18843561E06EB860605FA06F108433F
:101CB000606322E00D2A0FDA206BD61F06EB860741
:101CC0001F2606FA07F18843D61F06EB860605FA9B
:101CD00006F10843206310E0E06AA2F10D0606EB6E
:101CE00086071F2606FA07F18843A2F10D0606EBC8
:101CF000860605FA06F10843E062F0BD816841F00E
:101D00008041816070470000FEB50024002542F24A
:101D1000107618E001E0701E86B202210D48FFF730
:101D20005DFF08B9002EF6DC02210A48FFF72CFF00
:101D30000848FFF74FFF2DF814003DF81400284421
:101D400085B2601CC4B2062CE4DB062095FBF0F0E3
:101D500080B2FEBD00200140F8B504460E4636A014
:101D6000006800902078032861D1062011F0D0FF90
:101D7000012803D102208DF800000BE0052011F0AE
:101D8000C7FF012803D102208DF8000002E00120E6
:101D90008DF8000012F0FAF870B112F0F7F802288E
:101DA00002D100208DF8010012F0F0F801282ED1A8
:101DB00007208DF801002AE011F0A4FF0A2821D2A3
:101DC000DFE800F005090D201115191A1B1C002071
:101DD0008DF801001AE005208DF8010016E00620BC
:101DE0008DF8010012E004208DF801000EE00220C1
:101DF0008DF801000AE000BF00BF00BF01208DF890
:101E0000010003E000208DF8010000BF00BF11F0C9
:101E100079FF05469DF801209DF800102B4607A08C
:101E2000FEF752FB6946022023F024FA01E000206D
:101E3000F8BD00BFFCE7000001000000416E7377B1
:101E40006572207374617465206973205B25642C4E
:101E500025642C25645D0D0A0000000010B50246C3
:101E60000B461179D07840EA0121907840EA0121AF
:101E7000507840EA012100EE101AF8EE400A9FED7A
:101E8000221A80EE810A10EE100A204C2060117A8E
:101E9000D07940EA0121907940EA0121507940EA65
:101EA000012100EE101AB8EE400A10EE100A606030
:101EB000117BD07A40EA0121907A40EA0121507AE0
:101EC00040EA012100EE101AF8EE400A9FED0E1ACA
:101ED00080EE810A10EE100AA060117CD07B40EAEF
:101EE0000121907B40EA0121507B40EA012100EE74
:101EF000101AF8EE400A9FED041A80EE810A10EEE7
:101F0000100AE060012010BD0000C842B433012077
:101F100010B502460B46002100200DE0545C302C29
:101F200008DB545C392C05DC00EB80046000545C59
:101F3000303C20444C1CE1B29942EFDB10BD000064
:101F400030B501460022002308895D4C2081C888F5
:101F5000E08020460C6804604C6844600C89048171
:101F60004878012802D002287DD100E000BF88789F
:101F7000012806D0022805D0042804D0082873D1EF
:101F800002E000BF00BF00BF8878012801D1002314
:101F90000DE08878022801D1012308E08878042820
:101FA00001D1022303E08878082800D10323002010
:101FB000444C2060444C2060002222E04878401EBF
:101FC00000EB8000414C04EB001000EB021000EB32
:101FD000830040883B4C246820443A4C2060487879
:101FE000401E00EB8000394C04EB001000EB0210A7
:101FF00030F82300344C24682044334C2060501CBB
:10200000C2B2042ADADB04221AE04878401E00EB50
:1020100080002E4C04EB001000EB021000EB830458
:102020004878401E00EB8000284D05EB0015501E3F
:1020300005EB001000EB830000682060501EC2B268
:10204000002AE2DC1E4804894878401E00EB80002C
:102050001E4D05EB001000EB830044801848C48837
:102060004878401E01E018E014E000EB800005EB2A
:10207000001020F8234012480089124C24682044A4
:10208000104C20600E48C0880F4C246820440E4C31
:10209000206000BF00BF00BF00BF00BF00BF0948F5
:1020A00000680524B0FBF4F0054C20810648006868
:1020B0000524B0FBF4F0024CE080204630BD000067
:1020C000F0140120300700203407002050140120B4
:1020D00010B58AB0002401225AA101A839F04EF9A6
:1020E00004463CB9049828B95BA0FEF7EDF901203D
:1020F00012F0C8FC01A838F04DFC01225FA101A834
:1021000039F03CF904463CB9049828B961A0FEF7BF
:10211000DBF9012012F0B6FC01A838F03BFC0122EB
:1021200065A101A839F02AF904463CB9049828B9F8
:1021300066A0FEF7C9F9022012F0A4FC01A838F04D
:1021400029FC012269A101A839F018F904463CB91B
:10215000049828B96AA0FEF7B7F9022012F092FCA1
:1021600001A838F017FC01226EA101A839F006F988
:1021700004463CB9049828B96EA0FEF7A5F91020D2
:1021800012F080FC01A838F005FC012271A101A821
:1021900039F0F4F804463CB9049828B972A0FEF767
:1021A00093F9102012F06EFC01A838F0F3FB012225
:1021B00075A101A839F0E2F804463CB9049828B9A1
:1021C00076A0FEF781F9042012F05CFC01A838F03B
:1021D000E1FB012279A101A839F0D0F804463CB90D
:1021E000049828B97AA0FEF76FF9042012F04AFC8F
:1021F00001A838F0CFFB01227EA101A839F0BEF87A
:1022000004463CB9049828B97FA0FEF75DF9082080
:1022100012F038FC01A838F0BDFB012283A101A80F
:1022200039F0ACF804463CB9049828B985A0FEF70B
:102230004BF9082012F026FC01A838F0ABFB0AB0DD
:1022400010BD00002F53797374656D2F737973631C
:102250006F72652E696E6900737973636F72652E94
:10226000696E69CEAABFD52CB8B4D6C6C4DAB2BFDF
:10227000B5BDCDE2B2BF0D0A000000002F53797347
:1022800074656D2F737973636F7265312E696E6932
:1022900000000000737973636F7265312E696E6997
:1022A000CEAABFD52CB8B4D6C6C4DAB2BFB5BDCDA0
:1022B000E2B2BF0D0A0000002F53797374656D2FD1
:1022C000736C656576652E696E690000736C656573
:1022D00076652E696E69CEAABFD52CB8B4D6C6C4B1
:1022E000DAB2BFB5BDCDE2B2BF0D0A002F5379738C
:1022F00074656D2F736C65657665312E696E690046
:10230000736C65657665312E696E69CEAABFD52C72
:10231000B8B4D6C6C4DAB2BFB5BDCDE2B2BF0D0AFD
:10232000000000002F53797374656D2F63616D2E6B
:10233000696E690063616D2E696E69CEAABFD52C86
:10234000B8B4D6C6C4DAB2BFB5BDCDE2B2BF0D0ACD
:10235000000000002F53797374656D2F63616D3138
:102360002E696E690000000063616D312E696E692F
:10237000CEAABFD52CB8B4D6C6C4DAB2BFB5BDCDCF
:10238000E2B2BF0D0A0000002F53797374656D2F00
:1023900073706C6963652E696E69000073706C6997
:1023A00063652E696E69CEAABFD52CB8B4D6C6C4F3
:1023B000DAB2BFB5BDCDE2B2BF0D0A002F537973BB
:1023C00074656D2F73706C696365312E696E690079
:1023D00073706C696365312E696E69CEAABFD52CA6
:1023E000B8B4D6C6C4DAB2BFB5BDCDE2B2BF0D0A2D
:1023F000000000002F53797374656D2F6469736357
:102400006861722E696E6900646973636861722E17
:10241000696E69CEAABFD52CB8B4D6C6C4DAB2BF2D
:10242000B5BDCDE2B2BF0D0A000000002F53797395
:1024300074656D2F64697363686172312E696E69AA
:102440000000000064697363686172312E696E690F
:10245000CEAABFD52CB8B4D6C6C4DAB2BFB5BDCDEE
:10246000E2B2BF0D0A00000010B521F097FE21F086
:1024700079FE21F06FFE0A2037F0A3FC21F062FE06
:1024800021F070FE10BD00000020024908600249E2
:1024900008607047386200203C62002070B52FF061
:1024A000D3FA002857D011F0B7FCB0F8015011F062
:1024B000B3FCB0F803002C1804EBD470401027498B
:1024C000086011F0B9FCB0F8015011F0B5FCB0F89B
:1024D00003002C1804EBD47040102149086011F05F
:1024E0009BFCB0F805001F49086011F0A5FCB0F88E
:1024F00007001D49086019480068642190FBF1F04D
:102500001649086016480068642190FBF1F01449F0
:10251000086012480068C0F520750846046804EB9E
:10252000D472511005EBD572501013F099FD0D487F
:102530000068642190FBF1F00A4908600A480068CD
:10254000642190FBF1F008490860084601680548DD
:10255000006813F0A7FD012070BD0000BC640020DE
:10256000C0640020C4640020C864002070B501224B
:102570001146102028F02AF8FDF7ACFE0646104858
:1025800000881049888110480088C8813046FDF7CE
:10259000A5FE0122114610202CF0F6FC0A4A146810
:1025A00004EBD472C2F34F01054A1268C2F52075DC
:1025B00005EBD572C2F34F0013F052FD012070BD40
:1025C00038620020F02701203C62002070B50446EC
:1025D0001F48007850B901201D4908701D48006847
:1025E0002DF0C3FE05462EF07BF830E0102C17D1FD
:1025F00017480078012813D10020154908701649A2
:1026000008705C22154901F15C00FEF70FFA1448CE
:1026100005462ECD10302EC0102024F083F916E090
:10262000202C14D10A480078012810D10220084932
:102630000870002008490870064800682DF095FED3
:1026400005462EF04DF822F04DF922F047F870BD06
:1026500079080020F0070020780800206C2C012069
:10266000502D012010B504461948006840F61701A6
:10267000884206D11748007818B9202C01D10020D3
:1026800010BD1348006840F6170188420DD111486B
:102690000078012809D1202C07D100200D490870AD
:1026A000202024F03FF90020EAE70948006840F6BE
:1026B0001301884204D006480068091D884205D1EC
:1026C000202014F053FA08B10020D9E70120D7E701
:1026D000EC0700207A0800200EB517A000680290D1
:1026E00016A00068019016A0006800900121062045
:1026F00010F080F910B113A0FDF7E6FE4FF4FA6276
:10270000022102A804F07EFB08B900200EBD4FF4A0
:10271000FA62022101A804F075FB08B90020F5E770
:102720004FF4FA620221684604F06CFB08B90020FD
:10273000ECE70120EAE700000201000001010000CF
:10274000140100000D0A416761696E41696D0D0A4F
:102750000000000038B5B249087803F029F9B0F15B
:10276000FF3F01D020B901E0022038BD0020FCE786
:1027700000214FF0006003F071F808B90220F4E77F
:1027800010F0D6FC012010F06BFA14F01DF90128AE
:1027900027D127F0A7FE32201AF080FF00214FF04A
:1027A000807003F05BF860B948F24D0023F0D4FD6F
:1027B000032000F0A3FF4FF4C8701AF06FFF02204F
:1027C000D3E748F2440023F0C7FD032000F096FF52
:1027D0004FF4C8701AF062FF92482FF02DFB0220D0
:1027E000C3E710F099FCB0F57A5F08DA0120002306
:1027F00005228D490090184622F024FE06E00020B4
:102800008A4B05228849009022F01CFE11F090F8B6
:10281000B0F57A5F08DA012000230A22824900908D
:10282000184622F00FFE06E00020804B0A227E4967
:10283000009022F007FE7C480078FF2828D113F092
:1028400071FF70B127F04EFE48F2560023F084FD70
:10285000032000F053FF4FF4C8701AF01FFF02204E
:1028600083E7B7EE000A724A7049724834F034FECA
:102870006E480078042809DB0121062010F0BAF820
:1028800010B16DA0FDF720FE01206EE700206CE77F
:1028900010F0CEF90446224663480178002010F07B
:1028A00075FB00286DD110F0C9F9684951F8200076
:1028B000446AA047054610F0C1F9644951F8200068
:1028C000C46DA047854240DB60498968486B8047FA
:1028D0005E49C968486B80470121062010F08AF8DC
:1028E00030B110F0ABF90446214659A0FDF7ECFDDC
:1028F0004D480078AA280BD148F2060023F02CFDA1
:10290000032000F0FBFE4FF4C8701AF0C7FE1AE077
:102910004548007855280BD148F2070023F01CFDEC
:10292000032000F0EBFE4FF4C8701AF0B7FE0AE087
:1029300048F2080023F010FD032000F0DFFE4FF402
:10294000C8701AF0ABFE02200FE710F077F90546C9
:1029500010F02AF904683648008801EE100AB8EE33
:10296000411AF0EE410A3248408801EE100AB8EEF2
:10297000411AB0EE410A2946204618F0A7FF002070
:10298000F3E610F05BF9054610F00EF904682848EC
:10299000008801EE100AB8EE411AF0EE410A244810
:1029A000408801EE100AB8EE411AB0EE410A2946FD
:1029B000204618F08BFF50B910F03AF90446002079
:1029C0001A4B22461B49009022F03CFD26E010F0F5
:1029D0002FF904460120002322461649009018468C
:1029E00022F030FD10F024F9054610F01BF9C0F17B
:1029F0000300C4B22A460C480178204610F0C6FAFB
:102A000060B948F2560023F0A7FC032000F076FEE0
:102A10004FF4C8701AF042FE0220A6E60020A4E699
:102A20005262002000000110546200205C6200200D
:102A30005662002050620020B5DAD2BBB2BDB6D4D7
:102A4000D7BCCDEAB3C90D0A000000005006002033
:102A50002564CDC6B3ACCFDE28B9E2CFCBB2BBB4D0
:102A6000E6D4DA290D0A000010B54249087802F0D0
:102A70009FFFB0F1FF3F01D020B901E0022010BD5F
:102A80000020FCE700214FF0006002F0E7FE08B9EB
:102A90000220F4E710F04CFB022010F0E1F8364879
:102AA0000078032806DA34480078401C3249087060
:102AB0000020E4E713F088FF012832D12F48007886
:102AC00038B927F00FFDFFF707FE01202B490870EA
:102AD00027E027F007FD32201AF0E0FD00214FF03B
:102AE000807002F0BBFE60B948F24D0023F034FC68
:102AF000032000F003FE4FF4C8701AF0CFFD02204F
:102B0000BDE748F2440023F027FC032000F0F6FD67
:102B10004FF4C8701AF0C2FD19482FF08DF9022049
:102B2000ADE7FF2013F0FEFD60B148F2560023F040
:102B300013FC032000F0E2FD4FF4C8701AF0AEFD64
:102B400002209CE7B7EE000A0E4A0F490F4834F006
:102B500061FD0D480078042809DB012106200FF0F3
:102B600049FF10B10AA0FDF7AFFC012087E7002064
:102B700085E70000706200207A6200207C620020FD
:102B80000000021074620020726200207362002054
:102B9000B5DAB6FEB2BDB6D4D7BCCDEAB3C90D0A1C
:102BA0000000000010B54A49087802F001FFB0F1BA
:102BB000FF3F01D020B901E0022010BD0020FCE75A
:102BC00000214FF0006002F049FE08B90220F4E74E
:102BD00010F0AEFA032010F043F813F0F5FE0128D0
:102BE00035D13C48007838B927F07CFCFFF774FDFC
:102BF0000120384908702AE027F074FC32201AF0CE
:102C00004DFD00214FF0807002F028FE60B948F2BF
:102C10004D0023F0A1FB032000F070FD4FF4C870BD
:102C20001AF03CFD0220C8E748F2440023F094FB70
:102C3000032000F063FD28A0FDF746FC4FF4C870A8
:102C40001AF02CFD27482FF0F7F80220B5E7FF20F7
:102C500013F068FD60B148F2560023F07DFB0320BD
:102C600000F04CFD4FF4C8701AF018FD0220A4E7E4
:102C70009FED1D0A1D4A1E491E4834F069FD1E487D
:102C80000078401C1C4908701AF040FD1B49096877
:102C9000401AC82802D33220144988801648007888
:102CA0001E2805DD012002F087F800201249087077
:102CB0000F480078062809DB012106200FF09AFE54
:102CC00010B10FA0FDF700FC012076E7002074E7AB
:102CD00092620020A0620020313131313131313136
:102CE0000D0A0000000003100000C842946200209A
:102CF0009A6200209B62002090620020A462002063
:102D0000B5DAC8FDB2BDB6D4D7BCCDEAB3C90D0A99
:102D10000000000070B5054611F07EF8B0F80160C3
:102D200011F07AF8B0F80300341804EBD4704010B6
:102D30000F49086011F080F8B0F8016011F07CF8DC
:102D4000B0F80300341804EBD4704010094908604F
:102D500007480068642190FBF1F0054908600548C8
:102D60000068642190FBF1F002490860012070BD09
:102D7000386200203C62002010B50121480202F0B8
:102D80006DFD98B102E001201AF088FC0121480293
:102D900002F064FD0028F6D10848007818B1002040
:102DA0000649087002E001200449087003480078D1
:102DB000012801D122F0E6FB10BD00002807002009
:102DC0002DE9F041002500270024A04656E0681CAC
:102DD000C5B2012105200FF00DFE28B12E492F4A62
:102DE0001278885C22F0F0FA2C480078401CC0B2BF
:102DF0002A490870282801DB00200870274800783D
:102E000020B1012825D0022801D115E036E0224862
:102E100040782249097888420DDC0024002604E02D
:102E20001D48005D4640601CC4B21B484078A0426B
:102E3000F6DC06B120E000BF17484078032800DC2C
:102E40001AE015484078282802DB0120BDE8F0810F
:102E500000BF11480078FC2800D00DE001270E4883
:102E600040780E490978884205DC0C480078022831
:102E700001DD0320EAE700BF00BF00BF0649074AA3
:102E8000127888180FF0E4FD0028A0D117B90DB111
:102E90000120DBE70220D9E75C1101209006002029
:102EA0002DE9F0410025002600240CE0634800785D
:102EB000401CC0B261490870202801DB0020087066
:102EC00001201AF0EBFB5E495C4A127888180FF07B
:102ED000DBFD0028EAD159480078082812DB0620DB
:102EE00010F08AFB0746042010F086FB00EBC001BF
:102EF00001EB001007EB8000C5B2122D02DA0120B1
:102F0000BDE8F0814D4800780F280BD2DFE800F0D3
:102F1000087D73695F5E5D5C594F43423A39310009
:102F20000020EDE745480078A84221DB681E4449AF
:102F3000085C4449C978884200D071E0A81E404925
:102F4000085C40498978884200D069E0E81E3C4925
:102F5000085C3C494978884200D061E0281F384924
:102F6000085C38490978884200D059E0601CC4B236
:102F700000BF142D04DB0C2010F03EFB00B94FE025
:102F800000BF00BF0A2010F037FB00B948E0601C0A
:102F9000C4B200BF00BF2A48407A412803DB28485A
:102FA000407A5A2800DD3BE0601CC4B200BF2448D0
:102FB000007A2549097A884200D031E0601CC4B209
:102FC00000BF601CC4B200BF00BF00BF00BF1C48F0
:102FD000C0781D49C978884200D021E0601CC4B285
:102FE00000BF1748807818498978884200D017E0D8
:102FF000601CC4B200BF1248407813494978884227
:1030000000D00DE0601CC4B200BF0D4800780E492E
:103010000978884200D003E0601CC4B2012600BFDA
:1030200000BF092C05DB142D01DB042068E7032019
:1030300066E70EB9012063E7022061E75C660020C5
:1030400028340120E3730908D473090810B500245B
:1030500013F010FBD0B9002010F05AFEB0B91F4891
:10306000007870B900201E49087001201B490870C3
:103070001AF04CFB1B490860084600681A490860B2
:103080000BE01AF043FB1849086006E000201349E2
:103090000870144908601449086013480068114911
:1030A0000968884217D9104800680E490968401A13
:1030B000C821B0FBF1F43B20B4FBF0F00B4991F8D0
:1030C0002210884207D3094890F82200002802DD28
:1030D0000120034908700248007810BDC165002036
:1030E000C0650020C4650020C86500207427012049
:1030F00079487A4908607A487A4908607A487B4971
:1031000008607B487B4908607B487C4908607C48B4
:103110007C4908607C487D4908607D487D4908609D
:103120007D487E4908607E487E4908607E487F4928
:1031300008607F487F4908607F4880490860804870
:103140008049086080488149086081488149086059
:1031500081488249086082488249086082488349E0
:10316000086083488349086083488449086084482C
:103170008449086084488549086085488549086015
:103180008548864908608648864908608648874998
:1031900008608748874908608748884908608848E8
:1031A00088490860884889490860894889490860D1
:1031B00089488A4908608A488A4908608A488B4950
:1031C00008608B488B4908608B488C4908608C48A4
:1031D0008C4908608C488D4908608D488D4908608D
:1031E0008D488E4908608E488E4908608E488F4908
:1031F00008608F488F4908608F4890490860904860
:103200009049086090489149086091489149086048
:1032100091489249086092489249086092489349BF
:10322000086093489349086093489449086094481B
:103230009449086094489549086095489549086004
:103240009548964908609648964908609648974977
:1032500008609748974908609748984908609848D7
:1032600098490860984899490860994899490860C0
:1032700099489A4908609A489A4908609A489B492F
:1032800008609B489B4908609B489C4908609C4893
:103290009C4908609C489D4908609D489D4908607C
:1032A0009D489E4908609E489E4908609E489F49E7
:1032B00008609F489F4908609F48A0490860A0484F
:1032C000A0490860A048A1490860A148A149086038
:1032D000A148A24908607047C0590020F8080020A2
:1032E000C45900200C090020F059002010090020CA
:1032F000F8590020140900200C5A00201809002059
:10330000105A00201C090020145A00202009002017
:10331000185A0020240900201C5A002028090020E7
:10332000285A00202C090020CC5A00203009002007
:10333000485B002034090020885B00203809002009
:10334000C45B00203C090020EC5B00204009002009
:10335000FC5B002044090020145C00204809002088
:10336000545C00204C0900207C5C002050090020A7
:10337000905C002054090020985C0020580900202F
:10338000A45C00205C090020B45C002064090020DB
:10339000BC5C002068090020C45C00206C0900208F
:1033A000C85C002070090020F05C00207409002037
:1033B000FC5C002078090020245D00207C090020AE
:1033C0002C5D002080090020305D00208409002051
:1033D000385D0020880900203C5D00208C09002019
:1033E000645D002090090020845D00209409002085
:1033F000905D002098090020A45D00209C09002019
:10340000A85D0020A0090020B05D0020A4090020D4
:10341000E45D0020AC090020A05E0020B00900207F
:10342000AC5E0020B4090020B85E0020B80900207E
:10343000085E0020BC090020A85E0020C009002012
:10344000305E0020C4090020B85D0020CC090020B7
:10345000445D0020D0090020705B0020A8090020F6
:103460006C5B0020D4090020BC5E0020D80900203D
:10347000C45E0020DC090020AC5C00206009002054
:10348000245F0020FC080020E85E002000090020E6
:10349000EC5E002004090020185F002008090020CD
:1034A000C85E0020F0090020685E0020C8090020E6
:1034B0003C5F0020000A0020405F0020040A00203A
:1034C000585F0020080A00207C5F00200C0A0020C2
:1034D000845F0020100A00208C5F0020140A002066
:1034E0009C5F0020180A0020BC5F00201C0A0020FE
:1034F000E45F0020200A0020EC5F0020240A002066
:10350000F45F0020280A00201C5E00202C0A002006
:1035100004600020340A002024600020380A0020C3
:10352000306000203C0A0020205A0020400A002081
:10353000245A0020440A002054600020480A002039
:10354000606000204C0A002068600020500A0020C3
:1035500084600020540A0020C06000205C0A002023
:1035600070B503460C4600250020014609E0585C72
:10357000665CB04201D16D1C01E0012070BD481CA9
:1035800001469142F3D3954201D10020F6E700BFF6
:10359000F4E7000010B551480088322190FBF1F0AB
:1035A0004F490979884208DB4E48008840F0040002
:1035B0004C49088000204C4908701AF0A7F84B4984
:1035C0000968401AC821B0FBF1F0454909798842E1
:1035D00008D34448008840F0040042490880002095
:1035E000414908703D480088322190FBF1F00928DC
:1035F00017D13B484088322813DD3D480068322807
:103600000FDA3848008840F0400036490880002032
:103610003549087048F2380022F09EFE35482EF0F9
:103620000BFC2E480088322190FBF1F0122818D1B3
:103630002B484088642814DD2D480068642810DA7F
:103640002848008840F020002649088000202649AC
:10365000087048F2380022F07FFE2648401C2EF009
:10366000EBFB1E4800880A2190FBF1F201FB1200DF
:1036700001281CD12048006820B91D4800681E4957
:10368000086014E01C480068143019490968884231
:1036900009DA1448008840F0100012490880002020
:1036A0001149087003E01248006813490860104887
:1036B0000068B0F5C87F10DD0A48008840F00800B7
:1036C0000849088000200849087048F2380022F0B4
:1036D00043FE0848401E2EF0AFFB10BD6A65002077
:1036E0006E6500206C650020696500208065002003
:1036F00074650020020002027865002010B50446BF
:1037000004EB8401024A02EBC1001BF089FC10BDEE
:10371000EC5E090810B50020064908600021054844
:10372000343828F09AF900210248343828F089F911
:1037300010BD00003408004010B50121064828F0F3
:1037400080F94FF4AF600449343108600121024828
:1037500028F083F910BD00000008004010B58AB0C1
:10376000002401217D201CF089FE012104201CF091
:10377000B5FE0820089000208DF8250001208DF866
:10378000240000208DF826008DF8270008A9404865
:103790000AF098FA4FF48060089000208DF8250018
:1037A0008DF8240001208DF8270000208DF82600D8
:1037B00008A938480AF086FA1020089001208DF8F0
:1037C00025008DF8240000208DF826008DF82700B4
:1037D00008A931480AF076FA10212F480AF0E8FAD1
:1037E0004FF40070089000208DF8250001208DF81E
:1037F000240000208DF827008DF8260008A927480E
:103800000AF060FA4FF4007124480AF0D1FA02225B
:103810000C2123480AF09EFA4FF4805008900220B1
:103820008DF8240000208DF825008DF826008DF8F5
:10383000270008A91A480AF045FA0920ADF8140033
:103840000020ADF816004FF42F6006900020ADF870
:103850001C008DF81E0005A9124828F0DDFA602032
:10386000ADF800000120ADF8020000200290ADF894
:103870000C0069460B4828F005FA0121094828F098
:10388000E0F80121074828F0E8F80AB010BD000070
:1038900000100240001802400008024000140240DC
:1038A000000C02400008004038B545680446014657
:1038B00028462CF050F900282AD02068304A0F28DA
:1038C00019D006DC0B2824D00C2810D00E2851D19A
:1038D0002FE0112802D028284CD145E09268002A18
:1038E00016D02146284601B0BDE830401047214699
:1038F00028465268F7E728460AF06AFE0090406EB4
:10390000046868460AF09AFE002C01D02846A047B9
:1039100038BD28460AF05CFE009068300AF0BAFD17
:10392000009803216C300AF0C3FD68460AF086FE59
:1039300020E0E168486809680D2902D0202913D1E8
:1039400005E0002810DD284631F074FE06E000286E
:1039500004DD2846BDE8384031F06CBE2846BDE89D
:103960003840022131F07CBEE06818B900212846B9
:1039700000F0ADF82046BDE838402CF0B5BB0000A3
:1039800038690020F0B5044685B08069B4F9085064
:10399000668A0027CDE90265CDE900170490B4F9E5
:1039A0000C00B4F91060C118B4F90A00B4F90E5053
:1039B000104433462A4600F007F80546616800F0D7
:1039C0008FF805B02846F0BD2DE9F04F85B01F46B1
:1039D000DDE911B4DDE90E569046894682460BF0CA
:1039E000BDFE4C341548CDE90204CDE900563B46F6
:1039F0004246494650462CF0BDFA040018D00AF061
:103A0000E7FD1022594604902CF026FA0498302243
:103A10000B493430FDF70AF8094D04990C3D28682C
:103A2000486604A80AF00AFE2868416820468847CC
:103A30000DF034FB05B02046BDE8F08FA938020830
:103A40004469002070B516460C46054619463046B6
:103A5000049A0BF043FA024621462846BDE870401E
:103A600000F099B8F8B515460C46060012D00BF0D8
:103A700075FE30460AF0ACFD0090032C02D200EB3C
:103A80008400456368460AF0D9FD30462CF028FED4
:103A90000DF004FBF8BD00294FF0100101D02CF00F
:103AA000E9B82CF037B838B50D4604000ED00BF04D
:103AB00055FE20460AF08CFD0090456568460AF0E8
:103AC000BDFD20462CF00CFE0DF0E8FA38BD4FF499
:103AD00080720029114601D02CF0CCB82CF01AB815
:103AE0002DE9FF410E4605004FF0010421D00BF0F7
:103AF00035FE28460AF06CFD0190876E01A80097FC
:103B00000AF09CFD314668460EF040FC78B1009802
:103B10000024B84208D028460AF05AFD01900099C6
:103B2000816601A80AF08AFD28462CF0D9FD0DF027
:103B3000B5FA04B02046BDE8F08138B50C46050062
:103B40000FD00BF00BFE28460AF042FD0090A0F8C3
:103B50005C4068460AF072FD28462CF0C1FD0DF06D
:103B60009DFA38BDF8B515460C46060012D00BF08C
:103B7000F5FD30460AF02CFD0090032C02D200EB3C
:103B80008400056468460AF059FD30462CF0A8FD13
:103B90000DF084FAF8BDF8B515460C46060018D0AD
:103BA0000BF0DCFD30460AF013FD0090032C0BD81F
:103BB00000EB84006C300AF06DFC009800EB840090
:103BC000C56630462CF08CFD68460AF037FD0DF0D6
:103BD00065FAF8BD70B50024E62582261BF048FD85
:103BE00084B23748007901280AD10021800601F00B
:103BF00035FE28B18222E62132480BF04DFB5DE014
:103C000000214FF0806001F029FE002856D0642C7E
:103C100003D038F0B1FD012805D18222E6212A48DF
:103C20000BF03AFB4AE0642C07DA5A2C05DB8222BF
:103C3000E62126480BF030FB40E05A2C07DA4B2CEB
:103C400005DB8222E62122480BF026FB36E04B2CD6
:103C500007DA372C05DB8222E6211E480BF01CFB1D
:103C60002CE0372C07DA2D2C05DB8222E6211A48BE
:103C70000BF012FB22E02D2C07DA1E2C05DB822232
:103C8000E62116480BF008FB18E01E2C07DA0A2C78
:103C900005DD8222E62112480BF0FEFA0EE00A2C26
:103CA00007DC022C05DB8222E6210E480BF0F4FA39
:103CB00004E08222E6210C480BF0EEFA70BD000011
:103CC000AC3001207C5C0908BC580908B8560908CA
:103CD000905309085C500908344D0908204A090826
:103CE000E8460908CC430908B440090870B512F049
:103CF000F1F8884890F82E0000287DD0864800789A
:103D00000028FAD0854800780028F6D001208449A0
:103D1000087084484079002847D001208249087003
:103D20008048007850B901207E4908700846C08854
:103D30007E49097890FBF1F07A49488079484088BB
:103D400020B178484088401E7649488075484088B0
:103D500000BB74484078C043724948700020087026
:103D6000FCF7B8FA0546002408E06E48801D611C87
:103D700030F8111020F81410601CC4B26948407962
:103D8000A042F2DC67484079401E664948712846E7
:103D9000FCF7A4FA6348407818B901206449087018
:103DA00013E00020624908700FE0002060490870AD
:103DB0005D48007848B100205B4908705949488047
:103DC0004870087008715B4908705B4840790028AA
:103DD0004AD00120594908705748007850B901204D
:103DE000554908700846C0885049097890FBF1F0A1
:103DF00051494880504800E043E0408820B14E4897
:103E00004088401E4C4948804B48408800BB4A4887
:103E10004078C0434849487000200870FCF75AFABF
:103E20000546002408E04448801D611C30F811104C
:103E300020F81410601CC4B23F484079A042F2DC64
:103E40003D484079401E3C4948712846FCF746FAF7
:103E500039484078002849D135480078002845D1B4
:103E600001203349087041E03448007800283DD0F3
:103E70000020324908703049087148804870087045
:103E800034E000202B4908702548007870B32A4898
:103E9000408810B92348408870B12748408828B12D
:103EA00025484088401E244948801FE01D4840881E
:103EB000401E1C49488019E00120204908701A4919
:103EC0000870002016490870194908701A4948807E
:103ED000487008700120087100204871114948801D
:103EE000487008700120087100204871144800785B
:103EF0000F490978884207D00D48007810B1FFF7C4
:103F00001BFC01E0FFF706FC094800780C4908702B
:103F100070BD00007427012026610020256100206B
:103F20002A610020A03101202861002027610020A3
:103F30002C61002024610020CE3101202961002065
:103F40002B61002000BFFEE72DE9F04104460F463B
:103F50002578601C04460678402D1DD176B11048A6
:103F6000006820F080700E490860012108460EF0BC
:103F700041FD88B10BA0FCF7A7FA0DE008480068E6
:103F800040F0807006490860012108460EF032FDBD
:103F900010B107A0FCF798FA0120BDE8F0810000FD
:103FA000E060002048414C4C204F50454E0D0A0027
:103FB00048414C4C20434C4F53450D0A0000000033
:103FC00070B502460B46FF25FF2409E012F8010BED
:103FD0006840C1B20648405C80EA04050548445C7C
:103FE000181EA3F10103F1D144EA052070BD0000C1
:103FF000A2080608A209060810B5012108031CF052
:104000003DFA10BD08B505208DF8000000208DF8A0
:1040100001008DF8020001208DF80300684618F0B9
:1040200039F801201CF0A0FA08BD10B502460020A6
:1040300001B90121012A00D10020022A03D14B1E1F
:1040400003EB43039800042A03D14B1E162403FB01
:1040500004F0082A00D10020102A00D1002010BD51
:1040600010B50246002001B90121012A00D100202B
:10407000022A05D14B1E03EB4303622404EB8300A9
:10408000042A04D14B1E1624634303F21250082A5B
:1040900001D144F6D210102A01D144F6E81010BD27
:1040A00010B52DED088BFE48007831280BD148F271
:1040B000200022F051F94FF4C87019F0EFFA0220F5
:1040C000BDEC088B10BDF648007819287DD0F54866
:1040D000008838B3F448008820B3F44800780528F5
:1040E00004DAF2480078401CF0490870ED48008876
:1040F000ED490988401A052190FBF1F1EB48007861
:10410000E94A128801FB002001B2E948E94A127825
:1041100020F81210E5480078052802D10020E14976
:104120000880B4E3DF48008888B10020DF490870C8
:10413000DC49088800EBD071DA4A1288A2EB6101F1
:1041400009B2DB4ADB4B1B7822F813109FE3D648F9
:1041500000880028E5D000240020D4490870D64803
:104160000078002872D1D3480078401ED34931F935
:10417000100005286CDCD24800684079012804D082
:10418000CF4800684079022826D1CA490978491EDB
:10419000CA4A32F91110C1F11B0108013BF071F854
:1041A00041EC1B0B9FEDC70B53EC102B3BF0D0F8F1
:1041B00041EC190BBC4800883BF07AF841EC1A0B33
:1041C00053EC192B3AF0B8FD00E078E341EC180B02
:1041D0003BF02AF8044623E0B6490978491EB74A5D
:1041E00032F91110C1F11B0108013BF04AF841EC12
:1041F0001B0B9FEDB60B53EC102B3BF0A9F841ECD9
:10420000190BA94800883BF053F841EC1A0B53EC0A
:10421000192B3AF091FD41EC180B3BF005F80446E0
:1042200021B2A348A34A127820F81210A1480078BE
:1042300001280ADB9F480078401EA04931F9100090
:10424000022802DA01209C4908701FE35EE1FFE7C3
:1042500098480078401E994931F910000A2859DC25
:10426000974800684079012804D095480068407953
:10427000022824D18F490978491E904A32F9111039
:10428000C1F11B0108013AF0FCFF41EC1B0B9FED53
:10429000910B53EC102B3BF05BF841EC190B82486F
:1042A00000883BF005F841EC1A0B53EC192B3AF05F
:1042B00043FD41EC180B3AF0B7FF044623E07D497B
:1042C0000978491E7D4A32F91110C1F11B0108011C
:1042D0003AF0D7FF41EC1B0B9FED800B53EC102BFA
:1042E0003BF036F841EC190B6F4800883AF0E0FFDC
:1042F00041EC1A0B53EC192B3AF01EFD41EC180B54
:104300003AF092FF044620B269496A4A127821F8CD
:104310001200BBE267480078401E684931F910007E
:10432000102859DC664800684079012804D06448A8
:1043300000684079022824D15E490978491E5F4A05
:1043400032F91110C1F11B0108013AF09AFF41EC5A
:104350001B0B9FED5C0B53EC102B3AF0F9FF41EC7B
:10436000190B514800883AF0A3FF41EC1A0B53ECAB
:10437000192B3AF0E1FC41EC180B3AF055FF0446DA
:1043800023E04C490978491E4C4A32F91110C1F119
:104390001B0108013AF075FF41EC1B0B9FED510B1F
:1043A00053EC102B3AF0D4FF41EC190B3E48008837
:1043B0003AF07EFF41EC1A0B53EC192B3AF0BCFC9F
:1043C00041EC180B3AF030FF044620B23849394A24
:1043D000127821F8120059E2394800684079012822
:1043E00004D037480068407902282ED13149097835
:1043F000491E324A32F91110C1F1160149432D4AC2
:104400001278521E2D4B33F91220C2F1160201FB15
:1044100002F03AF036FF41EC1B0B9FED2A0B53ECF8
:10442000102B3AF095FF41EC190B1F4800883AF029
:104430003FFF41EC1A0B53EC192B3AF07DFC41EC99
:10444000180B3AF0F1FE044659E01A490978491E62
:104450001A4A32F91110C1F116014943154A12786E
:10446000521E164B33F91220C2F1160201FB02F064
:104470003AF007FF41EC1B0B9FED1C0B53EC102B8C
:104480003AF066FF41EC190B074800883AF010FF3C
:1044900041EC1A0B53EC192B3AF04EFC2AE00000C9
:1044A0007E6100208061002082610020D4610020B4
:1044B000FC310120786100204C6100202432012071
:1044C000A40C06089A9999999999C93F9A9999992A
:1044D0009999E93F333333333333D33F3333333372
:1044E0003333E33F9A9999999999D93F0000000095
:1044F0000000E03F41EC180B3AF096FE044620B273
:10450000F049F14A127821F81200BFE1EF48007833
:10451000012870D1EC480078401EED4931F91000B7
:1045200005286ADCEB4800684079012804D0E94896
:1045300000684079022824D1E3490978491EE44AF9
:1045400032F91110C1F11B0108013AF09AFE41EC59
:104550001B0B1FED1C0B53EC102B3AF0F9FE41EC3A
:10456000190BDD4800883AF0A3FE41EC1A0B53EC1E
:10457000192B3AF0E1FB41EC180B3AF055FE0446DA
:1045800023E0D1490978491ED14A32F91110C1F10D
:104590001B0108013AF075FE41EC1B0B1FED350BBA
:1045A00053EC102B3AF0D4FE41EC190BCA480088AA
:1045B0003AF07EFE41EC1A0B53EC192B3AF0BCFB9F
:1045C00041EC180B3AF030FE044621B2BD48BE4A19
:1045D000127820F81210BC480078032895DBBA48FE
:1045E0000078401EBA4931F9100003288DDA022004
:1045F000B64908704AE182E0FFE7B3480078401E00
:10460000B34931F910000A282ADCAF490978491E5C
:10461000AF4A32F91110C1F11B0108013AF031FE25
:1046200041EC1B0B1FED530B53EC102B3AF090FE9B
:1046300041EC190BA84800883AF03AFE41EC1A0BFD
:1046400053EC192B3AF078FB41EC180B3AF0ECFDE7
:10465000044620B29B499C4A127821F8120015E1C9
:1046600099480078401E9A4931F9100011282ADC37
:1046700095490978491E964A32F91110C1F11B017A
:1046800008013AF0FEFD41EC1B0B1FED6A0B53ECE9
:10469000102B3AF05DFE41EC190B8F4800883AF080
:1046A00007FE41EC1A0B53EC192B3AF045FB41EC99
:1046B000180B3AF0B9FD044620B28249824A1278BA
:1046C00021F81200E2E080480078401E804931F96C
:1046D0001000C0F1160040437B490978491E7C4A0E
:1046E00032F91110C1F116017B4A128800FB012436
:1046F00021B27448744A127820F81210C6E0724849
:104700000078401E724931F91000052841DC7148DB
:1047100000684079012804D06E480068407902287A
:1047200024D169490978491E694A32F91110C1F149
:104730001B0108013AF0A5FD41EC1B0B1FED9D0B81
:1047400053EC102B3AF004FE41EC190B6248008840
:104750003AF0AEFD41EC1A0B53EC192B3AF0ECFA9F
:1047600041EC180B3AF060FD04460BE05648007827
:10477000401E574931F91000C0F11B005649098805
:1047800001EB001421B24F484F4A127820F8121062
:104790007CE04D480078401E4D4931F91000112849
:1047A00059DC4C4800684079012804D04948006829
:1047B0004079022824D144490978491E444A32F9F3
:1047C0001110C1F11B0108013AF05BFD41EC1B0B1C
:1047D0001FEDBE0B53EC102B3AF0BAFD41EC1A0B57
:1047E0003D4800883AF064FD41EC180B53EC1A2B5D
:1047F0003AF0A2FA41EC190B3AF016FD044623E018
:1048000031490978491E324A32F91110C1F11B01B0
:1048100008013AF036FD41EC1B0B1FEDD40B53ECB5
:10482000102B3AF095FD41EC190B2B4800883AF01B
:104830003FFD41EC1A0B53EC192B3AF07DFA41EC99
:10484000180B3AF0F1FC044621B21E481E4A1278B9
:1048500020F812101AE01C480078401E1C4931F95B
:104860001000C0F11600404317490978491E184A44
:1048700032F91110C1F11601174A128800FB012408
:1048800020B21049104A127821F8120000BF0D48DA
:104890000D49097830F9110040F6FA71884205DBBC
:1048A00008460849084A127821F8120005480649C6
:1048B000097830F8110009490880012000E401203E
:1048C000FCE70000FC310120786100204C610020F1
:1048D00024320120A40C0608826100207A610020A5
:1048E0002DE9F0412DED088B0746F8480078401C73
:1048F000F6490870084600780A2801DD0120087092
:104900000FF092FA05780FF09FFA007805440FF047
:104910008BFA407805440FF097FA40782C1804EB96
:10492000D4704010E9490978491EE94A22F811007B
:10493000E6480078401E114631F91010E54890ED28
:10494000000ABDEEC00A10EE100A814276DBDF4895
:104950000078401E114631F91010DF4890ED000A32
:10496000BDEEC00A10EE100A814267DCD74800781D
:10497000401E114631F91010D84890ED000ABDEEE6
:10498000C00A10EE100A814222DCD0480078401E96
:1049900032F9100000EE100AB8EEC00ACF48D0ED90
:1049A000000A30EEC00A10EE101A08463AF0FAFE7D
:1049B00041EC190B9FEDCA0B53EC102B3AF0C8FCDD
:1049C00041EC180B3AF000FC00B2C749088022E025
:1049D000BE480078401EBE4A32F9100000EE100AB0
:1049E000B8EEC00ABD48D0ED000A30EEC00A10EEA5
:1049F000101A08463AF0D6FE41EC190B9FEDBB0B9E
:104A000053EC102B3AF0A4FC41EC180B3AF0DCFB11
:104A100000B2B5490880B7480088B34909880844FE
:104A2000B44908801920B44908700220B3490870BD
:104A30000120BDEC088BBDE8F081FFE7A3480078BA
:104A4000401EA34931F91010A24890ED000ABDEEB6
:104A5000C00A10EE100A814220DA9C480078401EFD
:104A60009B4911F81000A649A64A12788854A1481B
:104A70000088A549A34A127821F81200A1480078BD
:104A8000401CA04908709B480088A049088011205C
:104A90009949087001209949087085E08B48007891
:104AA000401E8B4931F910108B4890ED000ABDEE85
:104AB000C00A10EE100A814276DD84490978491E49
:104AC000834A32F91110924AB2F90020501A002894
:104AD00001DB014600E041425A295FDA0FF09CF900
:104AE000B0F80100E0B30FF097F9B0F80500B8B3E3
:104AF0000FF092F9B0F8030090B30FF08DF9B0F811
:104B0000070068B30FF098F9B0F8010040B30FF058
:104B100093F9B0F8050018B30FF08EF9B0F8030060
:104B2000F0B10FF089F9B0F80700C8B171480088FA
:104B3000784908801A20704908709FED770A664806
:104B400080ED000AB3EE060A624880ED000AB3EE7B
:104B50000B0A624880ED000A00206849087023E0D3
:104B6000FFE7644800886B49088043206249087069
:104B70009FED690A584880ED000AB3EE060A5548D1
:104B800080ED000AB3EE0B0A544880ED000A0020C5
:104B90005C49087061482DF04FF905E00320574942
:104BA000087031205449087048480078401E484930
:104BB00031F91000042805DD5948007810B981202A
:104BC000574908705648007800F08000802804D1CA
:104BD00053480078401C524908705148007800F052
:104BE0007F0004281FDA4E49097801F07F003AF06F
:104BF00048FB41EC1B0B9FED4B0B53EC102B3AF099
:104C0000A7FB41EC190B334800683AF0CBFD41ECAF
:104C10001A0B53EC192B3AF0DBFC41EC180B3AF071
:104C200059F82C4908603B4800883849098888426F
:104C300009DC38480088002805DD03202F4908706A
:104C400031202D49087021480078401E204931F953
:104C500010002F49B1F90010884207D01B48007896
:104C6000401E1B4931F8100029490880254800786A
:104C70000A287CDB0025002600BF00BF002416E0C8
:104C80001F48005D0F2801DA701CC6B21C4800786E
:104C90001B49095D884208DC1948005D232804DAB5
:104CA00025461748005D16490870601CC4B20A2CDE
:104CB000E6DB0A2E3AD131200F4908700020114955
:104CC0000870174908700120B3E6000078610020E1
:104CD000243201204461002040610020486100200E
:104CE0000000000000002040766100209A99999908
:104CF000999919407A6100207E610020306100207E
:104D00004C3201203C61002056320120826100209B
:104D1000746100208061002000000C42000004103B
:104D20003D610020000000000000E03FC5F10A01E5
:104D300001EBC10202EB01103AF0A3FA41EC190BAE
:104D40001549495DC1F11B003AF09BFA1FED1C0BA0
:104D500053EC102B3AF0FCFA53EC192B39F0ECFF22
:104D60003AF032FA00B20D4908800D4800E011E037
:104D700030F81500098808440A49088019200A49B2
:104D80000870022009490870002009490870094983
:104D9000087000BF01204CE64C32012076610020F3
:104DA000563201207A6100207E61002030610020AF
:104DB0003C6100203D61002005282FD2DFE800F093
:104DC000031622262A001849097819B90121164A22
:104DD00011700AE014490978012903D10221124A0D
:104DE000117002E00021104A11701BE00E49097891
:104DF000012903D102210C4A117002E001210A4A63
:104E000011700FE00021084A11700BE00121064AE1
:104E1000117007E00221044A117003E00021024AE8
:104E2000117000BF00BF7047F70500202DE9F04763
:104E300006460D46174698464FF0000900249EB9D5
:104E40000FFA88F40DE055F82400C0F307494846EE
:104E500000F022FB15F82490484600F01DFB601E70
:104E600004B2BC42EFDC54E02B480088ED280FDD93
:104E700029480088F2280BDA40F23F1405E04FF48D
:104E80007F0008F0D5F8601E04B2002CF7DA40E08D
:104E900021480088B0F59A7F10DD1F480088B0F5E2
:104EA0009C7F0BDA40F23F1405E04FF47F4008F09E
:104EB000BFF8601E04B2002CF7DA2AE0164800881A
:104EC000A8280FDD14480088AC280BDA40F23F1404
:104ED00005E04FF47F4008F0ABF8601E04B2002CF0
:104EE000F7DA16E040F23F1411E09E2C06DDA12C0B
:104EF00004DA4FF47F0008F09BF806E055F8240030
:104F0000C0F30749484600F0C7FA601E04B2002CFF
:104F1000EBDABDE8F08700000406002030B5034658
:104F20000C46002000210C4D2D8805F0010595B19F
:104F300011460EE053F82150C5F30740074D287085
:104F40002870287013F821002870287028704D1ED2
:104F5000A9B2A142EEDC30BD0406002000080060CA
:104F600030B503460C46002000211B4D2D8805F06E
:104F700001059DB111460EE053F82150C5F30740DD
:104F8000164D28702870287013F82100287028709A
:104F900028704D1EA9B2A142EEDC1BE00E4D2D88FB
:104FA00005F00205B5B102F5A075A9B20EE053F8FF
:104FB0002150C5F30740094D28702870287013F858
:104FC00021002870287028704D1EA9B204F5A07524
:104FD000A942ECDC30BD000004060020000800609F
:104FE00030B503460C4600200021184D2D8805F0F1
:104FF00001059DB111460EE053F82150C5F307405D
:10500000134D28702870287013F82100287028701C
:1050100028704D1EA9B2A142EEDC16E002F5A07583
:10502000A9B20EE053F82150C5F30740084D28708F
:105030002870287013F821002870287028704D1EE1
:10504000A9B204F5A075A942ECDC30BD040600202D
:105050000008006070B503460C46002000211B4E7E
:10506000368806F00106CEB1022514E011460EE0A6
:1050700053F82160C6F30740154E30703070307021
:1050800013F821003070307030704E1EB1B2A14262
:10509000EEDC6E1EF5B2002DE8DC16E002F5A0761F
:1050A000B1B20EE053F82160C6F30740084E3070ED
:1050B0003070307013F821003070307030704E1E38
:1050C000B1B204F5A076B142ECDC70BD040600205C
:1050D000000800602DE9F04706460D461746984641
:1050E0004FF00009002496B93CB20DE015F8249069
:1050F000484600F0D1F955F82400C0F30749484666
:1051000000F0CAF9601C04B24445EFDB52E02A48C3
:105110000088ED280FDD28480088F2280BDA0024EB
:1051200005E04FF47F0007F083FF601C04B2B4F584
:10513000A07FF6DB3EE020480088A8280FDD1E484F
:105140000088AC280BDA40F23F1405E04FF47F40B2
:1051500007F06EFF601E04B2002CF7DA2AE0164852
:105160000088B0F59A7F10DD13480088B0F59C7F69
:105170000BDA40F23F1405E04FF47F4007F058FF90
:10518000601E04B2002CF7DA14E000240FE09E2C1D
:1051900006DDA12C04DA4FF47F0007F049FF04E09C
:1051A00015F82490484600F077F9601C04B2B4F575
:1051B000A07FECDBBDE8F0870406002030B5034695
:1051C0000C46002000210D4D2D8805F001059DB1F4
:1051D00021460FE013F82100094D2870287028702F
:1051E00053F82150C5F30740054D287028702870EA
:1051F0004D1CA9B29142EDDB30BD00000406002039
:105200000008006030B503460C46002000211C4D0C
:105210002D8805F00105A5B121460FE013F8210006
:10522000184D28702870287053F82150C5F3074096
:10523000144D2870287028704D1CA9B29142EDDBE6
:105240001CE00F4D2D8805F00205BDB104F5A075D9
:10525000A9B20FE013F821000A4D287028702870B9
:1052600053F82150C5F30740064D28702870287068
:105270004D1CA9B202F5A075A942EBDB30BD0000C0
:10528000040600200008006030B503460C460020EC
:105290000021194D2D8805F00105A5B121460FE02B
:1052A00013F82100154D28702870287053F82150EC
:1052B000C5F30740114D2870287028704D1CA9B205
:1052C0009142EDDB17E004F5A075A9B20FE013F8E9
:1052D00021000A4D28702870287053F82150C5F31A
:1052E0000740064D2870287028704D1CA9B202F5A1
:1052F000A075A942EBDB30BD040600200008006069
:1053000070B503460C46002000211C4E368806F07E
:105310000106D6B1022515E021460FE013F8210061
:10532000174E30703070307053F82160C6F307406C
:10533000134E3070307030704E1CB1B29142EDDBC4
:105340006E1EF5B2002DE7DC17E004F5A076B1B2D1
:105350000FE013F821000A4E30703070307053F8AF
:105360002160C6F30740064E3070307030704E1C1E
:10537000B1B202F5A076B142EBDB70BD04060020AD
:105380000008006010B500242E48007840BB1D23A3
:1053900000226D2150201FF09DF82C20C1060870BE
:1053A00000BF05E02849085D00F076F8601C84B273
:1053B000B4F5617FF6DBA52388226D2150201FF014
:1053C00089F82C20C1060870002405E01F49085DFB
:1053D00000F062F8601C84B2B4F5617FF6DB30E067
:1053E00018480078012814D11D2300226D21502077
:1053F0001FF070F82C20C1060870002405E0124947
:10540000085D00F049F8601C84B2B4F5617FF6DBFA
:1054100017E00C480078022813D11D2300226D21CB
:1054200050201FF057F82C20C1060870002405E01A
:105430000649085D00F030F8601C84B2B4F5617F65
:10544000F6DB10BD060600209EF8050822FC0508C4
:105450001CB5012104201BF011F8012000908DF8EB
:10546000040003208DF8050000208DF806008DF85B
:1054700007006946074808F025FC02F0A9FB02F086
:1054800051FD0021082002F01BFD0021102002F038
:1054900017FD1CBD00080240024908700870087022
:1054A000704700000008006030B597B004466946B8
:1054B000132017F0DFFE092C05D0082C03D00B2C8D
:1054C00001D00C2C1BD1FAF705FF054600214FF047
:1054D000006020F031F800214FF0805020F02CF8CF
:1054E0005D4804705D4804701BF0E4F813201BF065
:1054F000EFF82846FAF7F2FE012017B030BD0D2C68
:1055000028D15648007809280BD05448007808283C
:1055100007D0524800780B2803D0504800780C2858
:1055200001D10020E9E7FAF7D5FE054611F00CFDA0
:1055300058B99DF8300000F0080030B10D20464900
:105540000870464908701BF0B5F82846FAF7C6FE01
:105550000120D2E734BBFAF7BDFE0546ECB90020C6
:105560003E4908703E480068007810B1012808D113
:1055700003E006203849087009E007203649087022
:1055800005E006203449087029F032FE00BF00BF54
:105590002846FAF7A3FE0120AFE72846FAF79EFE59
:1055A0000020AAE711F0D0FC78B12C480078092837
:1055B0000BD02A480078082807D0284800780B2804
:1055C00003D0264800780C2844D1FAF783FE05461C
:1055D00011F0BAFC78B12148007809280BD01F4897
:1055E0000078082807D01D4800780B2803D01B48F6
:1055F00000780C2829D11948007809280BD01748C1
:105600000078082807D0154800780B2803D01348E5
:1056100000780C280ED1132017F0EAFF00F0F0FEFE
:1056200000214FF000601FF087FF00214FF08050F5
:105630001FF082FF08480470084804701BF03AF815
:105640002846FAF74BFE012057E72846FAF746FEB0
:10565000002052E7002050E75D6500205C650020D7
:10566000A40C0608B0F5C87F01DC0149C881704769
:10567000B06B0020B0F5C87F01DC0149C8817047DC
:10568000006C0020B0F5C87F01DC0149C88170477B
:10569000886B0020B0F5C87F01DC0149C8817047E4
:1056A000D86B002030B501460846CC1701EB1474C6
:1056B0002411A1EB04140A46CD1701EB15752D1129
:1056C00005EB850504EB4504E3B2184630BD014601
:1056D0000A2291FBF2F302FB131391FBF2F203EBAC
:1056E0000212D0B270470000402829D080284ED145
:1056F0002849098842F21072914212DB25498988B3
:10570000914209DA23494988491C224A51801146AD
:105710008988491C918012E001211E4A51809180A4
:105720000DE01C49098842F21072914207DA1949CA
:105730000988491C174A118001215180918027E076
:1057400015490988B1F5FA7F13DB13498988B1F54A
:10575000FA7F09DA10494988491C0F4A51801146DD
:105760008988491C918011E001210B4A5180918068
:105770000CE009490988B1F5FA7F07DA064909887A
:10578000491C054A118001215180918000E000BF31
:1057900000BF7047420700203C07002010B50EF004
:1057A00017FE1EF013FD1EF0D5FC10BD70B50446AB
:1057B000102C01DB002070BD17F0A8FF114901EB90
:1057C00004114968451A17F0A1FF0E4901EB0411B5
:1057D00048600C4800EB0410C0682844094901EBFC
:1057E00004118968884201D90020E4E7054800EBEC
:1057F0000410C0682844034901EB0411C86001206B
:10580000D9E700007039012010B50EF0C5FB044641
:1058100003480078844200D110BD00BFFCE70000BF
:105820005E65002008B504A000680090694602206B
:105830001FF020FD08BD00004002000001460648A0
:105840000068084030B1044800688843024A10608C
:10585000012070470020FCE7FC60002002464FF664
:10586000FF70824207D30D480068104008B1012044
:1058700070470020FCE749B108480088C0F30B03DB
:10588000934201D10120F3E70020F1E703480068CB
:10589000104008B10120EBE70020E9E7E4600020B8
:1058A0002DE9F84F0746884692461C460020009096
:1058B0008346002600258146B8F1040F07D10AEB84
:1058C000CA0000EB0A1004EB8000451C00E0651CD8
:1058D000B8F1040F06D140F22130854202D90020F0
:1058E000BDE8F88FB8F1020F03D1652D01D9002072
:1058F000F6E7FAF7EFFC0090B8F1040F11D006DCE0
:10590000B8F1010F0AD0B8F1020F43D11EE0B8F18F
:10591000080F39D0B8F1100F3CD138E097F872B0C9
:105920003BE03E464FEAD50905F007053DB14E4440
:105930003078691E01228A4000EA020B05E0A9F1D5
:1059400001000644307800F0800B26E007F1650680
:105950002046E11704EB51714FEAE109E11704EB2E
:105960005171C910A4EBC1053DB14E443078691E98
:1059700001228A4000EA020B05E0A9F10100064479
:10598000307800F0800B08E097F874B005E097F8E5
:1059900073B002E04FF0000B00BF00BF0098FAF7B1
:1059A0009DFCBBF1000F01DD012099E7002097E786
:1059B00038B5044600214FF00060FFF74FFFD8B91B
:1059C00000214FF08070FFF749FF50B948F24D00B9
:1059D00020F0C2FC0320FDF791FE4FF4C87017F0D1
:1059E0005DFE012106200DF005F810B121A0FAF7A7
:1059F0006BFD4FF0FF3038BD2046FFF7D7FEA8B94A
:105A0000012106200CF0F6FF10B11DA0FAF75CFD95
:105A100048F2480020F0A0FC0320FDF76FFE4FF491
:105A2000C87017F03BFE4FF0FF30E4E76A460021F4
:105A30001648006817F054FA6A46C82113480068EF
:105A400017F0A6F99DF800000A2810D148F23F008F
:105A500020F082FC0320FDF751FE4FF4C87017F0D0
:105A60001DFE0B482CF0E8F94FF0FF30C3E7012092
:105A7000C1E70000CDCBB3F6D4CBD0D00D0A0000E7
:105A8000B3ACCAB1CDCBB3F60D0A00003865002027
:105A900020FFFF042DE9F04F8BB005468B46002018
:105AA000019000260090FC200CF0B0FE0746B246A4
:105AB000FC200CF0ABFE804600240BE08A4820441A
:105AC00090F8040F38558848204490F8040F08F8DF
:105AD0000400641CFC2CF1D3002483E005EB0410CB
:105AE0000122416802A835F049FC002878D10598C8
:105AF0000CF08CFE06461EB97CA0FAF7E5FC70E0BF
:105B000001AB314602A8059A35F0EEFC00285CD1C5
:105B1000012107200CF06EFF28B105EB041041684D
:105B200076A0FAF7D1FC0598801E16F800904FF683
:105B3000FF7000EA09290598401E305C40EA090917
:105B40000598811E304624F08FFD48453DD105EB78
:105B50000410007B012819D10599CA1E05EB041118
:105B60008968C819711CFAF7DAFE0599CA1E05EB97
:105B70000411896801EB0800711CFAF7D0FE307837
:105B8000644908700120644908701CE005998A1E68
:105B900005EB04118968C8193146FAF7C0FE05996A
:105BA0008A1E05EB0411896801EB08003146FAF7FB
:105BB000B6FE05EB0411486858A1FAF7BBFF10B90F
:105BC0000120594908700120009002A834F0E2FE3B
:105BD00005EB0411486835F0FDFD30461BF028FE4A
:105BE00000BF641C5C45FFF479AF0098002870D0BA
:105BF000012107200CF0FEFEB8B100240DE0395D54
:105C00004AA0FAF761FC0A20B4FBF0F100FB114056
:105C100010B939A0FAF758FC641CFC2CEFD336A05D
:105C2000FAF752FC0A2017F039FD4FF0000A19E08C
:105C3000FC233A464FF001613E482BF09EFF0A20BC
:105C400017F02CFDFC2241463A4832F053FCFC226E
:105C500041463846FDF784FC00B906E00AF1010030
:105C600000F0FF0ABAF1030FE2DB00BFBAF1030F45
:105C700010DBFDF761FDC82017F010FDFDF74AFDB0
:105C8000C82017F00BFDFDF757FDC82017F006FDE3
:105C9000FDF740FD012107200CF0ACFEC8B1FC224D
:105CA0003946244832F026FC00240DE0395D1FA05F
:105CB000FAF70AFC0A20B4FBF0F100FB114010B91E
:105CC0000DA0FAF701FC641CFC2CEFD30AA0FAF734
:105CD000FBFB38461BF0ACFD40461BF0A9FD0098CD
:105CE0000BB0BDE8F08F000000F00F08C9EAC7EB69
:105CF000C4DAB4E6CAA7B0DC0D0A0000B6C1C8A178
:105D0000B2CECAFDC3FBD7D6203D202573200D0A95
:105D100000000000C1070020C00700205041524D84
:105D20002E42494E00000000C20700202030782596
:105D30007800000004FF0F0800210020044A1168C9
:105D4000B1F1113F01D0012000E0002070470000B8
:105D50003A4A010810B5002401218806FFF77EFDAC
:105D600004460B480078844211D044B1002102203F
:105D700020F002F8012107201FF0FEFF03E00021C0
:105D800007201FF0F9FF034804700148047010BD9C
:105D9000CC650020A165002010B510E00DF00EF9D3
:105DA000FF2800D10FE00AF07FFE0DF007F902286E
:105DB00002D1012006490870012017F06FFC044849
:105DC00000780028EAD000BF142017F067FC10BD4F
:105DD000CE07002010B52A48007810B901202949C3
:105DE000087028480078012830D12548007801281B
:105DF0002CD100202349087017F088FC2249C1F8F3
:105E00000A000846D0F80A00D1F80610401A1E49C8
:105E1000C1F802000846D0F80200B0F5487F04D26D
:105E200008460078401C087002E0002016490870FF
:105E30001548D0F80A001449C1F806000846007851
:105E4000022803DD00200870012048700E484078C9
:105E5000012813D117F05AFC0B49D1F80610401A4B
:105E6000B0F57A7F07D2002005490870062114207A
:105E70001FF058FA02E000200349487010BD0000EE
:105E80006965002084650020E03301202DE9F0479A
:105E90002DED088B00204FF08041C86341F25E0079
:105EA0000864022017F0FAFB032107200DF0ECFF35
:105EB000064641F25E004FF08041C863022017F0B1
:105EC000EDFB032107200DF0DFFF074603210E2025
:105ED0000DF0DAFF824600204FF08041C86342494E
:105EE0000870B7F5487F0CD2B6F5487F09DA3F480D
:105EF000008840F002003D49088001203A490870BE
:105F000006E064200AFB00F0B0FBF7F01FFA80F80F
:105F100000204FF080410864022017F0BFFB0321EE
:105F200007200DF0B1FF044603210E200DF0ACFF59
:105F3000054641F25E004FF080410864B4F5487FA9
:105F40000CD2B6F5487F09DA0120274908702748A6
:105F5000008840F002002549088005E0642068437D
:105F6000B0FBF4F01FFA80F91F48007840B19FEDB4
:105F7000202B9FED211B9FED220B20F0CDF92EE071
:105F800008EB090039F07DF941EC1B0B9FED1E0B6E
:105F900053EC102B39F0DCF941EC1A0B9FED1C0B84
:105FA00053EC102B39F0D4F941EC190B38F092FE78
:105FB00008EE100A9FED180A38EE000A10EE101ACB
:105FC000084639F0EFFB41EC190B9FED142B9FEDC8
:105FD000151BB0EE490AF0EE690A20F09DF9BDEC00
:105FE000088BBDE8F0870000686500206C65002024
:105FF00000000000000000009A9999999999A93F22
:1060000000000000000054407B14AE47E17A743F6A
:1060100000000000000014400000204200000000CA
:1060200000000840FA7E6ABC7493883F00B58BB0CC
:1060300000200790089009900A902B48006806906D
:10604000002002900390049005902748001D0068EE
:10605000019048F2930020F07FF96422022106A803
:1060600000F0D0FE0120214908700A202049087064
:106070002049087027E01F4800781F4908701F4A10
:10608000126891881D4A1268D08805F02FFD002102
:106090004FF08050FFF7E2FB50B100201349087029
:1060A0006422022101A800F0ADFE02200BB000BD69
:1060B0002BF05AFD4FF4C87017F0F0FA0D48007835
:1060C000401E0C4908700B4800780028D3DC0020E3
:1060D000094908706422022101A800F093FE0A20F9
:1060E00017F0DCFA0120E1E7006409084D610020A7
:1060F0004F610020D56100204E610020A80C0608E9
:1061000000B58BB000200790089009900A902D48A8
:1061100000680690002002900390049005902948A2
:10612000001D0068019048F2930020F015F932201C
:1061300017F0B4FA6422022106A800F063FE0120E1
:10614000214908701420214908702149087027E06E
:106150001F4800781F4908701F4A126891881E4A1C
:106160001268D08805F0C2FC00214FF08050FFF784
:1061700075FB50B10020144908706422022101A867
:1061800000F040FE02200BB000BD2BF0EDFC4FF400
:10619000C87017F083FA0E480078401E0C4908704A
:1061A0000B4800780028D3DC00200A4908706422DC
:1061B000022101A800F026FE0A2017F06FFA012044
:1061C000E1E70000A46409084D6100204F61002050
:1061D000E06100204E610020A80C060810B5712077
:1061E00002F024FB10BD0000002001490870704738
:1061F00090060020002004490870044908700449F2
:1062000008700120704700003C6100203D610020C3
:106210007861002010B5612002F008FB10BD00007D
:1062200000200149087070475462002010B500201A
:106230003A4908703A4908703A49087001221146F3
:10624000104624F0C3F9384890F85000012817D1BF
:106250000020354981F850003449087034490870ED
:10626000344908703449087034490870344908705A
:106270002D4981F84E00334908703349087047E0D2
:10628000294890F84E00012816D1002029490870AD
:106290002949087029490870294908702B49087054
:1062A0002B4908702B4908701F4981F84E00254979
:1062B0000870254908702BE01B4890F84D00012814
:1062C00018D1194890F84C00401C174981F84C002F
:1062D000084690F84C00032802DD022081F84C00AB
:1062E00000201149486581F84D001B4908701B4981
:1062F00008700DE00C4890F84F00012808D10020EC
:106300000949886481F84F001549087015490870DB
:1063100001221146104628F037FE10BD956300207B
:106320009763002096630020742701209B63002060
:106330009F630020936300209463002091630020FA
:1063400092630020986300209C630020A0630020DB
:10635000A1630020A2630020996300209D630020B8
:106360009A6300209E630020002005E00021064A79
:1063700042F82010411CC8B20828F7DB0021034A6C
:106380001170034A11707047C0300120EC6000208A
:10639000ED600020024909688143014A116070479D
:1063A000FC600020034800686FF30F00014908609B
:1063B00070470000E460002070B504460025F9F73E
:1063C00089FF0546002084F82C0084F82D0028461B
:1063D000F9F784FF70BD000010B501221146104688
:1063E00024F0F4F800200549C86301221146104644
:1063F00028F0CAFD552002F019FA10BD74270120BB
:1064000000200149087070473F65002070B50446C0
:10641000202C02D100205D4908705C4800780128DA
:1064200003D114B1002059490870012C05D0022C69
:1064300003D0042C01D0082C03D155480078012842
:1064400006D054480068B0F5066F04D1202C02D164
:1064500000204F4908705048007801280BD04F4861
:106460000078012807D04E480078012803D04D4815
:106470000078012818D1012C05D0022C03D0042C5F
:1064800001D0082C10D100204349087046490870FB
:1064900042490870454908704149087044490870EC
:1064A0004049087043490870102C0DD138480078D5
:1064B000012809D10020364908703F48006829F0BA
:1064C00054FF05462AF00CF930480078012806D11F
:1064D0003948006829F049FF05462AF001F9324899
:1064E0000078022802D100202F4908702F48007838
:1064F000022802D100202D4908702D48007802287A
:1065000002D100202A4908702A480078022802D1C6
:10651000002028490870012C07D0022C05D0042C3B
:1065200003D0082C01D0102C06D124480078012873
:1065300002D1002021490870012C05D0022C03D083
:10654000042C01D0082C03D11D480078012807D065
:106550001048006840F67301884209D1102C07D119
:1065600000201749087017480146097880F85C1028
:10657000012C07D0022C05D0042C03D0082C01D00C
:10658000102C02D100201049087070BD7D08002039
:106590007F080020E807002072080020740800200F
:1065A0007608002078080020730800207508002075
:1065B0007708002079080020F00700207A080020E2
:1065C0007B0800206C2C01208308002010B5554862
:1065D0000AF0EAF96FF07F400AF0CFF952480068FC
:1065E000407F20B150480068407F01284CD14F497E
:1065F00008790223EE224FF4C37108F0A8FC4B493E
:1066000048790223EE2240F2A11108F0A0FC47498C
:1066100088790223EE2240F2BB1108F098FC43492E
:1066200008880423FD2240F2791108F090FC3F49CC
:1066300088780223FD224FF4D57108F088FC3B498D
:10664000C8780223FD224FF4E47108F080FCEE22AA
:106650004FF4CD7136A008F03FFDEE2240F2B511A7
:1066600033A008F039FDFD2240F2A11131A008F05D
:1066700033FDFD224FF4E0712EA008F02DFD6FF0E8
:106680007F400AF07AF94BE0284908790223EE228C
:106690004FF4C37108F05BFC244948790223EE22D1
:1066A00040F2A11108F053FC204988790223EE2220
:1066B00040F2BB1108F04BFC1C49C8780223FD22B4
:1066C0004FF4BD7108F043FC184988780223FD227D
:1066D00040F2991108F03BFC144908880423FD227C
:1066E0004FF4DB7108F033FCEE224FF4CD7110A0B3
:1066F00008F0F2FCEE2240F2B5110DA008F0ECFC1F
:10670000FD2240F28F110BA008F0E6FCFD224FF4B1
:10671000D77108A008F0E0FC6FF07F400AF02DF977
:1067200010BD0000D0BD0908A40C0608D608002042
:106730003A0000002D00000010B500204FF080410D
:10674000C86341F2720008648914024807F02EFB06
:1067500010BD0000001802403EB5044660780228D3
:106760003AD1A078012804D10E22E11C3C48FAF766
:10677000D6F8E07A022805D10E2204F10C0139483E
:10678000FAF7CDF8012106200CF034F9002866D084
:106790003348407B3249097B314A5288CDE9002198
:1067A00002902F480388C28881882F48F9F78CFE11
:1067B0002C48407B2B49097B2A4A5288CDE900218D
:1067C000029028480388C28881882848F9F77CFE0F
:1067D000012016F063FF42E0607801283FD1A078E5
:1067E00001281CD10E22E11C1D48FAF798F801215E
:1067F00006200CF0FFF890B11948407B1849097B3E
:10680000174A5288CDE90021029015480388C288B2
:1068100081881748F9F758FE012016F03FFFA0784D
:1068200002281CD10E22E11C0E48FAF778F801214B
:1068300006200CF0DFF890B10A48407B0949097B3B
:10684000084A5288CDE90021029006480388C28890
:1068500081880848F9F738FE012016F01FFF3EBD79
:1068600024330120323301202C700C08C4700C0832
:10687000E06F0C0878700C0810B504460E4861886B
:1068800001800E48B4F805100180012106200CF0AB
:10689000B1F800280ED008484278017808A0F9F72E
:1068A00013FE06484278017810A0F9F70DFE01208A
:1068B00016F0F4FE10BD0000BC620020BE62002095
:1068C00058BEB5CDB73A5BD7F3B9E2CFCBC8DBC87A
:1068D000DAC1BF3A25642CD3D2B9E2CFCBC8DBC82A
:1068E000DAC1BF3A25642C5D0D0A000059BEB5CD52
:1068F000B73A5BD7F3B9E2CFCBC8DBC8DAC1BF3A4E
:1069000025642CD3D2B9E2CFCBC8DBC8DAC1BF3AF9
:1069100025642C5D0D0A000038B50446A078E178A6
:1069200040EA0120224908802079617940EA01206B
:1069300020490880E079217A40EA01201E49088038
:10694000607AA17A40EA01201C4908801848008832
:10695000642190FBF1F016490880164800886421F4
:1069600090FBF1F01349088013480088642190FBE4
:10697000F1F01149088011480088642190FBF1F082
:106980000E490880012106200CF034F870B10B4844
:106990000088009008480388064802880448018857
:1069A00007A0F9F791FD012016F078FE38BD000030
:1069B000C0620020C2620020C4620020C6620020C3
:1069C000D7F3BEB5CDB7B5E7BCABCEBBD6C33A2582
:1069D000642C25642CD3D2BEB5CDB7B5E7BCABCE05
:1069E000BBD6C33A25642C25640D0A0010B50446B5
:1069F0006078012809D1012106200BF0FBFF20B1AE
:106A0000E278A1780EA0F9F75FFD2079022809D17C
:106A1000012106200BF0EEFF20B1A279617912A0CE
:106A2000F9F752FDA07808B1607918B9E07818B18B
:106A3000A07908B1012000E000201549087010BDC0
:106A400058BEB5CDB73A5BD7F3B9E2CFCBB4E6D4F5
:106A5000DA3A25642CD3D2B9E2CFCBB4E6D4DA3A11
:106A600025645D0D0A00000059BEB5CDB73A5BD76D
:106A7000F3B9E2CFCBB4E6D4DA3A25642CD3D2B959
:106A8000E2CFCBB4E6D4DA3A25645D0D0A0000000B
:106A9000C962002010B504466078012810D1E07862
:106AA000217940EA012015490880012106200BF0D8
:106AB000A1FF28B1A2781148018811A0F9F704FDBF
:106AC0006079022810D1E079217A40EA0120114949
:106AD0000880012106200BF08DFF28B1A2790D4816
:106AE00001880DA0F9F7F0FCA07818B1A07908B1E1
:106AF000012000E000200D49087010BDCA6200208E
:106B00004C4544312050574D3A25642C25640D0ADC
:106B100000000000CC6200204C4544322050574D0C
:106B20003A25642C25640D0A00000000C86200208C
:106B300010B52DED068B84B004466078012830D165
:106B40000D22A11C3348F9F7EAFE012106200BF0C3
:106B500051FF002825D02F48D0F80910084638F0FA
:106B600021FE41EC180B2B48D0F80510084638F0F0
:106B700019FE41EC190B2748D0F80110084638F0EF
:106B800011FE41EC1A0B8DED028B8DED009B21481F
:106B9000017853EC1A2B20A0F9F796FC012016F08F
:106BA0007DFDE07B022831D10D2204F110012A483D
:106BB000F9F7B5FE012106200BF01CFF002825D0B7
:106BC0002548D0F80910084638F0ECFD41EC180BC8
:106BD0002148D0F80510084638F0E4FD41EC190BC7
:106BE0001D48D0F80110084638F0DCFD41EC1A0BC6
:106BF0008DED028B8DED009B1748017853EC1A2B1D
:106C000016A0F9F761FC012016F048FD04B0BDECB8
:106C1000068B10BD4033012058BEB5CDB73A5B4F4F
:106C20006B5F666C61673D25642C4C6F73733D250B
:106C30002E36662C41697873616E676C653D252E32
:106C400036662C416C69676E4F66667365743D25C8
:106C50002E36665D0D0A00004D33012059BEB5CDBC
:106C6000B73A5B4F6B5F666C61673D25642C4C6F78
:106C700073733D252E36662C41697873616E676C9F
:106C8000653D252E36662C416C69676E4F666673CE
:106C900065743D252E36665D0D0A00002DE9F0472E
:106CA00005460E4691469A4600240027A046062E29
:106CB00020DC01241BE0AC4203D1484609F05DFE14
:106CC00002E0504609F059FE601EC0EB00106B2236
:106CD00002EB4003601EC0EB0010532202EB4001A8
:106CE0004FF4A5720D2008F007FC601CC4B2B4423A
:106CF000E1DD49E0062E22DD062D20DC01241BE02B
:106D0000AC4203D1484609F038FE02E0504609F093
:106D100034FE601EC0EB00106B2202EB4003601ECD
:106D2000C0EB0010532202EB40014FF4A5720D207E
:106D300008F0E2FB601CC4B2062CE1DD24E0012473
:106D400015E0504609F019FE601EC0EB00106B22E2
:106D500002EB4003601EC0EB0010532202EB400127
:106D60004FF4A5720D2008F0C7FB601CC4B2052CBF
:106D7000E7DD484609F001FE40F201134FF4A57229
:106D8000E9210D2008F0B8FB1948B0F80080012770
:106D900027E0184810F8080018B9174809F0EDFD69
:106DA0000AE016480078804503D1484609F0E5FD21
:106DB00002E0504609F0E1FD781EC0EB00106B22A6
:106DC00002EB4003781EC0EB0010532202EB40019F
:106DD0004FF4A5720D2008F08FFB08F10108781C14
:106DE000C7B2074800788742D3DDBDE8F0870000CE
:106DF000F4070020702D0120B0B0B400E40700209B
:106E0000F60700202DE9F04706460F4614464FF0DE
:106E10000009B846052094FBF0F084B231464046A4
:106E20001EF028FA24E0307835F032FB054685B9AB
:106E3000012016F033FC601E84B2012106200BF005
:106E4000D9FD28B104F01F0010B92E201EF0BCFAA5
:106E50000EE0A8783178884209D16878C01E1FFA00
:106E600080F84246A91C3046F9F759FD02E000BF00
:106E7000002CD8D100BF2846FFF79EFA2CB1002085
:106E80000F4908700120BDE8F0870D480078401CCC
:106E9000C0B20B4908700A280FDD012106200BF053
:106EA000A9FD10B107A0F9F70FFB002004490870F5
:106EB00001214FF4E13025F037FE0020E3E7000028
:106EC0008C060020D6D8D0C2B3F5CABCBBAFCDA8C3
:106ED000D0C5B4AEBFDA0D0A0000000010B50548F9
:106EE0000078022804D133201FF036FA022010BDAA
:106EF0000120FCE7F261002010B504460FF05AFDB6
:106F000001490870012010BDF2610020002000211D
:106F100000BF0CE00A4A024492F8702F012A04D103
:106F20000A464B1CD9B2074B9854421CD0B20F28CA
:106F3000F0DB054A1170FF22024B5A5470470000E3
:106F400000F00F089C300120F208002001460A469C
:106F50000120704770B504460D4612F0C1FD094985
:106F60000988884205D11CF00DF9064949888842F4
:106F700006D04FF4A070034908804880012070BDFE
:106F80000120FCE7B832012038B5044640F6030082
:106F900084421AD10D480078C0EB00100C4951F81A
:106FA000300040F66D0188420FD10A4890F88810F1
:106FB0006B460122084819F011FC0748801F014662
:106FC000D1F8062002604989818038BDE40700209D
:106FD000D85206086C2C01204A2D012010B500243F
:106FE00012480078C0EB0010114951F8300040F60B
:106FF0008B0188420BD10D490978C1EB01110C4A74
:1070000002EBC101496B08781FF071F90CE00948E7
:107010000078C0EBC000084951F8300040F6180174
:10702000884201D113F054F810BD0000E40700209D
:10703000D8520608E5070020D046060870B500249F
:10704000022009F00DFD9022782128A008F044F8D4
:107050009022AA2125A008F03FF8902240F20911C1
:1070600023A008F039F800BF12E0C4EB0410214956
:1070700051F8300020490978C1EBC1011F4A02EBE9
:10708000C1018969884201D1254603E0601CC4B270
:10709000D22CEADB00BF9021442008F00BFBC5EBAB
:1070A0000511144A02EBC101496B0888042107F05D
:1070B0004BFF012417E0611EC1EBC10202EB01117D
:1070C0008C2202EB4100902108F0F4FA2919C1EB5F
:1070D0000111084A02EBC101496B0878022107F04F
:1070E00033FF601CC4B2052CE5DB70BD2D00000031
:1070F0003A000000D8520608E5070020D0460608EE
:1071000039B1084A1268012383401A43054B1A60BB
:1071100006E0044A1268012383409A43014B1A6037
:10712000704700000074004010B50121480719F0B5
:10713000E5F900214FF0005019F0E0F910BD000012
:1071400030B5002200230A4C226840F6FE748440C9
:10715000A243D1E900452C438D682C43CD6844EA15
:10716000050303FA00F42243014C226030BD000005
:107170000074004008B500220092054A009200F118
:107180001402009B1A440092009A116008BD00008E
:107190000074004070B506460C4604F0800080285C
:1071A00008D104F07F0000EB800106F58C7000EB45
:1071B000C10507E004F07F0000EB800106F55C707C
:1071C00000EBC10504F07F00287004F08000C009C6
:1071D00068702946304627F087FB002070BD70B5E7
:1071E00006460C4604F08000802808D104F07F0099
:1071F00000EB800106F58C7000EBC10505E004EBA7
:10720000840106F55C7000EBC1050020A87004F055
:107210007F002870C4F3C01068702946304627F0FC
:107220003BFB002070BD70B505460C4604F08000A5
:10723000802805D104F07F01284627F059FD02E09F
:10724000284627F02FFD002070BD2DE9F0410646AD
:107250000D4690461F4605F08000802808D105F0B5
:107260007F0000EB800106F58C7000EBC10407E0A5
:1072700005F07F0000EB800106F55C7000EBC104B7
:1072800005F07F00207005F08000C0096070C4F830
:107290000880E770607808B12078E080022F01D183
:1072A000002020712146304627F09EFA0020BDE8DC
:1072B000F0812DE9F04105460E461746984606F046
:1072C0007F0000EB800105F55C7000EBC104E76016
:1072D000C4F814800020A061607006F07F00207068
:1072E000E878012800D12761207820B92146284676
:1072F00027F09EF903E02146284627F062FB002094
:10730000BDE8F08108B500220092009A61F30A12EC
:10731000009202691268009B1A4303691A6008BD53
:1073200070B506460C4604F08000802808D104F0B1
:107330007F0000EB800106F58C7000EBC10505E0D5
:1073400004EB840106F55C7000EBC1050120A87018
:1073500004F07F002870C4F3C010687029463046DE
:1073600027F0FDFA002070BD2DE9F04107460D46DB
:107370001646984605F07F0000EB800107F58C70FB
:1073800000EBC1040120607005F07F002070E66012
:1073900026610020A061C4F81480207820B921461D
:1073A000384627F045F903E02146384627F009FB27
:1073B0000020BDE8F0811CB50446204627F003F903
:1073C000E068C0680090204627F0BCFC03280BD181
:1073D0000020A0704FF40070A080009820F470503E
:1073E00000F51050009009E00120A0704020A0801E
:1073F000009820F4705000F5A05000900098E168CB
:10740000C86000200190019820F4005000F5005061
:1074100001900198E168486101201CBDF8B505465E
:10742000002400200090284627F0CBFC0646B2E05E
:1074300006F0010000287DD0E1B2284600F03CFBB8
:107440000090009800F0010030B3012000FA04F72A
:107450002869406BB8432969486300200090009870
:1074600020F00100401C009005F1180050F82400A5
:1074700000998160E1B24A48006842682846904716
:10748000E878012808D13CB940F21110405D042889
:1074900002D1284627F077F90098C0F3800060B148
:1074A00000200090009820F00400001D009005F1DD
:1074B000180050F82400009981600098C0F3C000C3
:1074C00060B100200090009820F008000830009083
:1074D00005F1180050F82400009981600098C0F36D
:1074E000001060B100200090009820F010001030D3
:1074F000009005F1180050F8240000998160009870
:10750000C0F3401060B100200090009820F02000EF
:107510002030009005F1180050F824000099816097
:107520000098C0F3801070B100200090009820F007
:10753000400000E02DE04030009005F1180050F8C8
:107540002400009981600098C0F3400060B10020E1
:107550000090009820F00200801C009005F11800B7
:1075600050F82400009981600098C0F3C01080B1E9
:107570002146284600F0B4FA00200090009820F040
:1075800080008030009005F1180050F82400009928
:107590008160641C7608002E7FF44AAF0120F8BD9C
:1075A000F06600207CB504460025002001902046AE
:1075B00027F00FFC064680E006F0010000287AD094
:1075C000E9B2204627F00DFC0190019800F001007F
:1075D000C8B300200190019820F00100401C0190E8
:1075E00004F1540050F8250001998160E0780128E9
:1075F00017D104F1540050F825000069009005EB04
:10760000850104F55C7000EBC10080680099C1F34E
:107610001201411A05EB850204F55C7000EBC20013
:107620008161E9B227480068026820469047E07807
:10763000012808D13DB940F21110005D052802D1A2
:10764000204627F0A0F80198C0F3400060B1002068
:107650000190019820F00200801C019004F1540078
:1076600050F82500019981600198C0F3800060B155
:1076700000200190019820F00400001D019004F109
:10768000540050F82500019981600198C0F3C000B2
:1076900088B10C4800688168204688470020019026
:1076A000019820F008000830019004F1540050F8CF
:1076B0002500019981606D1C7608002E7FF47CAF57
:1076C00001207CBDF06600203EB50446A07A70B172
:1076D000D4F80C010090009820F00200009000986F
:1076E00020F0010000900099D4F80C010160002006
:1076F0000190019820F00100401C01902069406831
:1077000001998843216948600848006881692046DA
:10771000884700200290029820F0004000F10040CD
:1077200002900298E168486101203EBDF0660020A9
:107730007CB5044600200190019820F01000103024
:107740000190E068806901998843E1688861E06898
:10775000006A0090009800F00F0000EB800104F533
:107760005C7000EBC1050098C0F3434007282DD2A0
:10777000DFE800F02C04051D1E2C1F0027E00098F8
:10778000C0F30A1090B10098C0F30A122046E968CD
:1077900027F031FBE8680099C1F30A110844E8605A
:1077A000A8690099C1F30A110844A8610FE00EE02E
:1077B0000DE0082204F5B961204627F01CFBA869FA
:1077C0000099C1F30A110844A86100E000BF00BF9E
:1077D000E068806901990843E168886101207CBD07
:1077E00038B5044608480068C1682046884700202C
:1077F0000090009820F00800083000900098E168A0
:107800004861012038BD0000F06600203EB5044606
:107810001E480068416920468847206980680090BA
:1078200000200290029820F4006000F500600290B1
:107830000298E1684861A07A28B3009800F001003E
:1078400008B300200190019820F00100401C019035
:10785000D4F80C01006801990843D4F80C110860B1
:10786000019820F00200801C0190D4F80C010068FF
:1078700001990843D4F80C1108600548006840F0ED
:1078800006000349086001203EBD0000F0660020AC
:1078900010ED00E030B587B004460020029006905D
:1078A0000590049003900190029820F00100401C84
:1078B000029020694068029988432169486000214C
:1078C000204627F015FA00250BE0FF2104F11800EF
:1078D00050F82500816004F1540050F825008160C3
:1078E0006D1C6078A842F0D84FF0FF3120698161AB
:1078F00006986FF30F00401C0690069880B200F5C2
:107900008030069006992069C161059820F0080032
:1079100008300590059820F00100401C059005985E
:1079200020F00400001D0590059820F00200801C46
:10793000059005992069416105992069C0F8841076
:10794000049820F00100401C0490049820F00800E6
:1079500008300490049820F00200801C04900498E1
:1079600020F00400001D0490049820F02000203036
:107970000490049920690161049920694164206997
:1079800000680390039820F4FE6003900399206937
:107990000160204626F0F7FE00200190019820F4B7
:1079A000805000F5805001900198E16848610448DA
:1079B0000068016920468847012007B030BD0000FB
:1079C000F06600202DE9F04106460F463946304664
:1079D00027F026FA01214FF4897081550021401CBF
:1079E0008155002511E005EB850106F58C7000EB53
:1079F000C104012060702570E5800020E070402007
:107A0000A0600020E06060616D1C7078A842EAD838
:107A1000002510E005EB850106F55C7000EBC10464
:107A2000002060702570E580E0704020A06000209C
:107A3000E06060616D1C7078A842EBD8304626F09B
:107A4000B1FD304626F066FB0021304627F054FA9F
:107A5000304626F046FC304627F012F9BDE8F081AA
:107A600038B504460020009007480068C1692046E8
:107A70008847009820F4801000F58010009000984E
:107A8000E1684861012038BDF066002038B5044641
:107A90000020009007480068016A20468847009847
:107AA00020F4001000F5001000900098E168486193
:107AB000012038BDF066002030B5024615692B69FB
:107AC00015696C6B24FA01F505F0010543EAC5134D
:107AD00002F1180555F82150AD6805EA030030BDE4
:107AE0002DE9F84307460E4600250020009006EBDE
:107AF000860107F58C7000EBC104D4E90501451A35
:107B0000A068A84200D2A568E81C4FEA900807F1D7
:107B1000180050F82600806900901BE0D4E90501A8
:107B2000451AA068A84200D2A568E81C4FEA900850
:107B3000ABB2F2B23846E16827F005FAE0682844B3
:107B4000E060A0692844A06107F1180050F8260001
:107B500080690090009880B2404506D9D4E90510AC
:107B6000884202D260690028D8D10120BDE8F8839C
:107B700030B10749096841F00101054A116005E08B
:107B80000349096821F00101014A116070470000B2
:107B90000000055010B501F0B9F80021082000F0F0
:107BA0008FF90021102000F08BF910BD30B107498A
:107BB000096841F48041054A116005E003490968FC
:107BC00021F48041014A1160704700000000055017
:107BD0001CB501211F2018F051FC0121084618F0A6
:107BE0005DFC0D2204215D4806F0B4F80D2206214B
:107BF0005A4806F0AFF80D220621594806F0AAF8B7
:107C00000D220721564806F0A5F80D2209215348F8
:107C100006F0A0F80D220A21504806F09BF80D222C
:107C20000021504806F096F80D2201214D4806F03B
:107C300091F80D2204214B4806F08CF80D22052105
:107C4000484806F087F80D220621464806F082F8DB
:107C50005020009002208DF8040003208DF80500CC
:107C600000208DF8060001208DF8070069463B488A
:107C700006F028F8C020009002208DF804000320B0
:107C80008DF8050000208DF8060001208DF8070012
:107C90006946334806F016F84FF4C06000900220A1
:107CA0008DF8040003208DF8050000208DF80600F3
:107CB00001208DF807006946284806F003F8732074
:107CC000009002208DF8040003208DF805000020AC
:107CD0008DF8060001208DF807006946214805F05F
:107CE000F1FF0020204908804880202088808020E3
:107CF000C88040200881002048818881084600F023
:107D0000F1F80121880518F0B9FB184800F046F990
:107D10004FF00070164908601648486016488860A1
:107D20000020C8604FF420700861002048614FF4C3
:107D3000806088618000C861002008624FF4807014
:107D40004862400288620020C86203200863002065
:107D500048638863054800F0CDF91CBD000002406F
:107D60000004024000100240246B002028640240FE
:107D7000346B00202800055000F6012010B50024C7
:107D800014F0B2FC4348006900F0080000283CD021
:107D900000BF414800F0A6F8404800F0FFF8404915
:107DA0003E4800F0A7F93B48006840F4804039495C
:107DB00008600846006840F0010008603748006825
:107DC00040F001003549086000BF364800680528CA
:107DD00005D234480068401C324908600BE001219C
:107DE000102000F06DF83048007810B9FDF7CAFA9D
:107DF00001E00EF03DFB2D48007800F0010010B1CD
:107E000014F01EFA01E014F0A1F92248006900F014
:107E1000100078B310201F49486125480088401C95
:107E200023490880084600882249098888421CDDC9
:107E30001F48008820490988884216DD1C480088B0
:107E4000B0F5F07F11DB00201949088000211020D7
:107E500000F036F81948007827F0BCFB0121082013
:107E600000F02EF814F052FC10BD0F48007810B14D
:107E70000EF038FB09E00D48007800F0010010B169
:107E800014F016FB01E014F059FA14F03FFC00BFA7
:107E9000EAE7000000000550246B0020286402403F
:107EA000346B0020000600200C0600206CFF0F0839
:107EB000040600201006002018060020F705002008
:107EC00029B1074AD2680243054BDA6006E0044A4A
:107ED000D268C3439BB21A40014BDA60704700007E
:107EE0000000055000210E4A126844F201039A4333
:107EF0000B4B1A601A46116840F6F27291430288E1
:107F000043881A4383881A43C3881A4303891A4350
:107F100043891A4383891A431143014A1160704708
:107F20000000055008B501210820FFF7C9FF012115
:107F30001020FFF7C5FF4FF4C06014F0E7F84E20A3
:107F40008DF8000001208DF8010004208DF802005A
:107F500001208DF80300684614F09CF808BD00006D
:107F600010B503F0CBFF00200549086005490880E3
:107F700001210820FFF7A4FF01200349087010BD6C
:107F80000006002004060020FC050020704710B504
:107F900014F0AAFB14F0BAFB10BD0000016821F038
:107FA000010101600021016041608160C1600161E7
:107FB000212141614A49884204D13D21484A103A71
:107FC00091608CE046491831884205D14FF47461C4
:107FD000434A103A916082E041493031884205D1EC
:107FE0004FF474113E4A103A916078E03C494831B0
:107FF000884205D14FF07461394A103A91606EE0C1
:1080000037496031884204D13649354A103AD16047
:1080100065E033497831884204D13349304A103A17
:10802000D1605CE02E499031884204D12F492C4A1E
:10803000103AD16053E02A49A831884205D14FF067
:108040003D51274A103AD16049E02949884204D17C
:108050003D21274A083A116041E0254918318842FC
:1080600005D14FF47461224A083A116037E0204983
:108070003031884205D14FF474111D4A083A11601D
:108080002DE01B494831884205D14FF07461184AF0
:10809000083A116023E016496031884204D1114941
:1080A000134A121F11601AE011497831884204D135
:1080B0000D490F4A121F116011E00D49903188429D
:1080C00004D10A490A4A121F116008E00849A83180
:1080D000884204D14FF03D51054A121F116070478C
:1080E000106002403D000020400F002000003D20B5
:1080F0001064024010B500220268134B1A40CC688D
:108100000B6823434C6923438C692343CC69234385
:108110000C6A23434C6A23438C6A23434C6B2343EE
:108120008C6B23431A430260426922F00702D1E9B3
:108130000B3423431A4342610B6943604B688360ED
:108140008B68C36010BD00003F801CF01CB501218E
:10815000084618F093F94FF40050009001208DF874
:10816000040000208DF806008DF805008DF807004A
:1081700069460A4805F0A6FD4FF480400090694624
:10818000064805F09FFD4FF4004000906946034803
:1081900005F098FD00F030F81CBD0000000802401A
:1081A0001CB54FF48040009000208DF804008DF83D
:1081B000050001208DF8070000208DF806006946B3
:1081C000014805F07FFD1CBD000802401CB54FF4BE
:1081D0008040009001208DF8040000208DF80600FA
:1081E0008DF805008DF807006946024805F06AFD24
:1081F0001CBD00000008024010B5A521902029F008
:1082000055FE0A2031F0B8FD10BD00002DE9F05FE9
:1082100080460D4617464FF00009724840784045A9
:108220006DD1CB460024A24600266F480468E4B90D
:108230000AE018200AF0EAFA6B4908600846046868
:1082400014B9012015F02AFA002CF2D00020606148
:108250002560F8F73FF8814610223946201DF8F7CF
:108260005EFB4846F8F73AF848E011E02068A8427B
:108270000DD14FF0010BF8F72DF881461022394649
:10828000201DF8F74CFB4846F8F728F802E064692F
:10829000002CEBD100BFBBF1000F2FD15248046876
:1082A0004FF0000A06E02068A84202D2A2466469A4
:1082B00000E001E0002CF6D100BF07E018200AF032
:1082C000A5FA064616B9012015F0E8F9002EF5D0FA
:1082D0003560F7F7FFFF814610223946301DF8F769
:1082E0001EFB4846F7F7FAFFBAF1000F03D174619D
:1082F0003D48066002E0CAF81460746170E03948D5
:10830000807840456CD14FF0000B0024A246002637
:1083100036480468DCB90AE010200AF077FA3349DD
:1083200008600846046814B9012015F0B7F9002C5C
:10833000F2D025600020E060F7F7CCFF8146386876
:108340006060B88820814846F7F7C8FF47E011E031
:108350002068A8420CD14FF0010BF7F7BBFF814614
:1083600038686060B88820814846F7F7B7FF03E0B7
:10837000A246E468002CEBD100BFBBF1000F2ED168
:108380004FF0000A1948046806E02068A84202D2AB
:10839000A246E46800E001E0002CF6D100BF07E04F
:1083A00010200AF033FA064616B9012015F076F9C6
:1083B000002EF5D03560F7F78DFF81463868706084
:1083C000B88830814846F7F789FFBAF1000F03D12A
:1083D000F4600648066002E0CAF80C60F46000BF72
:1083E000BDE8F09FB80C06087C070020800700203D
:1083F0002DE9F04106460F464FF000083748407817
:10840000B0422FD10024002535480468056825E0D6
:108410002068B8421AD1A5420CD1F7F75BFF80461D
:108420002F49686908604046F7F758FF204619F061
:10843000FFF90AE0F7F74EFF804660696861404641
:10844000F7F74CFF204619F0F3F909E0F7F742FF80
:108450008046254664694046F7F740FF002CD7D197
:1084600000BF00BF1D488078B04235D100240025F0
:10847000F7F730FF80461B48046805684046F7F769
:108480002DFF25E02068B8421AD1A5420CD1F7F79C
:1084900021FF80461349E86808604046F7F71EFF51
:1084A000204619F0C5F90AE0F7F714FF8046E068A6
:1084B000E8604046F7F712FF204619F0B9F909E0E5
:1084C000F7F708FF80462546E4684046F7F706FFC1
:1084D000002CD7D100BF00BFBDE8F081B80C060862
:1084E0007C0700208007002070B58CB00446302245
:1084F0000D496846F8F79AFA002620880EF046FBE8
:1085000010B10198401C0190002503E05DF82500A2
:1085100006446D1CA078401EA842F7DCE0780644B3
:1085200030460CB070BD0000A07309082DE9FC5F57
:1085300004460D462088298888420FD1A078A97862
:1085400088420BD1E078E978401A0090002802DBDD
:108550000098BDE8FC9F00984042FAE720882988EF
:10856000884210D12046FFF7BFFF83462846FFF719
:10857000BBFFABEB000ABAF1000F01DB5046E8E7A6
:10858000CAF10000E5E720882988884202DD0194CD
:108590002C46019C20880EF0F9FA28B12046FFF7FE
:1085A000A3FFC0F5B77806E02046FFF79DFF40F235
:1085B0006D11A1EB00082846FFF796FF81460026C3
:1085C0002088471C09E038460EF0E0FA10B106F5A5
:1085D000B77601E006F26D167F1C2888B842F2DCFF
:1085E00008EB09003044B4E710B50248008800F0F9
:1085F00017F810BD5262002010B50248008800F044
:108600000FF810BD7062002010B50448008800F01B
:1086100007F80220FCF7D0FB10BD0000926200209A
:108620000146102901DB002070470020024A02EBBE
:108630000112107000BFF7E77039012001200149D5
:108640000870704706630020704770470020034998
:1086500008700349086003490870704702640020ED
:10866000FC6300200464002000200349086041F2FC
:1086700070700249086070478C6400208864002094
:1086800041F288300149088070470000D062002024
:1086900041F288300149088070470000D062002014
:1086A0007047704710B5024600211046244B1B68E6
:1086B0005B7F23B1224B1B685B7F012B09D100211B
:1086C00004E0435C1F4C63544B1CD9B20A29F8DB0D
:1086D00014E0037A1B4C2370437A6370C379A37050
:1086E0004379E37083792371037963710378A3710C
:1086F0004378E37183782372C37863720023114C4B
:10870000A372002107E001F10B03C45C0D4B0B3396
:108710005C544B1CD9B20529F5DB0024094B1C74B1
:10872000002107E001F11203C45C064B11335C54D5
:108730004B1CD9B20A29F5DB0024024BDC7610BDB4
:10874000A40C06082C2F012010B50246002011466B
:1087500000BF04E00B5C2A4C2354431CD8B205280C
:10876000F8DB0023264C6371264B1B685B7F23B12B
:10877000244B1B685B7F012B0BD1002006E0831D7F
:10878000CC5C1F4B9B1D1C54431CD8B20828F6DB45
:1087900011E00B7B1A4CA3714C7B194BDC710C7AEA
:1087A0001C724C7A5C728C7A9C72CC7ADC728C79FA
:1087B0001C73CC795C730024114B9C73002007E080
:1087C00000F11203CC5C0E4B0F331C54431CD8B287
:1087D0000328F5DB00240A4B9C740B7E084CE374E1
:1087E000002007E000F11B03CC5C054B14331C5444
:1087F000431CD8B20428F5DB0024014B1C7610BDC5
:1088000048300120A40C060801B502E00098401E83
:10881000009000980028F9D108BD00000146024AE6
:1088200011700120704700000663002038B504462F
:108830006A4600211548006814F0AAFA552C04D0A5
:10884000612C0BD0712C19D111E000201049088047
:108850004880888001200F49087110E000200E49EF
:1088600008804880888001200A49C87007E00020FD
:108870000A49086001200749487100E000BF00BFB5
:108880000248006814F000FB012038BD9407002066
:1088900042070020980700203C0700209007002096
:1088A00010B504463C480068A0F6030030B1022829
:1088B00031D0162844D01B285CD13CE037480068F2
:1088C00040F66D01884210D1042C01D0082C0CD147
:1088D0003348007848B906223249881DF7F7B0FFBF
:1088E000C0B101203049087014E0102C12D12C487E
:1088F000007878B906222B49881DF7F7A1FF18B137
:1089000001202949087005E02848014691F82C10FB
:1089100080F888103EE0102C0CD12548007848B92A
:108920001022244901F11000F7F78AFF10B101204D
:10893000214908702EE0102C01D10CF0F1FF29E044
:10894000102C16D11D48007898B95C22174901F106
:108950005C00F7F775FF10B101201949087010226B
:10896000184901F11000F7F76BFF10B1012014490D
:1089700008700FE0102C0CD11048007848B95C2228
:108980000A4901F15C00F7F75BFF10B101200E49C5
:10899000087000BF00BF10BDEC070020E8070020F2
:1089A00075080020442D0120740800206C2C012043
:1089B00077080020242D0120760800207908002067
:1089C00078080020502D01207208002010B54FF4C7
:1089D0000000FCF733FF88B10121C805FCF73EFF1A
:1089E00030B10BF003FB18B101201749087002E009
:1089F00000201549087001201DF02EFC1248007857
:108A000001281AD111480088401C80B20F49088003
:108A1000042817DD0E48007800F00F000F2804D05E
:108A200025F0ECFA0BA0F7F74FFD0020084908707D
:108A3000054908700549088004E0002004490870D1
:108A40000249088010BD0000DA070020DC07002082
:108A5000D907002075736220696E69740D0A0000E1
:108A6000704700000148007870470000B06B00209C
:108A70000148007870470000006C00200148007831
:108A800070470000886B00200148007870470000A4
:108A9000D86B002010B58B48007801280BD08A488D
:108AA0000078012807D089480078012803D0884839
:108AB000007801280CD1874807F076FF864807F038
:108AC0005CFF864909680A220868C82106F018FB7D
:108AD0007C48007802280BD07B480078022807D019
:108AE0007A480078022803D07948007802280CD10F
:108AF000784807F059FF784807F03FFF7749096841
:108B00000A224868C82106F0FBFA75480078012857
:108B10000CD1704807F048FF6F4807F02EFF6F49EF
:108B200009680A228868C82106F0EAFA6D480078C8
:108B3000C0EB00106C4951F8300040F69A018842B1
:108B400010D16A48007801280CD1624807F02CFF48
:108B5000614807F012FF614909680A22C868C82104
:108B600006F0CEFA6248006840F69F01884204D0C1
:108B70005F480068891E884210D15C48007801284F
:108B80000CD1544807F010FF534807F0F6FE534944
:108B900009680A220869C82106F0B2FA514800782B
:108BA000C0EB0010504901EBC000C06A40F60D0157
:108BB00088420DD14F480078012809D100204B4947
:108BC0000870464909680A228869C82106F098FA9F
:108BD00044480078C0EB0010434901EBC000C06A74
:108BE00040F60D0188420AD140480078012806D19C
:108BF0003A4909680A224869C82106F081FA3948C9
:108C00000078C0EB0010384951F8300040F6D4012C
:108C1000884210D13548007801280CD12D4807F042
:108C2000C3FE2D4807F0A9FE2C4909680A22C8692D
:108C3000C82106F065FA30480078012840D129485B
:108C40000078C0EB0010284951F8300040F673015D
:108C5000884222D023480078C0EB0010224901EB63
:108C6000C000006940F60601884216D01D48007811
:108C7000C0EB00101C4901EBC000C06A40F61801AF
:108C800088420AD017480078C0EB0010164951F806
:108C9000300040F6951188420CD1FF2007F06DFEA0
:108CA0000C4807F081FE1549096814220868502114
:108CB00006F012FA0BF026F810B900200E490870E1
:108CC00010BD000075080020770800207308002000
:108CD00079080020582E012043444700F009002065
:108CE000F7070020E4070020D85206087F0800207C
:108CF000E80700207D0800207B080020A409002050
:108D000000200149087070474065002010B5002020
:108D1000FEF74CFF0020FEF72BFF002001490870F2
:108D200010BD0000FC05002010B50121062009F04F
:108D300061FE30B1114802881148018811A0F7F78F
:108D4000C3FB0E4801880E48008802F0CFFE0128C0
:108D500009D10121062009F04DFE10B10FA0F7F74F
:108D6000B3FB012010BD0121062009F043FE10B124
:108D70000DA0F7F7A9FB0220F4E700002A6300200A
:108D800028630020B7C5B5E7B5E7C1F73D25642CDA
:108D9000CAB1BCE43D25640D0A000000B7C5B5E7C3
:108DA000CDEAB3C90D0A0000B7C5B5E7CAA7B0DC64
:108DB0000D0A000001460888094A10804888094ABF
:108DC00010800748008840F6FA72904203DC04489D
:108DD0000088002801DA002070470120FCE700002D
:108DE00060610020626100202DE9F05F81460F463E
:108DF00014464FF00008C34601202D49087014F0B6
:108E000085FC2C490860484602F07CFF012002F0F6
:108E10003FFF2948006890F85200D0B90AF032F8B4
:108E20000A280CDA09F09EFE042808DA0AF09AF8FB
:108E3000F0EE000AB4EEE00AF1EE10FA02DB2D25A6
:108E40000D260CE01D480068457A1C480068067A2B
:108E500005E01A480068457A18480068067ACDB1DE
:108E6000C6B14FF47A70604390FBF5F01FFA80F8BA
:108E700013488068C16800EE104AB8EE400A4046C8
:108E800088470F48C068C16800EE104AB8EE400A33
:108E900040468847052097FBF0F01FFA80FA5046BD
:108EA00014F0FCFB002002F0F3FEBDE8F09F000090
:108EB0005063002054630020A40C0608A80C060888
:108EC000500600202DE9F0474FF000092E480068B9
:108ED00090F8520070BB09F0D5FF0A280CDA09F0AF
:108EE00041FE042808DA0AF03DF8F0EE000AB4EE7C
:108EF000E00AF1EE10FA0CDB2448006844884FF4D5
:108F0000967522480068C68840F6B8374FF00D08BD
:108F100020E01E48006844881C48006805881B48FB
:108F20000068C6881948006887881848006890F863
:108F300008800FE0154800684488144800680588D8
:108F400012480068C6881148006887880F48006882
:108F500090F808802946204616F03EFC10B9022001
:108F6000BDE8F0870A480088404482B2394630465E
:108F7000FFF73AFF054A12689189044A1268D089BE
:108F80001BF07EFF0120EBE7A40C0608A80C0608E6
:108F90003C63002010B536480068407F0F285DD242
:108FA000DFE800F0080F161D242B323940474E5CD5
:108FB0005C5C55000023502214212EA005F0C8FB54
:108FC00053E00023502214212EA005F0C1FB4CE0F9
:108FD0000023502214212FA005F0BAFB45E0002306
:108FE000502214212FA005F0B3FB3EE000235022B5
:108FF000142130A005F0ACFB37E0002350221421EF
:1090000030A005F0A5FB30E000235022142131A050
:1090100005F09EFB29E000235022142131A005F029
:1090200097FB22E000235022142132A005F090FB90
:109030001BE000235022142132A005F089FB14E02C
:1090400000235022142134A005F082FB0DE0002300
:109050005022142135A005F07BFB06E000235022AE
:10906000142104A005F074FB00BF00BF10BD000078
:10907000A40C0608303A2F4C4F474F2F4162312E37
:10908000626D7000303A2F4C4F474F2F4162322EA5
:10909000626D7000303A2F4C4F474F2F4162332E94
:1090A000626D7000303A2F4C4F474F2F4162342E83
:1090B000626D7000303A2F4C4F474F2F4162352E72
:1090C000626D7000303A2F4C4F474F2F4162362E61
:1090D000626D7000303A2F4C4F474F2F4162372E50
:1090E000626D7000303A2F4C4F474F2F4162382E3F
:1090F000626D7000303A2F4C4F474F2F4162392E2E
:10910000626D7000303A2F4C4F474F2F4162313023
:109110002E626D7000000000303A2F4C4F474F2FE9
:10912000416231312E626D7000000000303A2F4CE8
:109130004F474F2F416231352E626D7000000000A5
:1091400010B5044612480078052816D2DFE800F072
:109150000307080C11001D201DF0FEF80EE00DE0C5
:109160001F201DF0F9F809E048F220001DF0F4F886
:1091700004E021201DF0F0F800E000BF00BF4FF434
:10918000C87014F08BFA1C201DF0E6F8012010BD09
:10919000306100200120704710B50AF0B3FD04468D
:1091A0002B480078012804D01CB12A4800780128F7
:1091B00017D129480078012813D10021C006FCF7F7
:1091C0004DFB70B94FF6FF7007F0D7FB234807F04F
:1091D000EBFB234909685A22086840F2B71105F0F1
:1091E0008FFF2048007870B3012C01D0042C2BD1C4
:1091F0004FF6FF7007F0C1FB1B4800780A2809DB17
:109200009B214FF4D17006F055FA1748007805F00D
:10921000AFFE08E09B214FF4D57006F04BFA1248E0
:10922000007805F0A5FE9B224FF4DA710FA005F03F
:1092300053FF9B2140F2BB1006F03CFA0C4800782B
:1092400005F096FE03E0FFE700200749087010BD17
:10925000B2650020CC08002097630020582E012022
:109260005C0A00204D6100204E6100202F000000AC
:109270004F61002010B50AF045FD082803D11720E2
:109280001DF06AF802E018201DF066F8322014F094
:1092900005FA012010BD0000F0B58FB0202107A80D
:1092A000F7F720FC002500260027002004900590F9
:1092B00006900190029003900AF098F9C4B20D2C28
:1092C00001D165480478022007F0CAFB634807F023
:1092D00054FB634807F068FB0F2C76D2DFE804F0FC
:1092E000B6767EB6868E08090A0B969EA6B6AE00A6
:1092F00000BF00BF00BF5A4807F056FB062C07D13D
:109300005849096802220868574905F013FF15E01B
:10931000072C07D15349096802224868524905F0D1
:1093200009FF0BE0082C02D001D0092C06D14D49D1
:109330000968022288684C4905F0FCFE4B48006829
:10934000407F082803D1464807F02EFB02E048483A
:1093500007F02AFB454909684979464A126852F8DC
:1093600021002322042105F0B7FE2322292142A057
:1093700005F0C6FE2321322006F09CF93B4909681E
:10938000C88805F0F5FD3D49096809783C4A12682E
:1093900052F821003C22042105F09EFE3C221E21B1
:1093A00035A005F0ADFE3C21252006F083F93349B8
:1093B0000968487805F0DCFD3C22402131A005F029
:1093C0009FFE274807F0F0FA41E03FE02E49096888
:1093D0000F220868282105F093FE38E02B49096820
:1093E0000F220868282105F08BFE30E02849096823
:1093F0000F220868282105F083FE28E02549096826
:109400000F220868282105F07BFE20E02249096828
:109410000F220868282105F073FE18E01149096839
:109420000F22C868282105F06BFE10E00D4909687D
:109430000F220869282105F063FE08E01749096832
:109440000F220868282105F05BFE00E000BF00BF86
:10945000014804700FB0F0BDCE080020DDDDDC0057
:10946000582E012014090020AE080020A40C060884
:10947000D0BD0908D00900202D000000AC0C060862
:10948000C80900206D6D00001C090020180900208B
:109490002409002028090020400A0020440A002056
:1094A00010B573480AF09EFB724807F07DFA462219
:1094B0004FF4CB7170A005F00FFE5C224FF4CB711E
:1094C0006EA005F009FE72224FF4CB716CA005F07E
:1094D00003FE88224FF4CB716AA005F0FDFDAF2298
:1094E0004FF4CB7169A005F0F7FD6FF07F4007F0F6
:1094F00044FA46214FF4D97006F0DCF85C48D0ED10
:10950000040AB0EE600A0221042005F045FD5C214A
:109510004FF4D97006F0CEF85548D0ED050AB0EEFC
:10952000600A0221042005F037FD72214FF4D97042
:1095300006F0C0F84E48D0ED070AB0EE600A0221EE
:10954000042005F029FD9E2140F29F1006F0B2F89C
:109550004748D0ED060AB0EE600A0221042005F06B
:109560001BFDC52140F29F1006F0A4F84048D0ED45
:10957000080AB0EE600A0221042005F00DFD9E22CB
:1095800040F2C91143A005F0A7FDC52240F2C91160
:1095900041A005F0A1FD414807F006FA40490968DD
:1095A0004622C8684FF4EB7105F096FD3C49096806
:1095B0005C22C8684FF4EB7105F08EFD38490968EC
:1095C0007222C8684FF4EB7105F086FD294807F058
:1095D000EBF96FF07F4007F0D0F92549087A0223B4
:1095E000EE2240F29F1105F0B2FC2149487A022395
:1095F000EE224FF4DD7105F0AAFC2A480068407F96
:1096000020B128480068407F012810D11849887986
:109610000223FD2240F29F1105F099FC1449C879FC
:109620000223FD2240F2BD1105F091FC0FE010492C
:10963000C8790223FD2240F29F1105F088FC0C49F5
:1096400088790223FD2240F2BD1105F080FCEE2254
:1096500040F2B3110EA005F03FFDFD2240F2B5111E
:1096600011A005F039FD6FF07F4007F086F910BDBD
:1096700064300120D0BD09084C203A0052203A0045
:1096800041203A004F66667365743A004C6F7373FD
:109690003A000000756D00006442000024100708C5
:1096A000CC090020A40C06082D00000000B58DB0E8
:1096B00050200C90FA4807F077F9FA4807F05DF966
:1096C000F948008848F21202811A90427ED06FDC7D
:1096D0002D287CD031DC2D2881F07882DFE810F055
:1096E000760AEC0000010A011501760A760A760A6C
:1096F000760A760A760A760A760A760A760A760A6A
:10970000760A760A760A760A760A760AF0056F06EF
:1097100082069506A806BB06CE06D806E206EC062B
:10972000760A12071C07260730073A07760A6007F1
:109730006A077407760A9A07A40748F20602811A94
:10974000904275D024DC362800F0FF870BDCA0F1B6
:109750002F000628C0D2DFE810F09707AA07B40749
:10976000BE07C807D2074E2801F04A8107DC4B2804
:1097700001F028814C2841F0298201F02DB95528AB
:1097800001F04881A0F5004005380028F3D165E1DB
:109790000C29A1D2DFE811F01A0A7901A401AE0167
:1097A00008026202BC023A0544054E0558056205EE
:1097B000352901F0938033DC292901F003801FDC77
:1097C0001C2974D011DC0E2972D001E0FDE3FDE309
:1097D00006DC01296DD002296CD00329CBD1F6E338
:1097E000142968D01829C6D1F2E323390629B1D249
:1097F000DFE811F09807EC09C007CA07D407DE07B5
:109800002A390B29A6D2DFE811F0E707F107FB0799
:1098100005080F081908230841084B0855085F0878
:109820004B2971D01CDCA1F13601152992D200E040
:1098300021E1DFE811F0A908B308BD08CB09CB0985
:10984000DB08CB09CB09CB09CB09CB09CB09CB0969
:10985000CB095D08E102EC02F7026903D4033F047F
:109860005B2901F07B8010DC582901F0568005DC73
:109870004C297DD0572989D101F044B8592901F0EC
:1098800057805A29AAD101F05EB87E2900F0EA87F4
:1098900006DC5C2901F06D806E299FD101F07AB958
:1098A000802900F0E987812998D101F081B9FCE392
:1098B000FCE3FCE3FCE3FCE37C4800680068E12295
:1098C0004FF4DC71009005F01BFC7848006840689C
:1098D000F5224FF4DC71009005F012FC01F077B92D
:1098E000724800688068E1224FF4DC71009005F056
:1098F00007FCF3E76D480068006AE1224FF4DC7171
:10990000009005F0FDFBE9E7FEE3684800680069A8
:10991000F5224FF4DC71009005F0F2FB01A80AF08B
:1099200089F9634807F040F846224FF4CB7161A0F3
:1099300005F0D2FB5C224FF4CB715FA005F0CCFBAD
:1099400072224FF4CB715DA005F0C6FB88224FF464
:10995000CB715BA005F0C0FBAF224FF4CB715AA0D6
:1099600005F0BAFB6FF07F4007F007F8462100E0F2
:10997000FEE34FF4D97005F09DFE9DED050A8DEDD7
:10998000000A022104209DED000A05F005FB5C2180
:109990004FF4D97005F08EFE9DED060A8DED000A9C
:1099A000022104209DED000A05F0F6FA72214FF421
:1099B000D97005F07FFE9DED080A8DED000A0221A9
:1099C00004209DED000A05F0E7FA9E2140F29F1069
:1099D00005F070FE9DED070A8DED000A02210420BE
:1099E0009DED000A05F0D8FAC52140F29F1005F060
:1099F00061FE9DED090A8DED000A022104209DED16
:109A0000000A05F0C9FA9E2240F2C91130A005F003
:109A100063FBC52240F2C9112EA005F05DFB2E4864
:109A200006F0C2FF2D480068C06846224FF4EB7173
:109A3000009005F051FB29480068C0685C224FF493
:109A4000EB71009005F048FB24480068C068722262
:109A50004FF4EB71009005F03FFB3FE7FF2006F06D
:109A60008CFF12480068C069AF224FF4DC7100908F
:109A700005F046FB32E70D480068C06EAF224FF498
:109A8000DC71009005F03CFB28E708480068006F97
:109A9000AF224FF4DC71009005F032FB1EE70000AE
:109AA000582E0120DDDDDC00A80800202C09002054
:109AB000D0BD09084C203A0052203A0041203A001B
:109AC0004F66667365743A004C6F73733A0000001A
:109AD000756D00006442000024100708CC090020C6
:109AE000FE480068406FAF224FF4DC71009005F033
:109AF00007FBF3E6F9480068C06BAF224FF4DC7156
:109B0000009005F0FDFA01A80AF094F8F44806F078
:109B10004BFF4B224FF4CB71AFF2680005F0DCFA3B
:109B200064224FF4CB71AFF2700005F0D5FA6FF0FC
:109B30007F4006F022FF4B214FF4D97005F0BAFDAB
:109B40009DED050A8DED000A022104209DED000A1D
:109B500005F022FA64214FF4D97005F0ABFD9DEDBC
:109B6000060A8DED000A022104209DED000A05F091
:109B700013FA7D214FF4D97005F09CFDD94806F009
:109B800013FFD9480068C0684B224FF4EB71009076
:109B900005F0A2FAD4480068C06864224FF4EB7163
:109BA000009005F099FA99E6CC480068006CAF2265
:109BB0004FF4DC71009005F0A3FA01A80AF03AF81E
:109BC000C74806F0F1FE4B224FF4CB71AFF21C10E8
:109BD00005F082FA64224FF4CB71AFF2241005F045
:109BE0007BFA6FF07F4006F0C8FE4B214FF4D9702E
:109BF00005F060FD9DED050A8DED000A02210420AF
:109C00009DED000A05F0C8F964214FF4D97005F004
:109C100051FD9DED060A8DED000A022104209DED07
:109C2000000A05F0B9F97D214FF4D97005F042FD25
:109C3000AC4806F0B9FEAC480068C0684B224FF44F
:109C4000EB71009005F048FAA7480068C0686422EC
:109C50004FF4EB71009005F03FFA3FE69F48006833
:109C6000406CAF224FF4DC71009005F049FA01A876
:109C700009F0E0FF9A4806F097FE4B224FF4CB71B3
:109C8000AFF2D01005F028FA64224FF4CB71AFF296
:109C9000D81005F021FA6FF07F4006F06EFE4B21E0
:109CA0004FF4D97005F006FD9DED050A8DED000A13
:109CB000022104209DED000A05F06EF964214FF4A5
:109CC000D97005F0F7FC9DED060A8DED000A022122
:109CD00004209DED000A05F05FF97D214FF4D97055
:109CE00005F0E8FC7F4806F05FFE7F480068C0682A
:109CF0004B224FF4EB71009005F0EEF97A480068C2
:109D0000C06864224FF4EB71009005F0E5F9E5E5D9
:109D100072480068806CAF224FF4DC71009005F04F
:109D2000EFF901A809F086FF6D4806F03DFE4B22D1
:109D30004FF4CB71AFF2842005F0CEF964224FF4DA
:109D4000CB71AFF28C2005F0C7F97D224FF4CB71B7
:109D5000AFF2982005F0C0F96FF07F4006F00DFEDD
:109D60004B214FF4D97005F0A5FC9DED050A8DED52
:109D7000000A022104209DED000A05F00DF964217E
:109D80004FF4D97005F096FC9DED060A8DED000AA2
:109D9000022104209DED000A05F0FEF87D214FF41C
:109DA000D97005F087FC9DED080A8DED000A0221AF
:109DB00004209DED000A05F0EFF84A4806F0F4FD96
:109DC00049480068C0684B224FF4EB71009005F0E1
:109DD00083F945480068C06864224FF4EB71009035
:109DE00005F07AF940480068C0687D224FF4EB71B5
:109DF000009005F071F971E538480068D0F88000EE
:109E0000AF224FF4DC71009005F07AF966E5334833
:109E10000068D0F88400AF224FF4DC71009005F0A8
:109E20006FF95BE52D480068C06BAF224FF4DC7121
:109E3000009005F065F901A809F0FCFE284806F03D
:109E4000B3FD4B224FF4CB71AFF2983005F044F9DB
:109E500064224FF4CB71AFF2A03005F03DF96FF002
:109E60007F4006F08AFD4B214FF4D97005F022FCAB
:109E70009DED050A8DED000A022104209DED000AEA
:109E800005F08AF864214FF4D97005F013FC9DEDBC
:109E9000060A8DED000A022104209DED000A05F05E
:109EA0007BF87D214FF4D97005F004FC0D4806F0D5
:109EB0007BFD0D480068C0684B224FF4EB710090A9
:109EC00005F00AF908480068C06864224FF4EB7195
:109ED000009005F001F905480AE000002C09002077
:109EE000D0BD090824100708CC090020582E0120F5
:109EF00006F05AFDFE480068C06FF5224FF4DC7191
:109F0000009005F0FDF8E9E4F9480068006CAF2224
:109F10004FF4DC71009005F0F3F801A809F08AFE17
:109F2000F44806F041FD4B224FF4CB71AFF27C4078
:109F300005F0D2F864224FF4CB71AFF2844005F003
:109F4000CBF86FF07F4006F018FD4B214FF4D9702D
:109F500005F0B0FB9DED050A8DED000A02210420FD
:109F60009DED000A05F018F864214FF4D97005F052
:109F7000A1FB9DED060A8DED000A022104209DED56
:109F8000000A05F009F87D214FF4D97005F092FB25
:109F9000D94806F009FDD9480068C0684B224FF443
:109FA000EB71009005F098F8D4480068C06864220E
:109FB0004FF4EB71009005F08FF8D14806F0F4FCF7
:109FC000CB480068C06FF52203E051E13FE36DE14B
:109FD0000DE34FF4DC71009005F092F87EE4C44884
:109FE0000068406CAF224FF4DC71009005F088F8F7
:109FF00001A809F01FFEBF4806F0D6FC4B224FF423
:10A00000CB71AFF2505005F067F864224FF4CB717A
:10A01000AFF25C5005F060F86FF07F4006F0ADFCE9
:10A020004B214FF4D97005F045FB9DED050A8DEDF0
:10A03000000A022104209DED000A04F0ADFF642116
:10A040004FF4D97005F036FB9DED060A8DED000A40
:10A05000022104209DED000A04F09EFF7D214FF4B3
:10A06000D97005F027FBA44806F09EFCA3480068C1
:10A07000C0684B224FF4EB71009005F02DF89F481B
:10A080000068C06864224FF4EB71009005F024F87A
:10A090009B4806F089FC96480068C06FF5224FF493
:10A0A000DC71009005F02CF818E4DAE217E2E9E040
:10A0B000F2E062E28E480068806CAF224FF4DC71FF
:10A0C000009005F01DF801A809F0B4FD894806F0DC
:10A0D0006BFC4B224FF4CB71AFF2286004F0FCFF15
:10A0E00064224FF4CB71AFF2306004F0F5FF7D22B3
:10A0F0004FF4CB71AFF23C6004F0EEFF6FF07F40A5
:10A1000006F03BFC4B2100E058E04FF4D97005F01D
:10A11000D1FA9DED050A8DED000A022104209DED86
:10A12000000A04F039FF64214FF4D97005F0C2FA37
:10A130009DED060A8DED000A022104209DED000A26
:10A1400004F02AFF7D214FF4D97005F0B3FA9DED9C
:10A15000080A8DED000A022104209DED000A04F09A
:10A160001BFF654806F020FC64480068C06800E0FA
:10A1700038E04B224FF4EB71009004F0ADFF5F48E4
:10A180000068C06864224FF4EB71009004F0A4FFF3
:10A190005A480068C0687D224FF4EB71009004F0CB
:10A1A0009BFF574806F000FC51480068C06FF5223D
:10A1B0004FF4DC71009004F0A3FF4EE44C480068BB
:10A1C000D0F88000AF224FF4DC71009004F098FFCB
:10A1D00047480068C06FF5224FF4DC71009004F02E
:10A1E0008FFF3AE442480068D0F88400AF224FF471
:10A1F000DC71009004F084FF3D480068C06FF522D8
:10A200004FF4DC71009004F07BFF26E438480068CE
:10A21000006BAF224FF4DC71009004F071FF1CE47E
:10A2200033480068406BAF224FF4DC71009004F0BB
:10A2300067FF12E42E480068806BAF224FF4DC7198
:10A24000009004F05DFF08E429480068406AAF22EE
:10A250004FF4DC71009004F053FF0BE424480068D5
:10A26000806AAF224FF4DC71009004F049FF0BE4E8
:10A270001F480068C06AAF224FF4DC71009004F000
:10A280003FFF0BE41A480068006E7D224FF4DC713A
:10A29000009004F035FF2CE415480068406E7D22E4
:10A2A0004FF4DC71009004F02BFF22E410480068AA
:10A2B000806E7D224FF4DC71009004F021FF18E4E1
:10A2C0000B480068C068E1224FF4DC71009004F094
:10A2D00017FF01A809F0AEFC064806F065FB4B220B
:10A2E0004FF4CB71AFF6340004F0F6FE642209E0BF
:10A2F0002C090020D0BD090824100708CC09002033
:10A30000582E01204FF4CB71AFF6540004F0E4FE58
:10A310007D224FF4CB71AFF65C0004F0DDFE6FF0F0
:10A320007F4006F02AFB4B214FF4D97005F0C2F9AB
:10A330009DED050A8DED000A022104209DED000A25
:10A3400004F02AFE64214FF4D97005F0B3F99DEDB5
:10A35000060A8DED000A022104209DED000A04F09A
:10A360001BFE7D214FF4D97005F0A4F99DED080A7C
:10A370008DED000A022104209DED000A04F00CFE80
:10A38000F74806F011FBF7480068C0684B224FF40D
:10A39000EB71009004F0A0FEF2480068C0686422EF
:10A3A0004FF4EB71009004F097FEEE480068C0682F
:10A3B0007D224FF4EB71009004F08EFE4DE4EA48EC
:10A3C0000068C06BC8224FF4DC71009004F098FE66
:10A3D000E6480068806DF5224FF4DC71009004F0CF
:10A3E0008FFEF4E3E0480068006CC8224FF4DC7193
:10A3F000009004F085FEDD480068806DF5224FF482
:10A40000DC71009004F07CFEE1E3D7480068C06B8B
:10A41000C8224FF4DC71009004F072FED34800684B
:10A420008068F5224FF4DC71009004F069FECEE301
:10A43000CD480068006CC8224FF4DC71009004F035
:10A440005FFECA4800688068F5224FF4DC71009016
:10A4500004F056FEBBE3C54800680068C8224FF40C
:10A46000DC71009004F04CFEC0480068806DF5225D
:10A470004FF4DC71009004F043FEA8E3BA48006892
:10A480000068F5224FF4DC71009004F039FE9EE381
:10A49000B54800684068AF224FF4DC71009004F0CA
:10A4A0002FFE94E3B04800688068AF224FF4DC715F
:10A4B000009004F025FE8AE3AB480068C068C8221B
:10A4C0004FF4DC71009004F01BFEA748006840695F
:10A4D000F5224FF4DC71009004F012FE77E3A248FD
:10A4E00000680069AF224FF4DC71009004F008FEB0
:10A4F0009D4800684069F5224FF4DC71009004F03B
:10A50000FFFD64E39A4800680068AF224FF4DC71F5
:10A51000009004F0F5FD5AE3954800684068AF22CA
:10A520004FF4DC71009004F0EBFD50E38F480068BD
:10A53000806DF5224FF4DC71009004F0E1FD46E3FC
:10A5400089480068406AF5224FF4DC71009004F0FD
:10A55000D7FD3CE384480068806AC8224FF4DC7170
:10A56000009004F0CDFD804800684069F5224FF46A
:10A57000DC71009004F0C4FD29E37B480068C06AE8
:10A58000AF224FF4DC71009004F0BAFD7648006809
:10A590004069F5224FF4DC71009004F0B1FD16E340
:10A5A00072480068806DF5224FF4DC71009004F071
:10A5B000A7FD0CE36D4800688068F5224FF4DC715C
:10A5C000009004F09DFD02E367480068006BC8221C
:10A5D0004FF4DC71009004F093FD6348006840691B
:10A5E000F5224FF4DC71009004F08AFDEFE25E4842
:10A5F0000068406BAF224FF4DC71009004F080FDE6
:10A60000594800684069F5224FF4DC71009004F06D
:10A6100077FDDCE25648006880687D224FF4DC71EB
:10A62000009004F06DFDD2E2504800680068E1221D
:10A630004FF4DC71009004F063FD4C480068806DBD
:10A64000F5224FF4DC71009004F05AFDBFE2464859
:10A6500000688069F5224FF4DC71009004F050FD31
:10A66000B5E241480068C069AF224FF4DC71009048
:10A6700004F046FD3C4800684069F5224FF4DC7167
:10A68000009004F03DFDA2E237480068006AC8224D
:10A690004FF4DC71009004F033FD334800684069EA
:10A6A000F5224FF4DC71009004F02AFD8FE230486F
:10A6B0000068C068AF224FF4DC71009004F020FD08
:10A6C00085E22A480068806DF5224FF4DC71009025
:10A6D00004F016FD7BE2244800680068F5224FF480
:10A6E000DC71009004F00CFD71E21F480068006FFF
:10A6F000AF224FF4DC71009004F002FD67E21A48CB
:10A700000068C068C8224FF4DC71009004F0F8FCC7
:10A71000154800684069F5224FF4DC71009004F0A0
:10A72000EFFC54E2104800680069AF224FF4DC717E
:10A73000009004F0E5FC0C4800684069F5224FF4F5
:10A74000DC71009004F0DCFC41E207480068806B9B
:10A75000AF224FF4DC71009004F0D2FC37E200002D
:10A7600024100708CC090020300900202C09002003
:10A77000040A0020FD4800680068AF224FF4DC7135
:10A78000009004F0BDFC22E2F94800684068AF2266
:10A790004FF4DC71009004F0B3FC18E2F448006858
:10A7A000C068AF224FF4DC71009004F0A9FC0EE207
:10A7B000EF4800684069AF224FF4DC71009004F06C
:10A7C0009FFC04E2EA4800688069AF224FF4DC7124
:10A7D000009004F095FCFAE1E5480068C069AF22FA
:10A7E0004FF4DC71009004F08BFCF0E1E14800686C
:10A7F000C06CAF224FF4DC71009004F081FCE6E104
:10A80000DB4800680068AF224FF4DC71009004F070
:10A8100077FCDCE1D64800680069AF224FF4DC71B8
:10A82000009004F06DFCD2E1D2480068006DAF22C8
:10A830004FF4DC71009004F063FCC8E1CD4800687F
:10A84000806DAF224FF4DC71009004F059FCBEE142
:10A85000C8480068806E7D224FF4DC71009004F0DF
:10A860004FFCB4E1C3480068406F7D224FF4DC71B7
:10A87000009004F045FCAAE1BE480068806F7D228C
:10A880004FF4DC71009004F03BFCA0E1B948006893
:10A89000806CAF224FF4DC71009004F031FC96E143
:10A8A000B5480068C06CAF224FF4DC71009004F032
:10A8B00027FC8CE1B0480068006DAF224FF4DC71DA
:10A8C000009004F01DFC82E1AA480068406D7D22E2
:10A8D0004FF4DC71009004F013FC78E1A6480068A6
:10A8E000C06DAF224FF4DC71009004F009FC6EE102
:10A8F000A1480068806FAF224FF4DC71009004F033
:10A90000FFFB64E19C480068D0F888007D224FF48A
:10A91000DC71009004F0F4FB59E197480068D0F82E
:10A920008C007D224FF4DC71009004F0E9FB4EE1D5
:10A9300091480068D0F890007D224FF4DC710090BF
:10A9400004F0DEFB43E18C480068D0F894007D22DF
:10A950004FF4DC71009004F0D3FB38E186480068C6
:10A96000D0F898007D224FF4DC71009004F0C8FB11
:10A970002DE181480068D0F89C007D224FF4DC7105
:10A98000009004F0BDFB22E17A480068406CAF22E1
:10A990004FF4DC71009004F0B3FB18E175480068D7
:10A9A000C06DAF224FF4DC71009004F0A9FB0EE102
:10A9B00070480068406EAF224FF4DC71009004F0E4
:10A9C0009FFB04E16D4800680069E1224FF4DC71EF
:10A9D000009004F095FBFAE0684800684069E122C5
:10A9E0004FF4DC71009004F08BFBF0E061480068EC
:10A9F000C06EAF224FF4DC71009004F081FBE6E002
:10AA00005C4800684069E1224FF4DC71009004F07A
:10AA100077FBDCE0584800684069E1224FF4DC71C4
:10AA2000009004F06DFB01A809F004F9544805F00A
:10AA3000BBFF46224FF4CB71AFF6887004F04CFB9D
:10AA40005C224FF4CB71AFF6907004F045FB72229C
:10AA50004FF4CB71AFF69C7004F03EFB88224FF4AC
:10AA6000CB71AFF6A47004F037FBAF224FF4CB717B
:10AA7000AFF6AC7004F030FB6FF07F4005F07DFF67
:10AA800046214FF4D97004F015FE9DED050A8DEDB9
:10AA9000000A022104209DED000A04F07DFA5C21E9
:10AAA0004FF4D97004F006FE9DED060A8DED000A04
:10AAB000022104209DED000A04F06EFA72214FF489
:10AAC000D97004F0F7FD9DED080A8DED000A022112
:10AAD00004209DED000A04F05FFA9E2140F29F10D1
:10AAE00004F0E8FD9DED070A8DED000A0221042027
:10AAF0009DED000A04F050FAC52140F29F1004F0C9
:10AB0000D9FD9DED090A8DED000A022104209DED7D
:10AB1000000A04F041FA9E2240F2C91119A004F083
:10AB2000DBFAC52240F2C91117A004F0D5FA174884
:10AB300005F03AFF16480068C06846224FF4EB71F2
:10AB4000009004F0C9FA12480068C0685C224FF413
:10AB5000EB71009004F0C0FA0D480068C0687222E2
:10AB60004FF4EB71009004F0B7FA30E0000A0020D7
:10AB700034090020300900202C090020040A00209C
:10AB8000D0BD0908756D000064420000241007085C
:10AB9000CC090020FF2005F0F0FE0E480068D0F838
:10ABA000A000AF224FF4DC71009004F0A9FA0EE08F
:10ABB0004FF6FF7005F0E1FE074800680069692262
:10ABC0004FF4DC71009004F09BFA00E000BF00BF7E
:10ABD0000DB000BD2C0900205C0A002070B50646AF
:10ABE0000D4600243288281918A1F5F779FC641D58
:10ABF000B278281917A1F5F773FCE41CF27828192C
:10AC000016A1F5F76DFCE41C3279281915A1F5F7AA
:10AC100067FCE41C7279281914A1F5F761FC241D66
:10AC2000281914A214A1F5F75BFCA01CC4B22819C2
:10AC300012A1B268F5F754FC04F10800C4B2281957
:10AC400010A20DA1F5F74CFC002070BD2530346436
:10AC50002D000000253032642D00000025303264C4
:10AC600020000000253032643A00000025303264B4
:10AC7000202000003078000025730000253038586F
:10AC8000000000000D0A000070B52DED048B88B0A7
:10AC900004460D4694ED080A10EE101A084634F0EA
:10ACA00081FD41EC180B94ED070A10EE101A0846CE
:10ACB00034F078FD41EC190BA088642190FBF1F28F
:10ACC00001FB12068DED068B207B04908DED029B1F
:10ACD000E079A179CDE90010334605A12846226824
:10ACE000F5F7FEFB002008B0BDEC048B70BD000042
:10ACF0002530356420253032642D253032642D25F1
:10AD000030326420202025342E3166202020256416
:10AD1000202025342E32660D0A0000002DE9F04770
:10AD20002DED028B4FF0000800240026002509F0CD
:10AD30000DF81FFA80F900BF11E0C8EB0810FE49BA
:10AD400051F83000FD490978C1EBC101FC4A02EB22
:10AD5000C1018969884200D103E008F10108C845B2
:10AD6000EBDB00BF08F0F2FFF6490978884239D1E1
:10AD7000F2480078C0EBC000F14901EBC000007F51
:10AD8000062814DCED490978C1EBC101EC4A52F800
:10AD9000310007F00FFF0546E8480078C0EBC0001F
:10ADA000E74901EBC000007FE74908704FE0E34945
:10ADB0000978C1EBC101E24A52F8310007F0FAFE0E
:10ADC000801DE2490988884205DBE04805880620A5
:10ADD000DD4908703BE0DD480088451F0620DA4960
:10ADE000087034E0D7480078C0EB0010D24901EB7E
:10ADF000C00090F83000062814DC4546D349A1F87D
:10AE00000080D0480078C0EB0010CB4901EBC000B7
:10AE100090F83070CC480078062818DD0620CA4922
:10AE2000087014E0C7480078C0EB0010C24901EB7D
:10AE3000C00090F83000062809DDC2480078401FA5
:10AE40000546C24908800620BF490870062702202F
:10AE500005F006FEB9490978C1EBC101B84A02EB19
:10AE6000C101086B05F089FD00246DE2B84805F0CA
:10AE70009BFDB84890F8790007281AD12919C1EB31
:10AE80000111AD4B03EBC101496809682B19C3EBF4
:10AE90000313DFF8A4C20CEBC3031B7A51F82300A1
:10AEA000C4EB0411522303EB4102192104F014F9FD
:10AEB00019E02919C1EB01119F4B03EBC10149684E
:10AEC00009682B19C3EB0313DFF86CC20CEBC30347
:10AED0001B7A51F82300C4EB0411572303EB410202
:10AEE000192104F0F9F82819C0EB0010924901EB80
:10AEF000C000C06C00287CD02819C0EB001001EB0A
:10AF0000C000406B00782919C1EB01118A4A02EB9D
:10AF1000C101B1F85010884210D02819C0EB0010C0
:10AF2000114601EBC000406B00882919C1EB0111EB
:10AF300002EBC101B1F85010884266D100260FE043
:10AF4000C6EB06107C4951F830002919C1EB0111FC
:10AF5000794A02EBC101C96C884200D102E0761C3B
:10AF60004E45EDDB00BFC6EB0610734901EBC00098
:10AF7000406DB0B1784805F017FD72480078C0EB1D
:10AF800000106D4901EBC00090F83000401EC0EB8E
:10AF90000010572101EB40024FF48C716F4804F010
:10AFA000AFF8C6EB0610644901EBC000C06D002885
:10AFB0002AD0674805F0F8FCC6EB06105E4901EBA5
:10AFC000C00090F86400C6EB06115B4A02EBC101B9
:10AFD000096E0870C6EB0611134603EBC101C96D7B
:10AFE0000968C6EB061394460CEBC3031B6E1B7873
:10AFF00000E00AE051F82300C4EB0411572303EBEF
:10B000004102DC2104F068F89DE12819C0EB001032
:10B01000494901EBC000406B00281DD0504805F0A5
:10B02000C3FCC4EB0410572202EB4001DC2004F007
:10B0300041FB2819C0EB00103F4901EBC00090F81C
:10B04000380050B92919C1EB01113B4A02EBC1018B
:10B05000496B088803F08CFF9EE02819C0EB0010B4
:10B06000354901EBC00090F8380003282DD128198C
:10B07000C0EB001001EBC00090F8740001280CD167
:10B080002819C0EB001001EBC000406BD0ED000AA6
:10B09000B0EE600A012003F082FF2819C0EB001017
:10B0A000254901EBC00090F87400022874D12819DA
:10B0B000C0EB001001EBC000406BD0ED000AB0EE19
:10B0C000600A022003F06BFF66E02819C0EB001055
:10B0D000194901EBC00090F83800022848D128191E
:10B0E000C0EB001001EBC000806C01280AD12919C7
:10B0F000C1EB0111104A02EBC101496B088803F052
:10B1000037FF49E02819C0EB00100B4901EBC000E4
:10B11000406B008800EE100AF8EE400A2819C0EBD8
:10B12000001001EBC00090ED120AB8EEC00A80EEEC
:10B13000801AB0EE418A15E0D8520608E5070020D3
:10B14000D0460608E40700207E080020F40700200F
:10B15000582E01206C2C0120241007088842060874
:10B16000D0BD09080120B0EE480A03F018FF13E033
:10B170002819C0EB0010F84901EBC00090F8380026
:10B18000012809D12919C1EB0111F34A02EBC101D0
:10B19000496B087803F0ECFE2819C0EB0010EE496B
:10B1A00001EBC000C06D002852D02819C0EB001080
:10B1B00001EBC000406BE8BBE84805F0F5FB28193F
:10B1C000C0EB0010E44951F8300040F66E018842AF
:10B1D00002D1E34805F0E8FB2819C0EB0010DE4976
:10B1E00051F8300040F67201884207D1DD4890F8EE
:10B1F0007900052802D1DA4805F0D6FB2819C0EB02
:10B200000010D54951F8300040F68C01884220D119
:10B21000D548D6490978405CD54908700846007879
:10B220000EF006FC2919C1EB0111CB4B03EBC10158
:10B23000C96D00E029E00968CD4B1B7851F8230067
:10B24000C4EB0411572303EB4102DC2103F044FF5C
:10B2500079E02919C1EB0111BF4B03EBC101C96DA5
:10B2600009682B19C3EB0313DFF8ECC20CEBC30323
:10B270001B6E1B7851F82300C4EB0411572303EB1A
:10B280004102DC2103F028FF5DE0B54805F08CFBAE
:10B290002819C0EB0010B04901EBC00090F8640021
:10B2A0000B281FD02819C0EB001001EBC00090F84C
:10B2B00064002919C1EB0111A74A02EBC101096E13
:10B2C00008702819C0EB0010114601EBC000006E99
:10B2D0000078032803D1A74805F066FB02E0A048E8
:10B2E00005F062FB2919C1EB01119B4B03EBC10176
:10B2F000C96D09682B19C3EB0313DFF85CC20CEBB3
:10B30000C3031B6E1B7851F82300C4EB04115723B1
:10B3100003EB41024FF4827103F0DEFE2819C0EB0B
:10B3200000108D4951F83000B0F5076F0BD1C4EB18
:10B330000411572303EB41028F490968086940F261
:10B34000091103F0C9FE641C8C4800788442FFF6A2
:10B350008DAD08F0FBFC8A490978884203D1BDEC29
:10B36000028BBDE8F08787490978C1EBC101864AA5
:10B3700002EBC101C86A05F000FB784805F014FB38
:10B38000784890F8790007281DD17D490978C1EBEC
:10B390000111714B03EBC10149680968784B1B78B7
:10B3A000C3EB0313DFF8B0C10CEBC3031B7A51F8F6
:10B3B0002300791EC1EB0111522303EB4102192135
:10B3C00003F08AFE1CE06E490978C1EB0111624B63
:10B3D00003EBC10149680968694B1B78C3EB031390
:10B3E000DFF874C10CEBC3031B7A51F82300791EFC
:10B3F000C1EB0111572303EB4102192103F06CFE4D
:10B400005F480078C0EB0010534901EBC000C06CEE
:10B4100000287DD05A480078C0EB001001EBC00036
:10B42000406B007856490978C1EB01114A4A02EB9A
:10B43000C101B1F85010884225D051480078C0EBC6
:10B440000010114601EBC000406B00884C490978A0
:10B45000C1EB011102EBC101B1F85010884212D0CA
:10B4600047480078C0EB0010114601EBC000006EA9
:10B47000007843490978C1EB011102EBC101B1F831
:10B480005010884244D1002610E0C6EB0610324925
:10B4900051F830003A490978C1EB01112E4A02EB0C
:10B4A000C101C96C884200D102E0761C4E45ECDB3C
:10B4B00000BFC6EB0610284901EBC000406DB0B1DB
:10B4C0002C4805F071FA2E480078C0EB0010224994
:10B4D00001EBC00090F83000401EC0EB0010572177
:10B4E00001EB40024FF48C71284803F009FEC6EBD3
:10B4F0000610194901EBC000C06D00282BD0174879
:10B5000005F052FAC6EB0610134901EBC00000E04B
:10B510003EE090F86400C6EB06110F4A02EBC10151
:10B52000096E0870C6EB0611134603EBC101C96D25
:10B530000968C6EB061394460CEBC3031B6E1B781D
:10B5400051F82300791EC1EB0111572303EB41028F
:10B55000DC2103F0C1FD5CE2D8520608582E012020
:10B56000D0BD09086C2C01209C300120FC07002074
:10B570008108002024100708CC0900207E08002044
:10B58000E4070020E5070020D046060888420608A8
:10B59000FE480078C0EB0010FD4901EBC000406B95
:10B5A000002820D0FB4805F0FFF9781EC0EB001002
:10B5B000572202EB4001DC2004F07CF8F3480078CD
:10B5C000C0EB0010F24901EBC00090F8380058B908
:10B5D000EE490978C1EB0111ED4A02EBC101496B5B
:10B5E000088803F0C5FC93E0E8480078C0EB001041
:10B5F000E74901EBC00090F83800032831D1E34857
:10B600000078C0EB001001EBC00090F87400012836
:10B610000DD1DE480078C0EB001001EBC000406B9C
:10B62000D0ED000AB0EE600A012003F0B8FCD74864
:10B630000078C0EB0010D64901EBC00090F8740010
:10B64000022865D1D1480078C0EB001001EBC000A2
:10B65000406BD0ED000AB0EE600A022003F09FFCC0
:10B6600056E0CA480078C0EB0010C94901EBC000A1
:10B6700090F83800022835D1C4480078C0EB00109B
:10B6800001EBC000806C01280BD1C0490978C1EBE7
:10B690000111BF4A02EBC101496B088803F068FC45
:10B6A00036E0BA480078C0EB0010B94901EBC000A1
:10B6B000406B008800EE100AF8EE400AB3480078AC
:10B6C000C0EB001001EBC00090ED120AB8EEC00A0A
:10B6D00080EE801AB0EE418A0120B0EE480A03F0F5
:10B6E0005EFC15E0A9480078C0EB0010A84901EB0A
:10B6F000C00090F8380001280AD1A4490978C1EBAC
:10B700000111A34A02EBC101496B087803F030FC38
:10B710009E480078C0EB00109D4901EBC000406DD1
:10B72000F0B39A480078C0EB001051F830009A4905
:10B730000968884264D1994805F036F9781EC0EB53
:10B740000010572101EB4002E421954803F0D8FC9A
:10B75000944890F87900052803D1934805F024F91E
:10B760002EE0904890F87900072803D18F4805F023
:10B770001BF925E08B4890F8790008280ED08948FD
:10B7800090F879000A2809D0864890F879000B28AB
:10B7900004D0844890F879000C2805D1824800E054
:10B7A0002EE005F001F90BE07E4890F879000E28B4
:10B7B00003D17F4805F0F8F802E07B4805F0F4F883
:10B7C000784890F8790007280DD1791EC1EB011156
:10B7D000522303EB410277490968086840F20911D6
:10B7E00003F08EFC0CE0791EC1EB0111572303EB33
:10B7F000410270490968086840F2091103F080FCB1
:10B8000062480078C0EB0010614901EBC000C06DD8
:10B81000002858D05D480078C0EB001001EBC00054
:10B82000406BE8BB644805F0BFF858480078C0EBAF
:10B830000010574951F8300040F66E01884202D19D
:10B84000544805F0B1F851480078C0EB0010504959
:10B8500051F8300040F67201884207D1514890F803
:10B860007900052802D14B4805F09EF8474800783A
:10B87000C0EB0010464951F8300040F68C01884278
:10B8800022D14E484E490978405C4E49087008461E
:10B8900000780EF0CDF83D490978C1EB011100E0C8
:10B8A00031E03B4B03EBC101C96D0968454B1B7887
:10B8B00051F82300791EC1EB0111572303EB41021C
:10B8C000DC2103F009FCA4E030490978C1EB011147
:10B8D0002F4B03EBC101C96D09682C4B1B78C3EBDF
:10B8E0000313DFF8ACC00CEBC3031B6E1B7851F8DD
:10B8F0002300791EC1EB0111572303EB4102DC2128
:10B9000003F0EAFB85E0234805F04EF81F48007875
:10B91000C0EB00101E4901EBC00090F864000B283A
:10B9200022D01A480078C0EB001001EBC00090F85C
:10B93000640016490978C1EB0111154A02EBC101F7
:10B94000096E087011480078C0EB0010114601EB39
:10B95000C000006E0078032803D1104805F024F8D9
:10B9600002E00C4805F020F808490978C1EB011104
:10B97000074B03EBC101C96D0968044B1B78C3EB8E
:10B980000313DFF80CC00CEBC3031DE0E407002039
:10B99000D8520608D0BD0908E8070020241007087F
:10B9A000884206086C2C0120F0BA0708D02107084D
:10B9B0002C050808DC090020582E01209C300120AD
:10B9C000FC070020810800201B6E1B7851F8230023
:10B9D000791EC1EB0111572303EB41024FF4827131
:10B9E00003F07AFB0C480078C0EB00100B4951F8CB
:10B9F0003000B0F5076F0CD1791EC1EB0111572350
:10BA000003EB410206490968086940F2091103F095
:10BA100063FB00BFA3E40000E4070020D85206083F
:10BA2000CC09002010B510F05FFE012000F01EF8D8
:10BA300010F06CFE10BD10B510F056FE022000F0A4
:10BA400015F810F063FE10BD10B510F04DFE042087
:10BA500000F00CF810F05AFE10BD10B510F044FEC6
:10BA6000082000F003F810F051FE10BD0146002040
:10BA70000022074B1B6803EA0102054B14331B68C5
:10BA80000B4013B10AB1012000E000207047000014
:10BA9000003C01402DE9F04106460D46092D01D339
:10BAA000BDE8F081002418E005EB85000D4901EBAD
:10BAB000001050F83400B0420DD1F4F70BFC0746EB
:10BAC000002005EB8501084A02EB41010855384684
:10BAD000F4F704FCE4E7601CC4B20A2CE4DB00BF0A
:10BAE000DEE70000580506081B10012070B505466A
:10BAF0000C460B48007808B9002070BD284600F0BD
:10BB000001F9012000F0C4F8052094FBF0F086B2A2
:10BB1000304611F0C3FD002000F0BAF80120ECE738
:10BB2000060000201CB52020009003208DF80400A2
:10BB300000208DF807008DF806006946224802F0C3
:10BB4000C1F80121022014F0E9FC032206211F485C
:10BB500002F000F94020009001208DF8050002203D
:10BB60008DF8040000208DF807008DF80600694666
:10BB7000164802F0A7F803220721134802F0EAF85A
:10BB80008020009001208DF8050002208DF804002F
:10BB900000208DF807008DF8060069460A4802F07B
:10BBA00091F84FF40060009000208DF8050001200E
:10BBB0008DF8040000208DF806008DF80700694616
:10BBC000014802F07FF81CBD00000240000802405E
:10BBD00000B58DB00121052014F050FC012148076B
:10BBE00014F07CFCFFF79EFF852006900920ADF83D
:10BBF00014000020ADF81600ADF81C008DF81E00F2
:10BC000005A9204820F008F96020ADF820000120A7
:10BC1000ADF822000420ADF824000020ADF82C007F
:10BC2000ADF82E00ADF83000ADF832000A9008A94A
:10BC3000144820F027F843201249343108602020AE
:10BC40001FF0E2FFFBF770FA0020019002900390D2
:10BC5000049001A91020FBF773FA01211020FBF7D3
:10BC60004FFA4FF40061084802F0A0F8022019F0E2
:10BC700033FB00210846FBF77DFA012003490870D9
:10BC80000DB000BD0004014000000240060000208D
:10BC900010B504461848007808B9002010BDCCB98A
:10BCA0004FF40061154802F081F8012011F0F6FC14
:10BCB0000020134908600021114834381FF0C1FEEC
:10BCC00000210F4834381FF0C8FE00210846FBF75A
:10BCD00051FA0FE0012C0DD1E102084802F068F89A
:10BCE0000121074834381FF0ACFE012104483438E4
:10BCF0001FF0B3FE0120D1E7060000200000024043
:10BD00003404014010B504461348007800B910BD52
:10BD10001248007820B1012807D0022818D10BE082
:10BD200021460020FBF726FA13E043200C49086067
:10BD300020201FF069FF0CE04320094908600948F2
:10BD400000881FF061FF21460020FBF713FA00E096
:10BD500000BF00BF00BFDAE706000020020000209D
:10BD6000340401400400002070B50A2007F044FCB0
:10BD70000446204619F0B6FA204606F007FE0546AE
:10BD80002A46214601A0F4F79FFB70BDCDA8B5C09F
:10BD900020256420CAB9C4DC202564202E0D0A00A9
:10BDA00001460C480078884205D111B90020094AA3
:10BDB00050700120704731B106484078012807D003
:10BDC0000448017004E00020024A507010460170DF
:10BDD0000120EFE73E06002001460C48007888422B
:10BDE00005D111B90020094A50700120704731B1C6
:10BDF00006484078012807D00448017004E000207C
:10BE0000024A5070104601700120EFE748060020FA
:10BE100001460C480078884205D111B90020094A32
:10BE200050700120704731B106484078012807D092
:10BE30000448017004E00020024A5070104601706E
:10BE40000120EFE73906002001460C4800788842BF
:10BE500005D111B90020094A50700120704731B155
:10BE600006484078012807D00448017004E000200B
:10BE7000024A5070104601700120EFE7430600208F
:10BE80000120014908707047406500202DE9F0410C
:10BE900004460E46092C02DB0020BDE8F08104EBCD
:10BEA00044001449085CA04201D00020F5E70025B9
:10BEB00010E004EBC40010490844405D05EB450167
:10BEC0000C4A1144897800EA410008B10020E4E7F7
:10BED000681CC5B2092DECDBF4F7FCF9074604EB4E
:10BEE00044000449084446703846F4F7F7F9012045
:10BEF000D3E700006A0600202808060810B50120D4
:10BF0000FBF754FE0120FBF733FE10BD70B5002493
:10BF10000025002607F04CF84EF61871884201D132
:10BF2000C82600E014260F49C8682FF01AFEC5B2D3
:10BF30009DB100240FE04FF4800101EB4440091350
:10BF400030F0EAFB28B14FF4800101EB444031F0BE
:10BF5000DFFC601CC4B2B442EDD90249C8682FF0BE
:10BF6000FAFD70BDFC14012070B506460D46002494
:10BF700028191CA21CA1F4F7B3FA641C32882819F2
:10BF80001AA1F4F7ADFA641DB278281919A1F4F7D3
:10BF9000A7FAE41CF278281918A1F4F7A1FAE41C16
:10BFA0003279281917A1F4F79BFAE41C7279281941
:10BFB00016A1F4F795FA241D281916A20AA1F4F780
:10BFC0008FFAA01CC4B2281913A1B268F4F788FA3A
:10BFD00004F10800C4B2281911A203A1F4F780FAF1
:10BFE000002070BD3C000000257300002530346443
:10BFF0002D000000253032642D0000002530326411
:10C0000020000000253032643A0000002530326400
:10C010002020000030780000253038580000000053
:10C020003E0D0A002DE9F04105460F460026092D78
:10C0300001DBBDE8F081002463E005EB85004349A6
:10C0400001EB001050F83400002858D005EB8500B3
:10C0500001EB001000EBC4000079012817D1F4F7C0
:10C0600039F98046012005EB8501394A02EB41018F
:10C0700008554046F4F732F905EB8500334901EBEA
:10C08000001050F8342039462846904737E005EB39
:10C0900085002E4901EB001000EBC4000079022856
:10C0A00023D1F4F717F98046012005EB8501284AD2
:10C0B00002EB410108554046F4F710F905EB850005
:10C0C000224901EB001050F83420394628469047A9
:10C0D00002E0012011F0E2FA05EB85001C4901EBBA
:10C0E0004000005D0028F4D109E005EB8500174908
:10C0F00001EB001050F83420394628469047601C68
:10C10000C4B20A2C99DB00BF0026002413E005EB23
:10C1100085000E4901EB001000EBC400007940B12E
:10C1200005EB85000A4901EB4000005D012800D1C4
:10C130000126601CC4B20A2CE9DB16B1012011F003
:10C14000ADFA002EE0D100BF73E7000058050608E5
:10C150001B1001202DE9F04704460D4617464FF00D
:10C160000008C446002200210026042D07D107EB59
:10C17000C70000EB071003EB8000411C00E0591CD6
:10C18000042D06D140F22130814202D90020BDE8C1
:10C19000F087022D03D1652901D90020F7E7042D8E
:10C1A0000DD004DC012D07D0022D47D11DE0082D54
:10C1B0003ED0102D42D13EE094F872C041E02246BC
:10C1C000CE0801F0070151B132441078A1F1010904
:10C1D0004FF0010A0AFA09FA00EA0A0C04E0701E9C
:10C1E0000244107800F0800C2BE004F16502184640
:10C1F0004FEAE37903EB59794FEAE9064FEAE3792D
:10C2000003EB59794FEAE909A3EBC90151B1324473
:10C210001078A1F101094FF0010A0AFA09FA00EABF
:10C220000A0C04E0701E0244107800F0800C08E054
:10C2300094F874C005E094F873C002E04FF0000C6D
:10C2400000BF00BFBCF1000F01DD01209FE700200F
:10C250009DE7000001490860704700000C3C024067
:10C2600070B504460A460026082502B909E0012AED
:10C2700001D1160205E0022A01D1160201E04FF4B5
:10C28000407600F099F80546082D28D11548006839
:10C2900020F4407013490860084600683043086085
:10C2A0000846006820F0F80008600846006844F07E
:10C2B000020108430B4908600846006840F48030DA
:10C2C000086000F079F805460648006820F0020092
:10C2D000044908600846006820F0F8000860284615
:10C2E00070BD0000103C024008201049096801F4AC
:10C2F0008031B1F5803F01D1012015E00B4909687B
:10C3000001F0100109B105200EE00849096801F0AB
:10C31000EF0109B1062007E00449096801F00201B4
:10C3200009B1072000E00820704700000C3C0240E3
:10C330000348006840F00040014908607047000071
:10C34000103C024030B502460C46082500F034F897
:10C350000546082D19D10E48006820F440700C499C
:10C3600008600846006840F40070086008460068ED
:10C3700040F001000860146000F01EF80546044813
:10C38000006820F0010002490860284630BD000026
:10C39000103C02400548006800F0004028B1044805
:10C3A00002490C390860034808607047103C02409D
:10C3B00023016745AB89EFCD08B508200090FFF752
:10C3C00093FF009002E0FFF78FFF00909DF80000C0
:10C3D0000128F8D09DF8000008BD2DE9F047456818
:10C3E00004468EB00026284602F0F2F800905C3039
:10C3F000B0F820A0D0F80C90D0F82480C76A00686C
:10C4000000B10668684602F019F905E0796820462F
:10C41000884700283DD13F68002FF7D120681428B5
:10C4200044D009DCA0F10B00072839D2DFE800F086
:10C43000BE3989B434B4110020287ED004DC17281A
:10C440003ED01E282CD14BE026283CD02A2827D1CC
:10C4500010E02846E66802F0BBF80190717A39B91D
:10C46000317A012904D130F87C1F41F480710180B8
:10C4700001A88FE0284602F0ABF80090E16811B106
:10C48000C0F8841002E0D0F88400E060684602F052
:10C49000D5F80EB0BDE8F087002E7DD02846B04715
:10C4A0007AE02146284629F06BF9F2E705A92846EB
:10C4B00000F0F7FAE0680699016007994160E8E743
:10C4C000C4F80C90E5E7E0680228E2D10C95E0683A
:10C4D0000D9027200A900AA9A06825F0A5F8D8E7B2
:10C4E000E068012804D00021284600F05CF9D0E77C
:10C4F000404624F050F958B1404624F027FB40460E
:10C5000024F002F888B10121404623F0B3FB0CE08F
:10C51000484624F06FFB8046284602F059F8009008
:10C52000C0F88080684602F089F80121284600F0B2
:10C530003AF9B8F1000FACD100E00EE00020E06065
:10C54000A7E75FEA0A7027D4E068C06820B3007AE2
:10C5500010B3284624F0FAFA1EE0E668E6B1294650
:10C56000706824F09AFE20B10121284629F0B0FF1E
:10C5700012E00021284629F0ABFF2946306824F05C
:10C580007BFE48B1284602F023F803903168C0F8DA
:10C59000801003A802F052F82146284623F0DBFA67
:10C5A00000288CD0204623F09FFD72E7284602F039
:10C5B0000FF80090703001F06DFF6846EAE7F0B5C3
:10C5C00087B0B0F908400DF10C0C0C9E87694568E6
:10C5D000ACE8F000448A0025CDE900150294B0F9DA
:10C5E0000C10B0F91050B0F90E40B0F90A0019441F
:10C5F00010442B46224600F003F807B0F0BD0000BF
:10C600002DE9F04F8BB09846DDE9155691468A46E4
:10C610008346149F1A9C03F0A1F86034314845F416
:10C620008055CDE90204CDE9007543464A4651469E
:10C63000584623F09FFC04004DD001F0C9FF302282
:10C640000490179923F008FC0498282226493430D6
:10C65000F4F7ECF9049819995C30234F8160068453
:10C66000002646620661083FC6627968016004A838
:10C6700001F0E4FF05A9204600F013FA1B4841F23F
:10C68000827103960094CDE90110BDF91E00BDF939
:10C690001A10BDF91C20431ABDF918005B1C121AB0
:10C6A000521C23F067FC064678684168204688479C
:10C6B000204601F08DFF0490866604A801F0BEFFBD
:10C6C00042F20400054202D1204623F0ADFD20468F
:10C6D000189900F030F904F0E1FC0BB02046BDE8F9
:10C6E000F08F0000DBC302087C690020B1CD020896
:10C6F00030B504468BB0006801F06AFF009090F8F6
:10C700007C10246A006FC1F3C00508B101F060FF1E
:10C710000690E068029020690390A088401EADF862
:10C720001000E089ADF812002089401CADF814001B
:10C73000608AADF81600BDF80800401CADF808008E
:10C74000BDF80A00401CADF80A00BDF80C00401E00
:10C75000ADF80C000098406B04F026F9009808AA88
:10C7600002A9B0F95A30069804F08CFF009800EB4B
:10C770008500806B0CF0AAFB009800EB8500006C34
:10C780000CF0DCFB08AB02AA04A9069823F0D2FA4D
:10C79000684601F053FF069810B106A801F04EFF5D
:10C7A0000BB0002030BD70B50D46040009D002F07A
:10C7B000D5FF2946204629F08BFEBDE8704004F0E5
:10C7C0006DBC70BD2DE9FF410D46804602F0C6FFED
:10C7D0005FEA080049D001F0FBFE009000F0C8F9C4
:10C7E00007460098B0F95610C4696E1A2FE020462B
:10C7F00001F0EEFE0390D0E90010CDE901100098A1
:10C80000B0F90210B0F900004A42414201A803F019
:10C81000D9FB0099BDF90600B1F95610884211D133
:10C82000BDF90A10081A401CB8420BD103983246D1
:10C8300090F82800000601D5714200E0114620461C
:10C8400023F0E2FF0398046A03A801F0F7FE002C2E
:10C85000CDD10098A0F85650684601F0EFFE404652
:10C8600000F06FFA404623F03BFFBDE8FF4104F0C3
:10C8700015BC38B50C46050011D002F06FFF2846F4
:10C8800001F0A6FE0090816CA14203D08464806E0A
:10C8900023F026FF684601F0D1FE04F0FFFB38BD0F
:10C8A0002DE9FC410D46804602F058FF5FEA080082
:10C8B00028D001F08DFE0190C16D8C6800F058F910
:10C8C00007460198456301A801F0B8FE22680121DE
:10C8D0004046904706462268032140469047054659
:10C8E00022680021404690470446404600F029FA5D
:10C8F0002B46324639464046009400F0B1F9404696
:10C9000023F0EEFE04F0CAFBBDE8FC8138B50C460E
:10C91000054602F023FF55B1284601F059FE00906C
:10C920000466684601F08AFE284623F0D9FEBDE879
:10C93000384004F0B3BB7CB50D4604001DD002F0B6
:10C940000DFF204601F044FE0090006F0190684604
:10C9500001F074FE294601A805F018FD58B12046E3
:10C9600001F036FE009001990167684601F066FE0D
:10C97000204623F0B5FE04F091FB7CBD2DE9FC4779
:10C980000D465FEA00094FF0000432D002F0E6FEE7
:10C99000484601F01DFE0190B0F95440A54223D055
:10C9A00000F0E6F8804601980121A0F85450C06DCF
:10C9B000856848462A68904707462A680321484602
:10C9C000904706462A680021484690470546484653
:10C9D00000F0B7F933463A4641464846009500F024
:10C9E0003FF9484623F07CFE01A801F027FE04F041
:10C9F00055FB2046BDE8FC872DE9FC470C465FEA65
:10CA000000094CD002F0AAFE484601F0E1FD00907A
:10CA1000428E14B142F0200501E022F02005AA4226
:10CA200038D04586484600F08CF9009EF4691FE036
:10CA3000204601F0CDFD0190076AB0F90200B6F979
:10CA40000210A0EB010801A801F0F8FDB6F956109C
:10CA500041450CD1B06EA04209D096F83200800654
:10CA6000204602D524F050F901E023F05DFD3C465C
:10CA7000002CDDD1009890F87C00400607D5A80670
:10CA8000484602D524F040F901E023F04DFD484628
:10CA900023F026FE684601F0D1FD04F0FFFABDE860
:10CAA000FC872DE9F34F85B000270C46B846059862
:10CAB00001F08EFD0090C06D0121856805982A68FF
:10CAC000904782462A6803210598904704902A6877
:10CAD00002210598904703902A6800210598904705
:10CAE0000646009824F076FA8346009824F079FAF6
:10CAF0008146009890F83210890601D5B0F9588027
:10CB000000F036F805460098C06E10B123F0D5FC51
:10CB1000074625806780A4F804A0049AABEB0200C6
:10CB200006EB0802401E2A4420813A44E280039B1F
:10CB3000A9EB0302521E6281A4F80CA02082701996
:10CB4000E681401E6082684601F078FDB4F90C0071
:10CB50000190B4F91000029002AA01A9059800F012
:10CB600039F80198A0810298208207B0BDE8F08FC3
:10CB700010B50146002091F83220920607D5B1F990
:10CB80005400002803D1486B02F07EFD801C10BDCC
:10CB900070B58AB00C46054601F01AFD0990C06DCB
:10CBA000866809A801F04AFD009534B1012C06D031
:10CBB000022C0BD0032C04D10AE0182000E0162030
:10CBC00001907168684688470AB070BD1520F7E784
:10CBD0001720F5E72DE9FC4790468946044601F009
:10CBE000F7FC0090C16D056868468E6801F026FD6F
:10CBF00032680021204690470646204623F0DDFBA0
:10CC00002F1404462DB227E001F0E2FC0190B0F9A8
:10CC10000010B0F90420B0F90230491B521BDB1B95
:10CC2000B34212D190F82800000607D5D8F80000CA
:10CC300088420ADB491EC8F8001006E0D9F8000057
:10CC4000904202DC521CC9F8002001A801F0F6FC59
:10CC5000204623F0EDFB0446002CD5D1BDE8FC872F
:10CC60002DE9FF4F83B00E460746DDF8409001F0F6
:10CC7000AFFC0190C16D8D68FFF77AFF044601A8F3
:10CC800001F0DCFC2A6801213846904783462A6877
:10CC900003213846904782462A680021384690474B
:10CCA0000546B44207D105998B4504D106998A45BA
:10CCB00001D14D4542D0A41B0026B046384623F092
:10CCC0007CFB39E001F084FC0090806A010602D50B
:10CCD0004FEA805002E0810528D50006002825DBB8
:10CCE00024B122461146384623F0C6FD009890F83C
:10CCF000280000060AD50698A5EB0902A0EB0A0059
:10CD000004FB1601761C384623F07EFD0098008D4A
:10CD100080050BD50599A5EB0902ABEB010004FBDF
:10CD2000080108F10108384623F06EFD684601F05D
:10CD300085FC384623F07CFB0700C3D107B0BDE873
:10CD4000F08F70B586B0064601F042FC0590D0E940
:10CD50001A4505A801F072FC54EA050026D0694680
:10CD60003046FFF79EFEACB1BDF90620BDF90410B8
:10CD7000204623F01CFDBDF90A00BDF90610421A39
:10CD8000BDF90800BDF90410521C411A491C204687
:10CD900023F086FF002D09D0BDF90600BDF9021071
:10CDA000421ABDF90410284623F001FD06B070BDFB
:10CDB0002DE9F0430446406885B0064623F045FB64
:10CDC000814601F005FC0090D0F88080876C456EAC
:10CDD000684601F033FC2068172859D008DC0E287B
:10CDE00037D00F280BD0142852D015283AD14FE055
:10CDF0001E2818D01F2827D0222833D146E06FF0F4
:10CE00007040874204D038460CF060F801F005FF0E
:10CE1000002D12D0D4E902122068CDE90106CDE937
:10CE2000031201A822E0E068002806D05FEA0800AB
:10CE300006D0B04504D023F089FE05B0BDE8F083EC
:10CE4000304623F0D7FE16E02146484622F083FE06
:10CE5000F3E7E0684168002904DD00680928EFD0A5
:10CE60000A2805D0A5B12046C4F80490A847E4E7F5
:10CE7000304623F0CEFE0446484601F0A9FB009060
:10CE8000C0F88040684601F0D9FBD6E7E760D4E7F8
:10CE9000204623F029F9D0E700B597B0002000F034
:10CEA000FBF80121084613F009FB00200190012046
:10CEB000029003900020049002200590069000202C
:10CEC00007900890099004200A9000200B900C9085
:10CED0000D900E900F9010904FF480501190002004
:10CEE00012901390149001A81590169008A800F0C5
:10CEF000EEF80121002000F0B5F817B000BD0000E9
:10CF000000B599B00121582013F0B8FA0121084664
:10CF100013F0D4FA0C220021424800F01BFF0C222F
:10CF20000121404800F016FF0C2204213D4800F08A
:10CF300011FF0C2205213B4800F00CFF0C220721B9
:10CF4000384800F007FF0C220E21364800F002FF9F
:10CF50000C220F21334800F0FDFE4CF2B30001908B
:10CF600002208DF8080003208DF8090000208DF8BC
:10CF70000A008DF80B0001A92A4800F0A3FE0C223C
:10CF80000721294800F0E6FE0C220821264800F07F
:10CF9000E1FE0C220921244800F0DCFE0C220A21CB
:10CFA000214800F0D7FE4FF4F060019001A91E481F
:10CFB00000F088FE0C2201211C4800F0CBFE02206C
:10CFC000019001A9194800F07DFE0F200390082070
:10CFD00004900F200590082006900F200790052050
:10CFE0000890002009900A900B9004200C900020DB
:10CFF0000D900E900F901090119012904FF4805061
:10D000001390002014901590169003A81790189074
:10D010000AA800F05CF80121002000F023F819B004
:10D0200000BD0000000C0240001002400018024049
:10D03000010C034A1170010A117010707047000052
:10D040000008006000F478410912054A117000F4EC
:10D05000FC61C9101170C106090E11707047000003
:10D060000008006051B18200A2F1C042126842F093
:10D0700001038200A2F1C042136009E08200A2F124
:10D08000C0421268034B1A408300A3F1C0431A60E8
:10D0900070470000FEFF0F0030B943F2DB02810051
:10D0A000A1F1C0410A6005E043F2D2028100A1F182
:10D0B000C0410A606FF07042411C8900A1F1C0417B
:10D0C0000A608100A1F1C041C1F804217047D0E994
:10D0D00001121143C26811430269114342691143AD
:10D0E00082691143C2691143026A1143426A1143C2
:10D0F000826A1143C26A1143026B114302689200B3
:10D10000A2F1C0421160816808290BD10168890031
:10D11000A1F1C041096841F0400201688900A1F114
:10D12000C0410A60416B0968426B526841EA0211D2
:10D13000426B926841EA0221426B928941EA0241C4
:10D14000426B128A41EA0251426B127D41EA02614E
:10D15000426B926911430268521C9200A2F1C042D4
:10D160001160C16AB1F5804F1BD1816B0968826B78
:10D17000526841EA0211826B926841EA0221826B95
:10D18000128A41EA0251826B127D41EA0261826B8E
:10D190009269114302689200A2F1C042C2F80411E0
:10D1A00007E06FF0704201688900A1F1C041C1F849
:10D1B000042170472DE9F04781468A460026B04693
:10D1C00000270024002500BF5C2005F01FFB04465B
:10D1D00014B9012010F062FA002CF5D000BF44F61B
:10D1E0003E2005F013FB074617B9012010F056FA50
:10D1F000002FF4D0254644F63E22394648462BF00F
:10D2000079F95C2243492846F3F710FC424800684C
:10D21000407F343505F8170C3F480068406A45F8F0
:10D22000100C3D480068C06BA8603B480068008D4A
:10D2300025F80C0C38480068016CE960406C2861E6
:10D2400035480068806C68613348006890F84C008D
:10D2500028763148006890F84D0068762E480068BE
:10D2600090F84F00E8762C48006890F85000287736
:10D270002948006890F8510068772748006890F8BE
:10D280005200A87724480068808E288022480068D1
:10D29000C08E6880343DB8195C22294611F046FBE7
:10D2A000284614F0C5FA62364FF000080DE008EB8E
:10D2B00048021A4B03EB4201B819062211F036FB63
:10D2C0000C3608F101001FFA80F8B8F1640FEEDBAC
:10D2D00044F2C0400644B8191022114911F026FB4F
:10D2E0001636B8194C220F4911F020FB52364FF078
:10D2F000113607F59440C0F83A6044F63E233A46AA
:10D30000514648462BF00CFB384614F091FABDE824
:10D31000F08700001C0D0608A40C0608D43F060880
:10D32000C40D0608780D060810B51D488068816A8E
:10D330004FF4827088471A48C068816A4FF482703F
:10D34000884718480068B0F8480000EE900AF8EEE8
:10D35000600AB0EE600A1248806881680120884740
:10D3600010480068B0F84A0000EE900AF8EE600A33
:10D37000B0EE600A0A48C068816801208847012130
:10D38000062005F037FB50B106480068B0F84A2087
:10D3900004480068B0F8481003A0F3F795F810BDF2
:10D3A00050060020B40C0608BFECCBD9CDC6BDF8A2
:10D3B0005B4C3A25642C523A25645D0D0A0000004E
:10D3C0002DE9F04F9FB08046894600244D46C24665
:10D3D0007C216846F3F786FB13F094F9064606F0C5
:10D3E000030018B1012000EB960600E0B608002407
:10D3F00010E0C4EB44116A4688181E225146F3F728
:10D400008EFA0020C4EB44116A461144C8770AF131
:10D410001E0A641C042CECDB3C4803F0C5FA3C48B3
:10D4200003F0ABFA002423E0C4EB44116A468818E9
:10D43000FBF738F9C4EB0410752101EB40022B21F6
:10D44000344801F049FEC4EB0410752101EB4002A1
:10D450008C2130480B3001F03FFEC4EB04107521E5
:10D4600001EB4002C8212B48113001F035FE641C4D
:10D47000042CD9DB6FF07F4003F07FFAED2176209A
:10D4800002F018F913F03EF9834601F071FD0A200D
:10D49000B0EB950F04D9ED21EB2002F00BF910E071
:10D4A0000A20B0EB950F08D86420B0EB950F04D993
:10D4B000ED21E12002F0FEF803E0ED21D72002F09B
:10D4C000F9F8681E00F0030028B1681E012101EB85
:10D4D0009000C7B202E0681EC0F38707384601F02B
:10D4E00047FDED21FF2002F0E5F8304601F040FD58
:10D4F000094803F059FAED22F62108A001F0ECFDED
:10D50000074803F051FA1FB0BDE8F08FD0BD0908FD
:10D510005D5D5F002C2F0120241007082F00000004
:10D52000F0BA070810B50446102C01DB002010BD2E
:10D530000020064901EB0411C86010F0E7F8034928
:10D5400001EB041148600120F1E70000703901206F
:10D5500010B5002405F0BAFD0446A4F500400938D2
:10D5600030B1012809D002280CD0032814D10EE0D4
:10D5700048F2590018F0F0FE0FE048F25A0018F097
:10D58000EBFE0AE048F25B0018F0E6FE05E048F228
:10D590005C0018F0E1FE00E000BF00BF0320F6F7DA
:10D5A000ADF84FF4C87010F079F8012010BD704745
:10D5B00001460020014A108001207047746300205A
:10D5C0002DE9F0412DED068B82B00026002008EEFB
:10D5D000100A9FEDB50AF0EE408A0027804606F05B
:10D5E0001FFC044606F02CFC0546A088A98888424A
:10D5F00001DDA08800E0A88808EE100AB8EE480A0D
:10D60000DFEDAA0A80EE201AA94880ED001A012158
:10D61000062005F0EFF9D0B1A648006890ED020AA7
:10D6200010EE101A084632F0BDF841EC190BA04874
:10D63000006832F0B7F841EC1A0B8DED009B53EC0B
:10D640001A2B9DA0F2F740FF012010F027F8984810
:10D6500090ED000AF2EE040AB4EEE00AF1EE10FAE0
:10D6600012DBF2F71DFEC92190FBF1F201FB120063
:10D67000643000EE100AB8EEC00ADFED8C0A80EECE
:10D68000201A8B4880ED001AE088E988884201DD85
:10D69000E08800E0E88808EE100AB8EE480ADFEDFE
:10D6A000830A80EE201A8D4880ED001A01210620A1
:10D6B00005F0A0F9D0B17F48006890ED020A10EEA5
:10D6C000101A084632F06EF841EC190B83480068D6
:10D6D00032F068F841EC1A0B8DED009B53EC1A2BDD
:10D6E0007FA0F2F7F1FE01200FF0D8FF7B4890ED0C
:10D6F000000AF2EE040AB4EEE00AF1EE10FA12DBD0
:10D70000F2F7CEFDC92190FBF1F201FB120064306B
:10D7100000EE100AB8EEC00ADFED640A80EE201AAF
:10D720006E4880ED001A20882988084461880844E2
:10D730006988084400EE100AB8EEC00ADFED710AED
:10D7400080EE201A704880ED001A0121062005F0B5
:10D7500051F9D0B15748006890ED030A10EE101A45
:10D76000084632F01FF841EC190B6748006832F0A8
:10D7700019F841EC1A0B8DED009B53EC1A2B63A0AA
:10D78000F2F7A2FE01200FF089FF5F4890ED000A3A
:10D79000F7EE000AB4EEE00AF1EE10FA11DBF2F750
:10D7A0007FFD142190FBF1F201FB120000EE100A44
:10D7B000B8EEC00ADFED3D0A80EE201A524880ED37
:10D7C000001A3C48006890ED020A3948D0ED000A82
:10D7D000B4EEE00AF1EE10FA15D23648006890ED8A
:10D7E000020A3E48D0ED000AB4EEE00AF1EE10FA6B
:10D7F00009DB48F2090017F099FE022002B0BDECE7
:10D80000068BBDE8F0812B48006890ED020A334892
:10D81000D0ED000AB4EEE00AF1EE10FA11D225487C
:10D82000006890ED020A2248D0ED000AB4EEE00A4A
:10D83000F1EE10FA05DB48F20A0017F077FE02203D
:10D84000DCE71C48006890ED020A2448D0ED000A8D
:10D85000B4EEE00AF1EE10FA11D21648006890ED2D
:10D86000020A1348D0ED000AB4EEE00AF1EE10FA15
:10D8700005D248F20B0017F059FE0220BEE70D4812
:10D88000006890ED030A2048D0ED000AB4EEE00AEB
:10D89000F1EE10FA05D248F20C0017F047FE022014
:10D8A000ACE70120AAE70000000000000000C84229
:10D8B00068630020A40C0608D7F3B6CBC3E6D7EE06
:10D8C000B4F3BDC7B6C83A20252E32662CCFDEB6DB
:10D8D000A8D6B53A20252E32660D0A006C630020CA
:10D8E000D3D2B6CBC3E6D7EEB4F3BDC7B6C83A20A1
:10D8F000252E32662CCFDEB6A8D6B53A20252E329C
:10D90000660D0A000000C84370630020CBAEC6BDA0
:10D91000C6BDBEF9BDC7B6C83A20252E32662CCF8B
:10D92000DEB6A8D6B53A20252E32660D0A000000D4
:10D9300070B506460024002508E030462DF006F9B3
:10D9400004460CB9204670BD681CC5B2032DF4DB3B
:10D950002046F8E72DE9F04106460F4690460024A0
:10D96000002512E04246394630462DF007FD0446B8
:10D9700034B101200FF092FE30462DF00BF802E09A
:10D980002046BDE8F081681CC5B2032DEADB2046C5
:10D99000F7E700001CB500F013F9F8F7CDF90028FF
:10D9A00027D0012017F090FD2E492F4810F09AFE45
:10D9B00004F006FE012007F065F8022007F062F887
:10D9C000042007F05FF8082007F05CF8102007F04B
:10D9D00059F826A0F2F778FD44F63E2128A0F2F788
:10D9E00073FD2D492DA0F2F76FFD022017F06CFD9D
:10D9F00008E044F63E212EA0F2F766FD264933A04A
:10DA0000F2F762FDF4F764FB04F0DAFDFF2017F093
:10DA10005BFD21F043FC17F04DF916F01DFE0621C9
:10DA2000182017F07FFC30488021002342F210724A
:10DA3000CDE900102C212DA013F014FD3048402119
:10DA400000234FF4FA72CDE900100C212DA013F041
:10DA500009FD0020034604222F4900902FA02AF040
:10DA600081FD1CBDFFFF0108000001086F757420D7
:10DA7000666C61736820696E69740D0A00000000AD
:10DA8000414C4C5F444154415F4E554D203D202553
:10DA900064200D0A000000003A4A010855706461D4
:10DAA000746141444452203D20256C64200D0A00DD
:10DAB000414C4C5F444154415F4E554D2D6E6F7546
:10DAC0007064203D202564200D0A000055706461BB
:10DAD0007461414444522D6E6F757064203D202561
:10DAE0006C64200D0A000000420700202F53797358
:10DAF00074656D2F6F7074692E696E690000000087
:10DB00003C0700202F53797374656D2F735F657226
:10DB1000726F722E696E6900900700202F5379731F
:10DB200074656D2F6368617267652E696E690000A8
:10DB300010B58AB0012218A118482DF0DFFB044669
:10DB4000012217A101A82DF019FC04461CB901A857
:10DB50002CF020FF02E001A82CF01CFF0D2C16D1A8
:10DB600001220FA101A82DF009FC044601A82CF008
:10DB700011FF0D2C0DD14FF48052012106A02DF084
:10DB800099F804462CB900F015F8044601E02BF092
:10DB900045FC20460AB010BD303A0000FC140120BC
:10DBA0002F53797374656D2F737973636F72652E5C
:10DBB000696E690010B52BF031FC204610BD0000E5
:10DBC00010B50024F6F718FAFFF7B2FF04462CB19F
:10DBD000012203A103482DF091FB044610BD000073
:10DBE000303A0000FC1401202DE9F0430446C568DA
:10DBF00087B090468946002002F0CAFE064625B14D
:10DC0000287910B146F0020001E026F0020002F08F
:10DC1000BFFE2069012558B1D4E902128DE8260023
:10DC2000039563882288046841464846A0471EE061
:10DC3000124F134B214638681B68427CE0689847B6
:10DC400030B9E088012801D0002001E03868806BFD
:10DC5000A288E388A1680095CDE90410CDE90232DD
:10DC6000019563882288414648460AF0A5FC07B022
:10DC70003046BDE8F04302F08BBE00009C680020F7
:10DC80009468002010B5002002F060FE6FF07F4025
:10DC900002F073FE012002F0C5FE002002F0D0FE6B
:10DCA000002002F0DDFE002002F072FE0448006851
:10DCB00002F07AFEBDE81040002002F085BE0000B0
:10DCC00098680020F0B50A4600210023002400BF18
:10DCD0003DE0012505FA01F3156805EA03049C42BD
:10DCE00034D105684F000326BE40B5430560157961
:10DCF0004E00B5400668354305601579012D02D008
:10DD00001579022D16D185684F000326BE40B54314
:10DD1000856055794E00B540866835438560456815
:10DD200001268E40B5434560456896798E40B6B26F
:10DD300035434560C5684F000326BE40B543C56006
:10DD4000D5794E00B540C6683543C560491C1029D9
:10DD5000BFD3F0BDF0B5002300244D07ED0E02FA4D
:10DD600005F3CE1000F1200555F826504E07F70EAA
:10DD70000F26BE40B543CF1000F1200646F82750CD
:10DD8000CE1000F1200555F8265045EA0304CE10C8
:10DD900000F1200545F82640F0BD02460020136939
:10DDA0000B400BB1012000E0002070474183704719
:10DDB000018370472DE9F04FDFF828B191B04FF0A3
:10DDC000FF35DBF80030B3F922100691DE69B3F9B4
:10DDD0002490F469A189814206D8E289824203D362
:10DDE000471AD4F8008012E0D4E9018100296FD0ED
:10DDF0000A8882426CD84D88854269D3801A82B2E3
:10DE0000486800EB8200B0F90070B0F90250781C4D
:10DE10005ED0307EA17C10FB01FA217CCDE90801A7
:10DE2000B3F92A6030460BF09BF8C0B20E90DBF8D5
:10DE3000000007FB0A81A37C826B0127CDE9041255
:10DE4000CDE90273C069DDE90832C17E807ECDE98B
:10DE50000001494606980AF0AFFB681C18D046F04E
:10DE600002000BF07DF8DBF80000A37C05FB0A81C3
:10DE7000826BCDE90273CDE90412C069DDE9083295
:10DE8000C17E807ECDE90001494606980AF094FBE8
:10DE9000DBF800005D46C069417E007E814214D9F6
:10DEA000022E12D086F004000BF05AF82868C069E0
:10DEB000027EC37E12FB0391437E857E099A0698FB
:10DEC0004B4402FB05020AF005FD0E980BF048F8E2
:10DED000DBF80000627C418C1144418411B0BDE844
:10DEE000F08F00009C68002004480068C069C06989
:10DEF00009B1027C0A60407C704700009C680020E9
:10DF0000022008807047C06982898A4202D8C2898B
:10DF10008A4210D2806880B102888A420DD8438834
:10DF20008B420AD3406800EB8100A0EB8200B0F97D
:10DF30000000002801DB012070470020704700002E
:10DF40002DE9F0432F4C034687B020681946B0F9FD
:10DF50002A80C069C06900F0AEF900284ED041683F
:10DF60000088181A01EBC0054046AE780AF0F8FFA9
:10DF7000814620686A680123816BCDE90236CDE9CC
:10DF80000421C169CB7E8A7ECDE900230B7EB0F9E6
:10DF900024102A78B0F922000AF00EFB2068C0692C
:10DFA000477E067EB7421DD9C07E47434643B8F13F
:10DFB000020F17D001F00DFB804601F0D3FA02F0FA
:10DFC000DCFC21682A78CB69B1F92200DB7E12FBE8
:10DFD0000302B1F92410CB1931440AF07BFC40460E
:10DFE00002F0CBFC48460AF0BBFF20686A78C369A0
:10DFF000B0F922109B7E12FB0311418407B0BDE8EB
:10E00000F08300009C680020F0B5244D044687B0E2
:10E0100028682146B0F92A30C069C06900F012F9B9
:10E020001F49097809B143F00203002834D0416840
:10E030000088201A00EB400001EB80042078C01D0E
:10E04000C60818460AF08CFF07462868A268012314
:10E05000816BCDE90236CDE90421C169CA7E897E92
:10E06000CDE90012B0F9241094F90320B0F9220090
:10E07000114494F902206378104422780AF09CFA43
:10E0800038460AF06DFF28682279C369B0F922107A
:10E090009B7E12FB0311418407B0F0BD9C680020F9
:10E0A000D068002030B5104C05460B462068294644
:10E0B000C069C06900F0C6F8002813D04168008824
:10E0C0002468281A00EB40020420E46900EB820077
:10E0D000085CA47E10FB04F0002B03D011F8221082
:10E0E0006143196030BD00009C68002003460D4864
:10E0F00010B500680C461946C069C06900F0A2F866
:10E1000070B141680088181A00EB400001EB8000F4
:10E11000D0E9001280682160C4E90120002010BD10
:10E12000012010BD9C68002001200880704700B5C8
:10E13000C06900F087F8002800D0012000BD000071
:10E140002DE9F35F0E46002501F043FADFF8A880C1
:10E150008346D8F8000090F82A00400702D501F065
:10E1600038FA01E001F0FEF902F007FCD8F80000EF
:10E170000024C1694A7EC97E12FB01FAB0F92290DF
:10E18000B0F924701FE0684602F038FE0546D8F862
:10E1900000002946C069C06900F054F898B1416890
:10E1A0000088281A00EB400001EB800090F9021073
:10E1B00000790144D8F80000C069807E11FB00F0AE
:10E1C000002800DD0444761EDDD51DB1284603F08D
:10E1D0003DFF044407EB0A0309EB04025B1E4846BB
:10E1E000521E39460AF076FB584602F0C6FB034938
:10E1F00001200870BDE8FC9F9C680020D0680020CA
:10E200002DE9F3410D4D0E4F0E462868B0F92A4016
:10E21000A0070AD17A680098904706E0684602F0A5
:10E22000EDFD2968C96909688847761EF6D5002082
:10E23000387028684485BDE8FC8100009C68002097
:10E24000D068002006E002888A4202D842888A42CA
:10E2500002D280680028F6D17047000030B50F4C1C
:10E2600005460B4620682946C069C06900F023F8BE
:10E27000002811D04168008824682A1A0120E46926
:10E2800000EBC200085CA47E10FB04F0002B03D05E
:10E2900011F832106143196030BD00009C68002005
:10E2A00001200880704700B5C06900F004F800281C
:10E2B00000D0012000BD06E002888A4202D84288D0
:10E2C0008A4202D280680028F6D1704770B50546B0
:10E2D0000C46062D11D11CB908A0F2F7F5F805E09F
:10E2E00010200949088009A0F2F7EEF80621AFF2E4
:10E2F0002300FDF7CFFBF9F74DFC70BDBDF8C8EB6F
:10E30000BFAABBFA0D0A000018080240BDF8C8EB0E
:10E31000B9D8BBFA0D0A000070B505460C46052DAC
:10E320000ED134B910200749088007A0F2F7CCF8C5
:10E3300006E010200349891E088006A0F2F7C4F801
:10E3400070BD00001A080240CDCBB3F6B4FDBBFA95
:10E350000D0A0000BDF8C8EBB4FDBBFA0D0A0000C1
:10E3600070B500240E4D16E028690E4900EBC4106C
:10E37000001D78220968F2F759FB2869002100EB9B
:10E38000C410016000F10C018161011D0A1DC0E98A
:10E390000F12641C4164A8688442E5DB70BD000074
:10E3A000906A00209C68002070B50D490B480860F9
:10E3B000084603F0E3FF0A4C143CA068C501284658
:10E3C00000F084F82A460021206104F051F84FF053
:10E3D000FF302060BDE8704002F0D2BE59570508FA
:10E3E000A46A002010B5040009D001F0B7F9204656
:10E3F00023F0CCFD044602F051FE204610BD002063
:10E4000010BD38B5054601F0A9F92846FFF7EAFF27
:10E41000040009D000F0DCF82A460021009004F046
:10E4200027F8684600F00AF902F038FE204638BDA9
:10E43000024A106021F0030050607047E469012037
:10E4400010B5040016D001F089F90B48006B10F8E4
:10E45000341059B1022909D2042101EBC4014158F9
:10E46000486823F057FD204627F096FCBDE8104091
:10E4700002F014BE10BD000028690120002805D05C
:10E48000034A916B016001B14860906370470000DE
:10E490002869012010B5044601F060F92068FFF7F3
:10E4A000CFFF00202060BDE8104002F0F7BD000063
:10E4B00070B50D460646002405E000BF06EB84005B
:10E4C000FFF7E8FF641CAC42F8DB70BD2DE9F041BA
:10E4D000044626F039FF2648E41C24F00305C16BEE
:10E4E0002D1DA94200D90D46846B13E054F8042C6D
:10E4F000AA420ED184B1216809B162684A6061689C
:10E5000009B122680A60826BA2422ED12168816320
:10E510002BE02468002CE9D18046416B80680F18FD
:10E5200057F8040C3E1A306838B1002027F064FD1B
:10E5300057F8040C3E1A3068B8B97068A84214DB6A
:10E540003044441B304627F00FFDD8F80810491B13
:10E55000C8F80810D8F810102944C8F810107068CE
:10E560003146401B23F0D6FC20C42046BDE8F08194
:10E570002869012010B5002426F0E6FE0C490F2082
:10E5800001EBC002126C1AB101EBC000006C08E094
:10E59000401EF5D508E04168A14200D90C468068CC
:10E5A00010B180680028F6D1A4F10C0010BD000065
:10E5B00028690120002138B10449042202EBC0007F
:10E5C000096B085841680C390846704728690120D2
:10E5D00005498A69521C8A61096B01EBC0010A78FE
:10E5E000521C0A7000F042B82869012010B501F0F1
:10E5F000B5F8FFF7BFFF64220849B0F5800F04D9D2
:10E6000090FBF2F4C869444303E0C9694143B1FB9C
:10E61000F2F402F043FD204610BD000028690120FD
:10E620000549102805D94A68B0EB520F02D35008AB
:10E6300000E0102088607047E46901200A49026800
:10E640000B6B52F8082C03EBC2021378022B03D396
:10E650008B690BB15B1E8B611178491E1170002113
:10E66000016008467047000028690120002806D094
:10E670000349042202EBC000096B085808307047B8
:10E680002869012070B50C46054601F0ABF8C1B20F
:10E6900023462846BDE87040002200F001B8000083
:10E6A000F0B52D271C68B0F1004F08D000250028D8
:10E6B0000DDA661C1E6027704042012408E0661CCB
:10E6C00001251E606FF000402770491E01E0002404
:10E6D000091BC9B22AB3491EC9B222E00C46491E21
:10E6E000C9B2944205D1124C27781C68661C1E6082
:10E6F0002770104C54F8216090FBF6F4E4B20A2C19
:10E7000011D804FB160011B90DB1641CE4B20A2C37
:10E7100002D10124491CC9B21E683034771C1F6025
:10E7200034700029DAD1196800200870F0BD0000AB
:10E7300090680020749A0A0810B5002807DD0A685E
:10E740002B24531C0B601470096800220A7010BD42
:10E750002DE9FF4F99B000260020049083460390D6
:10E7600002904FF4006004F051F8EF4908604FF454
:10E77000806004F04BF8ED490860EB48006810B188
:10E780000846006830B9EAA0F1F79EFE00201DB0EF
:10E79000BDE8F08F0AA9199805F08AFB48B9E2484C
:10E7A000006813F045F8E148006813F041F80020D4
:10E7B000EDE7BDF8280008900F9C10980990BDF86F
:10E7C000467012980690169805900D980790384656
:10E7D000F91707EB5171C1F3C70844F64251089885
:10E7E00088420CD0D7A0F1F76FFECF48006813F035
:10E7F0001FF8CE48006813F01BF80020C7E7E217A7
:10E800004FF4F07300211B1B91410CD30998002891
:10E8100001DB014600E04142CB174FF4887500222E
:10E82000691A9A410CD2CDA0F1F74EFEBE4800689D
:10E8300012F0FEFFBD48006812F0FAFF0020A6E7C4
:10E840001C9828B34FF4F0720020121B60EBE470A8
:10E85000CDE900204FF002024FF00003DDE9000196
:10E86000F1F7BAFD8346099D002D01DB284600E043
:10E870006842C3174FF488720021101A61EB03013C
:10E8800002220023CDE90001F1F7A6FD039003E089
:10E89000DDF868B01B980390082F07D1FA01A24851
:10E8A00001683631A1480068F2F739F80122B14811
:10E8B00019992CF063FDB04908700846007848B1FA
:10E8C0009948006812F0B4FF9848006812F0B0FF51
:10E8D00000205CE7A74807992CF072F8A649087059
:10E8E0000846007848B19048006812F0A1FF8F48B0
:10E8F000006812F09DFF002049E704A909A826F04E
:10E9000052FB8246BAF1000F09D18748006812F025
:10E910008FFF8648006812F08BFF002037E704FB6A
:10E9200008F0C11700EB91718910A0EB810149B18A
:10E9300004FB08F0C11700EB91718910491C4FEAE4
:10E94000810901E004FB08F9D8E00298401C80B27C
:10E9500002904FF0FF30B0F1000A0AD0099A0298F5
:10E96000121A079802FB090182482CF029F8824903
:10E970000870824B4A466C4801687E482CF0B4FD12
:10E980007D4908700846007860B17A482CF002F89A
:10E990006548006812F04CFF6448006812F048FFB8
:10E9A0000020F4E60026A3E05F48006808FB0605A7
:10E9B0000120B0F1000A0BD0DDE903CE0CEB0E0311
:10E9C0000CEB0E020BEB06010BEB060015F082FDC3
:10E9D0004FF0FF30B0F1000A1BD0DDF824E0DDF885
:10E9E0000CC0F444DDF810E0ACEB0E0CACF101030C
:10E9F000DDF824E0DDF80CC0F444DDF810E0ACEB09
:10EA00000E0CACF101020BEB06010BEB060015F04E
:10EA100061FD2C20C1060870082F04D0102F1DD0D6
:10EA2000182F56D145E02878022101EB80013F4A9A
:10EA30001268515C524A1170012101EB80013B4A7E
:10EA40001268515C4E4A1170002101EB8001374A77
:10EA50001268515C4A4A117000BF47E0069890B9AD
:10EA600029786A7841EA022000F47C41C1F3C71199
:10EA7000434A117000F4787189101170C106090EB3
:10EA8000117000BF14E00698032811D129786A7824
:10EA900041EA022000F478410912394A117000F469
:10EAA000FC61C9101170C106090E117000BF00BFD2
:10EAB0001CE0A97809046A7841EA02212A7841EA2F
:10EAC0000200010C2E4A1170010A1170107000BF73
:10EAD0000CE028482BF05EFF1348006812F0A8FEF7
:10EAE0001248006812F0A4FE002050E600BF761C19
:10EAF000A642FFF659AF049850440490099904982F
:10EB0000884203DA04980028BFF61FAF19482BF09B
:10EB100041FF0548006812F08BFE0448006812F0BF
:10EB200087FE012033E600001C68002020680020DA
:10EB30004C4F474F20C4DAB4E6C9EAC7EBCAA7B0C6
:10EB4000DC0D0A000D0AB2BBD6A7B3D6B8C3C0E02D
:10EB5000D0CDCDBCC6ACA3A1000000000D0ACDBC39
:10EB6000C6ACCCABB4F3A3ACCEDEB7A8CFD4CABE90
:10EB7000A3A10000D464012024680020286800209C
:10EB8000000800607CB50D46064609F093FF044678
:10EB900009F098FFCDE900050022234611463046D2
:10EBA00000F001F87CBD2DE9FE431E46DDE90A5464
:10EBB00017468846814609F0B9FE182800DD18205E
:10EBC0000095CDE9014033463A464146484627F094
:10EBD0007BFBBDE8FE8310B5C2B2CBB2D21A02D520
:10EBE000C2F1000212B293B2C0F30722C1F30724AC
:10EBF00003FB03F3121B01D5524212B2000C92B276
:10EC0000A0EB114002FB023200B2002801DA4042C0
:10EC100000B280B200FB002010BD10B500210846F4
:10EC200000F048FD40F6FF725042BDE81040134628
:10EC3000014600F001B800002DE9FC411C461546D4
:10EC40000E46074600F08AFD04200AF089F9804646
:10EC50001248C068C16C006D0F4406440D44044462
:10EC6000ADF80070ADF80450ADF80260ADF80640A4
:10EC7000684622F0BDF907E023462A463146384669
:10EC800009F028FE22F068F90028F5D140460AF084
:10EC900067F902F003FABDE8FC81000090680020EB
:10ECA000B0F90630B0F90420B0F90210B0F9000054
:10ECB000FFF7C2BF2DE9F8431C00DDE908981646AE
:10ECC0000F46054602D121F05BFB044600962E68F4
:10ECD00043464A4621462846B047060039D021F02F
:10ECE00044FB8146698A304620F0C4FF304622F05A
:10ECF0000BF8484622F008F84FF000080CE000BF7F
:10ED0000CDF8008055F81CCF00231A464946284606
:10ED1000E04700B321F0F8FF7F1E002FF0DC1D213B
:10ED2000484621F056FE601C12D000F017FD21F07D
:10ED300051FB30B1FFF79AFC8469B44201D0200046
:10ED4000F8D1B44202D0304621F054FF02F0A6F9C7
:10ED50003046BDE8F883304621F0FEF90020F8E7A0
:10ED60002DE9F0411C4616460D460746022B02DBF4
:10ED70000020BDE8F0811C20FFF7A8FB0028F8D098
:10ED80000DB105610AE0094A52F8241009B905E0FD
:10ED900011460A68002AFBD10969016184618682F3
:10EDA000002101604160C0E90217E2E7B468002079
:10EDB00070B51D46FFF7D4FF040001D000F00EF837
:10EDC000E068006820B90348006800EB85008465AE
:10EDD000204670BD9C680020FFF750BB70B590B313
:10EDE0008269022A30DA1C4C54F8221019B944F80E
:10EDF00022002FE019464B68002BFBD106E0CB68C0
:10EE0000C5681B682D68AB4203DD09680029F6D18F
:10EE10001AE0C1B1CB68C6681B683668B3420CD132
:10EE2000838A012B05D008E01946DB681B68AB42DA
:10EE300003DB0B68002BF7D129B14B6833B11860A5
:10EE40004A68426004E0FFE7012070BD44F82200F8
:10EE500048600160002070BDB468002010B503E078
:10EE60000468FFF7BBFF20460028F9D110BD27F04A
:10EE700007BE00002DE9F0410026DFF834800D4F79
:10EE8000354600BF58F8254009E0E0680068385C66
:10EE900020B1204627F0F4FD266026462468002C89
:10EEA000F3D16D1C022DEDDB3046BDE8F081000092
:10EEB000B4680020B0750908022801DB0020704703
:10EEC000054951F8200004E0C16809680029F6D01E
:10EED00000680028F8D17047B4680020F8B51646DD
:10EEE0000F4605004FF0000414D00C20FFF789FAFC
:10EEF00004000FD000F032FC2046FFF769FB064902
:10EF00000090C0E90015078146816846FFF796FB2F
:10EF100002F0C4F82046F8BD5CA40A082DE9F843C5
:10EF20001D461646884604000CD0FFF751FB0090A2
:10EF3000006807686846FFF781FB2B46324641466A
:10EF40002046B847BDE8F883002200F01BB87FB523
:10EF50001E4614460D46CDF80CD003AB00223146B8
:10EF6000FFF79EFB22462946684600F0B5F87FBDB4
:10EF70001FB503A9CDF80CD0FFF784FB684600F05D
:10EF800027F81FBD1FB503ABCDF80CD0FFF788FBEA
:10EF9000684600F01DF81FBD002223F0ADBB002124
:10EFA00023F0CABB7FB50C461546CDF80CD003A99B
:10EFB000FFF7C2FB002801DD641EE4B203AB2A4662
:10EFC0002146FFF76DFB684600F002F87FBD0000A8
:10EFD0002DE9FC4706005FD000F0C0FB00F006FB07
:10EFE0003C4C81462068B0F9228000F02FFB21685C
:10EFF00007468A8CD01B888441E000BF47F6FF712A
:10F00000304602F0EBFF82460146304602F0BCFF7C
:10F010002168054691F82C0000F00300012841D03A
:10F0200002283BD000204A8C101A4884ADF800001A
:10F030006A1E1044ADF80400888CADF80200A9F1F6
:10F0400001010844ADF806006A465146304602F018
:10F05000D1FC2168BDF8020088845146304601F099
:10F06000F9FE064430780A281ED00D281CD0BDF8C1
:10F070000000216828444884307818B1761C307824
:10F080000028BBD12068818C39448184818D21F096
:10F090000301818502F002F8BDE8FC8705EBD5701D
:10F0A0004010C0E72846BEE7206890F82C1001F019
:10F0B000030101290BD0022909D0018C4184317848
:10F0C0000A29D9D1828C02EB09018184D4E7A0F806
:10F0D0002280F4E79C68002070B514460D46064671
:10F0E00000F03CFB05480068458484843046FFF707
:10F0F0006FFFBDE8704001F0D1BF00009C680020A8
:10F100002DE9F04107460A4815460E460068B0F959
:10F110002C0040F0020001F093FC04462A463146E0
:10F120003846FFF7D9FF2046BDE8F04101F088BC22
:10F130009C68002047F6FF73AFF300802DE9FC4187
:10F140001F4690460D4606004FF000041AD000F00E
:10F1500005FB65B1284621F0C7FD040007D0024633
:10F160002946684603F013F8684621F0BDFD3B468A
:10F1700042462946304602F095FC204621F0B4FD77
:10F1800001F08CFFBDE8FC812DE9FF4F85B0904672
:10F190008A4607007DD000F0E1FADAF80040DAF89C
:10F1A000046021B230B2401A401C029000F01EFAF6
:10F1B000054618F00C0F1ED03846089A029901F047
:10F1C0007DFF08F00C01042904D0082902D00C2985
:10F1D00011D104E0311400FB1510401C09E021148A
:10F1E000C1EB264200FB1520401C00EBD07001EB68
:10F1F000600060F31F44504601F0B3FBA5F1010B22
:10F2000004903846089A029903F000F903904FEAF7
:10F21000244909EB0B0060F31F46CDE90046384650
:10F22000039902F0B1FE18F003010ED001292AD093
:10F2300002290ED1BAF90420BAF90010521A101A94
:10F2400000EBD07001EB600001E0BAF80000ADF80F
:10F2500000006A463846039902F0CCFB3846089A0B
:10F26000029903F0C9F8074409EB050060F31F4455
:10F2700038780028C5D1049801F073FB09B0BDE8C7
:10F28000F04F01F00BBFBAF80410081A401CDEE77B
:10F29000FFE709B0BDE8F08F7CB514460D46064681
:10F2A00000F05CFA11480068C16C006D0D44044424
:10F2B0003188681E0844ADF80400ADF8005071882C
:10F2C000601E0844ADF80600ADF80240684621F023
:10F2D0008FFE06E0224629463046FEF785FC21F0E7
:10F2E0003BFE0028F6D101F0D9FE7CBD9C680020D1
:10F2F0001CB50A460146684603F032F800F02EFAC3
:10F300002548BDF80010006830F84C2F1144ADF8C6
:10F310000010BDF8021082881144ADF80210BDF84B
:10F32000041002881144ADF80410BDF8061080885E
:10F330000844ADF80600684621F05AFE27E000BFF9
:10F34000BDF900400BE000BFBDF90210204609F0F6
:10F3500063FABDF90610204609F05EFAA41CBDF957
:10F360000400A042F0DABDF902400AE0BDF9000055
:10F37000214609F051FABDF90400214609F04CFA82
:10F38000A41CBDF90600A042F0DA21F0E5FD00283A
:10F39000D6D101F083FE1CBD9C6800202DE9FC4104
:10F3A00014460D46064600F0D9F9114F3968C86C6D
:10F3B000096D054404440E44ADF80050ADF8044016
:10F3C000ADF80260ADF80660684621F011FE08E075
:10F3D000386822463146C06E03682846984721F0B7
:10F3E000BBFD0028F4D101F059FEBDE8FC8100000E
:10F3F0009C6800202DE9FC411C4616460D46074638
:10F4000000F0ACF91A480168087ECA6C096D401E0C
:10F4100017440D440C44391A1644ADF80010311845
:10F42000ADF80410291A2044ADF80600ADF802101A
:10F43000684621F0DDFD15E032462946384609F0E0
:10F44000BFF932462146384609F0BAF9621E691CF6
:10F45000384609F015FA621E691C304609F010FAA8
:10F4600021F07AFD0028E7D101F018FEBDE8FC810B
:10F470009C6800207CB514460D46064600F06EF9E7
:10F480000F480068C16C006D0E4405440444ADF89B
:10F490000060ADF80460ADF80250ADF80640684673
:10F4A00021F0A6FD06E022462946304609F0E8F99B
:10F4B00021F052FD0028F6D101F0F0FD7CBD0000E6
:10F4C0009C68002010B5002400E0012400F004F83E
:10F4D0000028FAD1204610BD064810B50068002467
:10F4E00010B1804700B1012420F0C2FE00B1012418
:10F4F000204610BDBC6800202DE9FC411C46154685
:10F500000E46074600F02AF910480068C16C006DED
:10F510000F4406440D440444ADF80070ADF80450A7
:10F52000ADF80260ADF80640684621F061FD07E0E5
:10F5300023462A463146384609F0CCF921F00CFD25
:10F540000028F5D101F0AAFDBDE8FC819C680020EF
:10F55000034951F82000C1688A6A08211047000059
:10F56000B468002010B500F0F9F809F0EBF909F0E3
:10F5700005FB044601F092FD204610BD10B504467F
:10F5800000F0ECF8054800210068C0694268204698
:10F590009047044601F082FD204610BD9C68002083
:10F5A00070B50C46054600F0D9F8064821460068BB
:10F5B000C069426828469047044601F06FFD204626
:10F5C00070BD00009C680020002801D020F0AABE79
:10F5D000704710B500F0C2F809F0BCF909F0CEFA96
:10F5E000044601F05BFD204610BD000010B500F0A0
:10F5F000B5F804480068C069447E01F04FFD20461C
:10F6000010BD00009C68002010B500F0A7F802F0C3
:10F61000B1FC044601F042FD204610BD70B50C4619
:10F62000054600F09BF82146284602F001FDBDE8A2
:10F63000704001F033BD10B5044602F0EBFC01460A
:10F640002046BDE8104002F09FBC000010B5002429
:10F6500000F084F80B48006890F82C1001F00C01C1
:10F66000042904D0082906D00C2907D103E0C06979
:10F67000047E641E02E0C069007E440801F00EFDB5
:10F68000204610BD9C680020017EC07E11FB00F06A
:10F6900070470000024951F8200000690068704777
:10F6A000B4680020024951F82000006940687047A2
:10F6B000B468002070B50D46044600F04FF82046AF
:10F6C00025F06EFD0446284625F072FD044301F046
:10F6D000E5FC204670BD10B5044600F03FF820461A
:10F6E00009F04CFA044601F0D9FC204610BD000098
:10F6F000144810B5016821F0010101601248012190
:10F7000081601249016000681149884200D0FEE71B
:10F7100002F056F90F492E20087001F027FD0E481F
:10F7200025F0C4FDFEF740FE2AF0CFFD044600217F
:10F73000084601F057F920F011FFFEF711FE2046B0
:10F7400010BD0000002000E000300240C2A507F418
:10F75000CDB5E8B590680020F069012070B51F4C68
:10F76000E06820B101F0FAFC6168884204D001F041
:10F7700017FD01F0F3FC6060E068401CE0600128C8
:10F7800025D100250AE000BF01F0E8FC216901EB6A
:10F79000C5110968814205D0D1B16D1CA0688542B0
:10F7A000F2DB00252068854211D000280EDBFFF730
:10F7B00061FB2268216901EBC212D067084A01EBA4
:10F7C000C510011D1160C06FFFF748FB256070BDBB
:10F7D000216901EBC5110860E4E70000906A002090
:10F7E0009C68002010B5011E01DD024600E04A427F
:10F7F000064B012053F82040944202D8401C0A28AE
:10F80000F8DB002900DA401C10BD0000749A0A08D9
:10F810001CB5040004D10E480068046E002C16D0FC
:10F82000FFF79CFF2046FEF7D3FE00904469684630
:10F83000FEF704FF4CB12046FEF7CAFE0190816836
:10F840008968884701A8FEF7F9FE01F027FC1CBD76
:10F850009C68002001490A4600F002B801F0FFFF51
:10F860002DE9F04387B015460C465FEA000846D004
:10F87000FFF774FF002001F08BF8814621480068F3
:10F88000066E4046FEF7A4FE00900068806900F016
:10F890007DFC074640F6FF70001904D10098B0F9CE
:10F8A0000440B0F906500098611E0289ADF804408A
:10F8B0001144ADF808104189681E0844ADF806509F
:10F8C000ADF80A0020F0E0FA6846FEF7B7FE01A89E
:10F8D00021F08EFB06E02A462146404600F028FB38
:10F8E00021F03AFB0028F6D1384600F04FFC3046B4
:10F8F00000F06AF9484601F04BF801F0CFFB07B081
:10F90000BDE8F0839C6800202DE9FE4F98469146A3
:10F910008A46834600270C9EFFF720FF17481849A8
:10F920000068407C51F82040E1680968042903D050
:10F930002468002CF8D100E014B9FFF7BDFA0446A2
:10F940000121E068C26A20469047050011D0246971
:10F95000A0688047401C02D10A4C46F00106009680
:10F96000CDE9015443464A465146584600F0C6F98F
:10F97000074601F093FB3846BDE8FE8F9C680020E7
:10F98000B4680020D475090838B504001CD0FFF70E
:10F99000E5FE0E480068006EA04201D100F0E8FBD1
:10F9A0002046FEF715FE0090406908B101F05FFBAC
:10F9B00000980068FFF710FA6846FEF73FFE204601
:10F9C000FEF73EFD01F06AFB38BD00009C68002098
:10F9D0002DE9FF4F83B0454CDDF840B098468A468C
:10F9E00007002BD002A901A8FFF718FEB7F90060A5
:10F9F000002E00DA0026B7F90250002D00DA0025AB
:10FA00002068A146407C09F04BF801990144491E49
:10FA1000B7F9040025F0C3FD0446D9F80000407C86
:10FA200009F044F802990144491EB7F9060025F08F
:10FA3000B6FDA71B7F1C441B641C0BE0206800263E
:10FA40003546407C09F02CF807462068407C09F0D8
:10FA50002DF80446B8F1000F01D1C4F10008002FC1
:10FA600001DD002C03DC002007B0BDE8F08F434629
:10FA70003A4629463046CDF800B0FFF745FF5FEA29
:10FA8000000909D000F060F88046484600F09CF874
:10FA90000027DFF85CB01FE0514605988847012039
:10FAA000E2E7E11B414502DA484600F071F83FB158
:10FAB000EA193146484600F0B5F84846FFF7A8FE77
:10FAC000514605988847DBF8001009B100208847A7
:10FAD0004846FFF7BFFE4744A742E2DB4846FFF730
:10FAE00053FF002000F070F8BDE700009C68002084
:10FAF000D06A002038B505004FF0000411D0FFF7A0
:10FB00002DFE2846FEF764FD0090006800698068BD
:10FB1000804709F059FF04466846FEF78FFD01F063
:10FB2000BDFA204638BD38B50446FFF717FE20461B
:10FB3000FEF74EFD00F1180400906846FEF77EFDCA
:10FB400001F0ACFA204638BD38B504460025FFF771
:10FB500005FE1CB908480068046E44B12046FEF753
:10FB600037FD0090B0F90A506846FEF767FD01F0D6
:10FB700095FA284638BD00009C68002010B522F098
:10FB800011FD002803D0BDE8104000F07DB810BD85
:10FB900038B50C46050004D10A480068056E002DF2
:10FBA0000FD0FFF7DBFD2846FEF712FD0090B0F9FD
:10FBB0000A10A14200DD44816846FEF73FFD01F0D6
:10FBC0006DFA38BD9C680020F8B50546FFF7C6FD04
:10FBD000134E3068046E65B10CB100F0C9FA20F024
:10FBE00073FA2846FEF7F4FC009031680A6E1AB1E9
:10FBF00006E000F0BDFA0EE0D1E90223C1E91923C5
:10FC00000D660068FFF7EAF86846FEF717FD09F091
:10FC100099FD09F085F901F041FA2046F8BD000090
:10FC20009C6800207CB515460E46040004D115489A
:10FC30000068046E002C24D0FFF790FD2046FEF7EC
:10FC4000C7FC2DB20090C58034B2848009F068F9F9
:10FC50000098406980B1FEF7BBFC009A0190B2F9B0
:10FC600008108180B2F90A20C28011B10AB1048063
:10FC7000458001A8FEF7E2FC6846FEF7DFFC01F0D4
:10FC80000DFA7CBD9C68002001490A4600F002B8CC
:10FC900001F0FFFF7FB515460C4606002DD0FFF79B
:10FCA0005DFD3046FEF794FC40F6FF7101900919A6
:10FCB00003D1B0F90440B0F906500289611E114425
:10FCC000ADF80840ADF80C104189681E0844ADF845
:10FCD0000E00ADF80A5001A8FEF7B0FC02A821F012
:10FCE00087F906E02A462146304600F009F921F05E
:10FCF00033F90028F6D101F0D1F97FBD2DE9FF4F8E
:10FD0000DFF8E0B083B01C46DBF80010DDE91060DE
:10FD1000924600274B7C3A461299FFF721F80500DE
:10FD20005DD028698068804709F04EFE81460AFB55
:10FD300009F0C01D4FEAD008FEF758FCF10705D1C5
:10FD4000C11700EB9170801000EB4000002C06DC26
:10FD50001838B0FBF8F06442A04200DC0446F0071B
:10FD600007D10090DDE903012346524601F0F2F885
:10FD70000746002C03DC2846FFF72EF82FE004FB93
:10FD800008F01830F10702D0FEF72CFB01E0FEF777
:10FD900038FB06001CD0FEF71BFC019005600399A0
:10FDA00081800499C180A0F808A04481C0F80C802B
:10FDB000C0E9049701A8FEF741FC1298AE602861E3
:10FDC000DBF80000407CA861304607B0BDE8F08F4A
:10FDD0002846FFF701F817B13846FEF731FB00203F
:10FDE000F3E700009C6800202DE9F74F92B09046A1
:10FDF0001298FEF7EDFB0B90B0F908100691B0F9E0
:10FE00000A100D9100680069D0F804B00BA8FEF745
:10FE100015FC384C384D2068407C55F82000C168EE
:10FE20008A6A082190478146182801D34FF020099B
:10FE30002068407C55F820000069079003C80C90AA
:10FE40002E48814201D0012000E0002010900020C7
:10FE500001F0B8F9002849D10026DDE91207B246C1
:10FE60000FAB069C4546761C0193FFF75CFE0146EE
:10FE700004FB0AF001EB8002234629463846CDF800
:10FE800000B001F0B1FE050030D01098D0B1DDE92E
:10FE900006134A46284601F0D8FC98B9DDE90670F9
:10FEA0002C46D0F810C0BCF1000F05D02946042321
:10FEB0003A460846E04705E00C992068884701C4A7
:10FEC0007F1EF9D10020CDE90305059001200090A7
:10FED000CDE901094146034608F10108069A139845
:10FEE00008F06AFB0D98401E0D90B6D115B0BDE824
:10FEF000F08F00009C680020B46800209B8B0308F2
:10FF0000F8B515460E460746FEF762FB00900068FE
:10FF10001621C068426A0020904704466846FEF7F2
:10FF20008DFB002C03D02A4631463846A047F8BD49
:10FF3000F8B515460E460746FEF74AFB00904469A1
:10FF40006846FEF77BFB3846FFF7D4FD03460828DA
:10FF500000DD2CB12A463146384626F0CFFDF8BDEB
:10FF60002A463146384626F061FFF8BD10B5002814
:10FF700021D009B30AB3B1F90040B2F900309C4274
:10FF800000DA23460380B1F90240B2F902309C4204
:10FF900000DA23464380B1F90440B2F904309C42B0
:10FFA00000DD23468380B1F90610B2F906209142A4
:10FFB00000DC1146C18010BD11460A680260496824
:10FFC000416010BD00280BD003880B440380838858
:10FFD00019448180418811444180C1881144C18005
:10FFE000704700000146024878220068F0F71EBD05
:10FFF0009C680020014988607047000090680020DC
:020000040803EF
:100000000C00000D38B569461D4810F023FC5C2239
:100010001B49A1F15C00F0F709FD19485C3890F824
:1000200088106B460122174810F0D8FB1548801F36
:100030000146D1F8062002604989818010495C3967
:10004000B1F8622091F861006B460F4910F0E4FBB3
:1000500010220D49A1F11000F0F761FC69460B4830
:1000600010F0A4FB09481038044610341ECC1EC002
:1000700005F056FC06490968087F16F038F938BDC6
:10008000C82C01204A2D0120342D0120602D012093
:10009000A40C060870B50025FFF760FB094CD4E9F5
:1000A000002082420AD0D2E90056104625F0A8F876
:1000B00020603146284620F0BFFB012500F0EEFF0E
:1000C000284670BD846A00202DE9FC41154DDDE90C
:1000D00008742D68B5F90860864200DD3046B5F930
:1000E0000C60964200DA3246824219DBB5F90A60AA
:1000F0008E4200DD3146B5F90E509D4200DA2B46A6
:100100008B420DDB00E02C46E5682D6825B1042DFF
:1001100002D02568002DF6D1CDE9007408F0E8FD85
:10012000BDE8FC819C680020B0F90220B1F90630DE
:100130009A4213DCB1F90220B0F906309A420DDC84
:10014000B0F90020B1F904309A4207DCB1F900108F
:10015000B0F90400814201DC0120704700207047A3
:10016000024978220968F0F761BC00009C68002011
:1001700010B5FFF7F3FA08F087FE09F0E3FA1FF075
:1001800083FEBDE8104000F089BF000070B5094D46
:1001900004462868467CFFF7E1FA022C03D228685F
:1001A0004474FFF7E5FF0448046000F077FF304631
:1001B00070BD00009C680020CC6900202DE9FC4146
:1001C000054600260024082D72D006DC012D70D0D3
:1001D000022D6FD0042D6ED133E3102D6CD0132D72
:1001E0006BD0202DF7D1F948006840F60C01884209
:1001F00003D1F74816F0DCF8B4E1F648006840F6A1
:100200005B0188420FD0F3480068C91C88420AD0BD
:10021000F0480068491C884205D0EE48006840F666
:10022000582188420AD101A9EB4810F013FB5C2247
:10023000E949A1F15C00F0F7F9FB93E1E5480068BA
:10024000B0F5066F12D101A9E34810F003FB5C2260
:10025000E149A1F15C00F0F7E9FBDF495C3991F875
:10026000790014F0F7FDDD4908707BE1D94800689A
:1002700040F65C01884221D1D7485C3890F888105C
:1002800001AB0122D64810F0A9FAD548801F0146DB
:10029000D1F8062002604989818001A9CE4810F07A
:1002A000D9FA5C22CC49A1F15C00F0F7BFFB59E11F
:1002B000F8E23BE270E228E3C9E1A3E2C548006846
:1002C00040F67501884210D1C3495C39B1F862200B
:1002D00091F8610001ABC34910F09EFA1022C149A8
:1002E000A1F11000F0F71BFB3CE1BA48006840F6B2
:1002F0008E01884203D1B64803F084FE32E1B5484E
:10030000006840F6B901884203D1B7480078012857
:1003100093D0B048006840F6CB01884210D14FF42A
:100320007A720121B148F6F76DFDB0481EF066FF04
:100330002422AF49AF48F0F779FB2AF00BF811E11E
:10034000AD480078C0EB0010AC4951F8300040F6E1
:100350009E0188420ED17821A948F0F7A1FB022026
:10036000A84B0422A6490090402010F0ABFAA64901
:100370000870F7E0A0480078C0EB00109F4951F8E2
:10038000300040F69C0188420ED188219F48F0F74A
:1003900087FB02209E4B04229C490090802010F095
:1003A00091FA99490870DDE093480078C0EB00109D
:1003B000924951F8300040F6A901884208D108203E
:1003C000F5F772F8172015F0C7FF14F08BFAC9E0A3
:1003D00089480078C0EB0010884951F8300040F699
:1003E000AA01884208D10920F5F75EF8182015F017
:1003F000B3FF14F077FAB5E07F480078C0EB001047
:100400007E4951F8300040F6730188427BD1724832
:100410005C3890F85C00A0B90620F5F745F860B9A3
:10042000012015F0B9FF7B4800681FF09EFF0746CA
:1004300020F056F90020BDE8FC81012015F08CFF6A
:1004400090E065485C3890F85C00012813D10720E3
:10045000F5F72AF858B9012015F09EFF6D4800689D
:100460001FF083FF074620F03BF90020E3E701205F
:1004700015F072FF76E058485C3890F85C0002286E
:1004800006D155485C38014691F85C10017069E06E
:1004900051485C3890F85C00032816D10B20F5F722
:1004A00003F858B9012015F077FF5A4800681FF08B
:1004B0005CFF074620F014F90020BCE70320F4F7A6
:1004C0007BFC172015F048FF4CE043485C3890F85F
:1004D0005C00042846D10C20F4F7E6FF60B9012047
:1004E00015F05AFF4B4800681FF03FFF074620F009
:1004F000F7F800209FE706E00420F4F75DFC1820E1
:1005000015F02AFF2EE031480068B0F5016F03D1E5
:10051000002014F0F5FF25E02E480068B0F50E6FBE
:1005200005D17D2296213C2015F0CAFE1AE029480B
:10053000006840F6E301884202D115F087FE11E021
:100540002448006840F67E11884203D1204803F019
:1005500059FD07E01F48006840F6CD01884201D1EF
:1005600002F032FD24480078C0EB0010234901EB73
:10057000C000C06A40F60902811A90421FD005DC13
:10058000A0F6070038B101285ED10EE0012947D05E
:10059000112959D14EE00120F4F786FF08B9002057
:1005A00049E71B2015F0D8FE4FE00420F4F77CFF4C
:1005B00008B900203FE7232015F0CEFE45E00520D6
:1005C000F4F772FF08B9002035E725E0EC070020BA
:1005D00004080020E8070020C82C0120FC070020A8
:1005E0004A2D0120342D01207A080020E708002040
:1005F000F0BA0708582E0120E4070020D852060858
:10060000B42E01208C080020E6080020C02F012015
:10061000A0080020F0070020272015F09DFE14E020
:100620000220F4F741FF08B9002004E72C2015F060
:1006300093FE0AE00A20F4F737FF08B90020FAE633
:10064000312015F089FE00E000BF00BF5EE1B14837
:100650000078C0EB0010B04901EBC000C06A40F662
:10066000010188421AD103F04DFB08280BD003F09A
:1006700049FB092807D003F045FB0B2803D003F002
:1006800041FB0C2802D1132010F022F8012015F0B4
:1006900089FE0021082015F06FFB46E09D48007898
:1006A000C0EB00109C4901EBC000C06A40F612018B
:1006B000884203D1402015F039FE36E09548007895
:1006C000C0EB0010944901EBC000C06A40F6110174
:1006D000884203D1802015F029FE26E08D4800785D
:1006E000C0EB00108C4951F8300040F68B01884275
:1006F00005D18A490968087F15F0F9FD15E0884899
:10070000006840F61801884207D1844800680078E4
:100710008449087081F85C0007E08148006840F671
:100720003101884201D115F0DBFDEFE07948007816
:10073000C0EB0010784901EBC000C06A40F612011E
:1007400088420ED178217848F0F7AAF90120774B3A
:10075000042275490090402010F0B4F874490870E4
:1007600019E06C480078C0EB00106B4901EBC00049
:10077000C06A40F6110188420DD188216D48F0F71A
:100780008FF901206C4B04226A490090802010F000
:1007900099F867490870B9E05E480078C0EB00102E
:1007A0005D4901EBC000C06A40F6120188420ED1DB
:1007B00078215D48F0F774F902205C4B04225A4915
:1007C0000090402010F07EF85949087019E0514817
:1007D0000078C0EB0010504901EBC000C06A40F641
:1007E000110188420DD188215248F0F759F90220B1
:1007F000514B04224F490090802010F063F84C497F
:10080000087083E04648006840F61701884217D117
:1008100001204A49087001A949480FF0C7FF48481C
:100820001038074610378ECF8EC001A93D485C3086
:1008300010F010F85C223B495C313A48F0F7F6F8CA
:1008400064E034480078C0EB0010334951F83000C0
:1008500040F6D301884224D102F0AAFB4EF618716B
:10086000884201D1C72400E013243648007810B92B
:100870003448047008E033480078002804DD31482B
:100880000078401E2F49087002F01AFC074610F04D
:1008900009FC30B92C4800681FF067FD07461FF0BF
:1008A0001FFF33E01B480078C0EB00101A4951F8D5
:1008B000300040F6D301884226D102F079FB4EF693
:1008C0001871884201D1C72400E013241D48007824
:1008D000A04203D100201B49087008E019480078A5
:1008E000A04204DC17480078401C1649087002F04A
:1008F000E7FB074610F0D6FB30B9134800681FF03D
:1009000034FD07461FF0ECFE00E000BF00BF0120F1
:1009100091E50000E4070020D8520608A40C060860
:10092000EC0700206C2C0120B42E01208C08002044
:10093000E6080020C02F0120A00800207A0800202F
:10094000602D0120F1080020F007002010B50446BA
:10095000FEF704FF204608F0B9FABDE8104000F0A9
:100960009DBB10B50446FEF7F9FE204620F0BCF909
:10097000044600F093FB204610BD10B50446FEF778
:10098000EDFE204608F0DAFABDE8104000F086BB24
:1009900010B50446FEF7E2FE204608F0E1FA0446F0
:1009A00000F07CFB204610BD70B50446FEF7D6FE75
:1009B00004480068C56904B1C46100F06FFB2846B3
:1009C00070BD00009C68002070B50546FEF7C6FEAD
:1009D00003480068847E857600F060FB204670BD89
:1009E0009C68002070B50C460546FEF7B7FE094826
:1009F000224605800848048008480068417C084871
:100A000050F82100C1680B6A29469847BDE870403C
:100A100000F044BBCC680020CE6800209C68002019
:100A2000B468002070B50546FEF798FE03480068DC
:100A3000047E057600F032FB204670BD9C680020E5
:100A400070B50446FEF78AFE04480068B0F92C50E1
:100A5000848500F023FB284670BD00009C680020C0
:100A600070B50446FEF77AFE04480068B0F92A50D3
:100A7000448500F013FB284670BD00009C680020F0
:100A800010B5042020F050F81FF07AFC04461FF047
:100A9000DDFB1FF075FC044602491FF0BAFFFEF7AC
:100AA00011FD10BDED81050810B5042020F03CF8C3
:100AB0001FF066FC04461FF0C9FB1FF061FC0446F2
:100AC00002491FF0A6FFFEF7FDFC10BD21820508BC
:100AD00002480068002800D000477047AC6A002038
:100AE00002498A6802B98860FFF7F2BF846A002071
:100AF00010B5F7F76BFF03F04FFA0446012C04D052
:100B0000022C05D0032C09D105E01EF0F9FC05E00C
:100B100019F0A2FB02E009F07BFC00BF00BF15F05A
:100B2000A9FB03F00BF9FEF7CDFC10BD10B50400D6
:100B30000ED0FEF713FE204625F030FA204625F0B1
:100B400077FF2046FDF77CFCBDE8104000F0A6BA18
:100B500010BD38B50C46050011D0FEF7FFFD284644
:100B6000FDF736FD00908089204201D0012400E08D
:100B700000246846FDF762FD00F090FA00E00124D1
:100B8000204638BD38B50546002028600648046870
:100B900044B12046FDF71CFD0090006928606846BE
:100BA000FDF74CFD204638BD106B002038B5040021
:100BB0004FF000000D46086011D02046FDF708FDFB
:100BC0000090846844B16846FDF738FD2046FDF783
:100BD000FFFC0090006928606846FDF72FFD204665
:100BE00038BD2DE9F041984617460D4606460024CB
:100BF000FEF7B4FD09E036F8021B384600F0BEF8F7
:100C00002118414503DC07440C466D1EF3D200F069
:100C100045FA2046BDE8F0812DE9F05F0546FEF774
:100C20009DFD3E4E3E4B3F483F4ADFF80091DFF8C6
:100C300000A1DFF800B140493468002D46DDB6461A
:100C4000002C65D11D680D6005684D6015688D60CC
:100C5000D9F80060CE60DAF800700F61DBF800C0F0
:100C6000C1F814C0DFF8D8C03449DFF8E480CCF80C
:100C70000010DFF8D4C04D463249DFF8D090CCF8F0
:100C80000010C8F80090DFF8D080DFF8C8C0C8F8BE
:100C900000C0DFF8CC80DFF8C4C0C8F800C0DFF8BF
:100CA000C880DFF8C0C0C8F800C0DFF8C0C0C3F813
:100CB00000C001602E48C2F8009028602D48CAF894
:100CC00000002D480121CBF800001FE020D1B646DE
:100CD000002C1DDD0D68DDB14E68CEB18F68BFB14F
:100CE000D1F80CC0BCF1000F12D0D1F81080B8F1CF
:100CF000000F0DD0496959B11D6006601760C9F831
:100D000000C0CAF80080CBF800100021CEF8001017
:100D100000F0C4F92046BDE8F09F0000486A0020BA
:100D2000806A0020646A0020686A00206C6A0020E3
:100D3000786A00207C6A0020F8680020ED1503081E
:100D40004C6A002005140308506A002005130308AC
:100D5000546A0020F7140308586A0020011203089F
:100D60005C6A0020DB150308606A0020691603082E
:100D7000D9120308291503086B12030870B50C4635
:100D80000546FEF7EBFC054821460068C268284688
:100D90009047044600F082F9204670BDA06800200C
:100DA00010B50446FEF7DAFC0448006801682046E6
:100DB0008847044600F072F9204610BDA068002064
:100DC00010B50446FEF7CAFC044800684168204696
:100DD0008847044600F062F9204610BDA068002054
:100DE00010B5FEF7BBFC044902480860BDE810409E
:100DF00000F054B9C4750908A06800202DE9F0413D
:100E0000084E04460568306801682846884707464A
:100E10003068416828468847284420603846BDE845
:100E2000F0810000A06800202DE9F04100250E4669
:100E300080462C46064F06E0396808EB04004968F6
:100E4000884704446D1CA642F6DC2846BDE8F081C4
:100E5000A06800202DE9F0410C4606460025064F0B
:100E600005E0386841683046884706440544641EFA
:100E7000F7D22846BDE8F081A06800202DE9F041B6
:100E80001E46069C1746884605463A46A8687F1CBB
:100E90003346D0F804C041462846E047641EF4D1EA
:100EA000BDE8F08170B5B0F90040091BB0F904400D
:100EB0008C422CDD00F11404B0F902500069521B81
:100EC00002FB0040CA1800EBE104521ED010B0EB48
:100ED000E10501F007034FF0FF0102F0070221FADC
:100EE00003F0C2F1070201FA02F1CEB221780FD06D
:100EF00001436D1E04F8011B002D05DDFF2229466C
:100F00002046EFF7C5FD2C4420783043207070BD9B
:100F100030400143217070BD10B5B0F90030B0F918
:100F20000240C91A00F114030069121B02FB0030D1
:100F300000EBE10001F0070302788021D9400A4369
:100F4000027010BDB0F90610026951431430EFF77A
:100F5000C9BD00002DE9F843804602F10F000011E1
:100F6000470003FB07F01C46154689461430FDF781
:100F700048FA060018D0FEF7F1FB3046FDF728FBD3
:100F80000090A0F80080A0F802908580C4800749F6
:100F900081600121818107616846FDF74FFB00F008
:100FA0007DF83046BDE8F8830020FBE724A40A085A
:100FB00070B5B0F90660B0F904400B6800F1140593
:100FC000964220DD0069A34202FB005000EBE302E1
:100FD00019DAA4F101044FEAE400A0EBE30512F8EA
:100FE000010B03F0070400FA04F0C4B208E055B1A5
:100FF00012F8014B03F10803A5F1010523F00703E3
:10100000002CF4D008E0002070BD00BF4FEA44601F
:101010004FEA106403F101032006F7D5FF2C0AD034
:10102000184605E04FEA44644FEA146400F10100F9
:101030006606F7D400E0D81DC443640706D007E075
:1010400012F8014BFF2C0FD100F108006D1EF7D5EF
:10105000A0EB030000F101000B6070BD4FEA446299
:101060004FEA126400F101002206F7D4F0E738B528
:101070000546FEF773FB2846FDF7AAFA0090818922
:10108000491E0CB284816846FDF7D8FA14B9284687
:10109000FDF7D6F900F002F838BD00000348C1683A
:1010A000491EC16001D100F085B87047906A0020E8
:1010B0000120014908707047AA0800202DE9F0417D
:1010C00016460F4605460024FEF748FB32463946D1
:1010D000284601F091F9054408B1641CF6E7FFF7D2
:1010E000DDFF2046BDE8F08110B54FF4F04001F07F
:1010F0008DFB0B4908600846006818B909A0EFF796
:10110000E3F910BD4FF4F04105480068FDF790F990
:101110008020FDF785FA0748FEF76CFF00BFF0E777
:1011200038680020C4DAB4E6B7D6C5E4CAA7B0DC94
:101130000D0A0000D4AF090870B504464FF47A7068
:101140006043C82190FBF1F5A8B20CF0A7FA70BD7E
:1011500010B50120FFF7F0FF10BD00000248006845
:1011600090F83200704700009866002010B500200B
:101170000BF0E2FD0149086010BD0000446800204A
:1011800010B501200BF0D8FD0349086000200BF0DA
:1011900007FB0249086010BD3C6800204068002041
:1011A00008B56A460021024800680BF0F1FD08BD51
:1011B0003C68002010B5024800680BF065FE10BDC9
:1011C0003C6800200EB508B102AA00E0002200230E
:1011D00001A9684600F086FE0EBD0000074910B563
:1011E000CC6818B10120C860801E03E00020C860F0
:1011F0006FF07F4007F0CAF9204610BDD868002084
:1012000070B5D2B00D4606461446502129A8EFF716
:1012100069FC50213DA8EFF765FCA02101A8EFF77C
:1012200061FC502D02DD002052B070BD012301AAE7
:101230002946304621F04AFB0546024629A901A865
:1012400023F0F6FD294629A820F070FF0028EBD0F6
:10125000002000902B463DAA29A901A820F0F4FE09
:101260003DA8005D00F00100DEE72DE9F343002713
:1012700083B089463D460197ADF808703E46B846B2
:1012800003AA02A9304623F007FE040020D00198EB
:1012900010B1CDF8048018E0204600F0A1FF50B155
:1012A0000398009001AB3246BDF80810204600F0CC
:1012B000D9FE064600E026463046FEF75FF90744B1
:1012C0000DB14F4504DC0A2E02D06D1C2646D7E72F
:1012D00005B02846BDE8F0832DE9F04116460F46DB
:1012E0000A461C468046314600F005F905462CB1F9
:1012F0003A4631464046FFF783FF20602846BDE866
:10130000F08100002DE9F043F9B00C46064617467F
:101310000025502151A8EFF7E5FB502165A8EFF714
:10132000E1FBA02101A8EFF7DDFBA02129A8EFF741
:10133000D9FB502C47DC012301AA2146304621F07D
:10134000C5FA0446024651A901A823F071FD2146C1
:1013500051A820F0EBFE88B301200090234665AA37
:1013600051A901A820F070FE064600200DF1A40846
:1013700003E000BF28F81000401CA042FADBF3B2E3
:10138000224665A901A820F0DEFEF3B2224665A937
:1013900029A820F0D8FE00260DF1040911E000BFB5
:1013A00039F81600FEF7EAF82844AF4207DB874217
:1013B00005DC38F8160079B0BDE8F08305E0054695
:1013C000761CA642ECDB0020F5E70025B0460FE0D6
:1013D0003046FFF7E5FC8146FEF7D0F80544B9F149
:1013E000000F08D0BD4206DC3046FFF7E9FC06449A
:1013F000641E002CECDC4046A6EB0801FFF714FD50
:10140000D9E700002DE9F047FAB00C46064617462A
:101410000025502165A8EFF765FB502151A8EFF793
:1014200061FBA02101A8EFF75DFBA02129A8EFF740
:1014300059FB502C03DD00207AB0BDE8F087012372
:1014400001AA2146304621F041FA0646024665A926
:1014500001A823F0EDFC314665A820F067FEA0B39B
:1014600001200090334651AA65A901A820F0ECFDA7
:10147000044651A80DF1A409C05D00F00108002048
:1014800003E000BF29F81000401CB042FADBE3B2D1
:10149000324651A901A820F056FEE3B2324651A9C6
:1014A00029A820F050FE01A8CA460024814613E076
:1014B0003AF81400B84209D1B8F1000F19D039F840
:1014C0001400FEF75BF82844B6E708E039F814008A
:1014D000FEF754F80544641CB442E9DB09E001ACB2
:1014E00005E000BF34F8020BFEF748F805447F1E04
:1014F000F8D22846A0E770B5A8B00D4606461446B7
:10150000A0216846EFF7EEFA502D0BDC01236A4666
:101510002946304621F0DAF9844203DA3DF8140016
:1015200028B070BD0020FBE72DE9F74F002784B0FD
:101530003D463E46B9460197ADF80870BA46B846F2
:1015400004AA02A9504623F0A7FC0446019810B152
:10155000002001902DE0204600F042FE5FEA000BE3
:1015600009D00498009001AB5246BDF808102046FF
:1015700000F078FD00E02046B8F1000F00D1804671
:1015800050B10A2808D020280ED0B8F1200F05D07D
:10159000BAF1200F05D008E02E460EE04FF000080B
:1015A00002E0BBF1000F00D02E46FDF7E7FF8146B9
:1015B0004F440598874202DD0DB11EB103E06D1C5A
:1015C000A246BDE72E46069818B10699A7EB09007A
:1015D000086007B03046BDE8F08F10B523F030FD4D
:1015E000062801D0002010BD012010BDF0B5D1B0FB
:1015F0000C4607461D461646502129A8EFF772FAF9
:1016000050213DA8EFF76EFAA02101A8EFF76AFA82
:10161000502C02DD002051B0F0BD002301AA21466C
:10162000384621F053F90446024629A901A823F0BF
:10163000FFFB214629A820F079FD68B10120009028
:1016400023463DAA29A901A820F0FEFCC3B22246E8
:101650003DA901A820F077FD2B463246214601A87E
:10166000FFF7BFFA2046D6E710B50C460968F0230D
:10167000034AFFF7BBFF02492060084610BD000087
:10168000686A01202DE9F041984616460C4688B359
:10169000FDF7D1FF074608F00300012825D00228F6
:1016A00017D0B4F9005000BFFDF7A0FF014608F0C5
:1016B0000C0004282BD00C281DD0B4F90200358072
:1016C0007080EA19521E0844B280401EF080BDE8C6
:1016D000F081B4F90400B4F90010401AC01B401C9A
:1016E00000EBD07001EB6005DEE7B4F90400C51B28
:1016F0006D1CD9E710E0B4F90600B4F90220801A95
:10170000401A401C00EBD07002EB6000D7E7B4F940
:101710000600401A401CD2E72068306060687060A4
:10172000D5E710B5082A0EDC0346012A1AD0022A92
:1017300058D0042A78D010F8042B03F8012B491E46
:10174000F9D1012010BD102A0ADC0222022AF8D1A8
:10175000024630F8043B22F8023B491EF9D1F0E77B
:10176000002010BD10F8042BD207120E491E34D0F1
:1017700010F8044B491E04F0010442EA84122CD0F4
:1017800010F8044B491E04F0010442EA441224D02C
:1017900010F8044B491E04F0010442EA04121CD064
:1017A00010F8044B491E04F0010442EAC40214D0AC
:1017B00010F8044B491E04F0010442EA84020CD0E4
:1017C00010F8044B491E04F0010442EA440204D01C
:1017D00010F8044B04F00104224303F8012B002904
:1017E000C0D1AEE710F8042B9207120E491E15D097
:1017F00010F8044B491E04F0030442EA04120DD011
:1018000010F8044B491E04F0030442EA840205D098
:1018100010F8044B04F003042243491E03F8012B83
:101820000029DFD18DE7FFE710F8042B1207120E15
:10183000491E05D010F8044B04F00F042243491E42
:1018400003F8012B0029EFD17BE72DE9F0411E6859
:101850000D460446082A09DC0746012A21D0022A3F
:1018600062D0042A7CD0082A1AD195E0102A03DC21
:1018700002200228F8D102E00020BDE8F081D3F870
:1018800010C02746BCF1000F04D00A4621460223AF
:1018900008468AE001CCB04727F8020B6D1EF9D14B
:1018A0008BE001CCB047C0074FEA10686D1E36D000
:1018B00001CCB04748EA801000F0FF086D1E2ED022
:1018C00001CCB04748EA401000F0FF086D1E26D05A
:1018D00001CCB04748EA001000F0FF086D1E1ED092
:1018E00001CCB04748EAC00000F0FF086D1E16D0DA
:1018F00001CCB04748EA800000F0FF086D1E0ED012
:1019000001CCB04748EA400000F0FF086D1E06D049
:1019100001CCB04740EA080000F0FF086D1E07F850
:10192000018B002DBDD148E001CCB04780074FEAC4
:1019300010686D1E18D001CCB04748EA001000F0C6
:10194000FF086D1E10D001CCB04748EA800000F0BF
:10195000FF086D1E08D001CCB04740EA080000E047
:1019600007E000F0FF086D1E07F8018B002DDBD1AA
:1019700023E001CCB04700074FEA10686D1E06D087
:1019800001CCB04740EA080000F0FF086D1E07F8E0
:10199000018B002DEDD110E0D3F810C0BCF1000F89
:1019A00005D00A46014601233846E04705E001CC50
:1019B000B04707F8010B6D1EF9D101205DE700006B
:1019C0000A4810B5816900290ED101218161FFF714
:1019D0008BFB07F0C9FE054905481C310860BDE8CE
:1019E0001040084600F0CABC10BD000090680020FE
:1019F000D15605087CB5064628480D46006868B1F2
:101A000000201FF0F5FA06E06A462946304620F02D
:101A100023FF1FF0A1FA0028F6D17CBD10680090CA
:101A20001F4C506801902268BDF8000032F84C1F2E
:101A30000844ADF80000BDF8020091880844ADF8F4
:101A40000200BDF8040011880844ADF80400BDF898
:101A5000060091880844ADF8060068461FF0C8FAF1
:101A60000EE000BF2068BDF800106A464184BDF852
:101A7000021081842946304620F0EEFE1FF06CFAF9
:101A80000028EFD1206830F8221F428D891A01808A
:101A90004188C28D891A41807CBD0000C868002041
:101AA0009C6800202DE9FF4F85B09A4690460D4670
:101AB000FDF79CFD4FF00009DDF814B006464C46DA
:101AC00025B1286800906868019002E06846FDF73B
:101AD0007BFD18F00C0F02D05546002713E0BDF92E
:101AE00002402DE07F1C2946059800F077FA014658
:101AF0006D1A0598FFF7AEF905990844059005A8F9
:101B000000F01CFB08B9002DECD108F00C000428F3
:101B100004D0082802D00C2812D105E0BDF9060037
:101B200007FB1604641C0BE0BDF90600BDF90210AA
:101B3000401A07FB1600401C00EBD07001EB60045C
:101B40005546CDF814B043E02946059800F046FA12
:101B500007460146ED1B059800F016FA18F0030140
:101B60000ED0012939D002290DD1BDF90410BDF9DB
:101B70000020891A091A01EBD17102EB610101E021
:101B8000BDF900108946174A401E4844126839467C
:101B9000A2F822909484ADF80C00A019401EADF874
:101BA0000890ADF80E00ADF80A4002AA0598FFF7BC
:101BB00021FF39460598FFF74DF90599084405902E
:101BC000FDF714FD044405A800F0B8FA002801D17F
:101BD000002DB9D109B0BDE8F08FBDF90410091A84
:101BE000491CCFE79C6800202DE9FF4F00208BB0F7
:101BF00004460146009019981D461646016007AB41
