Component: ARM Compiler 5.06 update 6 (build 750) Tool: armlink [4d35ed]

==============================================================================

Section Cross References

    main.o(i.OS_CPU_SysTickClkFreq) refers to stm32f4xx_rcc.o(i.RCC_GetClocksFreq) for RCC_GetClocksFreq
    main.o(i.SoftWdtISR) refers to stm32f4xx_iwdg.o(i.IWDG_ReloadCounter) for IWDG_ReloadCounter
    main.o(i.System_Init) refers to _printf_percent.o(.ARM.Collect$$_printf_percent$$00000000) for _printf_percent
    main.o(i.System_Init) refers to _printf_s.o(.ARM.Collect$$_printf_percent$$00000014) for _printf_s
    main.o(i.System_Init) refers to _printf_str.o(.text) for _printf_str
    main.o(i.System_Init) refers to usart3.o(i.USART3_Init) for USART3_Init
    main.o(i.System_Init) refers to noretval__2printf.o(.text) for __2printf
    main.o(i.System_Init) refers to memory.o(i.InitMemoryEx) for InitMemoryEx
    main.o(i.System_Init) refers to imagedata.o(i.InitPhotoData) for InitPhotoData
    main.o(i.System_Init) refers to sht20.o(i.SHT20_init) for SHT20_init
    main.o(i.System_Init) refers to bmp085.o(i.BMP085_init) for BMP085_init
    main.o(i.System_Init) refers to main.o(i.UnusedInit) for UnusedInit
    main.o(i.UnusedInit) refers to stm32f4xx_rcc.o(i.RCC_AHB1PeriphClockCmd) for RCC_AHB1PeriphClockCmd
    main.o(i.UnusedInit) refers to stm32f4xx_gpio.o(i.GPIO_Init) for GPIO_Init
    main.o(i.UnusedInit) refers to stm32f4xx_gpio.o(i.GPIO_ResetBits) for GPIO_ResetBits
    main.o(i.main) refers to os_core.o(i.OSInit) for OSInit
    main.o(i.main) refers to misc.o(i.NVIC_SetVectorTable) for NVIC_SetVectorTable
    main.o(i.main) refers to main.o(i.System_Init) for System_Init
==============================================================================

Removing Unused input sections from the image.

    Removing main.o(.emb_text), (8 bytes).
    Removing main.o(i.SoftWdtISR), (8 bytes).
    Removing code7725.o(.emb_text), (8 bytes).
    Removing codeaim.o(.emb_text), (8 bytes).
    Removing codecore.o(.emb_text), (8 bytes).
    Removing codelight.o(.emb_text), (8 bytes).
    Removing flash.o(.emb_text), (8 bytes).
    Removing flash.o(i.EraseFlash), (122 bytes).
    Removing flash.o(i.WriteFlashOnly), (110 bytes).
    Removing data7725.o(.emb_text), (8 bytes).
    Removing dataaim.o(.emb_text), (8 bytes).
    Removing datacore.o(.emb_text), (8 bytes).
    Removing datalight.o(.emb_text), (8 bytes).
    Removing objectcode.o(.emb_text), (8 bytes).
    Removing objectmemory.o(.emb_text), (8 bytes).
    Removing fiber.o(.emb_text), (8 bytes).
    Removing changeaim1.o(.emb_text), (8 bytes).
    Removing changeaim2.o(.emb_text), (8 bytes).
==============================================================================

Image Symbol Table

    Local Symbols

    Symbol Name                              Value     Ov Type        Size  Object(Section)

    ../clib/angel/boardlib.s                 0x00000000   Number         0  boardinit3.o ABSOLUTE
    ../clib/angel/boardlib.s                 0x00000000   Number         0  boardshut.o ABSOLUTE
    ../clib/angel/boardlib.s                 0x00000000   Number         0  boardinit1.o ABSOLUTE
    ../clib/angel/boardlib.s                 0x00000000   Number         0  boardinit2.o ABSOLUTE
    ../clib/angel/dczerorl2.s                0x00000000   Number         0  __dczerorl2.o ABSOLUTE
    ../clib/angel/handlers.s                 0x00000000   Number         0  __scatter_zi.o ABSOLUTE
    ../clib/angel/kernel.s                   0x00000000   Number         0  __rtentry.o ABSOLUTE
    ../clib/angel/kernel.s                   0x00000000   Number         0  rtexit2.o ABSOLUTE
    ../clib/angel/kernel.s                   0x00000000   Number         0  __rtentry2.o ABSOLUTE
    ../clib/angel/kernel.s                   0x00000000   Number         0  rtexit.o ABSOLUTE
    ../clib/angel/kernel.s                   0x00000000   Number         0  __rtentry4.o ABSOLUTE
    ../clib/angel/rt.s                       0x00000000   Number         0  rt_raise.o ABSOLUTE
    ../clib/angel/rt.s                       0x00000000   Number         0  rt_locale.o ABSOLUTE
    ../clib/angel/rt.s                       0x00000000   Number         0  rt_heap_descriptor_intlibspace.o ABSOLUTE
    ../clib/angel/rt.s                       0x00000000   Number         0  rt_errno_addr_intlibspace.o ABSOLUTE
    ../clib/angel/rt.s                       0x00000000   Number         0  rt_locale_intlibspace.o ABSOLUTE
    ../clib/angel/rt.s                       0x00000000   Number         0  rt_errno_addr.o ABSOLUTE
    ../clib/angel/rt.s                       0x00000000   Number         0  rt_heap_descriptor.o ABSOLUTE
    ../clib/angel/scatter.s                  0x00000000   Number         0  __scatter.o ABSOLUTE
    ../clib/angel/startup.s                  0x00000000   Number         0  __main.o ABSOLUTE
    ../clib/angel/sys.s                      0x00000000   Number         0  mutex_dummy.o ABSOLUTE
    ../clib/angel/sys.s                      0x00000000   Number         0  sys_stackheap_outer.o ABSOLUTE
    ../clib/angel/sys.s                      0x00000000   Number         0  use_no_semi_2.o ABSOLUTE
    ../clib/angel/sys.s                      0x00000000   Number         0  use_no_semi.o ABSOLUTE
    ../clib/angel/sys.s                      0x00000000   Number         0  libspace.o ABSOLUTE
    ../clib/angel/sys.s                      0x00000000   Number         0  indicate_semi.o ABSOLUTE
    ../clib/angel/sysapp.c                   0x00000000   Number         0  sys_wrch.o ABSOLUTE
    ../clib/angel/sysapp.c                   0x00000000   Number         0  sys_command.o ABSOLUTE
    ../clib/armsys.c                         0x00000000   Number         0  _get_argv.o ABSOLUTE
    ../clib/armsys.c                         0x00000000   Number         0  no_argv.o ABSOLUTE
    ../clib/armsys.c                         0x00000000   Number         0  _get_argv_nomalloc.o ABSOLUTE
    ../clib/armsys.c                         0x00000000   Number         0  argv_veneer.o ABSOLUTE
    ../clib/armsys.c                         0x00000000   Number         0  argv_veneer.o ABSOLUTE
    ../clib/bigflt.c                         0x00000000   Number         0  bigflt0.o ABSOLUTE
    ../clib/btod.s                           0x00000000   Number         0  btod.o ABSOLUTE
    ../clib/fenv.c                           0x00000000   Number         0  _rserrno.o ABSOLUTE
    ../clib/heap1.c                          0x00000000   Number         0  h1_free.o ABSOLUTE
    ../clib/heap1.c                          0x00000000   Number         0  h1_final.o ABSOLUTE
    ../clib/heap1.c                          0x00000000   Number         0  h1_init_mt.o ABSOLUTE
    ../clib/heap1.c                          0x00000000   Number         0  h1_extend_mt.o ABSOLUTE
    ../clib/heap1.c                          0x00000000   Number         0  h1_alloc.o ABSOLUTE
    ../clib/heap1.c                          0x00000000   Number         0  h1_extend.o ABSOLUTE
    ../clib/heap1.c                          0x00000000   Number         0  h1_init.o ABSOLUTE
    ../clib/heap1.c                          0x00000000   Number         0  h1_free_mt.o ABSOLUTE
    ../clib/heap1.c                          0x00000000   Number         0  h1_final_mt.o ABSOLUTE
    ../clib/heap1.c                          0x00000000   Number         0  h1_alloc_mt.o ABSOLUTE
    ../clib/heap2.c                          0x00000000   Number         0  fdtree.o ABSOLUTE
    ../clib/heap2.c                          0x00000000   Number         0  heap2.o ABSOLUTE
    ../clib/heap2.c                          0x00000000   Number         0  heap2mt.o ABSOLUTE
    ../clib/heapalloc.c                      0x00000000   Number         0  free.o ABSOLUTE
    ../clib/heapalloc.c                      0x00000000   Number         0  hrguard.o ABSOLUTE
    ../clib/heapalloc.c                      0x00000000   Number         0  malloc.o ABSOLUTE
    ../clib/heapalloc.c                      0x00000000   Number         0  heapstubs.o ABSOLUTE
    ../clib/heapalloc.c                      0x00000000   Number         0  init_alloc.o ABSOLUTE
    ../clib/heapalloc.c                      0x00000000   Number         0  hguard.o ABSOLUTE
    ../clib/heapalloc.c                      0x00000000   Number         0  maybetermalloc2.o ABSOLUTE
    ../clib/heapalloc.c                      0x00000000   Number         0  maybetermalloc1.o ABSOLUTE
    ../clib/heapalloc.c                      0x00000000   Number         0  maybetermalloc1.o ABSOLUTE
    ../clib/heapalloc.c                      0x00000000   Number         0  maybetermalloc2.o ABSOLUTE
    ../clib/heapalloc.c                      0x00000000   Number         0  term_alloc.o ABSOLUTE
    ../clib/heapaux.c                        0x00000000   Number         0  heapauxi.o ABSOLUTE
    ../clib/heapaux.c                        0x00000000   Number         0  heapauxa.o ABSOLUTE
    ../clib/libinit.s                        0x00000000   Number         0  libshutdown.o ABSOLUTE
    ../clib/libinit.s                        0x00000000   Number         0  libshutdown2.o ABSOLUTE
    ../clib/libinit.s                        0x00000000   Number         0  libinit2.o ABSOLUTE
    ../clib/libinit.s                        0x00000000   Number         0  libinit.o ABSOLUTE
    ../clib/locale.s                         0x00000000   Number         0  lc_numeric_c.o ABSOLUTE
    ../clib/longlong.s                       0x00000000   Number         0  lludiv10.o ABSOLUTE
    ../clib/memcpset.s                       0x00000000   Number         0  strcmpv7m.o ABSOLUTE
    ../clib/memcpset.s                       0x00000000   Number         0  rt_memclr_w.o ABSOLUTE
    ../clib/memcpset.s                       0x00000000   Number         0  rt_memclr.o ABSOLUTE
    ../clib/memcpset.s                       0x00000000   Number         0  rt_memcpy_w.o ABSOLUTE
    ../clib/memcpset.s                       0x00000000   Number         0  rt_memcpy_v6.o ABSOLUTE
    ../clib/memcpset.s                       0x00000000   Number         0  aeabi_memset.o ABSOLUTE
    ../clib/misc.s                           0x00000000   Number         0  printf_stubs.o ABSOLUTE
    ../clib/printf.c                         0x00000000   Number         0  __2printf.o ABSOLUTE
    ../clib/printf.c                         0x00000000   Number         0  _printf_dec.o ABSOLUTE
    ../clib/printf.c                         0x00000000   Number         0  _printf_str.o ABSOLUTE
    ../clib/printf.c                         0x00000000   Number         0  _printf_pad.o ABSOLUTE
    ../clib/printf.c                         0x00000000   Number         0  __printf.o ABSOLUTE
    ../clib/printf.c                         0x00000000   Number         0  noretval__2printf.o ABSOLUTE
    ../clib/printf.c                         0x00000000   Number         0  _printf_char.o ABSOLUTE
    ../clib/printf.c                         0x00000000   Number         0  _printf_intcommon.o ABSOLUTE
    ../clib/printf.c                         0x00000000   Number         0  _printf_char_file.o ABSOLUTE
    ../clib/printf.c                         0x00000000   Number         0  __printf_flags_wp.o ABSOLUTE
    ../clib/printf.c                         0x00000000   Number         0  _printf_fp_infnan.o ABSOLUTE
    ../clib/printf.c                         0x00000000   Number         0  _printf_fp_dec.o ABSOLUTE
    ../clib/printf.c                         0x00000000   Number         0  _printf_char_common.o ABSOLUTE
    ../clib/printf.c                         0x00000000   Number         0  __printf_flags_ss.o ABSOLUTE
    ../clib/printf.c                         0x00000000   Number         0  __printf_ss.o ABSOLUTE
    ../clib/printf.c                         0x00000000   Number         0  __printf_ss_wp.o ABSOLUTE
    ../clib/printf.c                         0x00000000   Number         0  __printf_flags_ss_wp.o ABSOLUTE
    ../clib/printf.c                         0x00000000   Number         0  _printf_hex_int_ll_ptr.o ABSOLUTE
    ../clib/printf.c                         0x00000000   Number         0  _printf_hex_ll_ptr.o ABSOLUTE
    ../clib/printf.c                         0x00000000   Number         0  _printf_hex_int_ptr.o ABSOLUTE
    ../clib/printf.c                         0x00000000   Number         0  _printf_hex_ptr.o ABSOLUTE
    ../clib/printf.c                         0x00000000   Number         0  __printf_nopercent.o ABSOLUTE
    ../clib/printf.c                         0x00000000   Number         0  _printf_hex_int_ll.o ABSOLUTE
    ../clib/printf.c                         0x00000000   Number         0  _printf_hex_int.o ABSOLUTE
    ../clib/printf.c                         0x00000000   Number         0  __printf_wp.o ABSOLUTE
    ../clib/printf.c                         0x00000000   Number         0  __printf_flags.o ABSOLUTE
    ../clib/printf.c                         0x00000000   Number         0  _printf_hex_ll.o ABSOLUTE
    ../clib/printf_percent.s                 0x00000000   Number         0  _printf_f.o ABSOLUTE
    ../clib/printf_percent.s                 0x00000000   Number         0  _printf_percent.o ABSOLUTE
    ../clib/printf_percent.s                 0x00000000   Number         0  _printf_c.o ABSOLUTE
    ../clib/printf_percent.s                 0x00000000   Number         0  _printf_d.o ABSOLUTE
    ../clib/printf_percent.s                 0x00000000   Number         0  _printf_s.o ABSOLUTE
    ../clib/printf_percent.s                 0x00000000   Number         0  _printf_x.o ABSOLUTE
    ../clib/printf_percent.s                 0x00000000   Number         0  _printf_percent_end.o ABSOLUTE
    ../clib/signal.c                         0x00000000   Number         0  __raise.o ABSOLUTE
    ../clib/signal.c                         0x00000000   Number         0  defsig_rtmem_formal.o ABSOLUTE
    ../clib/signal.c                         0x00000000   Number         0  defsig_fpe_inner.o ABSOLUTE
    ../clib/signal.c                         0x00000000   Number         0  defsig_rtmem_inner.o ABSOLUTE
    ../clib/signal.c                         0x00000000   Number         0  defsig_general.o ABSOLUTE
    ../clib/signal.c                         0x00000000   Number         0  defsig_other.o ABSOLUTE
    ../clib/signal.c                         0x00000000   Number         0  defsig_abrt_inner.o ABSOLUTE
    ../clib/signal.c                         0x00000000   Number         0  defsig_segv_inner.o ABSOLUTE
    ../clib/signal.c                         0x00000000   Number         0  defsig_exit.o ABSOLUTE
    ../clib/signal.c                         0x00000000   Number         0  defsig_cppl_inner.o ABSOLUTE
    ../clib/signal.c                         0x00000000   Number         0  defsig_rtred_inner.o ABSOLUTE
    ../clib/signal.c                         0x00000000   Number         0  defsig_stak_inner.o ABSOLUTE
    ../clib/signal.c                         0x00000000   Number         0  defsig_rtmem_outer.o ABSOLUTE
    ../clib/signal.c                         0x00000000   Number         0  defsig_pvfn_inner.o ABSOLUTE
    ../clib/signal.s                         0x00000000   Number         0  defsig.o ABSOLUTE
    ../clib/stdio.c                          0x00000000   Number         0  ferror_locked.o ABSOLUTE
    ../clib/stdio.c                          0x00000000   Number         0  ferror.o ABSOLUTE
    ../clib/stdlib.c                         0x00000000   Number         0  exit.o ABSOLUTE
    ../fplib/basic.s                         0x00000000   Number         0  basic.o ABSOLUTE
    ../fplib/d2f.s                           0x00000000   Number         0  d2f.o ABSOLUTE
    ../fplib/daddsub.s                       0x00000000   Number         0  daddsub_clz.o ABSOLUTE
    ../fplib/dcheck1.s                       0x00000000   Number         0  dcheck1.o ABSOLUTE
    ../fplib/dcmpi.s                         0x00000000   Number         0  dcmpi.o ABSOLUTE
    ../fplib/ddiv.s                          0x00000000   Number         0  ddiv.o ABSOLUTE
    ../fplib/dfix.s                          0x00000000   Number         0  dfix.o ABSOLUTE
    ../fplib/dfixu.s                         0x00000000   Number         0  dfixu.o ABSOLUTE
    ../fplib/dflt.s                          0x00000000   Number         0  dflt_clz.o ABSOLUTE
    ../fplib/dleqf.s                         0x00000000   Number         0  dleqf.o ABSOLUTE
    ../fplib/dmul.s                          0x00000000   Number         0  dmul.o ABSOLUTE
    ../fplib/dnaninf.s                       0x00000000   Number         0  dnaninf.o ABSOLUTE
    ../fplib/dretinf.s                       0x00000000   Number         0  dretinf.o ABSOLUTE
    ../fplib/drleqf.s                        0x00000000   Number         0  drleqf.o ABSOLUTE
    ../fplib/dsqrt.s                         0x00000000   Number         0  dsqrt_umaal.o ABSOLUTE
    ../fplib/f2d.s                           0x00000000   Number         0  f2d.o ABSOLUTE
    ../fplib/fnaninf.s                       0x00000000   Number         0  fnaninf.o ABSOLUTE
    ../fplib/fpinit.s                        0x00000000   Number         0  fpinit.o ABSOLUTE
    ../fplib/fretinf.s                       0x00000000   Number         0  fretinf.o ABSOLUTE
    ../fplib/istatus.s                       0x00000000   Number         0  istatus.o ABSOLUTE
    ../fplib/printf1.s                       0x00000000   Number         0  printf1.o ABSOLUTE
    ../fplib/retnan.s                        0x00000000   Number         0  retnan.o ABSOLUTE
    ../fplib/scalbn.s                        0x00000000   Number         0  scalbn.o ABSOLUTE
    ../fplib/trapv.s                         0x00000000   Number         0  trapv.o ABSOLUTE
    ../fplib/usenofp.s                       0x00000000   Number         0  usenofp.o ABSOLUTE
    ../mathlib/atanf.c                       0x00000000   Number         0  atanf_x.o ABSOLUTE
    ../mathlib/atanf.c                       0x00000000   Number         0  atanf.o ABSOLUTE
    ../mathlib/cos_i.c                       0x00000000   Number         0  cos_i.o ABSOLUTE
    ../mathlib/dunder.c                      0x00000000   Number         0  dunder.o ABSOLUTE
    ../mathlib/fabs.c                        0x00000000   Number         0  fabs.o ABSOLUTE
    ../mathlib/fpclassify.c                  0x00000000   Number         0  fpclassify.o ABSOLUTE
    ../mathlib/fpclassifyf.c                 0x00000000   Number         0  fpclassifyf.o ABSOLUTE
    ../mathlib/funder.c                      0x00000000   Number         0  funder.o ABSOLUTE
    ../mathlib/poly.c                        0x00000000   Number         0  poly.o ABSOLUTE
    ../mathlib/pow.c                         0x00000000   Number         0  pow.o ABSOLUTE
    ../mathlib/pow.c                         0x00000000   Number         0  pow_x.o ABSOLUTE
    ../mathlib/qnan.c                        0x00000000   Number         0  qnan.o ABSOLUTE
    ../mathlib/rred.c                        0x00000000   Number         0  rred.o ABSOLUTE
    ../mathlib/rredf.c                       0x00000000   Number         0  rredf.o ABSOLUTE
    ../mathlib/sin.c                         0x00000000   Number         0  sin_x.o ABSOLUTE
    ../mathlib/sin.c                         0x00000000   Number         0  sin.o ABSOLUTE
    ../mathlib/sin_i.c                       0x00000000   Number         0  sin_i_x.o ABSOLUTE
    ../mathlib/sin_i.c                       0x00000000   Number         0  sin_i.o ABSOLUTE
    ../mathlib/sinf.c                        0x00000000   Number         0  sinf_x.o ABSOLUTE
    ../mathlib/sinf.c                        0x00000000   Number         0  sinf.o ABSOLUTE
    ../mathlib/sqrt.c                        0x00000000   Number         0  sqrt_x.o ABSOLUTE
    ../mathlib/sqrt.c                        0x00000000   Number         0  sqrt.o ABSOLUTE
    ..\..\STM32\src\misc.c                   0x00000000   Number         0  misc.o ABSOLUTE
    ..\..\STM32\src\stm32f4xx_adc.c          0x00000000   Number         0  stm32f4xx_adc.o ABSOLUTE
    ..\..\STM32\src\stm32f4xx_dcmi.c         0x00000000   Number         0  stm32f4xx_dcmi.o ABSOLUTE
    ..\..\STM32\src\stm32f4xx_dma.c          0x00000000   Number         0  stm32f4xx_dma.o ABSOLUTE
    ..\..\STM32\src\stm32f4xx_exti.c         0x00000000   Number         0  stm32f4xx_exti.o ABSOLUTE
    ..\..\STM32\src\stm32f4xx_flash.c        0x00000000   Number         0  stm32f4xx_flash.o ABSOLUTE
    ..\..\STM32\src\stm32f4xx_gpio.c         0x00000000   Number         0  stm32f4xx_gpio.o ABSOLUTE
    ..\..\STM32\src\stm32f4xx_iwdg.c         0x00000000   Number         0  stm32f4xx_iwdg.o ABSOLUTE
    ..\..\STM32\src\stm32f4xx_rcc.c          0x00000000   Number         0  stm32f4xx_rcc.o ABSOLUTE
    ..\..\STM32\src\stm32f4xx_syscfg.c       0x00000000   Number         0  stm32f4xx_syscfg.o ABSOLUTE
    ..\..\STM32\src\stm32f4xx_tim.c          0x00000000   Number         0  stm32f4xx_tim.o ABSOLUTE
    ..\..\STM32\src\stm32f4xx_usart.c        0x00000000   Number         0  stm32f4xx_usart.o ABSOLUTE
    ..\..\STM32\src\stm32f4xx_wwdg.c         0x00000000   Number         0  stm32f4xx_wwdg.o ABSOLUTE
    ..\..\uCOS-II\Ports\ARM-Cortex-M3\Generic\RealView\os_cpu_a.asm 0x00000000   Number         0  os_cpu_a.o ABSOLUTE
    ..\..\uCOS-II\Ports\ARM-Cortex-M3\Generic\RealView\os_cpu_c.c 0x00000000   Number         0  os_cpu_c.o ABSOLUTE
    ..\..\uCOS-II\Ports\ARM-Cortex-M3\Generic\RealView\os_dbg.c 0x00000000   Number         0  os_dbg.o ABSOLUTE
    ..\..\uCOS-II\Source\os_core.c           0x00000000   Number         0  os_core.o ABSOLUTE
    ..\..\uCOS-II\Source\os_flag.c           0x00000000   Number         0  os_flag.o ABSOLUTE
    ..\..\uCOS-II\Source\os_mem.c            0x00000000   Number         0  os_mem.o ABSOLUTE
    ..\..\uCOS-II\Source\os_mutex.c          0x00000000   Number         0  os_mutex.o ABSOLUTE
    ..\..\uCOS-II\Source\os_sem.c            0x00000000   Number         0  os_sem.o ABSOLUTE
    ..\..\uCOS-II\Source\os_task.c           0x00000000   Number         0  os_task.o ABSOLUTE
    ..\..\uCOS-II\Source\os_time.c           0x00000000   Number         0  os_time.o ABSOLUTE
    ..\..\uCOS-II\Source\os_tmr.c            0x00000000   Number         0  os_tmr.o ABSOLUTE
    ..\\..\\STM32\\src\\misc.c               0x00000000   Number         0  misc.o ABSOLUTE
    ..\\..\\STM32\\src\\stm32f4xx_adc.c      0x00000000   Number         0  stm32f4xx_adc.o ABSOLUTE
    ..\\..\\STM32\\src\\stm32f4xx_dcmi.c     0x00000000   Number         0  stm32f4xx_dcmi.o ABSOLUTE
    ..\\..\\STM32\\src\\stm32f4xx_dma.c      0x00000000   Number         0  stm32f4xx_dma.o ABSOLUTE
    ..\\..\\STM32\\src\\stm32f4xx_exti.c     0x00000000   Number         0  stm32f4xx_exti.o ABSOLUTE
    ..\\..\\STM32\\src\\stm32f4xx_flash.c    0x00000000   Number         0  stm32f4xx_flash.o ABSOLUTE
    ..\\..\\STM32\\src\\stm32f4xx_gpio.c     0x00000000   Number         0  stm32f4xx_gpio.o ABSOLUTE
    ..\\..\\STM32\\src\\stm32f4xx_iwdg.c     0x00000000   Number         0  stm32f4xx_iwdg.o ABSOLUTE
    ..\\..\\STM32\\src\\stm32f4xx_rcc.c      0x00000000   Number         0  stm32f4xx_rcc.o ABSOLUTE
    ..\\..\\STM32\\src\\stm32f4xx_syscfg.c   0x00000000   Number         0  stm32f4xx_syscfg.o ABSOLUTE
    ..\\..\\STM32\\src\\stm32f4xx_tim.c      0x00000000   Number         0  stm32f4xx_tim.o ABSOLUTE
    ..\\..\\STM32\\src\\stm32f4xx_usart.c    0x00000000   Number         0  stm32f4xx_usart.o ABSOLUTE
    ..\\..\\STM32\\src\\stm32f4xx_wwdg.c     0x00000000   Number         0  stm32f4xx_wwdg.o ABSOLUTE
    ..\\..\\uCOS-II\\Ports\\ARM-Cortex-M3\\Generic\\RealView\\os_cpu_c.c 0x00000000   Number         0  os_cpu_c.o ABSOLUTE
    ..\\main.c                               0x00000000   Number         0  main.o ABSOLUTE
    ..\\user\\Aim\\Aim1.c                    0x00000000   Number         0  aim1.o ABSOLUTE
    ..\\user\\Aim\\Aim2.c                    0x00000000   Number         0  aim2.o ABSOLUTE
    ..\\user\\Aim\\Aim3.c                    0x00000000   Number         0  aim3.o ABSOLUTE
    ..\\user\\Aim\\AimAngleTracing.c         0x00000000   Number         0  aimangletracing.o ABSOLUTE
    ..\\user\\Aim\\AimBurr.c                 0x00000000   Number         0  aimburr.o ABSOLUTE
    ..\\user\\Aim\\AimData.c                 0x00000000   Number         0  aimdata.o ABSOLUTE
    ..\\user\\Aim\\AimFiberInfo.c            0x00000000   Number         0  aimfiberinfo.o ABSOLUTE
    ..\\user\\Aim\\AimInstall.c              0x00000000   Number         0  aiminstall.o ABSOLUTE
    ..\\user\\Aim\\AimPrint.c                0x00000000   Number         0  aimprint.o ABSOLUTE
    ..\\user\\Aim\\Bim1.c                    0x00000000   Number         0  bim1.o ABSOLUTE
    ..\\user\\Aim\\Bim2.c                    0x00000000   Number         0  bim2.o ABSOLUTE
    ..\\user\\Aim\\ChangeAim1.c              0x00000000   Number         0  changeaim1.o ABSOLUTE
    ..\\user\\Aim\\ChangeAim2.c              0x00000000   Number         0  changeaim2.o ABSOLUTE
    ..\\user\\Aim\\ChangeAim3.c              0x00000000   Number         0  changeaim3.o ABSOLUTE
    ..\\user\\Aim\\FiberCoreQuality.c        0x00000000   Number         0  fibercorequality.o ABSOLUTE
    ..\\user\\Aim\\NewAimBurr.c              0x00000000   Number         0  newaimburr.o ABSOLUTE
    ..\\user\\Bsp_Ctrl\\BMP085.c             0x00000000   Number         0  bmp085.o ABSOLUTE
    ..\\user\\Bsp_Ctrl\\SHT20.c              0x00000000   Number         0  sht20.o ABSOLUTE
    ..\\user\\Camera\\Aim0.c                 0x00000000   Number         0  aim0.o ABSOLUTE
    ..\\user\\Camera\\CameraDevice.c         0x00000000   Number         0  cameradevice.o ABSOLUTE
    ..\\user\\Camera\\DCMI.c                 0x00000000   Number         0  dcmi.o ABSOLUTE
    ..\\user\\Camera\\DataCamera.c           0x00000000   Number         0  datacamera.o ABSOLUTE
    ..\\user\\Camera\\OV7725.c               0x00000000   Number         0  ov7725.o ABSOLUTE
    ..\\user\\Camera\\SCCB.c                 0x00000000   Number         0  sccb.o ABSOLUTE
    ..\\user\\Camera\\TaskCamera.c           0x00000000   Number         0  taskcamera.o ABSOLUTE
    ..\\user\\Camera\\camera.c               0x00000000   Number         0  camera.o ABSOLUTE
    ..\\user\\Communication\\CommunicationEx.c 0x00000000   Number         0  communicationex.o ABSOLUTE
    ..\\user\\Data\\Code7725.c               0x00000000   Number         0  code7725.o ABSOLUTE
    ..\\user\\Data\\CodeAim.c                0x00000000   Number         0  codeaim.o ABSOLUTE
    ..\\user\\Data\\CodeCore.c               0x00000000   Number         0  codecore.o ABSOLUTE
    ..\\user\\Data\\CodeLight.c              0x00000000   Number         0  codelight.o ABSOLUTE
    ..\\user\\Data\\Data7725.c               0x00000000   Number         0  data7725.o ABSOLUTE
    ..\\user\\Data\\DataAim.c                0x00000000   Number         0  dataaim.o ABSOLUTE
    ..\\user\\Data\\DataCore.c               0x00000000   Number         0  datacore.o ABSOLUTE
    ..\\user\\Data\\DataLight.c              0x00000000   Number         0  datalight.o ABSOLUTE
    ..\\user\\Data\\Flash.c                  0x00000000   Number         0  flash.o ABSOLUTE
    ..\\user\\Data\\ObjectCode.c             0x00000000   Number         0  objectcode.o ABSOLUTE
    ..\\user\\Data\\ObjectMemory.c           0x00000000   Number         0  objectmemory.o ABSOLUTE
    ..\\user\\EXTI\\FovGray.c                0x00000000   Number         0  fovgray.o ABSOLUTE
    ..\\user\\EXTI\\Hall.c                   0x00000000   Number         0  hall.o ABSOLUTE
    ..\\user\\EXTI\\HallDriver.c             0x00000000   Number         0  halldriver.o ABSOLUTE
    ..\\user\\EXTI\\USB.c                    0x00000000   Number         0  usb.o ABSOLUTE
    ..\\user\\Fiber\\Fiber.c                 0x00000000   Number         0  fiber.o ABSOLUTE
    ..\\user\\Filter\\Filter.c               0x00000000   Number         0  filter.o ABSOLUTE
    ..\\user\\Filter\\FilterAverage.c        0x00000000   Number         0  filteraverage.o ABSOLUTE
    ..\\user\\Filter\\FilterDelay.c          0x00000000   Number         0  filterdelay.o ABSOLUTE
    ..\\user\\Filter\\FilterMedian.c         0x00000000   Number         0  filtermedian.o ABSOLUTE
    ..\\user\\ImageBinaryzation\\BinaryData.c 0x00000000   Number         0  binarydata.o ABSOLUTE
    ..\\user\\ImageBinaryzation\\BinaryThreshold.c 0x00000000   Number         0  binarythreshold.o ABSOLUTE
    ..\\user\\ImageBinaryzation\\Binaryzation.c 0x00000000   Number         0  binaryzation.o ABSOLUTE
    ..\\user\\ImageSharp\\Sharp.c            0x00000000   Number         0  sharp.o ABSOLUTE
    ..\\user\\ImageSharp\\SharpData.c        0x00000000   Number         0  sharpdata.o ABSOLUTE
    ..\\user\\ImageSharp\\SharpLiner.c       0x00000000   Number         0  sharpliner.o ABSOLUTE
    ..\\user\\Image\\Image.c                 0x00000000   Number         0  image.o ABSOLUTE
    ..\\user\\Image\\ImageData.c             0x00000000   Number         0  imagedata.o ABSOLUTE
    ..\\user\\Image\\photo.c                 0x00000000   Number         0  photo.o ABSOLUTE
    ..\\user\\LED\\LED_Ctrl.c                0x00000000   Number         0  led_ctrl.o ABSOLUTE
    ..\\user\\LED\\LED_thread.c              0x00000000   Number         0  led_thread.o ABSOLUTE
    ..\\user\\Memory\\Memory.c               0x00000000   Number         0  memory.o ABSOLUTE
    ..\\user\\Memory\\MemoryInner.c          0x00000000   Number         0  memoryinner.o ABSOLUTE
    ..\\user\\Optical\\MAX4051.c             0x00000000   Number         0  max4051.o ABSOLUTE
    ..\\user\\Optical\\comfun.c              0x00000000   Number         0  comfun.o ABSOLUTE
    ..\\user\\Splice\\ComputeCore.c          0x00000000   Number         0  computecore.o ABSOLUTE
    ..\\user\\Splice\\Diameter.c             0x00000000   Number         0  diameter.o ABSOLUTE
    ..\\user\\Splice\\LossCalculate.c        0x00000000   Number         0  losscalculate.o ABSOLUTE
    ..\\user\\Splice\\PreLoss.c              0x00000000   Number         0  preloss.o ABSOLUTE
    ..\\user\\Splice\\Splice.c               0x00000000   Number         0  splice.o ABSOLUTE
    ..\\user\\Splice\\SubPixelLines.c        0x00000000   Number         0  subpixellines.o ABSOLUTE
    ..\\user\\TaskCommunication\\TaskCommunication.c 0x00000000   Number         0  taskcommunication.o ABSOLUTE
    ..\\user\\TaskControl\\StateMachine.c    0x00000000   Number         0  statemachine.o ABSOLUTE
    ..\\user\\TaskControl\\TaskControl.c     0x00000000   Number         0  taskcontrol.o ABSOLUTE
    ..\\user\\TaskCurrent\\CurrentTracing.c  0x00000000   Number         0  currenttracing.o ABSOLUTE
    ..\\user\\TaskCurrent\\CurrentTracingEx.c 0x00000000   Number         0  currenttracingex.o ABSOLUTE
    ..\\user\\TaskCurrent\\Current_Test.c    0x00000000   Number         0  current_test.o ABSOLUTE
    ..\\user\\TaskDebug\\DbgProtocal.c       0x00000000   Number         0  dbgprotocal.o ABSOLUTE
    ..\\user\\TaskDebug\\debug_word.c        0x00000000   Number         0  debug_word.o ABSOLUTE
    ..\\user\\TaskElectrode\\Electrode_Test.c 0x00000000   Number         0  electrode_test.o ABSOLUTE
    ..\\user\\TaskElectrode\\Electrode_TestEx.c 0x00000000   Number         0  electrode_testex.o ABSOLUTE
    ..\\user\\TaskIdle\\TaskIdle.c           0x00000000   Number         0  taskidle.o ABSOLUTE
    ..\\user\\Usart\\Communication.c         0x00000000   Number         0  communication.o ABSOLUTE
    ..\\user\\Usart\\Data_Usart.c            0x00000000   Number         0  data_usart.o ABSOLUTE
    ..\\user\\Usart\\Usart_Communication.c   0x00000000   Number         0  usart_communication.o ABSOLUTE
    ..\\user\\Usart\\usart3.c                0x00000000   Number         0  usart3.o ABSOLUTE
    ..\\user\\Usart\\usart5.c                0x00000000   Number         0  usart5.o ABSOLUTE
    ..\\user\\system_stm32f4xx.c             0x00000000   Number         0  system_stm32f4xx.o ABSOLUTE
    ..\\user\\tools\\AppDog.c                0x00000000   Number         0  appdog.o ABSOLUTE
    ..\\user\\tools\\ImageTools.c            0x00000000   Number         0  imagetools.o ABSOLUTE
    ..\\user\\tools\\InitApp.c               0x00000000   Number         0  initapp.o ABSOLUTE
    ..\\user\\tools\\Iwdg.c                  0x00000000   Number         0  iwdg.o ABSOLUTE
    ..\\user\\tools\\bsp_delay.c             0x00000000   Number         0  bsp_delay.o ABSOLUTE
    ..\\user\\tools\\heap.c                  0x00000000   Number         0  heap.o ABSOLUTE
    ..\\user\\tools\\mmath.c                 0x00000000   Number         0  mmath.o ABSOLUTE
    ..\main.c                                0x00000000   Number         0  main.o ABSOLUTE
    ..\user\Aim\Aim1.c                       0x00000000   Number         0  aim1.o ABSOLUTE
    ..\user\Aim\Aim2.c                       0x00000000   Number         0  aim2.o ABSOLUTE
    ..\user\Aim\Aim3.c                       0x00000000   Number         0  aim3.o ABSOLUTE
    ..\user\Aim\AimAngleTracing.c            0x00000000   Number         0  aimangletracing.o ABSOLUTE
    ..\user\Aim\AimBurr.c                    0x00000000   Number         0  aimburr.o ABSOLUTE
    ..\user\Aim\AimData.c                    0x00000000   Number         0  aimdata.o ABSOLUTE
    ..\user\Aim\AimFiberInfo.c               0x00000000   Number         0  aimfiberinfo.o ABSOLUTE
    ..\user\Aim\AimInstall.c                 0x00000000   Number         0  aiminstall.o ABSOLUTE
    ..\user\Aim\AimPrint.c                   0x00000000   Number         0  aimprint.o ABSOLUTE
    ..\user\Aim\Bim1.c                       0x00000000   Number         0  bim1.o ABSOLUTE
    ..\user\Aim\Bim2.c                       0x00000000   Number         0  bim2.o ABSOLUTE
    ..\user\Aim\ChangeAim1.c                 0x00000000   Number         0  changeaim1.o ABSOLUTE
    ..\user\Aim\ChangeAim2.c                 0x00000000   Number         0  changeaim2.o ABSOLUTE
    ..\user\Aim\ChangeAim3.c                 0x00000000   Number         0  changeaim3.o ABSOLUTE
    ..\user\Aim\FiberCoreQuality.c           0x00000000   Number         0  fibercorequality.o ABSOLUTE
    ..\user\Aim\NewAimBurr.c                 0x00000000   Number         0  newaimburr.o ABSOLUTE
    ..\user\Bsp_Ctrl\BMP085.c                0x00000000   Number         0  bmp085.o ABSOLUTE
    ..\user\Bsp_Ctrl\SHT20.c                 0x00000000   Number         0  sht20.o ABSOLUTE
    ..\user\Camera\Aim0.c                    0x00000000   Number         0  aim0.o ABSOLUTE
    ..\user\Camera\CameraDevice.c            0x00000000   Number         0  cameradevice.o ABSOLUTE
    ..\user\Camera\DCMI.c                    0x00000000   Number         0  dcmi.o ABSOLUTE
    ..\user\Camera\DataCamera.c              0x00000000   Number         0  datacamera.o ABSOLUTE
    ..\user\Camera\OV7725.c                  0x00000000   Number         0  ov7725.o ABSOLUTE
    ..\user\Camera\SCCB.c                    0x00000000   Number         0  sccb.o ABSOLUTE
    ..\user\Camera\TaskCamera.c              0x00000000   Number         0  taskcamera.o ABSOLUTE
    ..\user\Camera\camera.c                  0x00000000   Number         0  camera.o ABSOLUTE
    ..\user\Communication\CommunicationEx.c  0x00000000   Number         0  communicationex.o ABSOLUTE
    ..\user\Data\Code7725.c                  0x00000000   Number         0  code7725.o ABSOLUTE
    ..\user\Data\CodeAim.c                   0x00000000   Number         0  codeaim.o ABSOLUTE
    ..\user\Data\CodeCore.c                  0x00000000   Number         0  codecore.o ABSOLUTE
    ..\user\Data\CodeLight.c                 0x00000000   Number         0  codelight.o ABSOLUTE
    ..\user\Data\Data7725.c                  0x00000000   Number         0  data7725.o ABSOLUTE
    ..\user\Data\DataAim.c                   0x00000000   Number         0  dataaim.o ABSOLUTE
    ..\user\Data\DataCore.c                  0x00000000   Number         0  datacore.o ABSOLUTE
    ..\user\Data\DataLight.c                 0x00000000   Number         0  datalight.o ABSOLUTE
    ..\user\Data\Flash.c                     0x00000000   Number         0  flash.o ABSOLUTE
    ..\user\Data\ObjectCode.c                0x00000000   Number         0  objectcode.o ABSOLUTE
    ..\user\Data\ObjectMemory.c              0x00000000   Number         0  objectmemory.o ABSOLUTE
    ..\user\EXTI\FovGray.c                   0x00000000   Number         0  fovgray.o ABSOLUTE
    ..\user\EXTI\Hall.c                      0x00000000   Number         0  hall.o ABSOLUTE
    ..\user\EXTI\HallDriver.c                0x00000000   Number         0  halldriver.o ABSOLUTE
    ..\user\EXTI\USB.c                       0x00000000   Number         0  usb.o ABSOLUTE
    ..\user\Fiber\Fiber.c                    0x00000000   Number         0  fiber.o ABSOLUTE
    ..\user\Filter\Filter.c                  0x00000000   Number         0  filter.o ABSOLUTE
    ..\user\Filter\FilterAverage.c           0x00000000   Number         0  filteraverage.o ABSOLUTE
    ..\user\Filter\FilterDelay.c             0x00000000   Number         0  filterdelay.o ABSOLUTE
    ..\user\Filter\FilterMedian.c            0x00000000   Number         0  filtermedian.o ABSOLUTE
    ..\user\ImageBinaryzation\BinaryData.c   0x00000000   Number         0  binarydata.o ABSOLUTE
    ..\user\ImageBinaryzation\BinaryThreshold.c 0x00000000   Number         0  binarythreshold.o ABSOLUTE
    ..\user\ImageBinaryzation\Binaryzation.c 0x00000000   Number         0  binaryzation.o ABSOLUTE
    ..\user\ImageSharp\Sharp.c               0x00000000   Number         0  sharp.o ABSOLUTE
    ..\user\ImageSharp\SharpData.c           0x00000000   Number         0  sharpdata.o ABSOLUTE
    ..\user\ImageSharp\SharpLiner.c          0x00000000   Number         0  sharpliner.o ABSOLUTE
    ..\user\Image\Image.c                    0x00000000   Number         0  image.o ABSOLUTE
    ..\user\Image\ImageData.c                0x00000000   Number         0  imagedata.o ABSOLUTE
    ..\user\Image\photo.c                    0x00000000   Number         0  photo.o ABSOLUTE
    ..\user\LED\LED_Ctrl.c                   0x00000000   Number         0  led_ctrl.o ABSOLUTE
    ..\user\LED\LED_thread.c                 0x00000000   Number         0  led_thread.o ABSOLUTE
    ..\user\Memory\Memory.c                  0x00000000   Number         0  memory.o ABSOLUTE
    ..\user\Memory\MemoryInner.c             0x00000000   Number         0  memoryinner.o ABSOLUTE
    ..\user\Optical\MAX4051.c                0x00000000   Number         0  max4051.o ABSOLUTE
    ..\user\Optical\comfun.c                 0x00000000   Number         0  comfun.o ABSOLUTE
    ..\user\Splice\ComputeCore.c             0x00000000   Number         0  computecore.o ABSOLUTE
    ..\user\Splice\Diameter.c                0x00000000   Number         0  diameter.o ABSOLUTE
    ..\user\Splice\LossCalculate.c           0x00000000   Number         0  losscalculate.o ABSOLUTE
    ..\user\Splice\PreLoss.c                 0x00000000   Number         0  preloss.o ABSOLUTE
    ..\user\Splice\Splice.c                  0x00000000   Number         0  splice.o ABSOLUTE
    ..\user\Splice\SubPixelLines.c           0x00000000   Number         0  subpixellines.o ABSOLUTE
    ..\user\TaskCommunication\TaskCommunication.c 0x00000000   Number         0  taskcommunication.o ABSOLUTE
    ..\user\TaskControl\StateMachine.c       0x00000000   Number         0  statemachine.o ABSOLUTE
    ..\user\TaskControl\TaskControl.c        0x00000000   Number         0  taskcontrol.o ABSOLUTE
    ..\user\TaskCurrent\CurrentTracing.c     0x00000000   Number         0  currenttracing.o ABSOLUTE
    ..\user\TaskCurrent\CurrentTracingEx.c   0x00000000   Number         0  currenttracingex.o ABSOLUTE
    ..\user\TaskCurrent\Current_Test.c       0x00000000   Number         0  current_test.o ABSOLUTE
    ..\user\TaskDebug\DbgProtocal.c          0x00000000   Number         0  dbgprotocal.o ABSOLUTE
    ..\user\TaskDebug\debug_word.c           0x00000000   Number         0  debug_word.o ABSOLUTE
    ..\user\TaskElectrode\Electrode_Test.c   0x00000000   Number         0  electrode_test.o ABSOLUTE
    ..\user\TaskElectrode\Electrode_TestEx.c 0x00000000   Number         0  electrode_testex.o ABSOLUTE
    ..\user\TaskIdle\TaskIdle.c              0x00000000   Number         0  taskidle.o ABSOLUTE
    ..\user\Usart\Communication.c            0x00000000   Number         0  communication.o ABSOLUTE
    ..\user\Usart\Data_Usart.c               0x00000000   Number         0  data_usart.o ABSOLUTE
    ..\user\Usart\Usart_Communication.c      0x00000000   Number         0  usart_communication.o ABSOLUTE
    ..\user\Usart\usart3.c                   0x00000000   Number         0  usart3.o ABSOLUTE
    ..\user\Usart\usart5.c                   0x00000000   Number         0  usart5.o ABSOLUTE
    ..\user\startup_stm32f4xx.s              0x00000000   Number         0  startup_stm32f4xx.o ABSOLUTE
    ..\user\system_stm32f4xx.c               0x00000000   Number         0  system_stm32f4xx.o ABSOLUTE
    ..\user\tools\AppDog.c                   0x00000000   Number         0  appdog.o ABSOLUTE
    ..\user\tools\ImageTools.c               0x00000000   Number         0  imagetools.o ABSOLUTE
    ..\user\tools\InitApp.c                  0x00000000   Number         0  initapp.o ABSOLUTE
    ..\user\tools\Iwdg.c                     0x00000000   Number         0  iwdg.o ABSOLUTE
    ..\user\tools\bsp_delay.c                0x00000000   Number         0  bsp_delay.o ABSOLUTE
    ..\user\tools\heap.c                     0x00000000   Number         0  heap.o ABSOLUTE
    ..\user\tools\mmath.c                    0x00000000   Number         0  mmath.o ABSOLUTE
    dc.s                                     0x00000000   Number         0  dc.o ABSOLUTE
    release\AimSubPixel.c                    0x00000000   Number         0  aimsubpixel.o ABSOLUTE
    release\EdgeDetect.c                     0x00000000   Number         0  edgedetect.o ABSOLUTE
    release\Subscribe.c                      0x00000000   Number         0  subscribe.o ABSOLUTE
    release\\AimSubPixel.c                   0x00000000   Number         0  aimsubpixel.o ABSOLUTE
    release\\EdgeDetect.c                    0x00000000   Number         0  edgedetect.o ABSOLUTE
    release\\Subscribe.c                     0x00000000   Number         0  subscribe.o ABSOLUTE
    .ARM.__AT_0x0800C010                     0x0800c010   Section       22  codecore.o(.ARM.__AT_0x0800C010)
    __core                                   0x0800c010   Data          22  codecore.o(.ARM.__AT_0x0800C010)
    .ARM.__AT_0x0800C028                     0x0800c028   Section       60  codeaim.o(.ARM.__AT_0x0800C028)
    __aim0                                   0x0800c028   Data          60  codeaim.o(.ARM.__AT_0x0800C028)
    .ARM.__AT_0x0800C118                     0x0800c118   Section      512  code7725.o(.ARM.__AT_0x0800C118)
    ___7726                                  0x0800c118   Data         512  code7725.o(.ARM.__AT_0x0800C118)
    .ARM.__AT_0x0800C318                     0x0800c318   Section      512  code7725.o(.ARM.__AT_0x0800C318)
    ___BF3005                                0x0800c318   Data         512  code7725.o(.ARM.__AT_0x0800C318)
    .ARM.__AT_0x0800C518                     0x0800c518   Section      512  code7725.o(.ARM.__AT_0x0800C518)
    ___BF3005_DARK                           0x0800c518   Data         512  code7725.o(.ARM.__AT_0x0800C518)
    .ARM.__AT_0x0800C718                     0x0800c718   Section       18  codelight.o(.ARM.__AT_0x0800C718)
    .ARM.__AT_0x0800C72C                     0x0800c72c   Section       18  codelight.o(.ARM.__AT_0x0800C72C)
    _dark1                                   0x0800c72c   Data          18  codelight.o(.ARM.__AT_0x0800C72C)
    .ARM.__AT_0x0800C740                     0x0800c740   Section       18  codelight.o(.ARM.__AT_0x0800C740)
    _dark2                                   0x0800c740   Data          18  codelight.o(.ARM.__AT_0x0800C740)
    .ARM.__AT_0x0800C754                     0x0800c754   Section       18  codelight.o(.ARM.__AT_0x0800C754)
    _dark3                                   0x0800c754   Data          18  codelight.o(.ARM.__AT_0x0800C754)
    .ARM.__AT_0x0800C768                     0x0800c768   Section       18  codelight.o(.ARM.__AT_0x0800C768)
    _dark4                                   0x0800c768   Data          18  codelight.o(.ARM.__AT_0x0800C768)
    .ARM.__AT_0x0800C77C                     0x0800c77c   Section       18  codelight.o(.ARM.__AT_0x0800C77C)
    _dark5                                   0x0800c77c   Data          18  codelight.o(.ARM.__AT_0x0800C77C)
    RESET                                    0x08010000   Section      392  startup_stm32f4xx.o(RESET)
    !!!main                                  0x08010188   Section        8  __main.o(!!!main)
    !!!scatter                               0x08010190   Section       52  __scatter.o(!!!scatter)
    !!dczerorl2                              0x080101c4   Section       90  __dczerorl2.o(!!dczerorl2)
    !!handler_zi                             0x08010220   Section       28  __scatter_zi.o(!!handler_zi)
    .ARM.Collect$$_printf_percent$$00000000  0x0801023c   Section        0  _printf_percent.o(.ARM.Collect$$_printf_percent$$00000000)
    .ARM.Collect$$_printf_percent$$00000003  0x0801023c   Section        6  _printf_f.o(.ARM.Collect$$_printf_percent$$00000003)
    .ARM.Collect$$_printf_percent$$00000009  0x08010242   Section        6  _printf_d.o(.ARM.Collect$$_printf_percent$$00000009)
    .ARM.Collect$$_printf_percent$$0000000C  0x08010248   Section        6  _printf_x.o(.ARM.Collect$$_printf_percent$$0000000C)
    .ARM.Collect$$_printf_percent$$00000013  0x0801024e   Section        6  _printf_c.o(.ARM.Collect$$_printf_percent$$00000013)
    .ARM.Collect$$_printf_percent$$00000014  0x08010254   Section        6  _printf_s.o(.ARM.Collect$$_printf_percent$$00000014)
    .ARM.Collect$$_printf_percent$$00000017  0x0801025a   Section        4  _printf_percent_end.o(.ARM.Collect$$_printf_percent$$00000017)
    .ARM.Collect$$libinit$$00000000          0x0801025e   Section        2  libinit.o(.ARM.Collect$$libinit$$00000000)
    .ARM.Collect$$libinit$$00000001          0x08010260   Section        4  libinit2.o(.ARM.Collect$$libinit$$00000001)
    .ARM.Collect$$libinit$$00000004          0x08010264   Section        0  libinit2.o(.ARM.Collect$$libinit$$00000004)
    .ARM.Collect$$libinit$$0000000A          0x08010264   Section        0  libinit2.o(.ARM.Collect$$libinit$$0000000A)
    .ARM.Collect$$libinit$$0000000C          0x08010264   Section        0  libinit2.o(.ARM.Collect$$libinit$$0000000C)
    .ARM.Collect$$libinit$$0000000E          0x08010264   Section        0  libinit2.o(.ARM.Collect$$libinit$$0000000E)
    .ARM.Collect$$libinit$$0000000F          0x08010264   Section        6  libinit2.o(.ARM.Collect$$libinit$$0000000F)
    .ARM.Collect$$libinit$$00000011          0x0801026a   Section        0  libinit2.o(.ARM.Collect$$libinit$$00000011)
    .ARM.Collect$$libinit$$00000013          0x0801026a   Section        0  libinit2.o(.ARM.Collect$$libinit$$00000013)
    .ARM.Collect$$libinit$$00000015          0x0801026a   Section        0  libinit2.o(.ARM.Collect$$libinit$$00000015)
    .ARM.Collect$$libinit$$00000016          0x0801026a   Section       10  libinit2.o(.ARM.Collect$$libinit$$00000016)
    .ARM.Collect$$libinit$$00000017          0x08010274   Section        0  libinit2.o(.ARM.Collect$$libinit$$00000017)
    .ARM.Collect$$libinit$$00000019          0x08010274   Section        0  libinit2.o(.ARM.Collect$$libinit$$00000019)
    .ARM.Collect$$libinit$$0000001B          0x08010274   Section        0  libinit2.o(.ARM.Collect$$libinit$$0000001B)
    .ARM.Collect$$libinit$$0000001D          0x08010274   Section        0  libinit2.o(.ARM.Collect$$libinit$$0000001D)
    .ARM.Collect$$libinit$$0000001F          0x08010274   Section        0  libinit2.o(.ARM.Collect$$libinit$$0000001F)
    .ARM.Collect$$libinit$$00000021          0x08010274   Section        0  libinit2.o(.ARM.Collect$$libinit$$00000021)
    .ARM.Collect$$libinit$$00000023          0x08010274   Section        0  libinit2.o(.ARM.Collect$$libinit$$00000023)
    .ARM.Collect$$libinit$$00000025          0x08010274   Section        0  libinit2.o(.ARM.Collect$$libinit$$00000025)
    .ARM.Collect$$libinit$$0000002C          0x08010274   Section        0  libinit2.o(.ARM.Collect$$libinit$$0000002C)
    .ARM.Collect$$libinit$$0000002E          0x08010274   Section        0  libinit2.o(.ARM.Collect$$libinit$$0000002E)
    .ARM.Collect$$libinit$$00000030          0x08010274   Section        0  libinit2.o(.ARM.Collect$$libinit$$00000030)
    .ARM.Collect$$libinit$$00000032          0x08010274   Section        0  libinit2.o(.ARM.Collect$$libinit$$00000032)
    .ARM.Collect$$libinit$$00000033          0x08010274   Section        2  libinit2.o(.ARM.Collect$$libinit$$00000033)
    .ARM.Collect$$libshutdown$$00000000      0x08010276   Section        2  libshutdown.o(.ARM.Collect$$libshutdown$$00000000)
    .ARM.Collect$$libshutdown$$00000002      0x08010278   Section        0  libshutdown2.o(.ARM.Collect$$libshutdown$$00000002)
    .ARM.Collect$$libshutdown$$00000004      0x08010278   Section        0  libshutdown2.o(.ARM.Collect$$libshutdown$$00000004)
    .ARM.Collect$$libshutdown$$00000007      0x08010278   Section        0  libshutdown2.o(.ARM.Collect$$libshutdown$$00000007)
    .ARM.Collect$$libshutdown$$0000000A      0x08010278   Section        0  libshutdown2.o(.ARM.Collect$$libshutdown$$0000000A)
    .ARM.Collect$$libshutdown$$0000000C      0x08010278   Section        0  libshutdown2.o(.ARM.Collect$$libshutdown$$0000000C)
    .ARM.Collect$$libshutdown$$0000000F      0x08010278   Section        0  libshutdown2.o(.ARM.Collect$$libshutdown$$0000000F)
    .ARM.Collect$$libshutdown$$00000010      0x08010278   Section        2  libshutdown2.o(.ARM.Collect$$libshutdown$$00000010)
    .ARM.Collect$$rtentry$$00000000          0x0801027a   Section        0  __rtentry.o(.ARM.Collect$$rtentry$$00000000)
    .ARM.Collect$$rtentry$$00000002          0x0801027a   Section        0  __rtentry2.o(.ARM.Collect$$rtentry$$00000002)
    .ARM.Collect$$rtentry$$00000004          0x0801027a   Section        6  __rtentry4.o(.ARM.Collect$$rtentry$$00000004)
    .ARM.Collect$$rtentry$$00000009          0x08010280   Section        0  __rtentry2.o(.ARM.Collect$$rtentry$$00000009)
    .ARM.Collect$$rtentry$$0000000A          0x08010280   Section        4  __rtentry2.o(.ARM.Collect$$rtentry$$0000000A)
    .ARM.Collect$$rtentry$$0000000C          0x08010284   Section        0  __rtentry2.o(.ARM.Collect$$rtentry$$0000000C)
    .ARM.Collect$$rtentry$$0000000D          0x08010284   Section        8  __rtentry2.o(.ARM.Collect$$rtentry$$0000000D)
    .ARM.Collect$$rtexit$$00000000           0x0801028c   Section        2  rtexit.o(.ARM.Collect$$rtexit$$00000000)
    .ARM.Collect$$rtexit$$00000002           0x0801028e   Section        0  rtexit2.o(.ARM.Collect$$rtexit$$00000002)
    .ARM.Collect$$rtexit$$00000003           0x0801028e   Section        4  rtexit2.o(.ARM.Collect$$rtexit$$00000003)
    .ARM.Collect$$rtexit$$00000004           0x08010292   Section        6  rtexit2.o(.ARM.Collect$$rtexit$$00000004)
    .text                                    0x08010298   Section       80  startup_stm32f4xx.o(.text)
    $v0                                      0x08010298   Number         0  startup_stm32f4xx.o(.text)
    .text                                    0x080102e8   Section      200  os_cpu_a.o(.text)
    $v0                                      0x080102e8   Number         0  os_cpu_a.o(.text)
    .text                                    0x080103b0   Section        2  use_no_semi_2.o(.text)
    .text                                    0x080103b4   Section        0  noretval__2printf.o(.text)
    .text                                    0x080103cc   Section        0  _printf_pad.o(.text)
    .text                                    0x0801041a   Section        0  _printf_str.o(.text)
    .text                                    0x0801046c   Section        0  _printf_dec.o(.text)
    .text                                    0x080104e4   Section        0  _printf_hex_int.o(.text)
    .text                                    0x0801053c   Section        0  __printf_flags_wp.o(.text)
    .text                                    0x08010674   Section      138  rt_memcpy_v6.o(.text)
    .text                                    0x080106fe   Section       16  aeabi_memset.o(.text)
    .text                                    0x0801070e   Section       68  rt_memclr.o(.text)
    .text                                    0x08010752   Section       78  rt_memclr_w.o(.text)
    .text                                    0x080107a0   Section        0  heapauxi.o(.text)
    .text                                    0x080107a6   Section        2  use_no_semi.o(.text)
    .text                                    0x080107a8   Section        0  _rserrno.o(.text)
    .text                                    0x080107be   Section        0  _printf_intcommon.o(.text)
    .text                                    0x08010870   Section        0  _printf_fp_dec.o(.text)
    _fp_digits                               0x08010873   Thumb Code   432  _printf_fp_dec.o(.text)
    .text                                    0x08010c8e   Section        0  _printf_char.o(.text)
    .text                                    0x08010cbc   Section        0  _printf_char_file.o(.text)
    .text                                    0x08010ce0   Section      100  rt_memcpy_w.o(.text)
    .text                                    0x08010d44   Section        8  libspace.o(.text)
    .text                                    0x08010d4c   Section        8  rt_locale_intlibspace.o(.text)
    .text                                    0x08010d54   Section        8  rt_errno_addr_intlibspace.o(.text)
    .text                                    0x08010d5c   Section      138  lludiv10.o(.text)
    .text                                    0x08010de8   Section        0  _printf_char_common.o(.text)
    _printf_input_char                       0x08010de9   Thumb Code    10  _printf_char_common.o(.text)
    .text                                    0x08010e18   Section        0  _printf_fp_infnan.o(.text)
    .text                                    0x08010e98   Section        0  bigflt0.o(.text)
    .text                                    0x08010f7c   Section        0  ferror.o(.text)
    .text                                    0x08010f84   Section       74  sys_stackheap_outer.o(.text)
    .text                                    0x08010fce   Section        0  exit.o(.text)
    .text                                    0x08010fe0   Section      128  strcmpv7m.o(.text)
    CL$$btod_d2e                             0x08011060   Section       62  btod.o(CL$$btod_d2e)
    CL$$btod_d2e_denorm_low                  0x0801109e   Section       70  btod.o(CL$$btod_d2e_denorm_low)
    CL$$btod_d2e_norm_op1                    0x080110e4   Section       96  btod.o(CL$$btod_d2e_norm_op1)
    CL$$btod_div_common                      0x08011144   Section      824  btod.o(CL$$btod_div_common)
    CL$$btod_e2e                             0x0801147c   Section      220  btod.o(CL$$btod_e2e)
    CL$$btod_ediv                            0x08011558   Section       42  btod.o(CL$$btod_ediv)
    CL$$btod_emul                            0x08011582   Section       42  btod.o(CL$$btod_emul)
    CL$$btod_mult_common                     0x080115ac   Section      580  btod.o(CL$$btod_mult_common)
    i.ASC2Number                             0x080117f0   Section        0  mmath.o(i.ASC2Number)
    i.Adjist_LEDPwm                          0x08011834   Section        0  communication.o(i.Adjist_LEDPwm)
    Adjist_LEDPwm                            0x08011835   Thumb Code    44  communication.o(i.Adjist_LEDPwm)
    i.AimData                                0x08011864   Section        0  data_usart.o(i.AimData)
    AimData                                  0x08011865   Thumb Code    96  data_usart.o(i.AimData)
    i.AimFirst                               0x080118cc   Section        0  aim1.o(i.AimFirst)
    AimFirst                                 0x080118cd   Thumb Code   134  aim1.o(i.AimFirst)
    i.AimOK                                  0x08011964   Section        0  data_usart.o(i.AimOK)
    AimOK                                    0x08011965   Thumb Code    10  data_usart.o(i.AimOK)
    i.AimParam                               0x08011970   Section        0  communication.o(i.AimParam)
    AimParam                                 0x08011971   Thumb Code   350  communication.o(i.AimParam)
    i.AimSecond                              0x08011b30   Section        0  aim2.o(i.AimSecond)
    AimSecond                                0x08011b31   Thumb Code   104  aim2.o(i.AimSecond)
    i.AimStart                               0x08011ba4   Section        0  communication.o(i.AimStart)
    AimStart                                 0x08011ba5   Thumb Code    64  communication.o(i.AimStart)
    i.AimStop                                0x08011bf4   Section        0  communication.o(i.AimStop)
    AimStop                                  0x08011bf5   Thumb Code   106  communication.o(i.AimStop)
    i.AimThird                               0x08011c78   Section        0  aim3.o(i.AimThird)
    AimThird                                 0x08011c79   Thumb Code   408  aim3.o(i.AimThird)
    i.AimTracingAngle                        0x08011e38   Section        0  aimangletracing.o(i.AimTracingAngle)
    AimTracingAngle                          0x08011e39   Thumb Code  1282  aimangletracing.o(i.AimTracingAngle)
    i.AnalyseData                            0x08012358   Section        0  communication.o(i.AnalyseData)
    i.AnalyseDbgData                         0x0801240c   Section        0  dbgprotocal.o(i.AnalyseDbgData)
    i.AngleData                              0x080125fc   Section        0  data_usart.o(i.AngleData)
    AngleData                                0x080125fd   Thumb Code   370  data_usart.o(i.AngleData)
    i.AngleSplice                            0x080127e0   Section        0  losscalculate.o(i.AngleSplice)
    i.AngleTest                              0x08012930   Section        0  communication.o(i.AngleTest)
    AngleTest                                0x08012931   Thumb Code    16  communication.o(i.AngleTest)
    i.AnswerCommand                          0x08012948   Section        0  data_usart.o(i.AnswerCommand)
    i.AskElectodeValue                       0x080129b8   Section        0  electrode_test.o(i.AskElectodeValue)
    i.AskEnvironment                         0x08012a08   Section        0  communicationex.o(i.AskEnvironment)
    AskEnvironment                           0x08012a09   Thumb Code    12  communicationex.o(i.AskEnvironment)
    i.AttachFlash                            0x08012a14   Section        0  subscribe.o(i.AttachFlash)
    i.AttachView                             0x08012a3c   Section        0  subscribe.o(i.AttachView)
    i.Aver_float                             0x08012a84   Section        0  mmath.o(i.Aver_float)
    i.Aver_u16                               0x08012ac4   Section        0  mmath.o(i.Aver_u16)
    i.Aver_u16a                              0x08012ae8   Section        0  mmath.o(i.Aver_u16a)
    i.Aver_u8                                0x08012b1a   Section        0  mmath.o(i.Aver_u8)
    i.BMP085_GPIO_Config                     0x08012b3c   Section        0  bmp085.o(i.BMP085_GPIO_Config)
    i.BMP085_Pressure_Result                 0x08012ba4   Section        0  bmp085.o(i.BMP085_Pressure_Result)
    i.BMP085_init                            0x08012cbc   Section        0  bmp085.o(i.BMP085_init)
    i.BMP085_sample                          0x08012d70   Section        0  bmp085.o(i.BMP085_sample)
    i.BimFirst                               0x08012fa4   Section        0  bim1.o(i.BimFirst)
    BimFirst                                 0x08012fa5   Thumb Code   134  bim1.o(i.BimFirst)
    i.BimSecond                              0x0801303c   Section        0  bim2.o(i.BimSecond)
    BimSecond                                0x0801303d   Thumb Code   104  bim2.o(i.BimSecond)
    i.BinaryImage                            0x080130b0   Section        0  binaryzation.o(i.BinaryImage)
    i.BinaryImageWhite                       0x080130d4   Section        0  binaryzation.o(i.BinaryImageWhite)
    i.BinaryImageWithCompress                0x080130f8   Section        0  binaryzation.o(i.BinaryImageWithCompress)
    i.BinaryThreshold                        0x08013124   Section        0  binarythreshold.o(i.BinaryThreshold)
    i.BinaryThresholdWhite                   0x08013160   Section        0  binarythreshold.o(i.BinaryThresholdWhite)
    i.BinaryThresholdWithCompress            0x08013198   Section        0  binarythreshold.o(i.BinaryThresholdWithCompress)
    i.BinaryThresholdWithCompress_Ex         0x080131b0   Section        0  binarythreshold.o(i.BinaryThresholdWithCompress_Ex)
    i.Bubble16                               0x0801324c   Section        0  mmath.o(i.Bubble16)
    i.CMD_Environment                        0x08013296   Section        0  communication.o(i.CMD_Environment)
    CMD_Environment                          0x08013297   Thumb Code    12  communication.o(i.CMD_Environment)
    i.CMD_GetCamInfo                         0x080132a2   Section        0  communication.o(i.CMD_GetCamInfo)
    CMD_GetCamInfo                           0x080132a3   Thumb Code    12  communication.o(i.CMD_GetCamInfo)
    i.CMD_ImageID                            0x080132ae   Section        0  communication.o(i.CMD_ImageID)
    CMD_ImageID                              0x080132af   Thumb Code    10  communication.o(i.CMD_ImageID)
    i.CSS_Init                               0x080132b8   Section        0  system_stm32f4xx.o(i.CSS_Init)
    i.CalAlignLoss                           0x080132e0   Section        0  losscalculate.o(i.CalAlignLoss)
    CalAlignLoss                             0x080132e1   Thumb Code    50  losscalculate.o(i.CalAlignLoss)
    i.CalAngleLoss                           0x08013320   Section        0  losscalculate.o(i.CalAngleLoss)
    CalAngleLoss                             0x08013321   Thumb Code   178  losscalculate.o(i.CalAngleLoss)
    i.CalCoreDnDev                           0x080133f0   Section        0  losscalculate.o(i.CalCoreDnDev)
    CalCoreDnDev                             0x080133f1   Thumb Code    62  losscalculate.o(i.CalCoreDnDev)
    i.CalCoreUpDev                           0x0801343c   Section        0  losscalculate.o(i.CalCoreUpDev)
    CalCoreUpDev                             0x0801343d   Thumb Code    62  losscalculate.o(i.CalCoreUpDev)
    i.CalTotalLoss                           0x08013488   Section        0  losscalculate.o(i.CalTotalLoss)
    CalTotalLoss                             0x08013489   Thumb Code   860  losscalculate.o(i.CalTotalLoss)
    i.CamFocus                               0x080138b0   Section        0  data_usart.o(i.CamFocus)
    CamFocus                                 0x080138b1   Thumb Code    52  data_usart.o(i.CamFocus)
    i.CameraTracing                          0x080138ec   Section        0  cameradevice.o(i.CameraTracing)
    i.Capture                                0x08013a30   Section        0  communication.o(i.Capture)
    Capture                                  0x08013a31   Thumb Code    22  communication.o(i.Capture)
    i.ChangeChannelEcho                      0x08013a48   Section        0  debug_word.o(i.ChangeChannelEcho)
    i.ChangeChannelVisible                   0x08013a94   Section        0  debug_word.o(i.ChangeChannelVisible)
    i.ChangeStepAim1                         0x08013ae0   Section        0  changeaim1.o(i.ChangeStepAim1)
    i.ChangeStepAim2                         0x08013ba0   Section        0  changeaim2.o(i.ChangeStepAim2)
    i.ChangeStepAim3                         0x08013d1c   Section        0  changeaim3.o(i.ChangeStepAim3)
    i.ChangeStepBim1                         0x08013e10   Section        0  bim1.o(i.ChangeStepBim1)
    i.CheckCameraStop                        0x08013e80   Section        0  taskcamera.o(i.CheckCameraStop)
    i.CheckCenterX                           0x08013ee0   Section        0  cameradevice.o(i.CheckCenterX)
    CheckCenterX                             0x08013ee1   Thumb Code    30  cameradevice.o(i.CheckCenterX)
    i.CheckCenterY                           0x08013f04   Section        0  cameradevice.o(i.CheckCenterY)
    CheckCenterY                             0x08013f05   Thumb Code    30  cameradevice.o(i.CheckCenterY)
    i.CheckDebug                             0x08013f28   Section        0  debug_word.o(i.CheckDebug)
    i.CheckDiameter                          0x08013fa0   Section        0  subpixellines.o(i.CheckDiameter)
    CheckDiameter                            0x08013fa1   Thumb Code   248  subpixellines.o(i.CheckDiameter)
    i.CheckFiberExist                        0x0801409c   Section        0  aimfiberinfo.o(i.CheckFiberExist)
    i.CheckFlash                             0x0801412c   Section        0  objectcode.o(i.CheckFlash)
    i.CheckLines                             0x08014164   Section        0  subpixellines.o(i.CheckLines)
    CheckLines                               0x08014165   Thumb Code   186  subpixellines.o(i.CheckLines)
    i.CheckSpliceLines                       0x08014224   Section        0  subpixellines.o(i.CheckSpliceLines)
    i.CheckValue                             0x08014340   Section        0  mmath.o(i.CheckValue)
    i.Check_LED                              0x08014354   Section        0  led_thread.o(i.Check_LED)
    i.ClearAimAngleData                      0x0801443c   Section        0  aimdata.o(i.ClearAimAngleData)
    i.ClearAimPosData                        0x08014478   Section        0  aimdata.o(i.ClearAimPosData)
    i.ClearAngleTracing                      0x08014500   Section        0  aimangletracing.o(i.ClearAngleTracing)
    ClearAngleTracing                        0x08014501   Thumb Code    20  aimangletracing.o(i.ClearAngleTracing)
    i.ClearFiberInfo                         0x0801451c   Section        0  aimfiberinfo.o(i.ClearFiberInfo)
    i.ClearImage                             0x08014548   Section        0  image.o(i.ClearImage)
    i.Cmd_Check_State                        0x08014552   Section        0  data_usart.o(i.Cmd_Check_State)
    i.ComSend                                0x0801455c   Section        0  usart_communication.o(i.ComSend)
    i.ComputeMelt                            0x08014598   Section        0  currenttracingex.o(i.ComputeMelt)
    ComputeMelt                              0x08014599   Thumb Code    52  currenttracingex.o(i.ComputeMelt)
    i.CoreQuality                            0x080145cc   Section        0  data_usart.o(i.CoreQuality)
    CoreQuality                              0x080145cd   Thumb Code   166  data_usart.o(i.CoreQuality)
    i.CurDetect                              0x08014690   Section        0  data_usart.o(i.CurDetect)
    CurDetect                                0x08014691   Thumb Code    56  data_usart.o(i.CurDetect)
    i.DCMI_CaptureCmd                        0x080146d0   Section        0  stm32f4xx_dcmi.o(i.DCMI_CaptureCmd)
    i.DCMI_ClearITPendingBit                 0x080146f4   Section        0  stm32f4xx_dcmi.o(i.DCMI_ClearITPendingBit)
    i.DCMI_Cmd                               0x08014700   Section        0  stm32f4xx_dcmi.o(i.DCMI_Cmd)
    i.DCMI_GetITStatus                       0x08014724   Section        0  stm32f4xx_dcmi.o(i.DCMI_GetITStatus)
    i.DCMI_IRQHandler                        0x08014740   Section        0  dcmi.o(i.DCMI_IRQHandler)
    i.DCMI_IRQ_callback                      0x08014840   Section        0  aim0.o(i.DCMI_IRQ_callback)
    i.DCMI_ITConfig                          0x08014d7c   Section        0  stm32f4xx_dcmi.o(i.DCMI_ITConfig)
    i.DCMI_Init                              0x08014da0   Section        0  stm32f4xx_dcmi.o(i.DCMI_Init)
    i.DMA_Cmd                                0x08014de0   Section        0  stm32f4xx_dma.o(i.DMA_Cmd)
    i.DMA_DeInit                             0x08014df8   Section        0  stm32f4xx_dma.o(i.DMA_DeInit)
    i.DMA_Init                               0x08014f50   Section        0  stm32f4xx_dma.o(i.DMA_Init)
    i.DataPack                               0x08014fa8   Section        0  usart_communication.o(i.DataPack)
    i.DeInit                                 0x08014fd8   Section        0  aimfiberinfo.o(i.DeInit)
    DeInit                                   0x08014fd9   Thumb Code   130  aimfiberinfo.o(i.DeInit)
    i.DeInit                                 0x080150a0   Section        0  aiminstall.o(i.DeInit)
    DeInit                                   0x080150a1   Thumb Code    30  aiminstall.o(i.DeInit)
    i.DeInit                                 0x080150d8   Section        0  aimangletracing.o(i.DeInit)
    DeInit                                   0x080150d9   Thumb Code  1266  aimangletracing.o(i.DeInit)
    i.DeInit                                 0x080155cc   Section        0  aimburr.o(i.DeInit)
    DeInit                                   0x080155cd   Thumb Code    56  aimburr.o(i.DeInit)
    i.DeInit                                 0x0801560c   Section        0  fibercorequality.o(i.DeInit)
    DeInit                                   0x0801560d   Thumb Code    56  fibercorequality.o(i.DeInit)
    i.DeInit                                 0x0801564c   Section        0  losscalculate.o(i.DeInit)
    DeInit                                   0x0801564d   Thumb Code    48  losscalculate.o(i.DeInit)
    i.DeInit                                 0x08015684   Section        0  preloss.o(i.DeInit)
    DeInit                                   0x08015685   Thumb Code    30  preloss.o(i.DeInit)
    i.DeInit                                 0x080156a8   Section        0  hall.o(i.DeInit)
    DeInit                                   0x080156a9   Thumb Code    28  hall.o(i.DeInit)
    i.DeInit                                 0x080156c8   Section        0  fovgray.o(i.DeInit)
    DeInit                                   0x080156c9   Thumb Code    20  fovgray.o(i.DeInit)
    i.DeInit                                 0x080156e0   Section        0  led_thread.o(i.DeInit)
    DeInit                                   0x080156e1   Thumb Code   108  led_thread.o(i.DeInit)
    i.DeInit                                 0x08015780   Section        0  current_test.o(i.DeInit)
    DeInit                                   0x08015781   Thumb Code    36  current_test.o(i.DeInit)
    i.DeInit                                 0x080157ac   Section        0  currenttracing.o(i.DeInit)
    DeInit                                   0x080157ad   Thumb Code    52  currenttracing.o(i.DeInit)
    i.DeInit                                 0x080157f0   Section        0  currenttracingex.o(i.DeInit)
    DeInit                                   0x080157f1   Thumb Code    64  currenttracingex.o(i.DeInit)
    i.DeInit                                 0x08015848   Section        0  electrode_test.o(i.DeInit)
    DeInit                                   0x08015849   Thumb Code   218  electrode_test.o(i.DeInit)
    i.DeInit                                 0x08015948   Section        0  electrode_testex.o(i.DeInit)
    DeInit                                   0x08015949   Thumb Code   224  electrode_testex.o(i.DeInit)
    i.DeInitAim1                             0x08015a54   Section        0  aim1.o(i.DeInitAim1)
    DeInitAim1                               0x08015a55   Thumb Code    14  aim1.o(i.DeInitAim1)
    i.DeInitAim2                             0x08015a62   Section        0  aim2.o(i.DeInitAim2)
    DeInitAim2                               0x08015a63   Thumb Code    14  aim2.o(i.DeInitAim2)
    i.DeInitAim3                             0x08015a70   Section        0  aim3.o(i.DeInitAim3)
    DeInitAim3                               0x08015a71   Thumb Code    44  aim3.o(i.DeInitAim3)
    i.DeInitAimAngle                         0x08015aa4   Section        0  aimdata.o(i.DeInitAimAngle)
    i.DeInitAimBuffers                       0x08015ab4   Section        0  heap.o(i.DeInitAimBuffers)
    i.DeInitBim1                             0x08015ad4   Section        0  bim1.o(i.DeInitBim1)
    DeInitBim1                               0x08015ad5   Thumb Code    14  bim1.o(i.DeInitBim1)
    i.DeInitBim2                             0x08015ae2   Section        0  bim2.o(i.DeInitBim2)
    DeInitBim2                               0x08015ae3   Thumb Code    14  bim2.o(i.DeInitBim2)
    i.DeInitCenters                          0x08015af0   Section        0  heap.o(i.DeInitCenters)
    i.DeInitDelayFilterByte                  0x08015b0c   Section        0  filterdelay.o(i.DeInitDelayFilterByte)
    i.DeInitDelayFilterWord                  0x08015b0e   Section        0  filterdelay.o(i.DeInitDelayFilterWord)
    i.DeInitDiameter                         0x08015b10   Section        0  diameter.o(i.DeInitDiameter)
    i.DeInitFilterAverageWord                0x08015b68   Section        0  filteraverage.o(i.DeInitFilterAverageWord)
    i.DeInitMedianFilterByte                 0x08015b80   Section        0  filtermedian.o(i.DeInitMedianFilterByte)
    i.DeInitMedianFilterWord                 0x08015b84   Section        0  filtermedian.o(i.DeInitMedianFilterWord)
    i.DeInitMyDelayFilterWord                0x08015bac   Section        0  filterdelay.o(i.DeInitMyDelayFilterWord)
    i.Debug                                  0x08015bb0   Section        0  dbgprotocal.o(i.Debug)
    Debug                                    0x08015bb1   Thumb Code    26  dbgprotocal.o(i.Debug)
    i.DelayFilterByte                        0x08015bf0   Section        0  filterdelay.o(i.DelayFilterByte)
    i.DelayFilterWord                        0x08015c44   Section        0  filterdelay.o(i.DelayFilterWord)
    i.DetachFlash                            0x08015ca0   Section        0  subscribe.o(i.DetachFlash)
    i.DetachView                             0x08015ccc   Section        0  subscribe.o(i.DetachView)
    i.DeviceCapture                          0x08015d00   Section        0  camera.o(i.DeviceCapture)
    i.DotProduct16                           0x08015dc8   Section        0  mmath.o(i.DotProduct16)
    i.DriverCapture                          0x08015dec   Section        0  dcmi.o(i.DriverCapture)
    i.DriverPassPage                         0x08015e24   Section        0  dcmi.o(i.DriverPassPage)
    i.EXTI15_10_IRQHandler                   0x08015e30   Section        0  usb.o(i.EXTI15_10_IRQHandler)
    i.EXTI9_5_IRQHandler                     0x08015e4e   Section        0  halldriver.o(i.EXTI9_5_IRQHandler)
    i.EXTI_ClearITPendingBit                 0x08015e7c   Section        0  stm32f4xx_exti.o(i.EXTI_ClearITPendingBit)
    i.EXTI_GetITStatus                       0x08015e88   Section        0  stm32f4xx_exti.o(i.EXTI_GetITStatus)
    i.EXTI_Init                              0x08015eb0   Section        0  stm32f4xx_exti.o(i.EXTI_Init)
    i.Echo                                   0x08015f44   Section        0  dbgprotocal.o(i.Echo)
    Echo                                     0x08015f45   Thumb Code    42  dbgprotocal.o(i.Echo)
    i.EdgeDetectScale                        0x08015f84   Section        0  edgedetect.o(i.EdgeDetectScale)
    i.EdgeDetectWindow                       0x08016194   Section        0  edgedetect.o(i.EdgeDetectWindow)
    i.EdgeDetectWindowExnew                  0x08016a04   Section        0  aimangletracing.o(i.EdgeDetectWindowExnew)
    i.EdgeDetectWindow_Burr                  0x08017124   Section        0  aimburr.o(i.EdgeDetectWindow_Burr)
    EdgeDetectWindow_Burr                    0x08017125   Thumb Code  1822  aimburr.o(i.EdgeDetectWindow_Burr)
    i.EdgeDetectWindow_Core                  0x08017850   Section        0  fibercorequality.o(i.EdgeDetectWindow_Core)
    EdgeDetectWindow_Core                    0x08017851   Thumb Code  1822  fibercorequality.o(i.EdgeDetectWindow_Core)
    i.EdgeDetectWindow_Loss                  0x08017f7c   Section        0  losscalculate.o(i.EdgeDetectWindow_Loss)
    EdgeDetectWindow_Loss                    0x08017f7d   Thumb Code  2160  losscalculate.o(i.EdgeDetectWindow_Loss)
    i.ElecArc                                0x080187ec   Section        0  communication.o(i.ElecArc)
    ElecArc                                  0x080187ed   Thumb Code   180  communication.o(i.ElecArc)
    i.ElecDetect                             0x080188f8   Section        0  data_usart.o(i.ElecDetect)
    ElecDetect                               0x080188f9   Thumb Code   112  data_usart.o(i.ElecDetect)
    i.ElecPos                                0x08018990   Section        0  communication.o(i.ElecPos)
    ElecPos                                  0x08018991   Thumb Code    12  communication.o(i.ElecPos)
    i.ElecPosAsk                             0x0801899c   Section        0  communication.o(i.ElecPosAsk)
    ElecPosAsk                               0x0801899d   Thumb Code    90  communication.o(i.ElecPosAsk)
    i.Electrode_PosDetect                    0x08018a2c   Section        0  electrode_test.o(i.Electrode_PosDetect)
    Electrode_PosDetect                      0x08018a2d   Thumb Code    60  electrode_test.o(i.Electrode_PosDetect)
    i.EnableLED                              0x08018a68   Section        0  led_ctrl.o(i.EnableLED)
    i.EnableLight                            0x08018a90   Section        0  led_ctrl.o(i.EnableLight)
    i.EnterSelfTest                          0x08018ab8   Section        0  taskcontrol.o(i.EnterSelfTest)
    i.EnterState                             0x08018ac4   Section        0  communication.o(i.EnterState)
    EnterState                               0x08018ac5   Thumb Code   288  communication.o(i.EnterState)
    i.Environment                            0x08018c04   Section        0  data_usart.o(i.Environment)
    Environment                              0x08018c05   Thumb Code   246  data_usart.o(i.Environment)
    i.FLASH_ClearFlag                        0x08018d1c   Section        0  stm32f4xx_flash.o(i.FLASH_ClearFlag)
    i.FLASH_EraseSector                      0x08018d28   Section        0  stm32f4xx_flash.o(i.FLASH_EraseSector)
    i.FLASH_GetStatus                        0x08018db0   Section        0  stm32f4xx_flash.o(i.FLASH_GetStatus)
    i.FLASH_Lock                             0x08018df8   Section        0  stm32f4xx_flash.o(i.FLASH_Lock)
    i.FLASH_ProgramByte                      0x08018e0c   Section        0  stm32f4xx_flash.o(i.FLASH_ProgramByte)
    i.FLASH_Unlock                           0x08018e58   Section        0  stm32f4xx_flash.o(i.FLASH_Unlock)
    i.FLASH_WaitForLastOperation             0x08018e7c   Section        0  stm32f4xx_flash.o(i.FLASH_WaitForLastOperation)
    i.FeedComHeart                           0x08018ea0   Section        0  data_usart.o(i.FeedComHeart)
    i.FibInfo                                0x08018eb4   Section        0  data_usart.o(i.FibInfo)
    FibInfo                                  0x08018eb5   Thumb Code   106  data_usart.o(i.FibInfo)
    i.FiberAngle                             0x08018f28   Section        0  aimangletracing.o(i.FiberAngle)
    FiberAngle                               0x08018f29   Thumb Code  1132  aimangletracing.o(i.FiberAngle)
    i.FiberBurr                              0x08019398   Section        0  data_usart.o(i.FiberBurr)
    FiberBurr                                0x08019399   Thumb Code   156  data_usart.o(i.FiberBurr)
    i.FiberExist                             0x08019474   Section        0  communication.o(i.FiberExist)
    FiberExist                               0x08019475   Thumb Code    14  communication.o(i.FiberExist)
    i.FiberFace                              0x08019488   Section        0  aimangletracing.o(i.FiberFace)
    FiberFace                                0x08019489   Thumb Code   126  aimangletracing.o(i.FiberFace)
    i.FiberFace_SubPixel                     0x08019510   Section        0  aimangletracing.o(i.FiberFace_SubPixel)
    FiberFace_SubPixel                       0x08019511   Thumb Code   184  aimangletracing.o(i.FiberFace_SubPixel)
    i.FilterAverageWord                      0x080195d8   Section        0  filteraverage.o(i.FilterAverageWord)
    i.FindBoard                              0x08019620   Section        0  mmath.o(i.FindBoard)
    i.FindBoardVert                          0x08019702   Section        0  mmath.o(i.FindBoardVert)
    i.FindBurr                               0x080197e8   Section        0  aimburr.o(i.FindBurr)
    FindBurr                                 0x080197e9   Thumb Code   280  aimburr.o(i.FindBurr)
    i.FindFreMax                             0x08019964   Section        0  mmath.o(i.FindFreMax)
    i.FindFreMaxWord                         0x080199ae   Section        0  mmath.o(i.FindFreMaxWord)
    i.FindImagePoint_aa                      0x08019a4c   Section        0  aiminstall.o(i.FindImagePoint_aa)
    i.FindMost_Aver                          0x08019edc   Section        0  mmath.o(i.FindMost_Aver)
    i.FindOuterContour                       0x08019fdc   Section        0  aimburr.o(i.FindOuterContour)
    FindOuterContour                         0x08019fdd   Thumb Code   236  aimburr.o(i.FindOuterContour)
    i.FindSunkenBulge                        0x0801a130   Section        0  aimburr.o(i.FindSunkenBulge)
    FindSunkenBulge                          0x0801a131   Thumb Code  1378  aimburr.o(i.FindSunkenBulge)
    i.Find_Max8                              0x0801a698   Section        0  mmath.o(i.Find_Max8)
    i.GPIO_Init                              0x0801a744   Section        0  stm32f4xx_gpio.o(i.GPIO_Init)
    i.GPIO_PinAFConfig                       0x0801a7d4   Section        0  stm32f4xx_gpio.o(i.GPIO_PinAFConfig)
    i.GPIO_ReadInputDataBit                  0x0801a81a   Section        0  stm32f4xx_gpio.o(i.GPIO_ReadInputDataBit)
    i.GPIO_ResetBits                         0x0801a82c   Section        0  stm32f4xx_gpio.o(i.GPIO_ResetBits)
    i.GPIO_SetBits                           0x0801a830   Section        0  stm32f4xx_gpio.o(i.GPIO_SetBits)
    i.GetAimParam                            0x0801a834   Section        0  data_usart.o(i.GetAimParam)
    GetAimParam                              0x0801a835   Thumb Code    28  data_usart.o(i.GetAimParam)
    i.GetAimParam                            0x0801a854   Section        0  communication.o(i.GetAimParam)
    GetAimParam                              0x0801a855   Thumb Code    12  communication.o(i.GetAimParam)
    i.GetAimState                            0x0801a860   Section        0  aimdata.o(i.GetAimState)
    i.GetBinaryName                          0x0801a86c   Section        0  binarydata.o(i.GetBinaryName)
    i.GetCamInfo                             0x0801a910   Section        0  data_usart.o(i.GetCamInfo)
    GetCamInfo                               0x0801a911   Thumb Code    34  data_usart.o(i.GetCamInfo)
    i.GetCamStatus                           0x0801a934   Section        0  ov7725.o(i.GetCamStatus)
    i.GetCameraModel                         0x0801a950   Section        0  ov7725.o(i.GetCameraModel)
    i.GetCaptureSize                         0x0801aa10   Section        0  camera.o(i.GetCaptureSize)
    i.GetChannelEcho                         0x0801aa1c   Section        0  debug_word.o(i.GetChannelEcho)
    i.GetChannelInitState                    0x0801aa34   Section        0  initapp.o(i.GetChannelInitState)
    i.GetChannelName                         0x0801aa5c   Section        0  debug_word.o(i.GetChannelName)
    i.GetChannelOnOff                        0x0801ab20   Section        0  debug_word.o(i.GetChannelOnOff)
    i.GetChannelVisible                      0x0801ab38   Section        0  debug_word.o(i.GetChannelVisible)
    i.GetChar3                               0x0801ab50   Section        0  usart3.o(i.GetChar3)
    i.GetChar5                               0x0801ab88   Section        0  usart5.o(i.GetChar5)
    i.GetCommunicationBuffer                 0x0801abc0   Section        0  communication.o(i.GetCommunicationBuffer)
    i.GetCoreQuality                         0x0801abc8   Section        0  communication.o(i.GetCoreQuality)
    GetCoreQuality                           0x0801abc9   Thumb Code    14  communication.o(i.GetCoreQuality)
    i.GetElec_Data                           0x0801abdc   Section        0  electrode_test.o(i.GetElec_Data)
    GetElec_Data                             0x0801abdd   Thumb Code   148  electrode_test.o(i.GetElec_Data)
    i.GetElec_Data                           0x0801ac94   Section        0  electrode_testex.o(i.GetElec_Data)
    GetElec_Data                             0x0801ac95   Thumb Code   280  electrode_testex.o(i.GetElec_Data)
    i.GetElectodeFlag                        0x0801add4   Section        0  electrode_test.o(i.GetElectodeFlag)
    i.GetEnvirnment                          0x0801adfc   Section        0  bmp085.o(i.GetEnvirnment)
    i.GetFiberBurr                           0x0801ae04   Section        0  communication.o(i.GetFiberBurr)
    GetFiberBurr                             0x0801ae05   Thumb Code    14  communication.o(i.GetFiberBurr)
    i.GetFiberExist                          0x0801ae18   Section        0  aimfiberinfo.o(i.GetFiberExist)
    i.GetFiberStandard                       0x0801ae40   Section        0  communication.o(i.GetFiberStandard)
    i.GetFilter                              0x0801ae4c   Section        0  filter.o(i.GetFilter)
    i.GetFilterName                          0x0801ae6c   Section        0  filter.o(i.GetFilterName)
    i.GetFovGray                             0x0801af08   Section        0  communication.o(i.GetFovGray)
    GetFovGray                               0x0801af09   Thumb Code    90  communication.o(i.GetFovGray)
    i.GetHallState                           0x0801af8c   Section        0  hall.o(i.GetHallState)
    i.GetInitStateName                       0x0801af9c   Section        0  appdog.o(i.GetInitStateName)
    GetInitStateName                         0x0801af9d   Thumb Code    38  appdog.o(i.GetInitStateName)
    i.GetInit_StateFlag                      0x0801afec   Section        0  initapp.o(i.GetInit_StateFlag)
    i.GetInited                              0x0801aff8   Section        0  appdog.o(i.GetInited)
    i.GetInstallPoint                        0x0801b00c   Section        0  aiminstall.o(i.GetInstallPoint)
    i.GetLEDState                            0x0801b034   Section        0  led_thread.o(i.GetLEDState)
    i.GetLED_ONOFF                           0x0801b050   Section        0  led_ctrl.o(i.GetLED_ONOFF)
    i.GetLeftCamState                        0x0801b06c   Section        0  hall.o(i.GetLeftCamState)
    i.GetLeftLedState                        0x0801b078   Section        0  hall.o(i.GetLeftLedState)
    i.GetLight_ONOFF                         0x0801b084   Section        0  led_ctrl.o(i.GetLight_ONOFF)
    i.GetMsgInfo                             0x0801b098   Section        0  statemachine.o(i.GetMsgInfo)
    GetMsgInfo                               0x0801b099   Thumb Code    80  statemachine.o(i.GetMsgInfo)
    i.GetNextBinary                          0x0801b180   Section        0  binarydata.o(i.GetNextBinary)
    i.GetNextFilter                          0x0801b1c8   Section        0  filter.o(i.GetNextFilter)
    i.GetNextRecvCommand                     0x0801b204   Section        0  communicationex.o(i.GetNextRecvCommand)
    i.GetNextSharp                           0x0801b240   Section        0  sharpdata.o(i.GetNextSharp)
    i.GetNum                                 0x0801b288   Section        0  dbgprotocal.o(i.GetNum)
    GetNum                                   0x0801b289   Thumb Code    58  dbgprotocal.o(i.GetNum)
    i.GetObj                                 0x0801b2c8   Section        0  communicationex.o(i.GetObj)
    GetObj                                   0x0801b2c9   Thumb Code   120  communicationex.o(i.GetObj)
    i.GetObject                              0x0801b35c   Section        0  objectcode.o(i.GetObject)
    i.GetObjectCount                         0x0801b3ec   Section        0  objectcode.o(i.GetObjectCount)
    i.GetObjectExist                         0x0801b414   Section        0  objectcode.o(i.GetObjectExist)
    i.GetObjectSize                          0x0801b41a   Section        0  objectcode.o(i.GetObjectSize)
    i.GetPhoto                               0x0801b444   Section        0  photo.o(i.GetPhoto)
    i.GetPhotoType                           0x0801b454   Section        0  photo.o(i.GetPhotoType)
    i.GetRightCamState                       0x0801b484   Section        0  hall.o(i.GetRightCamState)
    i.GetRightLedState                       0x0801b490   Section        0  hall.o(i.GetRightLedState)
    i.GetSector                              0x0801b49c   Section        0  flash.o(i.GetSector)
    GetSector                                0x0801b49d   Thumb Code   198  flash.o(i.GetSector)
    i.GetSharpName                           0x0801b590   Section        0  sharpdata.o(i.GetSharpName)
    i.GetSimulateChannel                     0x0801b600   Section        0  debug_word.o(i.GetSimulateChannel)
    i.GetSpliceName                          0x0801b60c   Section        0  statemachine.o(i.GetSpliceName)
    i.GetSpliceState                         0x0801b618   Section        0  statemachine.o(i.GetSpliceState)
    i.GetTransportChannel                    0x0801b624   Section        0  debug_word.o(i.GetTransportChannel)
    i.GetWorkName                            0x0801b630   Section        0  taskcontrol.o(i.GetWorkName)
    i.GetWorkState                           0x0801b6a0   Section        0  taskcontrol.o(i.GetWorkState)
    i.Get_AnswerLed                          0x0801b6ac   Section        0  led_thread.o(i.Get_AnswerLed)
    i.Get_LedRecave                          0x0801b6b8   Section        0  led_thread.o(i.Get_LedRecave)
    i.Get_NewBurrFlag                        0x0801b6c4   Section        0  newaimburr.o(i.Get_NewBurrFlag)
    i.Get_Recave_Flag                        0x0801b71c   Section        0  electrode_test.o(i.Get_Recave_Flag)
    i.GrayLoss                               0x0801b728   Section        0  losscalculate.o(i.GrayLoss)
    GrayLoss                                 0x0801b729   Thumb Code    98  losscalculate.o(i.GrayLoss)
    i.HallCheck                              0x0801b7b4   Section        0  hall.o(i.HallCheck)
    i.HallInit                               0x0801b81c   Section        0  halldriver.o(i.HallInit)
    i.HallState                              0x0801b924   Section        0  communication.o(i.HallState)
    HallState                                0x0801b925   Thumb Code    26  communication.o(i.HallState)
    i.HallState_Close                        0x0801b944   Section        0  communication.o(i.HallState_Close)
    HallState_Close                          0x0801b945   Thumb Code    16  communication.o(i.HallState_Close)
    i.HallState_Open                         0x0801b958   Section        0  communication.o(i.HallState_Open)
    HallState_Open                           0x0801b959   Thumb Code    16  communication.o(i.HallState_Open)
    i.HallTest                               0x0801b96c   Section        0  data_usart.o(i.HallTest)
    HallTest                                 0x0801b96d   Thumb Code    28  data_usart.o(i.HallTest)
    i.Hall_open                              0x0801b994   Section        0  hall.o(i.Hall_open)
    i.HardFault_Handler                      0x0801b9ce   Section        0  dcmi.o(i.HardFault_Handler)
    i.Heart                                  0x0801b9d2   Section        0  data_usart.o(i.Heart)
    Heart                                    0x0801b9d3   Thumb Code     2  data_usart.o(i.Heart)
    i.Heart                                  0x0801b9d4   Section        0  communication.o(i.Heart)
    Heart                                    0x0801b9d5   Thumb Code    20  communication.o(i.Heart)
    i.HeartBeat                              0x0801b9f8   Section        0  data_usart.o(i.HeartBeat)
    i.I2Cinit                                0x0801ba7c   Section        0  bmp085.o(i.I2Cinit)
    i.I2Cread_add                            0x0801baa0   Section        0  bmp085.o(i.I2Cread_add)
    i.I2Cread_byte                           0x0801bb18   Section        0  bmp085.o(i.I2Cread_byte)
    i.I2Cresponse                            0x0801bb80   Section        0  bmp085.o(i.I2Cresponse)
    i.I2Cstart                               0x0801bbcc   Section        0  bmp085.o(i.I2Cstart)
    i.I2Cstop                                0x0801bbf4   Section        0  bmp085.o(i.I2Cstop)
    i.I2Cwrite_add                           0x0801bc34   Section        0  bmp085.o(i.I2Cwrite_add)
    i.I2Cwrite_byte                          0x0801bc68   Section        0  bmp085.o(i.I2Cwrite_byte)
    i.IWDG_Enable                            0x0801bcc8   Section        0  stm32f4xx_iwdg.o(i.IWDG_Enable)
    i.IWDG_Feed                              0x0801bcd8   Section        0  iwdg.o(i.IWDG_Feed)
    i.IWDG_Init                              0x0801bce0   Section        0  iwdg.o(i.IWDG_Init)
    i.IWDG_ReloadCounter                     0x0801bd04   Section        0  stm32f4xx_iwdg.o(i.IWDG_ReloadCounter)
    i.IWDG_SetPrescaler                      0x0801bd14   Section        0  stm32f4xx_iwdg.o(i.IWDG_SetPrescaler)
    i.IWDG_SetReload                         0x0801bd20   Section        0  stm32f4xx_iwdg.o(i.IWDG_SetReload)
    i.IWDG_WriteAccessCmd                    0x0801bd2c   Section        0  stm32f4xx_iwdg.o(i.IWDG_WriteAccessCmd)
    i.ImageCopy                              0x0801bd38   Section        0  image.o(i.ImageCopy)
    i.ImageID                                0x0801bd6c   Section        0  data_usart.o(i.ImageID)
    ImageID                                  0x0801bd6d   Thumb Code    36  data_usart.o(i.ImageID)
    i.Init                                   0x0801bd94   Section        0  aimfiberinfo.o(i.Init)
    Init                                     0x0801bd95   Thumb Code   120  aimfiberinfo.o(i.Init)
    i.Init                                   0x0801be3c   Section        0  aiminstall.o(i.Init)
    Init                                     0x0801be3d   Thumb Code   150  aiminstall.o(i.Init)
    i.Init                                   0x0801bf10   Section        0  aimangletracing.o(i.Init)
    Init                                     0x0801bf11   Thumb Code   244  aimangletracing.o(i.Init)
    i.Init                                   0x0801c04c   Section        0  aimburr.o(i.Init)
    Init                                     0x0801c04d   Thumb Code    84  aimburr.o(i.Init)
    i.Init                                   0x0801c0a8   Section        0  fibercorequality.o(i.Init)
    Init                                     0x0801c0a9   Thumb Code    84  fibercorequality.o(i.Init)
    i.Init                                   0x0801c104   Section        0  losscalculate.o(i.Init)
    Init                                     0x0801c105   Thumb Code   264  losscalculate.o(i.Init)
    i.Init                                   0x0801c288   Section        0  preloss.o(i.Init)
    Init                                     0x0801c289   Thumb Code   138  preloss.o(i.Init)
    i.Init                                   0x0801c33c   Section        0  hall.o(i.Init)
    Init                                     0x0801c33d   Thumb Code    74  hall.o(i.Init)
    i.Init                                   0x0801c39c   Section        0  fovgray.o(i.Init)
    Init                                     0x0801c39d   Thumb Code    56  fovgray.o(i.Init)
    i.Init                                   0x0801c3e0   Section        0  current_test.o(i.Init)
    Init                                     0x0801c3e1   Thumb Code   124  current_test.o(i.Init)
    i.Init                                   0x0801c474   Section        0  currenttracing.o(i.Init)
    Init                                     0x0801c475   Thumb Code   142  currenttracing.o(i.Init)
    i.Init                                   0x0801c524   Section        0  currenttracingex.o(i.Init)
    Init                                     0x0801c525   Thumb Code   152  currenttracingex.o(i.Init)
    i.Init                                   0x0801c5e4   Section        0  electrode_test.o(i.Init)
    Init                                     0x0801c5e5   Thumb Code   142  electrode_test.o(i.Init)
    i.Init                                   0x0801c684   Section        0  electrode_testex.o(i.Init)
    Init                                     0x0801c685   Thumb Code   160  electrode_testex.o(i.Init)
    i.InitAim0                               0x0801c744   Section        0  aim0.o(i.InitAim0)
    i.InitAim1                               0x0801c748   Section        0  aim1.o(i.InitAim1)
    InitAim1                                 0x0801c749   Thumb Code    64  aim1.o(i.InitAim1)
    i.InitAim2                               0x0801c78c   Section        0  aim2.o(i.InitAim2)
    InitAim2                                 0x0801c78d   Thumb Code    58  aim2.o(i.InitAim2)
    i.InitAim3                               0x0801c7d0   Section        0  aim3.o(i.InitAim3)
    InitAim3                                 0x0801c7d1   Thumb Code   452  aim3.o(i.InitAim3)
    i.InitAimAngle                           0x0801c9d0   Section        0  aimdata.o(i.InitAimAngle)
    i.InitAimBuffers                         0x0801ca34   Section        0  heap.o(i.InitAimBuffers)
    i.InitBim1                               0x0801caa0   Section        0  bim1.o(i.InitBim1)
    InitBim1                                 0x0801caa1   Thumb Code    64  bim1.o(i.InitBim1)
    i.InitBim2                               0x0801cae4   Section        0  bim2.o(i.InitBim2)
    InitBim2                                 0x0801cae5   Thumb Code    58  bim2.o(i.InitBim2)
    i.InitBurrData                           0x0801cb28   Section        0  aimburr.o(i.InitBurrData)
    InitBurrData                             0x0801cb29   Thumb Code   196  aimburr.o(i.InitBurrData)
    i.InitCamera                             0x0801cc20   Section        0  ov7725.o(i.InitCamera)
    i.InitCameraView                         0x0801cdcc   Section        0  camera.o(i.InitCameraView)
    i.InitCamera_Init                        0x0801ce20   Section        0  initapp.o(i.InitCamera_Init)
    InitCamera_Init                          0x0801ce21   Thumb Code    36  initapp.o(i.InitCamera_Init)
    i.InitCenters                            0x0801ce44   Section        0  heap.o(i.InitCenters)
    i.InitCoreQuality                        0x0801ce8c   Section        0  fibercorequality.o(i.InitCoreQuality)
    InitCoreQuality                          0x0801ce8d   Thumb Code   132  fibercorequality.o(i.InitCoreQuality)
    i.InitDelayFilterByte                    0x0801cf24   Section        0  filterdelay.o(i.InitDelayFilterByte)
    i.InitDelayFilterWord                    0x0801cf94   Section        0  filterdelay.o(i.InitDelayFilterWord)
    i.InitDiameter                           0x0801d004   Section        0  diameter.o(i.InitDiameter)
    i.InitFilterAverageWord                  0x0801d088   Section        0  filteraverage.o(i.InitFilterAverageWord)
    i.InitLED                                0x0801d0b4   Section        0  led_thread.o(i.InitLED)
    i.InitMedianFilterByte                   0x0801d150   Section        0  filtermedian.o(i.InitMedianFilterByte)
    i.InitMedianFilterWord                   0x0801d188   Section        0  filtermedian.o(i.InitMedianFilterWord)
    i.InitMemoryEx                           0x0801d1c4   Section        0  memory.o(i.InitMemoryEx)
    i.InitMyDelayFilterWord                  0x0801d248   Section        0  filterdelay.o(i.InitMyDelayFilterWord)
    i.InitObject7725                         0x0801d268   Section        0  data7725.o(i.InitObject7725)
    i.InitObjectAim                          0x0801d464   Section        0  dataaim.o(i.InitObjectAim)
    i.InitObjectCore                         0x0801d514   Section        0  datacore.o(i.InitObjectCore)
    i.InitObjectLight                        0x0801d564   Section        0  datalight.o(i.InitObjectLight)
    i.InitObjects                            0x0801d60c   Section        0  objectcode.o(i.InitObjects)
    i.InitPhotoData                          0x0801d634   Section        0  imagedata.o(i.InitPhotoData)
    i.InitSCCB                               0x0801d660   Section        0  sccb.o(i.InitSCCB)
    i.InitValue                              0x0801d690   Section        0  data_usart.o(i.InitValue)
    InitValue                                0x0801d691   Thumb Code    26  data_usart.o(i.InitValue)
    i.Init_Aim_Matching                      0x0801d6ac   Section        0  communication.o(i.Init_Aim_Matching)
    i.Init_Aim_Param                         0x0801d6bc   Section        0  communication.o(i.Init_Aim_Param)
    i.Init_AnswerCommand                     0x0801d6e0   Section        0  initapp.o(i.Init_AnswerCommand)
    Init_AnswerCommand                       0x0801d6e1   Thumb Code    62  initapp.o(i.Init_AnswerCommand)
    i.Init_AskData                           0x0801d724   Section        0  initapp.o(i.Init_AskData)
    Init_AskData                             0x0801d725   Thumb Code    50  initapp.o(i.Init_AskData)
    i.Init_CurAimParam                       0x0801d758   Section        0  current_test.o(i.Init_CurAimParam)
    Init_CurAimParam                         0x0801d759   Thumb Code   106  current_test.o(i.Init_CurAimParam)
    i.Init_CurAimParam                       0x0801d7d0   Section        0  currenttracing.o(i.Init_CurAimParam)
    Init_CurAimParam                         0x0801d7d1   Thumb Code   126  currenttracing.o(i.Init_CurAimParam)
    i.Init_CurAimParam                       0x0801d860   Section        0  currenttracingex.o(i.Init_CurAimParam)
    Init_CurAimParam                         0x0801d861   Thumb Code   126  currenttracingex.o(i.Init_CurAimParam)
    i.Init_DCMI                              0x0801d8f0   Section        0  dcmi.o(i.Init_DCMI)
    i.Init_HallInit                          0x0801dbcc   Section        0  initapp.o(i.Init_HallInit)
    Init_HallInit                            0x0801dbcd   Thumb Code    16  initapp.o(i.Init_HallInit)
    i.Init_InitObjects                       0x0801dbdc   Section        0  initapp.o(i.Init_InitObjects)
    Init_InitObjects                         0x0801dbdd   Thumb Code    28  initapp.o(i.Init_InitObjects)
    i.Init_LED_Init                          0x0801dbf8   Section        0  initapp.o(i.Init_LED_Init)
    Init_LED_Init                            0x0801dbf9   Thumb Code    16  initapp.o(i.Init_LED_Init)
    i.Init_UART5_Init                        0x0801dc08   Section        0  initapp.o(i.Init_UART5_Init)
    Init_UART5_Init                          0x0801dc09   Thumb Code    22  initapp.o(i.Init_UART5_Init)
    i.Init_USART3_Init                       0x0801dc1e   Section        0  initapp.o(i.Init_USART3_Init)
    Init_USART3_Init                         0x0801dc1f   Thumb Code    22  initapp.o(i.Init_USART3_Init)
    i.InitcmdLED                             0x0801dc34   Section        0  communication.o(i.InitcmdLED)
    InitcmdLED                               0x0801dc35   Thumb Code    20  communication.o(i.InitcmdLED)
    i.InteEqualizeEx                         0x0801dc4c   Section        0  imagetools.o(i.InteEqualizeEx)
    i.IsSpliceBubble                         0x0801dce8   Section        0  losscalculate.o(i.IsSpliceBubble)
    IsSpliceBubble                           0x0801dce9   Thumb Code   642  losscalculate.o(i.IsSpliceBubble)
    i.JudgeCoreGray                          0x0801e03c   Section        0  fibercorequality.o(i.JudgeCoreGray)
    JudgeCoreGray                            0x0801e03d   Thumb Code  1268  fibercorequality.o(i.JudgeCoreGray)
    i.JudgeCoverCoreDirty                    0x0801e530   Section        0  fibercorequality.o(i.JudgeCoverCoreDirty)
    JudgeCoverCoreDirty                      0x0801e531   Thumb Code   720  fibercorequality.o(i.JudgeCoverCoreDirty)
    i.JudgeCoverCoreDirtyEx                  0x0801e8e4   Section        0  fibercorequality.o(i.JudgeCoverCoreDirtyEx)
    JudgeCoverCoreDirtyEx                    0x0801e8e5   Thumb Code  1488  fibercorequality.o(i.JudgeCoverCoreDirtyEx)
    i.JudgeSpliceResult                      0x0801eee0   Section        0  losscalculate.o(i.JudgeSpliceResult)
    JudgeSpliceResult                        0x0801eee1   Thumb Code   426  losscalculate.o(i.JudgeSpliceResult)
    i.LEDCtrl_FuncInit                       0x0801f0ec   Section        0  led_ctrl.o(i.LEDCtrl_FuncInit)
    LEDCtrl_FuncInit                         0x0801f0ed   Thumb Code   268  led_ctrl.o(i.LEDCtrl_FuncInit)
    i.LEDCtrl_GPIOInit                       0x0801f210   Section        0  led_ctrl.o(i.LEDCtrl_GPIOInit)
    LEDCtrl_GPIOInit                         0x0801f211   Thumb Code   136  led_ctrl.o(i.LEDCtrl_GPIOInit)
    i.LEDCtrl_RCCInit                        0x0801f29c   Section        0  led_ctrl.o(i.LEDCtrl_RCCInit)
    LEDCtrl_RCCInit                          0x0801f29d   Thumb Code    28  led_ctrl.o(i.LEDCtrl_RCCInit)
    i.LEDPwm_Adjust                          0x0801f2b8   Section        0  led_ctrl.o(i.LEDPwm_Adjust)
    i.LED_Init                               0x0801f2e0   Section        0  led_ctrl.o(i.LED_Init)
    i.LED_OFF                                0x0801f2f4   Section        0  led_ctrl.o(i.LED_OFF)
    i.LED_ON                                 0x0801f304   Section        0  led_ctrl.o(i.LED_ON)
    i.LeaveState                             0x0801f35c   Section        0  communication.o(i.LeaveState)
    LeaveState                               0x0801f35d   Thumb Code   134  communication.o(i.LeaveState)
    i.LedData                                0x0801f3f0   Section        0  communication.o(i.LedData)
    LedData                                  0x0801f3f1   Thumb Code    30  communication.o(i.LedData)
    i.LedDetect                              0x0801f41c   Section        0  data_usart.o(i.LedDetect)
    LedDetect                                0x0801f41d   Thumb Code    74  data_usart.o(i.LedDetect)
    i.Led_state                              0x0801f470   Section        0  communication.o(i.Led_state)
    Led_state                                0x0801f471   Thumb Code    14  communication.o(i.Led_state)
    i.Light_OFF                              0x0801f484   Section        0  led_ctrl.o(i.Light_OFF)
    i.Light_ON                               0x0801f490   Section        0  led_ctrl.o(i.Light_ON)
    i.LineDevLoss                            0x0801f4b0   Section        0  losscalculate.o(i.LineDevLoss)
    LineDevLoss                              0x0801f4b1   Thumb Code   140  losscalculate.o(i.LineDevLoss)
    i.LossBeautify                           0x0801f564   Section        0  splice.o(i.LossBeautify)
    i.MedianFilterByte                       0x0801f628   Section        0  filtermedian.o(i.MedianFilterByte)
    i.MedianFilterWord                       0x0801f6a8   Section        0  filtermedian.o(i.MedianFilterWord)
    i.MeltCompute                            0x0801f738   Section        0  communication.o(i.MeltCompute)
    MeltCompute                              0x0801f739   Thumb Code    20  communication.o(i.MeltCompute)
    i.MeltComputeEx                          0x0801f768   Section        0  communication.o(i.MeltComputeEx)
    MeltComputeEx                            0x0801f769   Thumb Code    20  communication.o(i.MeltComputeEx)
    i.MemFree                                0x0801f79c   Section        0  memory.o(i.MemFree)
    i.MemFreeEx                              0x0801f814   Section        0  memory.o(i.MemFreeEx)
    i.MemMalloc                              0x0801f890   Section        0  memory.o(i.MemMalloc)
    i.MemMallocDebug                         0x0801fa4c   Section        0  memory.o(i.MemMallocDebug)
    i.MyDelayFilterWord                      0x0801fc10   Section        0  filterdelay.o(i.MyDelayFilterWord)
    i.NMI_Handler                            0x0801fcd8   Section        0  system_stm32f4xx.o(i.NMI_Handler)
    i.NVIC_Init                              0x0801fd14   Section        0  misc.o(i.NVIC_Init)
    i.NVIC_PriorityGroupConfig               0x0801fd8c   Section        0  misc.o(i.NVIC_PriorityGroupConfig)
    i.NVIC_SetVectorTable                    0x0801fda0   Section        0  misc.o(i.NVIC_SetVectorTable)
    i.NotifyFlash                            0x0801fdb4   Section        0  subscribe.o(i.NotifyFlash)
    i.NotifyPhoto                            0x0801fddc   Section        0  subscribe.o(i.NotifyPhoto)
    i.OLS_u16                                0x0801fe38   Section        0  mmath.o(i.OLS_u16)
    i.OSInit                                 0x0801ff30   Section        0  os_core.o(i.OSInit)
    i.OSInitHookBegin                        0x0801ff58   Section        0  os_cpu_c.o(i.OSInitHookBegin)
    i.OSInitHookEnd                          0x0801ff5a   Section        0  os_cpu_c.o(i.OSInitHookEnd)
    i.OSIntEnter                             0x0801ff5c   Section        0  os_core.o(i.OSIntEnter)
    i.OSMutex_RdyAtPrio                      0x0801ff80   Section        0  os_mutex.o(i.OSMutex_RdyAtPrio)
    OSMutex_RdyAtPrio                        0x0801ff81   Thumb Code   110  os_mutex.o(i.OSMutex_RdyAtPrio)
    i.OSTCBInitHook                          0x0801fffc   Section        0  os_cpu_c.o(i.OSTCBInitHook)
    i.OSTaskCreateHook                       0x0801fffe   Section        0  os_cpu_c.o(i.OSTaskCreateHook)
    .ARM.__AT_0x08020000                     0x08020000   Section        4  main.o(.ARM.__AT_0x08020000)
    i.OSIntExit                              0x08020004   Section        0  os_core.o(i.OSIntExit)
    i.OSMutexCreate                          0x08020098   Section        0  os_mutex.o(i.OSMutexCreate)
    i.OSMutexPend                            0x08020134   Section        0  os_mutex.o(i.OSMutexPend)
    i.OSMutexPost                            0x0802036c   Section        0  os_mutex.o(i.OSMutexPost)
    i.OSSemCreate                            0x08020434   Section        0  os_sem.o(i.OSSemCreate)
    i.OSSemPend                              0x0802048c   Section        0  os_sem.o(i.OSSemPend)
    i.OSSemPost                              0x08020584   Section        0  os_sem.o(i.OSSemPost)
    i.OSStart                                0x080205dc   Section        0  os_core.o(i.OSStart)
    i.OSTaskCreateExt                        0x08020624   Section        0  os_task.o(i.OSTaskCreateExt)
    i.OSTaskIdleHook                         0x080206dc   Section        0  os_cpu_c.o(i.OSTaskIdleHook)
    i.OSTaskNameSet                          0x080206e0   Section        0  os_task.o(i.OSTaskNameSet)
    i.OSTaskQuery                            0x08020770   Section        0  os_task.o(i.OSTaskQuery)
    i.OSTaskResume                           0x080207cc   Section        0  os_task.o(i.OSTaskResume)
    i.OSTaskStatHook                         0x08020878   Section        0  os_cpu_c.o(i.OSTaskStatHook)
    i.OSTaskStkChk                           0x0802087c   Section        0  os_task.o(i.OSTaskStkChk)
    i.OSTaskStkInit                          0x08020908   Section        0  os_cpu_c.o(i.OSTaskStkInit)
    i.OSTaskSuspend                          0x08020aec   Section        0  os_task.o(i.OSTaskSuspend)
    i.OSTaskSwHook                           0x08020b94   Section        0  os_cpu_c.o(i.OSTaskSwHook)
    i.OSTimeDly                              0x08020b98   Section        0  os_time.o(i.OSTimeDly)
    i.OSTimeDlyResume                        0x08020c08   Section        0  os_time.o(i.OSTimeDlyResume)
    i.OSTimeGet                              0x08020cbc   Section        0  os_time.o(i.OSTimeGet)
    i.OSTimeTick                             0x08020cd8   Section        0  os_core.o(i.OSTimeTick)
    i.OSTimeTickHook                         0x08020dc4   Section        0  os_cpu_c.o(i.OSTimeTickHook)
    i.OS_CPU_SysTickClkFreq                  0x08020dc6   Section        0  main.o(i.OS_CPU_SysTickClkFreq)
    i.OS_CPU_SysTickHandler                  0x08020dd4   Section        0  os_cpu_c.o(i.OS_CPU_SysTickHandler)
    i.OS_CPU_SysTickInit                     0x08020dfc   Section        0  os_cpu_c.o(i.OS_CPU_SysTickInit)
    i.OS_EventTaskRdy                        0x08020e28   Section        0  os_core.o(i.OS_EventTaskRdy)
    i.OS_EventTaskRemove                     0x08020eb8   Section        0  os_core.o(i.OS_EventTaskRemove)
    i.OS_EventTaskRemoveMulti                0x08020ee2   Section        0  os_core.o(i.OS_EventTaskRemoveMulti)
    i.OS_EventTaskWait                       0x08020f1c   Section        0  os_core.o(i.OS_EventTaskWait)
    i.OS_EventWaitListInit                   0x08020f98   Section        0  os_core.o(i.OS_EventWaitListInit)
    i.OS_FlagInit                            0x08020fb4   Section        0  os_flag.o(i.OS_FlagInit)
    i.OS_InitEventList                       0x08021000   Section        0  os_core.o(i.OS_InitEventList)
    OS_InitEventList                         0x08021001   Thumb Code    70  os_core.o(i.OS_InitEventList)
    i.OS_InitMisc                            0x08021050   Section        0  os_core.o(i.OS_InitMisc)
    OS_InitMisc                              0x08021051   Thumb Code    44  os_core.o(i.OS_InitMisc)
    i.OS_InitRdyList                         0x080210a4   Section        0  os_core.o(i.OS_InitRdyList)
    OS_InitRdyList                           0x080210a5   Thumb Code    46  os_core.o(i.OS_InitRdyList)
    i.OS_InitTCBList                         0x080210ec   Section        0  os_core.o(i.OS_InitTCBList)
    OS_InitTCBList                           0x080210ed   Thumb Code    86  os_core.o(i.OS_InitTCBList)
    i.OS_InitTaskIdle                        0x08021154   Section        0  os_core.o(i.OS_InitTaskIdle)
    OS_InitTaskIdle                          0x08021155   Thumb Code    50  os_core.o(i.OS_InitTaskIdle)
    i.OS_InitTaskStat                        0x080211a4   Section        0  os_core.o(i.OS_InitTaskStat)
    OS_InitTaskStat                          0x080211a5   Thumb Code    50  os_core.o(i.OS_InitTaskStat)
    i.OS_MemClr                              0x080211f4   Section        0  os_core.o(i.OS_MemClr)
    i.OS_MemCopy                             0x08021206   Section        0  os_core.o(i.OS_MemCopy)
    i.OS_Sched                               0x0802121c   Section        0  os_core.o(i.OS_Sched)
    i.OS_SchedNew                            0x08021290   Section        0  os_core.o(i.OS_SchedNew)
    OS_SchedNew                              0x08021291   Thumb Code    26  os_core.o(i.OS_SchedNew)
    i.OS_StrCopy                             0x080212bc   Section        0  os_core.o(i.OS_StrCopy)
    i.OS_StrLen                              0x080212d8   Section        0  os_core.o(i.OS_StrLen)
    i.OS_TCBInit                             0x080212ec   Section        0  os_core.o(i.OS_TCBInit)
    i.OS_TaskIdle                            0x0802140c   Section        0  os_core.o(i.OS_TaskIdle)
    i.OS_TaskStat                            0x08021430   Section        0  os_core.o(i.OS_TaskStat)
    i.OS_TaskStatStkChk                      0x080214b8   Section        0  os_core.o(i.OS_TaskStatStkChk)
    i.OS_TaskStkClr                          0x080214f4   Section        0  os_task.o(i.OS_TaskStkClr)
    i.OV7725_init                            0x08021510   Section        0  ov7725.o(i.OV7725_init)
    OV7725_init                              0x08021511   Thumb Code   252  ov7725.o(i.OV7725_init)
    i.OnOffChannel                           0x08021690   Section        0  debug_word.o(i.OnOffChannel)
    i.Overall_standard_deviation             0x080216c0   Section        0  mmath.o(i.Overall_standard_deviation)
    i.PacketByte                             0x080217c0   Section        0  data_usart.o(i.PacketByte)
    i.PacketFloat                            0x080217dc   Section        0  data_usart.o(i.PacketFloat)
    i.PacketWord                             0x08021804   Section        0  data_usart.o(i.PacketWord)
    i.Perform                                0x08021830   Section        0  communication.o(i.Perform)
    i.PerformDbg                             0x080218b8   Section        0  dbgprotocal.o(i.PerformDbg)
    i.PhotoCopy                              0x08021900   Section        0  image.o(i.PhotoCopy)
    i.PointTracing                           0x08021930   Section        0  aiminstall.o(i.PointTracing)
    i.PopSpliceCmd                           0x080219e0   Section        0  statemachine.o(i.PopSpliceCmd)
    PopSpliceCmd                             0x080219e1   Thumb Code   102  statemachine.o(i.PopSpliceCmd)
    i.PosDetect                              0x08021a64   Section        0  electrode_testex.o(i.PosDetect)
    PosDetect                                0x08021a65   Thumb Code   276  electrode_testex.o(i.PosDetect)
    i.PostSpliceCmd                          0x08021b80   Section        0  statemachine.o(i.PostSpliceCmd)
    i.Power                                  0x08021c24   Section        0  dbgprotocal.o(i.Power)
    Power                                    0x08021c25   Thumb Code    58  dbgprotocal.o(i.Power)
    i.Print7725                              0x08021c74   Section        0  data7725.o(i.Print7725)
    i.PrintAim                               0x08021d44   Section        0  aimprint.o(i.PrintAim)
    i.PrintAimData                           0x08021ffc   Section        0  dataaim.o(i.PrintAimData)
    i.PrintAimOver                           0x080223bc   Section        0  aimprint.o(i.PrintAimOver)
    i.PrintAngle                             0x08022530   Section        0  aimprint.o(i.PrintAngle)
    i.PrintBuf3                              0x08022750   Section        0  usart3.o(i.PrintBuf3)
    i.PrintBuf5                              0x080227a4   Section        0  usart5.o(i.PrintBuf5)
    i.PrintCore                              0x080227f0   Section        0  datacore.o(i.PrintCore)
    i.PrintCurrent                           0x080229c4   Section        0  currenttracingex.o(i.PrintCurrent)
    PrintCurrent                             0x080229c5   Thumb Code    48  currenttracingex.o(i.PrintCurrent)
    i.PrintCurrentTest                       0x08022a10   Section        0  current_test.o(i.PrintCurrentTest)
    i.PrintCurrentTest                       0x08022ac0   Section        0  currenttracing.o(i.PrintCurrentTest)
    PrintCurrentTest                         0x08022ac1   Thumb Code    94  currenttracing.o(i.PrintCurrentTest)
    i.PrintFiberInfo                         0x08022b70   Section        0  aimprint.o(i.PrintFiberInfo)
    i.PrintLED                               0x08022c00   Section        0  led_thread.o(i.PrintLED)
    PrintLED                                 0x08022c01   Thumb Code    48  led_thread.o(i.PrintLED)
    i.PrintLightInfo                         0x08022c64   Section        0  datalight.o(i.PrintLightInfo)
    i.PrintPicture                           0x08022e14   Section        0  image.o(i.PrintPicture)
    i.PrintSpliceStack                       0x08022f4c   Section        0  statemachine.o(i.PrintSpliceStack)
    i.PushEnvironment                        0x08022fbc   Section        0  communicationex.o(i.PushEnvironment)
    PushEnvironment                          0x08022fbd   Thumb Code    56  communicationex.o(i.PushEnvironment)
    i.PushSpliceCmd                          0x08022ff4   Section        0  statemachine.o(i.PushSpliceCmd)
    i.RCC_AHB1PeriphClockCmd                 0x08023068   Section        0  stm32f4xx_rcc.o(i.RCC_AHB1PeriphClockCmd)
    i.RCC_AHB2PeriphClockCmd                 0x08023088   Section        0  stm32f4xx_rcc.o(i.RCC_AHB2PeriphClockCmd)
    i.RCC_APB1PeriphClockCmd                 0x080230a8   Section        0  stm32f4xx_rcc.o(i.RCC_APB1PeriphClockCmd)
    i.RCC_APB2PeriphClockCmd                 0x080230c8   Section        0  stm32f4xx_rcc.o(i.RCC_APB2PeriphClockCmd)
    i.RCC_ClearITPendingBit                  0x080230e8   Section        0  stm32f4xx_rcc.o(i.RCC_ClearITPendingBit)
    i.RCC_ClockSecuritySystemCmd             0x080230f4   Section        0  stm32f4xx_rcc.o(i.RCC_ClockSecuritySystemCmd)
    i.RCC_GetClocksFreq                      0x08023100   Section        0  stm32f4xx_rcc.o(i.RCC_GetClocksFreq)
    i.RCC_GetITStatus                        0x080231e8   Section        0  stm32f4xx_rcc.o(i.RCC_GetITStatus)
    i.RCC_IRQHandler                         0x08023200   Section        0  system_stm32f4xx.o(i.RCC_IRQHandler)
    i.RCC_ITConfig                           0x08023254   Section        0  stm32f4xx_rcc.o(i.RCC_ITConfig)
    i.ReadAll                                0x08023274   Section        0  objectcode.o(i.ReadAll)
    i.ReadFiber                              0x080232a4   Section        0  communication.o(i.ReadFiber)
    ReadFiber                                0x080232a5   Thumb Code     4  communication.o(i.ReadFiber)
    i.ReadFlash                              0x080232a8   Section        0  flash.o(i.ReadFlash)
    i.Read_Optical_Judge                     0x080232c8   Section        0  objectcode.o(i.Read_Optical_Judge)
    i.ReleaseData                            0x080232e8   Section        0  communication.o(i.ReleaseData)
    i.ReleasePhoto                           0x080232f4   Section        0  photo.o(i.ReleasePhoto)
    i.ResetObj                               0x08023304   Section        0  communicationex.o(i.ResetObj)
    ResetObj                                 0x08023305   Thumb Code    10  communicationex.o(i.ResetObj)
    i.ResetObjects                           0x0802330e   Section        0  objectcode.o(i.ResetObjects)
    i.Run                                    0x08023310   Section        0  aimfiberinfo.o(i.Run)
    Run                                      0x08023311   Thumb Code   104  aimfiberinfo.o(i.Run)
    i.Run                                    0x0802338c   Section        0  aiminstall.o(i.Run)
    Run                                      0x0802338d   Thumb Code    86  aiminstall.o(i.Run)
    i.Run                                    0x080233f0   Section        0  aimburr.o(i.Run)
    Run                                      0x080233f1   Thumb Code   126  aimburr.o(i.Run)
    i.Run                                    0x08023488   Section        0  fibercorequality.o(i.Run)
    Run                                      0x08023489   Thumb Code   128  fibercorequality.o(i.Run)
    i.Run                                    0x0802351c   Section        0  losscalculate.o(i.Run)
    Run                                      0x0802351d   Thumb Code  2108  losscalculate.o(i.Run)
    i.Run                                    0x08023da4   Section        0  preloss.o(i.Run)
    Run                                      0x08023da5   Thumb Code   244  preloss.o(i.Run)
    i.Run                                    0x08023ef8   Section        0  hall.o(i.Run)
    Run                                      0x08023ef9   Thumb Code   404  hall.o(i.Run)
    i.Run                                    0x0802410c   Section        0  fovgray.o(i.Run)
    Run                                      0x0802410d   Thumb Code   404  fovgray.o(i.Run)
    i.Run                                    0x08024308   Section        0  led_thread.o(i.Run)
    Run                                      0x08024309   Thumb Code   792  led_thread.o(i.Run)
    i.Run                                    0x08024698   Section        0  current_test.o(i.Run)
    Run                                      0x08024699   Thumb Code    40  current_test.o(i.Run)
    i.Run                                    0x080246cc   Section        0  currenttracing.o(i.Run)
    Run                                      0x080246cd   Thumb Code    40  currenttracing.o(i.Run)
    i.Run                                    0x08024700   Section        0  currenttracingex.o(i.Run)
    Run                                      0x08024701   Thumb Code    40  currenttracingex.o(i.Run)
    i.Run                                    0x08024734   Section        0  electrode_test.o(i.Run)
    Run                                      0x08024735   Thumb Code   348  electrode_test.o(i.Run)
    i.Run                                    0x080248c8   Section        0  electrode_testex.o(i.Run)
    Run                                      0x080248c9   Thumb Code   418  electrode_testex.o(i.Run)
    i.SCCB_GPIO_Config                       0x08024abc   Section        0  sccb.o(i.SCCB_GPIO_Config)
    SCCB_GPIO_Config                         0x08024abd   Thumb Code   104  sccb.o(i.SCCB_GPIO_Config)
    i.SCCBreadByte                           0x08024b3c   Section        0  sccb.o(i.SCCBreadByte)
    i.SCCBwriteByte                          0x08024ba4   Section        0  sccb.o(i.SCCBwriteByte)
    i.SDA_Input                              0x08024c60   Section        0  bmp085.o(i.SDA_Input)
    i.SDA_Output                             0x08024c8c   Section        0  bmp085.o(i.SDA_Output)
    i.SHT20_Calresult                        0x08024cbc   Section        0  sht20.o(i.SHT20_Calresult)
    i.SHT20_Input                            0x08024d78   Section        0  sht20.o(i.SHT20_Input)
    i.SHT20_Output                           0x08024db8   Section        0  sht20.o(i.SHT20_Output)
    i.SHT20_Start                            0x08024dfc   Section        0  sht20.o(i.SHT20_Start)
    i.SHT20_Stop                             0x08024e44   Section        0  sht20.o(i.SHT20_Stop)
    i.SHT20_calculate                        0x08024e88   Section        0  sht20.o(i.SHT20_calculate)
    i.SHT20_delay                            0x08024f18   Section        0  sht20.o(i.SHT20_delay)
    i.SHT20_init                             0x08024f38   Section        0  sht20.o(i.SHT20_init)
    i.SHT20_measure                          0x08024fa8   Section        0  sht20.o(i.SHT20_measure)
    i.SHT20_readbyte                         0x08025054   Section        0  sht20.o(i.SHT20_readbyte)
    i.SHT20_softreset                        0x080250fc   Section        0  sht20.o(i.SHT20_softreset)
    i.SHT20_writebyte                        0x08025114   Section        0  sht20.o(i.SHT20_writebyte)
    i.SYSCFG_EXTILineConfig                  0x08025208   Section        0  stm32f4xx_syscfg.o(i.SYSCFG_EXTILineConfig)
    i.SelectCamera                           0x08025248   Section        0  datacamera.o(i.SelectCamera)
    i.SelectObject                           0x080252d0   Section        0  objectcode.o(i.SelectObject)
    i.SelectSCCB                             0x08025358   Section        0  sccb.o(i.SelectSCCB)
    i.SendCommand                            0x080253cc   Section        0  data_usart.o(i.SendCommand)
    i.SendCommandEx                          0x08025400   Section        0  data_usart.o(i.SendCommandEx)
    i.SendFovGray                            0x08025448   Section        0  data_usart.o(i.SendFovGray)
    SendFovGray                              0x08025449   Thumb Code    80  data_usart.o(i.SendFovGray)
    i.SendInit                               0x080254a0   Section        0  communication.o(i.SendInit)
    SendInit                                 0x080254a1   Thumb Code    18  communication.o(i.SendInit)
    i.SendPackage                            0x080254c4   Section        0  communicationex.o(i.SendPackage)
    SendPackage                              0x080254c5   Thumb Code   328  communicationex.o(i.SendPackage)
    i.Send_LEDPwm                            0x08025628   Section        0  data_usart.o(i.Send_LEDPwm)
    Send_LEDPwm                              0x08025629   Thumb Code    32  data_usart.o(i.Send_LEDPwm)
    i.Send_LEDstate                          0x08025650   Section        0  data_usart.o(i.Send_LEDstate)
    Send_LEDstate                            0x08025651   Thumb Code    94  data_usart.o(i.Send_LEDstate)
    i.SetAimParam                            0x080256c4   Section        0  communication.o(i.SetAimParam)
    SetAimParam                              0x080256c5   Thumb Code    94  communication.o(i.SetAimParam)
    i.SetAimState                            0x0802572c   Section        0  aimdata.o(i.SetAimState)
    i.SetAnswerCamera                        0x080257c0   Section        0  data_usart.o(i.SetAnswerCamera)
    i.SetBinary                              0x080257d4   Section        0  binaryzation.o(i.SetBinary)
    i.SetCaptureSize                         0x08025808   Section        0  camera.o(i.SetCaptureSize)
    i.SetChannelInitState                    0x080258b0   Section        0  initapp.o(i.SetChannelInitState)
    i.SetChar                                0x080258d4   Section        0  image.o(i.SetChar)
    SetChar                                  0x080258d5   Thumb Code    24  image.o(i.SetChar)
    i.SetChar3                               0x080258ec   Section        0  usart3.o(i.SetChar3)
    i.SetEdgeParam                           0x08025958   Section        0  edgedetect.o(i.SetEdgeParam)
    i.SetFiberMode                           0x080259b0   Section        0  fiber.o(i.SetFiberMode)
    i.SetFrequency                           0x08025ab4   Section        0  led_ctrl.o(i.SetFrequency)
    SetFrequency                             0x08025ab5   Thumb Code   106  led_ctrl.o(i.SetFrequency)
    i.SetHallState                           0x08025b30   Section        0  hall.o(i.SetHallState)
    i.SetImageHead                           0x08025b74   Section        0  image.o(i.SetImageHead)
    SetImageHead                             0x08025b75   Thumb Code   122  image.o(i.SetImageHead)
    i.SetImageSize                           0x08025c10   Section        0  image.o(i.SetImageSize)
    i.SetInit_StateFlag                      0x08025c18   Section        0  initapp.o(i.SetInit_StateFlag)
    i.SetInited                              0x08025c24   Section        0  appdog.o(i.SetInited)
    i.SetObj                                 0x08025c74   Section        0  communicationex.o(i.SetObj)
    SetObj                                   0x08025c75   Thumb Code   114  communicationex.o(i.SetObj)
    i.SetObject                              0x08025d08   Section        0  objectcode.o(i.SetObject)
    i.SetObjectExist                         0x08025db8   Section        0  objectcode.o(i.SetObjectExist)
    i.SetPhotoType                           0x08025dba   Section        0  photo.o(i.SetPhotoType)
    i.SetSDA_IN                              0x08025dd0   Section        0  sccb.o(i.SetSDA_IN)
    SetSDA_IN                                0x08025dd1   Thumb Code    48  sccb.o(i.SetSDA_IN)
    i.SetSDA_OUT                             0x08025e0c   Section        0  sccb.o(i.SetSDA_OUT)
    SetSDA_OUT                               0x08025e0d   Thumb Code    54  sccb.o(i.SetSDA_OUT)
    i.SetSharp                               0x08025e50   Section        0  sharp.o(i.SetSharp)
    i.SetSimulateChannel                     0x08025e98   Section        0  debug_word.o(i.SetSimulateChannel)
    i.SetSubPixelThick                       0x08025ecc   Section        0  edgedetect.o(i.SetSubPixelThick)
    i.SetSysClock                            0x08025f80   Section        0  system_stm32f4xx.o(i.SetSysClock)
    SetSysClock                              0x08025f81   Thumb Code   414  system_stm32f4xx.o(i.SetSysClock)
    i.SetSysClockHSI                         0x08026134   Section        0  system_stm32f4xx.o(i.SetSysClockHSI)
    SetSysClockHSI                           0x08026135   Thumb Code   208  system_stm32f4xx.o(i.SetSysClockHSI)
    i.SetTestFlag                            0x08026214   Section        0  statemachine.o(i.SetTestFlag)
    i.SetTransportChannel                    0x08026220   Section        0  debug_word.o(i.SetTransportChannel)
    i.SetWorkState                           0x08026254   Section        0  taskcontrol.o(i.SetWorkState)
    i.Set_AnswerLed                          0x0802627c   Section        0  led_thread.o(i.Set_AnswerLed)
    i.Set_Core_LED                           0x08026288   Section        0  led_thread.o(i.Set_Core_LED)
    i.Set_LedRecave_Flag                     0x080262a4   Section        0  led_thread.o(i.Set_LedRecave_Flag)
    i.Set_Ledfirst                           0x080262b0   Section        0  led_thread.o(i.Set_Ledfirst)
    i.Set_Optical_Judge                      0x080262bc   Section        0  aimangletracing.o(i.Set_Optical_Judge)
    i.Set_Recave_Flag                        0x080262c8   Section        0  electrode_test.o(i.Set_Recave_Flag)
    i.SharpLiner                             0x080262d4   Section        0  sharpliner.o(i.SharpLiner)
    i.SharpPicture                           0x0802634c   Section        0  sharp.o(i.SharpPicture)
    i.Simulate                               0x0802636c   Section        0  dbgprotocal.o(i.Simulate)
    Simulate                                 0x0802636d   Thumb Code    36  dbgprotocal.o(i.Simulate)
    i.Simulate4                              0x080263a4   Section        0  taskcontrol.o(i.Simulate4)
    i.Simulate5                              0x080263a6   Section        0  communication.o(i.Simulate5)
    i.SpliceBad                              0x080263b8   Section        0  losscalculate.o(i.SpliceBad)
    SpliceBad                                0x080263b9   Thumb Code    26  losscalculate.o(i.SpliceBad)
    i.SpliceCmd                              0x080263dc   Section        0  data_usart.o(i.SpliceCmd)
    SpliceCmd                                0x080263dd   Thumb Code   116  data_usart.o(i.SpliceCmd)
    i.SpliceFail                             0x0802645c   Section        0  losscalculate.o(i.SpliceFail)
    SpliceFail                               0x0802645d   Thumb Code    26  losscalculate.o(i.SpliceFail)
    i.SpliceJudge                            0x08026480   Section        0  splice.o(i.SpliceJudge)
    i.SpliceResult                           0x080265b0   Section        0  communication.o(i.SpliceResult)
    SpliceResult                             0x080265b1   Thumb Code    36  communication.o(i.SpliceResult)
    i.Splice_EdgeDetect                      0x080265e8   Section        0  current_test.o(i.Splice_EdgeDetect)
    Splice_EdgeDetect                        0x080265e9   Thumb Code   498  current_test.o(i.Splice_EdgeDetect)
    i.Splice_EdgeDetect                      0x080267ec   Section        0  currenttracing.o(i.Splice_EdgeDetect)
    Splice_EdgeDetect                        0x080267ed   Thumb Code   574  currenttracing.o(i.Splice_EdgeDetect)
    i.Splice_EdgeDetect                      0x08026a50   Section        0  currenttracingex.o(i.Splice_EdgeDetect)
    Splice_EdgeDetect                        0x08026a51   Thumb Code   460  currenttracingex.o(i.Splice_EdgeDetect)
    i.StartCapture                           0x08026c5c   Section        0  cameradevice.o(i.StartCapture)
    i.StartSCCB                              0x08026c68   Section        0  sccb.o(i.StartSCCB)
    i.StopCameraThread                       0x08026cc4   Section        0  taskcamera.o(i.StopCameraThread)
    i.StopCapture                            0x08026cec   Section        0  cameradevice.o(i.StopCapture)
    i.StopObj                                0x08026d0c   Section        0  communicationex.o(i.StopObj)
    StopObj                                  0x08026d0d   Thumb Code    30  communicationex.o(i.StopObj)
    i.StopSCCB                               0x08026d44   Section        0  sccb.o(i.StopSCCB)
    i.Store_EdgeData                         0x08026d90   Section        0  currenttracing.o(i.Store_EdgeData)
    i.SubPixelDiameter                       0x08026e0c   Section        0  diameter.o(i.SubPixelDiameter)
    i.SubPixelLine                           0x08026fe4   Section        0  imagetools.o(i.SubPixelLine)
    i.SubPixelRowEx                          0x0802718c   Section        0  imagetools.o(i.SubPixelRowEx)
    i.SubPixel_Center                        0x08027404   Section        0  aimsubpixel.o(i.SubPixel_Center)
    i.SubPixel_CoverEx                       0x0802771c   Section        0  aimsubpixel.o(i.SubPixel_CoverEx)
    i.SubPixel_GetLine                       0x08027998   Section        0  diameter.o(i.SubPixel_GetLine)
    i.SystemInit                             0x08027af0   Section        0  system_stm32f4xx.o(i.SystemInit)
    i.System_Init                            0x08027b58   Section        0  main.o(i.System_Init)
    i.TASK_Camera                            0x08027bcc   Section        0  taskcamera.o(i.TASK_Camera)
    i.TASK_Control                           0x08027c54   Section        0  taskcontrol.o(i.TASK_Control)
    i.TASK_Debuger                           0x08027ca4   Section        0  dbgprotocal.o(i.TASK_Debuger)
    i.TASK_State                             0x08027ce8   Section        0  statemachine.o(i.TASK_State)
    i.TASK_User_Idle                         0x08027e4c   Section        0  taskidle.o(i.TASK_User_Idle)
    i.TASK_communication                     0x08027ee8   Section        0  taskcommunication.o(i.TASK_communication)
    i.TIM2_IRQHandler                        0x08027f30   Section        0  halldriver.o(i.TIM2_IRQHandler)
    i.TIM_ClearITPendingBit                  0x08028000   Section        0  stm32f4xx_tim.o(i.TIM_ClearITPendingBit)
    i.TIM_Cmd                                0x08028006   Section        0  stm32f4xx_tim.o(i.TIM_Cmd)
    i.TIM_CtrlPWMOutputs                     0x0802801e   Section        0  stm32f4xx_tim.o(i.TIM_CtrlPWMOutputs)
    i.TIM_GetITStatus                        0x0802803c   Section        0  stm32f4xx_tim.o(i.TIM_GetITStatus)
    i.TIM_ITConfig                           0x0802805e   Section        0  stm32f4xx_tim.o(i.TIM_ITConfig)
    i.TIM_OC2Init                            0x08028070   Section        0  stm32f4xx_tim.o(i.TIM_OC2Init)
    i.TIM_OC3Init                            0x08028114   Section        0  stm32f4xx_tim.o(i.TIM_OC3Init)
    i.TIM_TimeBaseInit                       0x080281b4   Section        0  stm32f4xx_tim.o(i.TIM_TimeBaseInit)
    i.Task_InitConfig                        0x08028238   Section        0  initapp.o(i.Task_InitConfig)
    i.TestLED                                0x080282e0   Section        0  communication.o(i.TestLED)
    TestLED                                  0x080282e1   Thumb Code    42  communication.o(i.TestLED)
    i.TiggerPackage                          0x08028314   Section        0  communicationex.o(i.TiggerPackage)
    TiggerPackage                            0x08028315   Thumb Code    52  communicationex.o(i.TiggerPackage)
    i.TransHandle                            0x08028350   Section        0  dbgprotocal.o(i.TransHandle)
    i.Transport                              0x08028400   Section        0  dbgprotocal.o(i.Transport)
    Transport                                0x08028401   Thumb Code    36  dbgprotocal.o(i.Transport)
    i.Transport1                             0x08028434   Section        0  ov7725.o(i.Transport1)
    i.Transport10                            0x080284bc   Section        0  memoryinner.o(i.Transport10)
    i.Transport2                             0x0802852c   Section        0  led_ctrl.o(i.Transport2)
    i.Transport4                             0x08028850   Section        0  taskcontrol.o(i.Transport4)
    i.Transport5                             0x08028a28   Section        0  communication.o(i.Transport5)
    i.Transport7                             0x08028a38   Section        0  aimprint.o(i.Transport7)
    i.Transport8                             0x08028aac   Section        0  electrode_test.o(i.Transport8)
    i.TurnOn_Camera                          0x08028bc0   Section        0  ov7725.o(i.TurnOn_Camera)
    i.UART5_IRQHandler                       0x08028c04   Section        0  usart5.o(i.UART5_IRQHandler)
    i.UART5_Init                             0x08028ccc   Section        0  usart5.o(i.UART5_Init)
    i.UART5_Simulate                         0x08028db0   Section        0  usart5.o(i.UART5_Simulate)
    i.USART3_IRQHandler                      0x08028df8   Section        0  usart3.o(i.USART3_IRQHandler)
    i.USART3_Init                            0x08028ec4   Section        0  usart3.o(i.USART3_Init)
    i.USART_ClearFlag                        0x08028fa8   Section        0  stm32f4xx_usart.o(i.USART_ClearFlag)
    i.USART_Cmd                              0x08028fba   Section        0  stm32f4xx_usart.o(i.USART_Cmd)
    i.USART_GetFlagStatus                    0x08028fd2   Section        0  stm32f4xx_usart.o(i.USART_GetFlagStatus)
    i.USART_ITConfig                         0x08028fec   Section        0  stm32f4xx_usart.o(i.USART_ITConfig)
    i.USART_Init                             0x08029038   Section        0  stm32f4xx_usart.o(i.USART_Init)
    i.USART_ReceiveData                      0x0802910c   Section        0  stm32f4xx_usart.o(i.USART_ReceiveData)
    i.UnusedInit                             0x08029118   Section        0  main.o(i.UnusedInit)
    UnusedInit                               0x08029119   Thumb Code   154  main.o(i.UnusedInit)
    i.UpdateAim                              0x080291c8   Section        0  aimdata.o(i.UpdateAim)
    i.UpdateCameraView                       0x080291dc   Section        0  aim0.o(i.UpdateCameraView)
    i.UpdateCurData                          0x08029270   Section        0  current_test.o(i.UpdateCurData)
    i.UpdateLossData                         0x080292b0   Section        0  losscalculate.o(i.UpdateLossData)
    i.VBUSTest                               0x080293ac   Section        0  usb.o(i.VBUSTest)
    i.Visible                                0x080293fc   Section        0  dbgprotocal.o(i.Visible)
    Visible                                  0x080293fd   Thumb Code    42  dbgprotocal.o(i.Visible)
    i.WriteAll                               0x0802943c   Section        0  objectcode.o(i.WriteAll)
    i.WriteFlash                             0x08029538   Section        0  flash.o(i.WriteFlash)
    i.Write_Optical_Judge                    0x080295dc   Section        0  objectcode.o(i.Write_Optical_Judge)
    i._GetPhoto                              0x080295fc   Section        0  photo.o(i._GetPhoto)
    _GetPhoto                                0x080295fd   Thumb Code    72  photo.o(i._GetPhoto)
    i._Init                                  0x08029664   Section        0  led_thread.o(i._Init)
    _Init                                    0x08029665   Thumb Code   376  led_thread.o(i._Init)
    i._ReleasePhoto                          0x08029894   Section        0  photo.o(i._ReleasePhoto)
    _ReleasePhoto                            0x08029895   Thumb Code    34  photo.o(i._ReleasePhoto)
    i.__ARM_fpclassify                       0x080298b6   Section        0  fpclassify.o(i.__ARM_fpclassify)
    i.__ARM_fpclassifyf                      0x080298e6   Section        0  fpclassifyf.o(i.__ARM_fpclassifyf)
    i.__hardfp_atanf                         0x0802990c   Section        0  atanf.o(i.__hardfp_atanf)
    i.__hardfp_fabs                          0x08029a6c   Section        0  fabs.o(i.__hardfp_fabs)
    i.__hardfp_pow                           0x08029a80   Section        0  pow.o(i.__hardfp_pow)
    i.__hardfp_sin                           0x0802a6d0   Section        0  sin.o(i.__hardfp_sin)
    i.__hardfp_sinf                          0x0802a798   Section        0  sinf.o(i.__hardfp_sinf)
    i.__hardfp_sqrt                          0x0802a928   Section        0  sqrt.o(i.__hardfp_sqrt)
    i.__ieee754_rem_pio2                     0x0802a9a8   Section        0  rred.o(i.__ieee754_rem_pio2)
    i.__kernel_cos                           0x0802ade0   Section        0  cos_i.o(i.__kernel_cos)
    i.__kernel_poly                          0x0802af50   Section        0  poly.o(i.__kernel_poly)
    i.__kernel_sin                           0x0802b048   Section        0  sin_i.o(i.__kernel_sin)
    i.__mathlib_dbl_divzero                  0x0802b178   Section        0  dunder.o(i.__mathlib_dbl_divzero)
    i.__mathlib_dbl_infnan                   0x0802b1a8   Section        0  dunder.o(i.__mathlib_dbl_infnan)
    i.__mathlib_dbl_infnan2                  0x0802b1bc   Section        0  dunder.o(i.__mathlib_dbl_infnan2)
    i.__mathlib_dbl_invalid                  0x0802b1d0   Section        0  dunder.o(i.__mathlib_dbl_invalid)
    i.__mathlib_dbl_overflow                 0x0802b1f0   Section        0  dunder.o(i.__mathlib_dbl_overflow)
    i.__mathlib_dbl_underflow                0x0802b210   Section        0  dunder.o(i.__mathlib_dbl_underflow)
    i.__mathlib_flt_infnan                   0x0802b230   Section        0  funder.o(i.__mathlib_flt_infnan)
    i.__mathlib_flt_invalid                  0x0802b238   Section        0  funder.o(i.__mathlib_flt_invalid)
    i.__mathlib_flt_underflow                0x0802b248   Section        0  funder.o(i.__mathlib_flt_underflow)
    i.__mathlib_rredf2                       0x0802b258   Section        0  rredf.o(i.__mathlib_rredf2)
    i._idle                                  0x0802b3ac   Section        0  statemachine.o(i._idle)
    _idle                                    0x0802b3ad   Thumb Code    58  statemachine.o(i._idle)
    i._is_digit                              0x0802b3f0   Section        0  __printf_wp.o(i._is_digit)
    i._sys_exit                              0x0802b3fe   Section        0  usart3.o(i._sys_exit)
    i.arrange                                0x0802b402   Section        0  memoryinner.o(i.arrange)
    i.arrange_free                           0x0802b430   Section        0  memoryinner.o(i.arrange_free)
    arrange_free                             0x0802b431   Thumb Code   430  memoryinner.o(i.arrange_free)
    i.bubble8                                0x0802b5e4   Section        0  mmath.o(i.bubble8)
    i.delay                                  0x0802b61e   Section        0  bmp085.o(i.delay)
    i.delayMs                                0x0802b63e   Section        0  bsp_delay.o(i.delayMs)
    i.delay_us                               0x0802b656   Section        0  bsp_delay.o(i.delay_us)
    i.elec_spark_notify1                     0x0802b670   Section        0  electrode_testex.o(i.elec_spark_notify1)
    i.exist                                  0x0802b6e0   Section        0  data_usart.o(i.exist)
    exist                                    0x0802b6e1   Thumb Code    56  data_usart.o(i.exist)
    i.fabs                                   0x0802b720   Section        0  fabs.o(i.fabs)
    i.filter_aa                              0x0802b738   Section        0  aimangletracing.o(i.filter_aa)
    i.fputc                                  0x0802b7be   Section        0  usart3.o(i.fputc)
    i.free_memory                            0x0802b7dc   Section        0  memoryinner.o(i.free_memory)
    free_memory                              0x0802b7dd   Thumb Code    70  memoryinner.o(i.free_memory)
    i.install                                0x0802b834   Section        0  data_usart.o(i.install)
    install                                  0x0802b835   Thumb Code   158  data_usart.o(i.install)
    i.lock_memory                            0x0802b8e0   Section        0  memoryinner.o(i.lock_memory)
    i.main                                   0x0802b93c   Section        0  main.o(i.main)
    i.noAck                                  0x0802badc   Section        0  sccb.o(i.noAck)
    i.print_memory                           0x0802bb40   Section        0  memoryinner.o(i.print_memory)
    i.readWord                               0x0802bbd0   Section        0  bmp085.o(i.readWord)
    i.read_7725                              0x0802bbee   Section        0  ov7725.o(i.read_7725)
    read_7725                                0x0802bbef   Thumb Code   114  ov7725.o(i.read_7725)
    i.shurk_memory                           0x0802bc60   Section        0  memoryinner.o(i.shurk_memory)
    shurk_memory                             0x0802bc61   Thumb Code    38  memoryinner.o(i.shurk_memory)
    i.sqrt                                   0x0802bc8c   Section        0  sqrt.o(i.sqrt)
    i.sum16                                  0x0802bcfa   Section        0  mmath.o(i.sum16)
    i.sum8                                   0x0802bd16   Section        0  mmath.o(i.sum8)
    i.wait                                   0x0802bd32   Section        0  bmp085.o(i.wait)
    i.write_7725                             0x0802bd44   Section        0  ov7725.o(i.write_7725)
    write_7725                               0x0802bd45   Thumb Code    80  ov7725.o(i.write_7725)
    locale$$code                             0x0802bd94   Section       44  lc_numeric_c.o(locale$$code)
    x$fpl$basic                              0x0802bdc0   Section       24  basic.o(x$fpl$basic)
    $v0                                      0x0802bdc0   Number         0  basic.o(x$fpl$basic)
    x$fpl$d2f                                0x0802bdd8   Section       98  d2f.o(x$fpl$d2f)
    $v0                                      0x0802bdd8   Number         0  d2f.o(x$fpl$d2f)
    x$fpl$dadd                               0x0802be3c   Section      336  daddsub_clz.o(x$fpl$dadd)
    $v0                                      0x0802be3c   Number         0  daddsub_clz.o(x$fpl$dadd)
    _dadd1                                   0x0802be4d   Thumb Code     0  daddsub_clz.o(x$fpl$dadd)
    x$fpl$dcheck1                            0x0802bf8c   Section       16  dcheck1.o(x$fpl$dcheck1)
    $v0                                      0x0802bf8c   Number         0  dcheck1.o(x$fpl$dcheck1)
    x$fpl$dcmpinf                            0x0802bf9c   Section       24  dcmpi.o(x$fpl$dcmpinf)
    $v0                                      0x0802bf9c   Number         0  dcmpi.o(x$fpl$dcmpinf)
    x$fpl$ddiv                               0x0802bfb4   Section      688  ddiv.o(x$fpl$ddiv)
    $v0                                      0x0802bfb4   Number         0  ddiv.o(x$fpl$ddiv)
    ddiv_entry                               0x0802bfbb   Thumb Code     0  ddiv.o(x$fpl$ddiv)
    x$fpl$dfix                               0x0802c264   Section       94  dfix.o(x$fpl$dfix)
    $v0                                      0x0802c264   Number         0  dfix.o(x$fpl$dfix)
    x$fpl$dfixu                              0x0802c2c4   Section       90  dfixu.o(x$fpl$dfixu)
    $v0                                      0x0802c2c4   Number         0  dfixu.o(x$fpl$dfixu)
    x$fpl$dflt                               0x0802c31e   Section       46  dflt_clz.o(x$fpl$dflt)
    $v0                                      0x0802c31e   Number         0  dflt_clz.o(x$fpl$dflt)
    x$fpl$dfltu                              0x0802c34c   Section       38  dflt_clz.o(x$fpl$dfltu)
    $v0                                      0x0802c34c   Number         0  dflt_clz.o(x$fpl$dfltu)
    x$fpl$dleqf                              0x0802c374   Section      120  dleqf.o(x$fpl$dleqf)
    $v0                                      0x0802c374   Number         0  dleqf.o(x$fpl$dleqf)
    x$fpl$dmul                               0x0802c3ec   Section      340  dmul.o(x$fpl$dmul)
    $v0                                      0x0802c3ec   Number         0  dmul.o(x$fpl$dmul)
    x$fpl$dnaninf                            0x0802c540   Section      156  dnaninf.o(x$fpl$dnaninf)
    $v0                                      0x0802c540   Number         0  dnaninf.o(x$fpl$dnaninf)
    x$fpl$dretinf                            0x0802c5dc   Section       12  dretinf.o(x$fpl$dretinf)
    $v0                                      0x0802c5dc   Number         0  dretinf.o(x$fpl$dretinf)
    x$fpl$drleqf                             0x0802c5e8   Section      108  drleqf.o(x$fpl$drleqf)
    $v0                                      0x0802c5e8   Number         0  drleqf.o(x$fpl$drleqf)
    x$fpl$drsb                               0x0802c654   Section       22  daddsub_clz.o(x$fpl$drsb)
    $v0                                      0x0802c654   Number         0  daddsub_clz.o(x$fpl$drsb)
    x$fpl$dsqrt                              0x0802c66c   Section      408  dsqrt_umaal.o(x$fpl$dsqrt)
    $v0                                      0x0802c66c   Number         0  dsqrt_umaal.o(x$fpl$dsqrt)
    x$fpl$dsub                               0x0802c804   Section      468  daddsub_clz.o(x$fpl$dsub)
    $v0                                      0x0802c804   Number         0  daddsub_clz.o(x$fpl$dsub)
    _dsub1                                   0x0802c815   Thumb Code     0  daddsub_clz.o(x$fpl$dsub)
    x$fpl$f2d                                0x0802c9d8   Section       86  f2d.o(x$fpl$f2d)
    $v0                                      0x0802c9d8   Number         0  f2d.o(x$fpl$f2d)
    x$fpl$fnaninf                            0x0802ca2e   Section      140  fnaninf.o(x$fpl$fnaninf)
    $v0                                      0x0802ca2e   Number         0  fnaninf.o(x$fpl$fnaninf)
    x$fpl$fpinit                             0x0802caba   Section       10  fpinit.o(x$fpl$fpinit)
    $v0                                      0x0802caba   Number         0  fpinit.o(x$fpl$fpinit)
    x$fpl$fretinf                            0x0802cac4   Section       10  fretinf.o(x$fpl$fretinf)
    $v0                                      0x0802cac4   Number         0  fretinf.o(x$fpl$fretinf)
    x$fpl$printf1                            0x0802cace   Section        4  printf1.o(x$fpl$printf1)
    $v0                                      0x0802cace   Number         0  printf1.o(x$fpl$printf1)
    x$fpl$retnan                             0x0802cad2   Section      100  retnan.o(x$fpl$retnan)
    $v0                                      0x0802cad2   Number         0  retnan.o(x$fpl$retnan)
    x$fpl$scalbn                             0x0802cb36   Section       92  scalbn.o(x$fpl$scalbn)
    $v0                                      0x0802cb36   Number         0  scalbn.o(x$fpl$scalbn)
    x$fpl$trapveneer                         0x0802cb92   Section       48  trapv.o(x$fpl$trapveneer)
    $v0                                      0x0802cb92   Number         0  trapv.o(x$fpl$trapveneer)
    .constdata                               0x0802cbc2   Section      512  code7725.o(.constdata)
    x$fpl$usenofp                            0x0802cbc2   Section        0  usenofp.o(x$fpl$usenofp)
    .constdata                               0x0802cdc2   Section       60  codeaim.o(.constdata)
    .constdata                               0x0802cdfe   Section       22  codecore.o(.constdata)
    .constdata                               0x0802ce14   Section       18  codelight.o(.constdata)
    .constdata                               0x0802ce26   Section      270  image.o(.constdata)
    .constdata                               0x0802cf34   Section       12  sharpdata.o(.constdata)
    sharp_operator                           0x0802cf34   Data          12  sharpdata.o(.constdata)
    .constdata                               0x0802cf40   Section       20  binarydata.o(.constdata)
    Binaryzation                             0x0802cf40   Data          20  binarydata.o(.constdata)
    .constdata                               0x0802cf54   Section       96  filter.o(.constdata)
    Filter                                   0x0802cf54   Data          96  filter.o(.constdata)
    .constdata                               0x0802cfb4   Section      208  data_usart.o(.constdata)
    cmd_list                                 0x0802cfb4   Data         208  data_usart.o(.constdata)
    .constdata                               0x0802d084   Section      104  initapp.o(.constdata)
    Init_Driver                              0x0802d084   Data          32  initapp.o(.constdata)
    Task_id                                  0x0802d0a4   Data           8  initapp.o(.constdata)
    RelationMap                              0x0802d0ac   Data          64  initapp.o(.constdata)
    .constdata                               0x0802d0ec   Section       32  imagetools.o(.constdata)
    bound0                                   0x0802d0ec   Data          16  imagetools.o(.constdata)
    bound1                                   0x0802d0fc   Data          16  imagetools.o(.constdata)
    .constdata                               0x0802d10c   Section       76  dbgprotocal.o(.constdata)
    cmd_list                                 0x0802d120   Data          56  dbgprotocal.o(.constdata)
    .constdata                               0x0802d158   Section      256  os_core.o(.constdata)
    .constdata                               0x0802d258   Section       40  _printf_hex_int.o(.constdata)
    uc_hextab                                0x0802d258   Data          20  _printf_hex_int.o(.constdata)
    lc_hextab                                0x0802d26c   Data          20  _printf_hex_int.o(.constdata)
    .constdata                               0x0802d280   Section       17  __printf_flags_wp.o(.constdata)
    maptable                                 0x0802d280   Data          17  __printf_flags_wp.o(.constdata)
    .constdata                               0x0802d298   Section      136  pow.o(.constdata)
    bp                                       0x0802d298   Data          16  pow.o(.constdata)
    dp_h                                     0x0802d2a8   Data          16  pow.o(.constdata)
    dp_l                                     0x0802d2b8   Data          16  pow.o(.constdata)
    L                                        0x0802d2c8   Data          48  pow.o(.constdata)
    P                                        0x0802d2f8   Data          40  pow.o(.constdata)
    .constdata                               0x0802d320   Section       48  cos_i.o(.constdata)
    C                                        0x0802d320   Data          48  cos_i.o(.constdata)
    .constdata                               0x0802d350   Section        8  qnan.o(.constdata)
    .constdata                               0x0802d358   Section      200  rred.o(.constdata)
    pio2s                                    0x0802d358   Data          48  rred.o(.constdata)
    twooverpi                                0x0802d388   Data         152  rred.o(.constdata)
    .constdata                               0x0802d420   Section       32  rredf.o(.constdata)
    twooverpi                                0x0802d420   Data          32  rredf.o(.constdata)
    .constdata                               0x0802d440   Section       40  sin_i.o(.constdata)
    S                                        0x0802d440   Data          40  sin_i.o(.constdata)
    .constdata                               0x0802d468   Section      148  bigflt0.o(.constdata)
    tenpwrs_x                                0x0802d468   Data          60  bigflt0.o(.constdata)
    tenpwrs_i                                0x0802d4a4   Data          64  bigflt0.o(.constdata)
    .conststring                             0x0802d4fc   Section        9  aimfiberinfo.o(.conststring)
    .conststring                             0x0802d508   Section        9  aiminstall.o(.conststring)
    .conststring                             0x0802d514   Section        7  aim1.o(.conststring)
    .conststring                             0x0802d51c   Section        7  aim2.o(.conststring)
    .conststring                             0x0802d524   Section        7  aim3.o(.conststring)
    .conststring                             0x0802d52c   Section       13  aimangletracing.o(.conststring)
    .conststring                             0x0802d53c   Section       13  aimburr.o(.conststring)
    .conststring                             0x0802d54c   Section       13  bim1.o(.conststring)
    .conststring                             0x0802d55c   Section       17  fibercorequality.o(.conststring)
    .conststring                             0x0802d570   Section        9  losscalculate.o(.conststring)
    .conststring                             0x0802d57c   Section        9  preloss.o(.conststring)
    .conststring                             0x0802d588   Section       13  hall.o(.conststring)
    .conststring                             0x0802d598   Section        9  fovgray.o(.conststring)
    .conststring                             0x0802d5a4   Section        8  led_thread.o(.conststring)
    .conststring                             0x0802d5ac   Section        9  current_test.o(.conststring)
    .conststring                             0x0802d5b8   Section       13  currenttracing.o(.conststring)
    .conststring                             0x0802d5c8   Section       15  currenttracingex.o(.conststring)
    .conststring                             0x0802d5d8   Section       13  electrode_testex.o(.conststring)
    .conststring                             0x0802d5e8   Section        5  statemachine.o(.conststring)
    locale$$data                             0x0802d610   Section       28  lc_numeric_c.o(locale$$data)
    __lcnum_c_name                           0x0802d614   Data           2  lc_numeric_c.o(locale$$data)
    __lcnum_c_start                          0x0802d61c   Data           0  lc_numeric_c.o(locale$$data)
    __lcnum_c_point                          0x0802d628   Data           0  lc_numeric_c.o(locale$$data)
    __lcnum_c_thousands                      0x0802d62a   Data           0  lc_numeric_c.o(locale$$data)
    __lcnum_c_grouping                       0x0802d62b   Data           0  lc_numeric_c.o(locale$$data)
    __lcnum_c_end                            0x0802d62c   Data           0  lc_numeric_c.o(locale$$data)
    .ARM.__AT_0x10000000                     0x10000000   Section    24321  imagedata.o(.ARM.__AT_0x10000000)
    ImageData1                               0x10000000   Data       24321  imagedata.o(.ARM.__AT_0x10000000)
    .ARM.__AT_0x10006000                     0x10006000   Section    24321  imagedata.o(.ARM.__AT_0x10006000)
    ImageData2                               0x10006000   Data       24321  imagedata.o(.ARM.__AT_0x10006000)
    .ARM.__AT_0x1000C000                     0x1000c000   Section    16384  memory.o(.ARM.__AT_0x1000C000)
    global_buffer                            0x1000c000   Data       16384  memory.o(.ARM.__AT_0x1000C000)
    .data                                    0x20000000   Section       32  objectcode.o(.data)
    _write_count                             0x20000000   Data           1  objectcode.o(.data)
    _pCore                                   0x20000004   Data           4  objectcode.o(.data)
    _pAim                                    0x20000008   Data           4  objectcode.o(.data)
    _pLight                                  0x2000000c   Data           4  objectcode.o(.data)
    _p7725                                   0x20000010   Data           4  objectcode.o(.data)
    _write_flag                              0x20000014   Data           1  objectcode.o(.data)
    pWriteLight                              0x20000018   Data           4  objectcode.o(.data)
    pWriteCore                               0x2000001c   Data           4  objectcode.o(.data)
    .data                                    0x20000020   Section       36  aimfiberinfo.o(.data)
    _answer_flag                             0x20000020   Data           1  aimfiberinfo.o(.data)
    _check_flag                              0x20000021   Data           1  aimfiberinfo.o(.data)
    Led_x_flag                               0x20000022   Data           2  aimfiberinfo.o(.data)
    Led_y_flag                               0x20000024   Data           2  aimfiberinfo.o(.data)
    .data                                    0x20000044   Section       40  aiminstall.o(.data)
    point_x                                  0x20000044   Data           8  aiminstall.o(.data)
    current_num                              0x2000004c   Data           1  aiminstall.o(.data)
    current_index                            0x2000004d   Data           1  aiminstall.o(.data)
    .data                                    0x2000006c   Section       28  aim1.o(.data)
    .data                                    0x20000088   Section       32  aim2.o(.data)
    .data                                    0x200000a8   Section       36  aim3.o(.data)
    filter                                   0x200000a8   Data           4  aim3.o(.data)
    filter_size                              0x200000ac   Data           1  aim3.o(.data)
    .data                                    0x200000cc   Section      100  aimangletracing.o(.data)
    Optical_Judge                            0x200000cc   Data           1  aimangletracing.o(.data)
    left_flag                                0x200000cd   Data           1  aimangletracing.o(.data)
    right_flag                               0x200000ce   Data           1  aimangletracing.o(.data)
    filter                                   0x200000d0   Data           4  aimangletracing.o(.data)
    filter_size                              0x200000d4   Data           1  aimangletracing.o(.data)
    Total_Cover_Difference_Value             0x200000da   Data           2  aimangletracing.o(.data)
    Total_Core_Difference_Value              0x200000dc   Data           2  aimangletracing.o(.data)
    Total_Left_Ratio                         0x200000de   Data           2  aimangletracing.o(.data)
    Total_Right_Ratio                        0x200000e0   Data           2  aimangletracing.o(.data)
    Total_Left_Core                          0x200000e2   Data           2  aimangletracing.o(.data)
    Total_Right_Core                         0x200000e4   Data           2  aimangletracing.o(.data)
    Total_Left_Cover                         0x200000e6   Data           2  aimangletracing.o(.data)
    Total_Right_Cover                        0x200000e8   Data           2  aimangletracing.o(.data)
    finish_flag                              0x200000ea   Data           1  aimangletracing.o(.data)
    Face_relative                            0x200000ec   Data           4  aimangletracing.o(.data)
    cam_dir                                  0x200000f0   Data           1  aimangletracing.o(.data)
    thick_x                                  0x200000f8   Data           1  aimangletracing.o(.data)
    thick_y                                  0x200000f9   Data           1  aimangletracing.o(.data)
    thick_x0                                 0x200000fa   Data           1  aimangletracing.o(.data)
    thick_y0                                 0x200000fb   Data           1  aimangletracing.o(.data)
    FIBEREDGE_RADIO2                         0x200000fc   Data           1  aimangletracing.o(.data)
    FILTER_SIZE                              0x200000fd   Data           1  aimangletracing.o(.data)
    flag                                     0x2000011c   Data           1  aimangletracing.o(.data)
    flag                                     0x2000011d   Data           1  aimangletracing.o(.data)
    flag_num                                 0x2000011e   Data           1  aimangletracing.o(.data)
    Left_Left_Cover                          0x20000120   Data           2  aimangletracing.o(.data)
    Left_Right_Cover                         0x20000122   Data           2  aimangletracing.o(.data)
    Right_Left_Cover                         0x20000124   Data           2  aimangletracing.o(.data)
    Right_Right_Cover                        0x20000126   Data           2  aimangletracing.o(.data)
    Left_Left_Ratio                          0x20000128   Data           2  aimangletracing.o(.data)
    Left_Right_Ratio                         0x2000012a   Data           2  aimangletracing.o(.data)
    Right_Left_Ratio                         0x2000012c   Data           2  aimangletracing.o(.data)
    Right_Right_Ratio                        0x2000012e   Data           2  aimangletracing.o(.data)
    .data                                    0x20000130   Section       48  aimburr.o(.data)
    OUTORCONTOUR_THRE                        0x20000130   Data           2  aimburr.o(.data)
    OUTORCONTOUR_CNT                         0x20000132   Data           2  aimburr.o(.data)
    BURR_HEIGHT                              0x20000134   Data           1  aimburr.o(.data)
    BURR_COUNT                               0x20000135   Data           1  aimburr.o(.data)
    limit                                    0x20000136   Data           2  aimburr.o(.data)
    width                                    0x20000138   Data           2  aimburr.o(.data)
    count                                    0x2000013a   Data           1  aimburr.o(.data)
    cam_index                                0x2000013b   Data           1  aimburr.o(.data)
    thick_x                                  0x2000013c   Data           1  aimburr.o(.data)
    thick_y                                  0x2000013d   Data           1  aimburr.o(.data)
    FIBEREDGE_RADIO2                         0x2000013e   Data           1  aimburr.o(.data)
    FILTER_SIZE                              0x2000013f   Data           1  aimburr.o(.data)
    Edge                                     0x20000140   Data           2  aimburr.o(.data)
    .data                                    0x20000160   Section       20  aimprint.o(.data)
    _dis1                                    0x20000160   Data           2  aimprint.o(.data)
    _dis2                                    0x20000162   Data           2  aimprint.o(.data)
    _dis3                                    0x20000164   Data           2  aimprint.o(.data)
    current_pos                              0x20000166   Data           1  aimprint.o(.data)
    centerL                                  0x20000168   Data           2  aimprint.o(.data)
    centerR                                  0x2000016a   Data           2  aimprint.o(.data)
    faceLL                                   0x2000016c   Data           2  aimprint.o(.data)
    faceLR                                   0x2000016e   Data           2  aimprint.o(.data)
    faceRL                                   0x20000170   Data           2  aimprint.o(.data)
    faceRR                                   0x20000172   Data           2  aimprint.o(.data)
    .data                                    0x20000174   Section        8  aimdata.o(.data)
    _state                                   0x20000178   Data           4  aimdata.o(.data)
    .data                                    0x2000017c   Section       18  newaimburr.o(.data)
    width                                    0x2000017c   Data           2  newaimburr.o(.data)
    left_error                               0x2000017e   Data           1  newaimburr.o(.data)
    right_error                              0x2000017f   Data           1  newaimburr.o(.data)
    left_num                                 0x20000180   Data           1  newaimburr.o(.data)
    right_num                                0x20000181   Data           1  newaimburr.o(.data)
    left_left_toal                           0x20000182   Data           2  newaimburr.o(.data)
    left_right_toal                          0x20000184   Data           2  newaimburr.o(.data)
    right_left_toal                          0x20000186   Data           2  newaimburr.o(.data)
    right_right_toal                         0x20000188   Data           2  newaimburr.o(.data)
    dat0                                     0x2000018a   Data           1  newaimburr.o(.data)
    dat1                                     0x2000018b   Data           1  newaimburr.o(.data)
    dat2                                     0x2000018c   Data           1  newaimburr.o(.data)
    dat3                                     0x2000018d   Data           1  newaimburr.o(.data)
    .data                                    0x20000190   Section       28  bim1.o(.data)
    .data                                    0x200001ac   Section       28  bim2.o(.data)
    .data                                    0x200001c8   Section       52  fibercorequality.o(.data)
    COREDIRTY_DEV                            0x200001c8   Data           1  fibercorequality.o(.data)
    COREDIRTY_FAC                            0x200001cc   Data           4  fibercorequality.o(.data)
    COREDIRTYLIMIT                           0x200001d0   Data           1  fibercorequality.o(.data)
    COVERDIRTYLIMIT                          0x200001d1   Data           1  fibercorequality.o(.data)
    COREBROKENLIMIT                          0x200001d2   Data           1  fibercorequality.o(.data)
    FILTER_FACE                              0x200001d3   Data           1  fibercorequality.o(.data)
    FILTER_FACE_GRAY                         0x200001d4   Data           1  fibercorequality.o(.data)
    count                                    0x200001d5   Data           1  fibercorequality.o(.data)
    cam_index                                0x200001d6   Data           1  fibercorequality.o(.data)
    thick_x                                  0x200001d7   Data           1  fibercorequality.o(.data)
    thick_y                                  0x200001d8   Data           1  fibercorequality.o(.data)
    FIBEREDGE_RADIO2                         0x200001d9   Data           1  fibercorequality.o(.data)
    FILTER_SIZE                              0x200001da   Data           1  fibercorequality.o(.data)
    Edge                                     0x200001dc   Data           2  fibercorequality.o(.data)
    .data                                    0x200001fc   Section        4  splice.o(.data)
    .data                                    0x20000200   Section       60  losscalculate.o(.data)
    _count                                   0x20000200   Data           1  losscalculate.o(.data)
    SpliceLoss_Count                         0x20000202   Data           2  losscalculate.o(.data)
    Count_SpliceOK                           0x20000204   Data           1  losscalculate.o(.data)
    Count_SpliceBad                          0x20000205   Data           1  losscalculate.o(.data)
    Count_SpliceFail                         0x20000206   Data           1  losscalculate.o(.data)
    Count_SpliceBubble                       0x20000207   Data           1  losscalculate.o(.data)
    LeftSpliceGray                           0x20000208   Data           8  losscalculate.o(.data)
    RightSpliceGray                          0x20000210   Data           8  losscalculate.o(.data)
    thick_x                                  0x20000218   Data           1  losscalculate.o(.data)
    thick_y                                  0x20000219   Data           1  losscalculate.o(.data)
    FIBEREDGE_RADIO                          0x2000021a   Data           1  losscalculate.o(.data)
    FIBEREDGE_RADIO2                         0x2000021b   Data           1  losscalculate.o(.data)
    FILTER_SIZE                              0x2000021c   Data           1  losscalculate.o(.data)
    .data                                    0x2000023c   Section       33  preloss.o(.data)
    _count                                   0x2000023c   Data           1  preloss.o(.data)
    flag                                     0x2000025c   Data           1  preloss.o(.data)
    .data                                    0x20000260   Section        4  diameter.o(.data)
    filter                                   0x20000260   Data           4  diameter.o(.data)
    .data                                    0x20000264   Section      100  imagedata.o(.data)
    .data                                    0x200002c8   Section        8  image.o(.data)
    _head                                    0x200002c8   Data           4  image.o(.data)
    _width                                   0x200002cc   Data           2  image.o(.data)
    _height                                  0x200002ce   Data           2  image.o(.data)
    .data                                    0x200002d0   Section        4  sharp.o(.data)
    pSharp                                   0x200002d0   Data           4  sharp.o(.data)
    .data                                    0x200002d4   Section        4  binaryzation.o(.data)
    pBinary                                  0x200002d4   Data           4  binaryzation.o(.data)
    .data                                    0x200002d8   Section        8  filterdelay.o(.data)
    val                                      0x200002d8   Data           8  filterdelay.o(.data)
    .data                                    0x200002e0   Section       16  filtermedian.o(.data)
    mlen                                     0x200002e0   Data           8  filtermedian.o(.data)
    mlenWord                                 0x200002e8   Data           8  filtermedian.o(.data)
    .data                                    0x200002f0   Section        4  usart3.o(.data)
    .data                                    0x200002f4   Section       12  data_usart.o(.data)
    DataOff                                  0x200002f4   Data           1  data_usart.o(.data)
    cam                                      0x200002f5   Data           1  data_usart.o(.data)
    turn_num                                 0x200002f8   Data           8  data_usart.o(.data)
    .data                                    0x20000300   Section       52  hall.o(.data)
    .data                                    0x20000334   Section        1  halldriver.o(.data)
    _count                                   0x20000334   Data           1  halldriver.o(.data)
    .data                                    0x20000335   Section        2  usb.o(.data)
    _state                                   0x20000335   Data           1  usb.o(.data)
    count                                    0x20000336   Data           1  usb.o(.data)
    .data                                    0x20000338   Section       52  fovgray.o(.data)
    .data                                    0x2000036c   Section       11  led_ctrl.o(.data)
    led_enabled                              0x2000036c   Data           1  led_ctrl.o(.data)
    light_enabled                            0x2000036d   Data           1  led_ctrl.o(.data)
    kind                                     0x20000376   Data           1  led_ctrl.o(.data)
    .data                                    0x20000378   Section       48  led_thread.o(.data)
    Answerled_flag                           0x20000378   Data           1  led_thread.o(.data)
    led_first                                0x20000380   Data           1  led_thread.o(.data)
    Core_LED_X                               0x20000382   Data           2  led_thread.o(.data)
    Core_LED_Y                               0x20000384   Data           2  led_thread.o(.data)
    Core_flag                                0x20000386   Data           2  led_thread.o(.data)
    white_percent                            0x20000388   Data           1  led_thread.o(.data)
    white                                    0x20000389   Data           1  led_thread.o(.data)
    led_offset                               0x2000038a   Data           1  led_thread.o(.data)
    Get_LedRecave_Flag                       0x2000038b   Data           1  led_thread.o(.data)
    .data                                    0x200003a8   Section       32  bmp085.o(.data)
    .data                                    0x200003c8   Section        9  sht20.o(.data)
    num                                      0x200003d0   Data           1  sht20.o(.data)
    .data                                    0x200003d4   Section       32  heap.o(.data)
    .data                                    0x200003f4   Section        4  memory.o(.data)
    outtime                                  0x200003f4   Data           2  memory.o(.data)
    init_flag                                0x200003f6   Data           1  memory.o(.data)
    init_val                                 0x200003f7   Data           1  memory.o(.data)
    .data                                    0x200003f8   Section        6  memoryinner.o(.data)
    free_count                               0x200003f8   Data           1  memoryinner.o(.data)
    lock_count                               0x200003f9   Data           1  memoryinner.o(.data)
    free_size                                0x200003fa   Data           2  memoryinner.o(.data)
    lock_size                                0x200003fc   Data           2  memoryinner.o(.data)
    .data                                    0x200003fe   Section       15  appdog.o(.data)
    _flag                                    0x200003fe   Data          15  appdog.o(.data)
    .data                                    0x2000040d   Section       10  initapp.o(.data)
    _init_flag                               0x2000040d   Data           8  initapp.o(.data)
    Init_StateFlag                           0x20000415   Data           1  initapp.o(.data)
    i                                        0x20000416   Data           1  initapp.o(.data)
    .data                                    0x20000418   Section       12  taskcommunication.o(.data)
    .data                                    0x20000424   Section      284  communication.o(.data)
    .data                                    0x20000540   Section       76  communicationex.o(.data)
    obj_off                                  0x20000540   Data           1  communicationex.o(.data)
    obj_length                               0x20000544   Data           4  communicationex.o(.data)
    obj_kind                                 0x20000548   Data           1  communicationex.o(.data)
    obj_index                                0x20000549   Data           1  communicationex.o(.data)
    obj_package_index                        0x2000054a   Data           1  communicationex.o(.data)
    obj_send_flag                            0x2000054b   Data           1  communicationex.o(.data)
    ex_command                               0x2000054c   Data          48  communicationex.o(.data)
    send_command                             0x2000057c   Data          16  communicationex.o(.data)
    .data                                    0x2000058c   Section        1  dbgprotocal.o(.data)
    ind                                      0x2000058c   Data           1  dbgprotocal.o(.data)
    .data                                    0x2000058e   Section       66  debug_word.o(.data)
    _debug_dog                               0x2000058e   Data           2  debug_word.o(.data)
    dbg_word                                 0x20000590   Data          63  debug_word.o(.data)
    change                                   0x200005cf   Data           1  debug_word.o(.data)
    .data                                    0x200005d0   Section       24  aim0.o(.data)
    width0                                   0x200005e4   Data           2  aim0.o(.data)
    width1                                   0x200005e6   Data           2  aim0.o(.data)
    .data                                    0x200005e8   Section        4  dcmi.o(.data)
    page_init                                0x200005e8   Data           1  dcmi.o(.data)
    page_passed                              0x200005e9   Data           1  dcmi.o(.data)
    .data                                    0x200005ec   Section       17  ov7725.o(.data)
    Count_Init                               0x200005fc   Data           1  ov7725.o(.data)
    .data                                    0x20000600   Section       24  sccb.o(.data)
    PinSDA                                   0x20000600   Data           2  sccb.o(.data)
    PortSDA                                  0x20000604   Data           4  sccb.o(.data)
    RccSDA                                   0x20000608   Data           4  sccb.o(.data)
    PinSCL                                   0x2000060c   Data           2  sccb.o(.data)
    PortSCL                                  0x20000610   Data           4  sccb.o(.data)
    RccSCL                                   0x20000614   Data           4  sccb.o(.data)
    .data                                    0x20000618   Section        9  camera.o(.data)
    photo                                    0x2000061c   Data           4  camera.o(.data)
    timeout                                  0x20000620   Data           1  camera.o(.data)
    .data                                    0x20000624   Section       12  taskcamera.o(.data)
    run_flag_out                             0x20000624   Data           1  taskcamera.o(.data)
    run_flag_in                              0x20000625   Data           1  taskcamera.o(.data)
    photo                                    0x20000628   Data           4  taskcamera.o(.data)
    .data                                    0x20000630   Section        5  taskidle.o(.data)
    .data                                    0x20000635   Section       16  stm32f4xx_rcc.o(.data)
    APBAHBPrescTable                         0x20000635   Data          16  stm32f4xx_rcc.o(.data)
    .data                                    0x20000648   Section       64  os_core.o(.data)
    .data                                    0x20000688   Section       24  edgedetect.o(.data)
    thick_x                                  0x20000688   Data           1  edgedetect.o(.data)
    thick_y                                  0x20000689   Data           1  edgedetect.o(.data)
    thick_x0                                 0x2000068a   Data           1  edgedetect.o(.data)
    thick_y0                                 0x2000068b   Data           1  edgedetect.o(.data)
    FIBEREDGE_RADIO                          0x2000068c   Data           1  edgedetect.o(.data)
    FIBEREDGE_RADIO2                         0x2000068d   Data           1  edgedetect.o(.data)
    FILTER_SIZE                              0x2000068e   Data           1  edgedetect.o(.data)
    dLine1                                   0x20000690   Data           4  edgedetect.o(.data)
    dLine2                                   0x20000694   Data           4  edgedetect.o(.data)
    dLine3                                   0x20000698   Data           4  edgedetect.o(.data)
    dLine4                                   0x2000069c   Data           4  edgedetect.o(.data)
    .data                                    0x200006a0   Section       36  current_test.o(.data)
    test_flag                                0x200006a0   Data           1  current_test.o(.data)
    .data                                    0x200006c4   Section       32  currenttracing.o(.data)
    flag_ask                                 0x200006c4   Data           1  currenttracing.o(.data)
    .data                                    0x200006e4   Section       32  currenttracingex.o(.data)
    flag_ask                                 0x200006e4   Data           1  currenttracingex.o(.data)
    .data                                    0x20000704   Section       84  electrode_test.o(.data)
    _count                                   0x20000738   Data           1  electrode_test.o(.data)
    get_elec_flag                            0x20000739   Data           1  electrode_test.o(.data)
    .data                                    0x20000758   Section       32  electrode_testex.o(.data)
    colum                                    0x20000758   Data           4  electrode_testex.o(.data)
    .data                                    0x20000778   Section        3  taskcontrol.o(.data)
    _state                                   0x20000778   Data           1  taskcontrol.o(.data)
    _state0                                  0x20000779   Data           1  taskcontrol.o(.data)
    _self_test_flag                          0x2000077a   Data           1  taskcontrol.o(.data)
    .data                                    0x2000077c   Section       37  statemachine.o(.data)
    node                                     0x2000077c   Data           4  statemachine.o(.data)
    _in                                      0x20000780   Data           1  statemachine.o(.data)
    _out                                     0x20000781   Data           1  statemachine.o(.data)
    test_flag                                0x20000782   Data           1  statemachine.o(.data)
    count                                    0x200007a0   Data           1  statemachine.o(.data)
    .bss                                     0x200007a8   Section     7360  main.o(.bss)
    STACK_CONTROL                            0x200007a8   Data        1024  main.o(.bss)
    STACK_STATE                              0x20000ba8   Data        2240  main.o(.bss)
    STACK_COMM                               0x20001468   Data        1024  main.o(.bss)
    STACK_DEBUG                              0x20001868   Data        1024  main.o(.bss)
    STACK_MIDLE                              0x20001c68   Data        1024  main.o(.bss)
    STACK_CAMERA                             0x20002068   Data        1024  main.o(.bss)
    .bss                                     0x20002468   Section      512  data7725.o(.bss)
    .bss                                     0x20002668   Section       60  dataaim.o(.bss)
    .bss                                     0x200026a4   Section       22  datacore.o(.bss)
    .bss                                     0x200026ba   Section       18  datalight.o(.bss)
    .bss                                     0x200026cc   Section       28  fiber.o(.bss)
    .bss                                     0x200026e8   Section       24  aiminstall.o(.bss)
    _install_point                           0x200026e8   Data          24  aiminstall.o(.bss)
    .bss                                     0x20002700   Section      120  aimangletracing.o(.bss)
    Left_Ratio                               0x20002700   Data          20  aimangletracing.o(.bss)
    Right_Ratio                              0x20002714   Data          20  aimangletracing.o(.bss)
    Core_Difference_Value                    0x20002728   Data          20  aimangletracing.o(.bss)
    Cover_Difference_Value                   0x2000273c   Data          20  aimangletracing.o(.bss)
    Core_Same_Value                          0x20002750   Data          20  aimangletracing.o(.bss)
    Cover_Same_Value                         0x20002764   Data          20  aimangletracing.o(.bss)
    .bss                                     0x20002778   Section      288  aimdata.o(.bss)
    .bss                                     0x20002898   Section       96  splice.o(.bss)
    .bss                                     0x200028f8   Section      192  losscalculate.o(.bss)
    Leftloss                                 0x200028f8   Data          16  losscalculate.o(.bss)
    Rightloss                                0x20002908   Data          16  losscalculate.o(.bss)
    LeftpAngle                               0x20002918   Data          16  losscalculate.o(.bss)
    RightpAngle                              0x20002928   Data          16  losscalculate.o(.bss)
    LeftCamCoreUp                            0x20002938   Data          32  losscalculate.o(.bss)
    LeftCamCoreDn                            0x20002958   Data          32  losscalculate.o(.bss)
    RightCamCoreUp                           0x20002978   Data          32  losscalculate.o(.bss)
    RightCamCoreDn                           0x20002998   Data          32  losscalculate.o(.bss)
    .bss                                     0x200029b8   Section    24321  imagedata.o(.bss)
    ImageData_copy                           0x200029b8   Data       24321  imagedata.o(.bss)
    .bss                                     0x200088bc   Section      112  filterdelay.o(.bss)
    rate                                     0x200088bc   Data          32  filterdelay.o(.bss)
    rate16                                   0x200088dc   Data          32  filterdelay.o(.bss)
    val16                                    0x200088fc   Data          16  filterdelay.o(.bss)
    limit16                                  0x2000890c   Data          16  filterdelay.o(.bss)
    valEx16                                  0x2000891c   Data          16  filterdelay.o(.bss)
    .bss                                     0x2000892c   Section       96  filteraverage.o(.bss)
    LEN                                      0x2000892c   Data          32  filteraverage.o(.bss)
    Sum                                      0x2000894c   Data          64  filteraverage.o(.bss)
    .bss                                     0x2000898c   Section      120  filtermedian.o(.bss)
    Mbuffer                                  0x2000898c   Data          40  filtermedian.o(.bss)
    MbufferWord                              0x200089b4   Data          80  filtermedian.o(.bss)
    .bss                                     0x20008a04   Section      552  usart3.o(.bss)
    uartrecv                                 0x20008a04   Data          36  usart3.o(.bss)
    uartsend                                 0x20008a28   Data         516  usart3.o(.bss)
    .bss                                     0x20008c2c   Section      104  usart5.o(.bss)
    uartrecv                                 0x20008c2c   Data          36  usart5.o(.bss)
    uartsend                                 0x20008c50   Data          68  usart5.o(.bss)
    .bss                                     0x20008c94   Section       40  data_usart.o(.bss)
    DataBuffer                               0x20008c94   Data          40  data_usart.o(.bss)
    .bss                                     0x20008cbc   Section       32  led_thread.o(.bss)
    .bss                                     0x20008cdc   Section       24  bmp085.o(.bss)
    .bss                                     0x20008cf4   Section     1000  memoryinner.o(.bss)
    .bss                                     0x200090dc   Section       50  communication.o(.bss)
    buffer                                   0x200090dc   Data          50  communication.o(.bss)
    .bss                                     0x2000910e   Section      512  communicationex.o(.bss)
    obj_buffer                               0x2000910e   Data         512  communicationex.o(.bss)
    .bss                                     0x2000930e   Section       20  dbgprotocal.o(.bss)
    buffer                                   0x2000930e   Data          20  dbgprotocal.o(.bss)
    .bss                                     0x20009324   Section       76  dcmi.o(.bss)
    DCMI_InitStructure                       0x20009324   Data          14  dcmi.o(.bss)
    DMA_InitStructure_DCMI                   0x20009334   Data          60  dcmi.o(.bss)
    .bss                                     0x20009370   Section     3636  os_core.o(.bss)
    .bss                                     0x2000a1a4   Section       80  subscribe.o(.bss)
    noti                                     0x2000a1e0   Data          20  subscribe.o(.bss)
    .bss                                     0x2000a1f4   Section       32  current_test.o(.bss)
    .bss                                     0x2000a214   Section       80  statemachine.o(.bss)
    _buf                                     0x2000a214   Data          80  statemachine.o(.bss)
    .bss                                     0x2000a264   Section       96  libspace.o(.bss)
    HEAP                                     0x2000a2c8   Section     5376  startup_stm32f4xx.o(HEAP)
    Heap_Mem                                 0x2000a2c8   Data        5376  startup_stm32f4xx.o(HEAP)
    STACK                                    0x2000b7c8   Section     5376  startup_stm32f4xx.o(STACK)
    Stack_Mem                                0x2000b7c8   Data        5376  startup_stm32f4xx.o(STACK)
    __initial_sp                             0x2000ccc8   Data           0  startup_stm32f4xx.o(STACK)
    .ARM.__AT_0x2001F600                     0x2001f600   Section     2560  dcmi.o(.ARM.__AT_0x2001F600)

    Global Symbols

    Symbol Name                              Value     Ov Type        Size  Object(Section)

    BuildAttributes$$THM_ISAv4$E$P$D$K$B$S$7EM$VFPi3$EXTD16$VFPS$VFMA$PE$A:L22UL41UL21$X:L11$S22US41US21$IEEE1$IW$USESV6$~STKCKD$USESV7$~SHL$OTIME$ROPI$IEEEX$EBA8$UX$STANDARDLIB$REQ8$PRES8$EABIv2 0x00000000   Number         0  anon$$obj.o ABSOLUTE
    __ARM_use_no_argv                        0x00000000   Number         0  main.o ABSOLUTE
    _printf_flags                            0x00000000   Number         0  printf_stubs.o ABSOLUTE
    _printf_return_value                     0x00000000   Number         0  printf_stubs.o ABSOLUTE
    _printf_sizespec                         0x00000000   Number         0  printf_stubs.o ABSOLUTE
    _printf_widthprec                        0x00000000   Number         0  printf_stubs.o ABSOLUTE
    __ARM_exceptions_init                     - Undefined Weak Reference
    __alloca_initialize                       - Undefined Weak Reference
    __arm_preinit_                            - Undefined Weak Reference
    __cpp_initialize__aeabi_                  - Undefined Weak Reference
    __cxa_finalize                            - Undefined Weak Reference
    __sigvec_lookup                           - Undefined Weak Reference
    __user_heap_extent                        - Undefined Weak Reference
    _atexit_init                              - Undefined Weak Reference
    _call_atexit_fns                          - Undefined Weak Reference
    _clock_init                               - Undefined Weak Reference
    _fp_trap_init                             - Undefined Weak Reference
    _fp_trap_shutdown                         - Undefined Weak Reference
    _get_lc_collate                           - Undefined Weak Reference
    _get_lc_ctype                             - Undefined Weak Reference
    _get_lc_monetary                          - Undefined Weak Reference
    _get_lc_time                              - Undefined Weak Reference
    _getenv_init                              - Undefined Weak Reference
    _handle_redirection                       - Undefined Weak Reference
    _initio                                   - Undefined Weak Reference
    _mutex_acquire                            - Undefined Weak Reference
    _mutex_free                               - Undefined Weak Reference
    _mutex_release                            - Undefined Weak Reference
    _printf_mbtowc                            - Undefined Weak Reference
    _printf_truncate_signed                   - Undefined Weak Reference
    _printf_truncate_unsigned                 - Undefined Weak Reference
    _rand_init                                - Undefined Weak Reference
